:020000040800F2
:1000000000140020A1010008D12A0008952500084D
:1000100000000000000000000000000000000000E0
:10002000000000000000000000000000CD2D0008CE
:100030000000000000000000D32A0008252E000860
:10004000B3010008B3010008B3010008B3010008C0
:10005000B3010008B3010008B3010008B3010008B0
:10006000B3010008AD080008BD08000895080008A5
:10007000B3010008B3010008B3010008B301000890
:10008000B3010008B3010008B3010008B301000880
:10009000B3010008B3010008B3010008B301000870
:1000A000B3010008B3010008B3010008DD36000801
:1000B000B3010008B3010008B301000800F002F822
:1000C00000F03EF80CA030C8083824182D18A246BD
:1000D000671EAB4654465D46AC4201D100F030F895
:1000E0007E460F3E0FCCB6460126334200D0FB1AA7
:1000F000A246AB4633431847903F0000B03F000094
:10010000103A02D378C878C1FAD8520701D330C860
:1001100030C101D504680C60704700000023002442
:1001200000250026103A01D378C1FBD8520700D32E
:1001300030C100D50B6070471FB51FBD10B510BD95
:1001400000F0DCF91146FFF7F7FF03F01AFE00F0AC
:10015000F4F903B4FFF7F2FF03BC00F0FBF9000071
:1001600080F308887047000070B505460C461646B7
:1001700002E00FCC0FC5103E102EFAD2082E02D38B
:1001800003CC03C5083E042E07D301CC01C5361F9E
:1001900003E021782970641C6D1C761EF9D270BDB5
:1001A0000748804707480047FEE7FEE7FEE7FEE70F
:1001B000FEE7FEE704480549054A064B7047000084
:1001C0009F2E0008BD000008000E00200014002033
:1001D0000010002000100020FEB5054610460C4619
:1001E000184373D0AE468C460020AD1A01469C41A0
:1001F00067D36646002701243D46B61A9D4102D3C7
:1002000013463A462124654676462F04360C3E4373
:100210002D0CB61A9D4104D3150C1B042B4312045C
:100220001034654676462F06360A3E432D0AB61A26
:100230009D4104D3150E1B022B4312020834654660
:1002400076462F0736093E432D09B61A9D4104D341
:10025000150F1B012B431201241D65467646AF077F
:10026000B6083E43AD08B61A9D4104D3950F9B00D6
:100270002B439200A41C65467646EF0776083E4362
:100280006D08B61A9D411AD392185B41641C16E0A2
:100290000018764665464941B71A9D410191009084
:1002A00009D36046B11A98418E4684460098019958
:1002B0000025401C6941DD0752082A435B08641E83
:1002C000E6D57246634603B0F0BDFFE70020014665
:1002D000C046C0462A462346F5E7F8B5042A2CD383
:1002E000830712D00B78491C0370401C521E8307F1
:1002F0000BD00B78491C0370401C521E830704D09E
:100300000B78491C0370401C521E8B079B0F05D0B5
:10031000C91ADF002023DE1B08C90AE0FFF724FF0B
:10032000F8BD1D4608C9FD401C46B4402C4310C012
:10033000121F042AF5D2F308C91A521EF0D40B7802
:10034000491C0370401C521EEAD40B78491C0370F0
:10035000401C012AE4D409780170F8BD01E004C012
:10036000091F0429FBD28B0701D50280801CC90715
:1003700000D00270704700290BD0C30702D0027072
:10038000401C491E022904D3830702D50280801C29
:10039000891EE3E70022EEE70022DFE700220309DF
:1003A0008B422CD3030A8B4211D300239C464EE090
:1003B00003460B433CD4002243088B4231D303094C
:1003C0008B421CD3030A8B4201D394463FE0C309FE
:1003D0008B4201D3CB01C01A524183098B4201D316
:1003E0008B01C01A524143098B4201D34B01C01A01
:1003F000524103098B4201D30B01C01A5241C30879
:100400008B4201D3CB00C01A524183088B4201D3E7
:100410008B00C01A524143088B4201D34B00C01AD3
:100420005241411A00D201465241104670475DE0E8
:10043000CA0F00D04942031000D34042534000226B
:100440009C4603098B422DD3030A8B4212D3FC2214
:10045000890112BA030A8B420CD3890192118B4293
:1004600008D3890192118B4204D389013AD09211A9
:1004700000E08909C3098B4201D3CB01C01A524164
:1004800083098B4201D38B01C01A524143098B422D
:1004900001D34B01C01A524103098B4201D30B0116
:1004A000C01A5241C3088B4201D3CB00C01A52413B
:1004B00083088B4201D38B00C01A5241D9D2430822
:1004C0008B4201D34B00C01A5241411A00D201465F
:1004D000634652415B10104601D34042002B00D5C9
:1004E0004942704763465B1000D3404201B500208B
:1004F000C046C04602BD704770477047754600F061
:1005000025F8AE46050069465346C008C00085463A
:1005100018B020B5FFF74EFE60BC00274908B6466C
:100520000026C0C5C0C5C0C5C0C5C0C5C0C5C0C502
:10053000C0C5403D49008D46704710B50446C046D1
:10054000C0462046FFF705FE10BD0000004870477A
:10055000A00D002001491820ABBEFEE726000200D6
:10056000704710B505E003780C7863400370401CB9
:10057000491C521EF7D210BD70B50E4604460578D0
:100580000322411CFFF7A9FEE5700421204600F07C
:1005900065F806492078895D484020706078607071
:1005A000A078A070E078E07070BD0000E83F00081F
:1005B000F0B585B0140006460F463DD0002E03D09E
:1005C00010226846FFF789FE2021204600F038F807
:1005D00010221A493846FFF7C4FF384600F0C9F820
:1005E0001021384600F0D6F8144D0D24E03D2001CE
:1005F000411910223846FFF7B4FF384600F040F8A2
:10060000384600F0B6F81021384600F0C3F8641EF2
:100610002406240EEBD1294610223846FFF7A1FF0D
:10062000002E09D0102231463846FFF79AFF1022DB
:1006300069463046FFF751FE05B0F0BDD0030020FB
:1006400010B50C460A4601460348FFF746FE214610
:10065000014802F017F910BDF002002030B5002269
:10066000064D08E0835C1C091B0724011B0F64195D
:10067000E35C8354521C8A42F4D330BDE83D000849
:10068000FEB507460024A000C51904222946684685
:10069000FFF723FE684600780E2100F0EFF90646CA
:1006A000684640780B2100F0E9F9464068468078BA
:1006B0000D2100F0E3F946406846C078092100F0BA
:1006C000DDF94640684606710078092100F0D6F948
:1006D0000646684640780E2100F0D0F9464068464C
:1006E00080780B2100F0CAF946406846C0780D2199
:1006F00000F0C4F946406846467100780D2100F0CC
:10070000BDF9064668464078092100F0B7F9464031
:10071000684680780E2100F0B1F946406846C078FE
:100720000B2100F0ABF946406846867100780B213A
:1007300000F0A4F90646684640780D2100F09EF9C5
:10074000464068468078092100F098F9464068469E
:10075000C0780E2100F092F946406846C6712846DE
:10076000042201A9FFF7B9FD641CE4B2042C8AD36A
:10077000FEBD10B504460322012102F028FB02222F
:100780001146204602F023FB01220321204602F0FD
:100790001EFB10BD30B50022064D08E0835C1C092D
:1007A0001B0724011B0F6419E35C8354521C8A420B
:1007B000F4D330BDE83E000810B50022D243084B08
:1007C00007E0047854402406A40D1C59120A624024
:1007D000401C0C46491E89B2002CF2D1D04310BDFA
:1007E0001004002030B50A4B0A4C002108460022B4
:1007F000C50702D04008584000E04008521C082AB3
:10080000F6D38A00491CA050FF29EFD930BD000063
:100810002083B8ED1004002010B5164CE069800765
:1008200004D5606A206A022108432062E069C0069C
:100830001ED5114801F09FFB206A10210843206259
:10084000606A0E480E49007840580E4C0E49201A36
:1008500080B20880A04206D2012149020B4800F074
:10086000F5FB01F0D7FE22460949034801F002FEDC
:1008700010BD0000003801409C010020F63F000838
:100880000400024032040000640000200004005014
:100890004008002010B5034800F076F9024800F047
:1008A00073F910BDDC0000203C01002010B50248A7
:1008B00000F06AF910BD00003002002010B50248B7
:1008C00000F062F910BD000090020020F8B5044667
:1008D0000668406C0D4F8508F0B2AD001421083851
:1008E000FFF75CFDBE4203D209496918A16404E028
:1008F00007491C316918C01DA16405498031E164B4
:10090000C106C90E012088402065F8BD08040240D8
:10091000000802400179084B4906490E8A00D218A6
:100920004265054A4432491E82658A07920F0121B9
:100930009140C16570470000FC08024030B5C46CAE
:10094000056D6560446D002C02D0846DC56D6560D9
:10095000446C1C252C400125A540046C656004688E
:1009600063608368102B036803D099600068C260DD
:1009700030BD9A600068C16030BD72B6FEE700000D
:1009800003494A6901231B04184302434A61704723
:100990000020024010B5084C6269084B1A40012340
:1009A0005B03042801D01A4300E09A43C8000449BD
:1009B00010430843606110BD0020024007E0FFFFC4
:1009C0000200010030B505494C6901252C434C61FA
:1009D0000260BFF36F8F436030BD00000020024013
:1009E00030B50B4C002263690125AD042B436361D4
:1009F000EFF3108372B620C9521C20C0D2B2402A35
:100A0000F9D320698003800FFBD183F3108830BDB8
:100A100000200240F8B5044600F026FB03260546F8
:100A20003604124F06E0601C04D000F01DFB401B92
:100A3000A04213D238693042F5D138690C490840D8
:100A40000C4939610CD00C4948600120F8BD601C8C
:100A500006D000F009FB401BA04201D30320F8BDE3
:100A600038694003F3D40020F8BD000000200240A4
:100A7000FAC30000FBC30000840D002010B5002362
:100A80001A46CC0700D043404400000601D51B2085
:100A900000E000204440521C4908D2B2E0B2082ACB
:100AA000EFD3184610BD70B5002808D0014620319C
:100AB0004A790023022A04D00422C2630B71012068
:100AC00070BD0268146864086400146002681468E9
:100AD0000E25AC431460826C1568FF240134A543D5
:100AE0001560426C1C252A4001252E469640026C5A
:100AF0005660C26C066D5660426D002A05D01668BD
:100B0000A6431660C26D806D42604D710B7100206E
:100B100070BD70B50024014620314A79022A03D005
:100B20000421C16301242AE0026813685B085B00AA
:100B30001360026813680E25AB431360826C15685E
:100B4000FF2301339D431560426C1C252A4001257B
:100B50002E469640026C5660C26C066D5660426D21
:100B6000002A05D016689E431660826DC36D5360DF
:100B70004D7100220A71816B002900D08847204600
:100B800070BDC06B70470000F0B4016C0C68016868
:100B90000B68456C1C26042235401746AF4027429F
:100BA0000ED05F070CD50B689B0602D40B689343ED
:100BB0000B60416C31408A40016C4A60016B24E05B
:100BC0000227AF40024627402032002F21D09F0746
:100BD0001FD50B689B0605D40B680A24A3430B6042
:100BE00001215171174B01689942436C04D933407C
:100BF00002219940144B04E0334002219940114BEB
:100C0000803B596000211171C16A002918D0F0BCE5
:100C100008470827AF40274212D01B0710D50B68A2
:100C20000E24A3430B60436C012133400C469C40CF
:100C3000036C5C60C163517100211171416BE4E789
:100C4000F0BC7047800002400004024070B5040010
:100C50000CD02D48256885420AD22C48142128182A
:100C6000FFF79CFB8000606429480BE0012070BD09
:100C70002548142140422818FFF790FB800060644B
:100C800021480838206402202646203670712868E2
:100C9000204908402860A168E06862690143206932
:100CA00010430143A0690143E0690143206A014305
:100CB00020680268114301602046FFF707FE01210A
:100CC000A06889030025884200D165602079A16C65
:100CD0004006400E0860E06C216D41606068401E77
:100CE000032808D82046FFF715FE606D0560A06D4B
:100CF000E16D416002E06565A565E565E56301209C
:100D000070713571002070BD08040240F8FFFDBF0E
:100D1000000002400F80FFFFF8B504468C462030EB
:100D20000179002501290BD00126067147790021A0
:100D3000012F07D08022E263017101252846F8BD0A
:100D40000220F8BD02274771E16320680168490865
:100D50004900016061462046FFF7F0FD206B002846
:100D60002068016801D00E2205E004229143016051
:100D7000206801680A2211430160A06C0168084ADA
:100D8000C90302D5016811430160606D002802D0DB
:100D90000168114301602068016831430160CDE7BB
:100DA0000001000070B5044600F05EF90546601CC5
:100DB00002D004480078241800F056F9401BA042E5
:100DC000FAD370BD68000020F8B51E4F044638788D
:100DD0000E4601280AD001203870002078607D205E
:100DE000C000FFF717FE002802D028E00220F8BD5F
:100DF0002168042904D00021C9433160A56814E0AA
:100E00006068FFF7BDFD7D20C000FFF703FE16E020
:100E100029466068FFF7BEFD7D20C000FFF7FAFDA0
:100E2000002801D0356005E06D1CE268A1688918D2
:100E3000A942EDD804494A6902239A434A61002134
:100E40003970F8BD840D00200020024010B57D20CF
:100E50000124C000FFF7DEFD054948698A041043FC
:100E600048614869002800DA0024204610BD0000CF
:100E700000200240F0B51FB4144E054630781446E9
:100E800001280AD00120307000277D20C000776043
:100E9000FFF7C0FD002803D010E0022005B0F0BD30
:100EA000012D0DD021460198FFF79AFD7D20C0004D
:100EB000FFF7B0FD06494A69AA434A613770EDE77A
:100EC0002246039B0198FFF77DFDEFE7840D00208C
:100ED00000200240064900204A69002A07DA054A34
:100EE0008A60054A8A604969002900DA0120704752
:100EF0000020024023016745AB89EFCDF0B5002209
:100F000093E0012595402B407ED00C79A407A40FD7
:100F1000012C01D0022C10D1866854000327A74071
:100F2000BE43CF68A740374387604468AC430D7920
:100F3000ED06ED0F9540254345600C79E443A40789
:100F400008D0C56854000326A640B5438E68A64065
:100F50002E43C6600C79A407A40F022C0CD1D40830
:100F6000A40027183D6A5407E40E0F26A640B54397
:100F70000E69A6402E433E62056854000326A64033
:100F8000B5430E79B607B60FA6402E4306604C68EF
:100F9000A403A40F48D09508274CAD002F193D6E2F
:100FA0009407E40E0F26A640B54305263607B04247
:100FB00001D1002614E0214EB04201D101260FE0FC
:100FC0001F4EB04201D102260AE01E4EB04201D1AE
:100FD000032605E01C4EB04201D1042600E00526A0
:100FE000A6402E43144D3E662C684E689C43F60284
:100FF00000D51C432C606C684E689C43B60200D53B
:101000001C436C600C4D00E00EE080356C684E684F
:101010009C43B60300D51C436C602C684E689C430F
:10102000F60300D51C432C60521C0B681C46D440B0
:1010300000D066E7F0BD0000001802400004005038
:1010400000080050000C0050001000504269134688
:101050000B401B0491430B4383617047002A01D06E
:101060008161704781627047014880687047000065
:101070006800002001480069704700008075FF1F6C
:1010800001484069704700008075FF1F0148806972
:10109000704700008075FF1F024881680278891838
:1010A000816070476800002010B50848002401687E
:1010B000821511430160022000F00AF8002801D0D7
:1010C000012401E000F028F8204610BD0020024075
:1010D00070B50F4E002431780546002915D07D20CB
:1010E000C000FFF75BF901460A480068FFF756F9B0
:1010F00000F0C0FE002808D1042D06D200222946A7
:10110000401E00F02DF8756000E00124204670BDFF
:10111000680000207400002008B50A480168012218
:101120001143016000681040009006484038C26BCF
:1011300001040A43C263C06B08400090C81400F069
:101140008FFE08BD40100240002805DBC106C90E15
:1011500001208840014908607047000000E100E07C
:1011600010B502F035FD10BD10B50F4C21680322FB
:101170005202914301432160C11FFF39FA390ED158
:101180000A480621006848430949FFF707F9401C4F
:1011900002E0002805D0401E61694905F9D400200D
:1011A00010BD032010BD000000700040740000203E
:1011B00040420F00FEB500260446009600689D4D93
:1011C0009D4F800354D500200290F86BC00008D4D6
:1011D000F96BA8050143F963F96B01400120019106
:1011E0000290964A1068911508431060FFF73CFF83
:1011F000019007E0FFF738FF0199401A022801D952
:1012000003262CE08D480068C005F3D5002E26D1BA
:10121000E8690321090208400FD0216C81420CD0FB
:10122000E86903210902EA698843012109040A43A4
:10123000EA61EA698A43EA61E861C0077ED0FFF7A4
:1012400013FF019006E0FFF70FFF0199411A7C4858
:101250008142D5D8E8698007F5D5002E6ED000967A
:101260000298002804D0F86B012109078843F8632D
:101270002078C00705D0686961688008800008434D
:10128000686120780C268007002804DA6869A16864
:10129000B043084368612078400705D5686930216C
:1012A0008843E168084368612078C00606D568690C
:1012B0000321890288432169084368612088C004AA
:1012C00006D568690321090288436169084368619A
:1012D0002088800506D56869032189048843A16AAE
:1012E000084368612088400506D56869032109051F
:1012F0008843E16A084368612078800606D56869FA
:10130000032109038843A1690843686120784006E6
:1013100006D56869032189038843E1690843686148
:101320002088400410D56869216B8000800808433C
:1013300068610121206B8907884200E038E003D111
:10134000F86889130843F8602068000305D56869C8
:1013500040218843616B08436861206881023948F5
:101360000BD56A698110A36B8A431A436A61A26B29
:101370008A4202D1F9680143F960216849020AD51D
:101380006969E26B814311436961E16B814202D17A
:10139000F9680143F9602188090516D5A969226A0F
:1013A000890889001143A961216A012908D00CE04C
:1013B000E869032109028843216C0843E8614FE78B
:1013C000F968012212041143F960218889040CD5BF
:1013D000A969626AB1431143A961616A042904D110
:1013E000F968012212041143F9602168C9010ED580
:1013F000A969032212039143626C1143A96101227E
:10140000616C5203914202D1F9680143F96021688D
:1014100089010DD5A969032212029143A26C1143DF
:10142000A961A26CD11FF93902D1F9680143F960B1
:101430000098FEBD401002400010024000700040C5
:101440008813000000000001F8B50D46040044D0E8
:101450004D4800684007400FA84214D24A4F3868F0
:10146000C008C00028433860FFF7FEFD064605E0CF
:10147000FFF7FAFD811B4548814260D83868400774
:10148000400FA842F4D12068414E81070DD5400796
:1014900004D5B068072109030843B060B0680F2184
:1014A00009028843A1680843B0602078C00731D0A2
:1014B000606801280AD002280BD000280FD03449D8
:1014C000403103280ED0C969890704E031688903D7
:1014D00001E031688901002906DB0120F8BD31688F
:1014E0004905F8E7096AEFE7B168C908C90001438F
:1014F000B160FFF7B9FD074605E0FFF7B5FDC11B79
:10150000224881421BD8B068382108406168C90070
:101510008842F2D11C4801684907490FA94216D9EF
:101520000168C908C90029430160FFF79DFD07460E
:1015300007E0FFF799FDC11B1448814201D9032040
:10154000F8BD114800684007400FA842F1D120784B
:10155000400706D5B168072000038143E0680143D6
:10156000B16000F031F8B1683C2289091140094AA4
:10157000515CC906C90EC8400749086007480068A1
:10158000FFF7A6FDF8BD0000002002408813000010
:101590000010024028400008740000206C00002069
:1015A0000648074900688968064A4904490F8900C6
:1015B000515CC906C90EC840704700007400002085
:1015C000001002406840000810B5204CA068204A76
:1015D0008006400F16D0A0688006410F50100129E8
:1015E0000FD0A1688906490F022912D0A068800691
:1015F000400F042823D0A0688006400F032821D084
:10160000002010BD206801218004400F8140104659
:1016100012E0E1688B07E1689B0F4906490F491CFE
:10162000032B00D01046FEF7B9FEE1684904490ECD
:101630004843E168490F491CFEF7B0FE10BD012088
:10164000C00310BD7D20000210BD0000001002404C
:101650000024F400F8B504007ED020783827C007B5
:10166000FE4E002845D0B068F16838408907890FE0
:10167000102802D008280AD001E0032907D0012150
:1016800060680904884209D13068084314E0306872
:1016900080032ED560680028DED02AE005230122D1
:1016A0001B0492049842306802D110433060EBE78B
:1016B00088433060306890433060606800280CD008
:1016C000FFF7D2FC054604E0FFF7CEFC401B642880
:1016D00073D830688003F7D50BE0FFF7C5FC0546EB
:1016E00004E0FFF7C1FC401B6428F1D83068800398
:1016F000F7D42078800769D5B068F16838408A0748
:101700000721920FC902102802D0002813D001E04F
:10171000022A10D0E068002846D03068884321694A
:10172000084330603168FF20013001433160FFF72A
:101730009BFC05462CE03268520502D5E268002A7F
:101740008AD072687F231B029A4363691B021A4383
:101750007260002810D100E08DE030688843216974
:1017600008433060306801218004400F8140BC484C
:10177000FEF714FEBB490860BB480068FFF7A8FCF1
:10178000002878D122E0FFF76FFC401B02289FD889
:1017900030684005F7D570687F2109028843616988
:1017A00009020843706011E03168FF200130814375
:1017B0003160FFF759FC054605E0E2E0FFF754FC15
:1017C000401B022884D830684005F7D42078A74D04
:1017D00000072ED5B0688006400F03280AD0A06904
:1017E0000028286A16D0012108432862FFF73CFC34
:1017F00007460BE0286A80071BD5A06900289FD008
:1018000017E0FFF731FCC01B0228C0D8286A800708
:10181000F7D50EE0400840002862FFF725FC074698
:1018200004E0FFF721FCC01B0228B0D8286A80071B
:10183000F7D4207840076DD500200090B06880066E
:10184000400F042818D0F06BC00008D4F06B0121C1
:1018500009070843F063F06B0840012000908448BA
:101860000168C90518D4026881150A430260FFF7B0
:10187000FBFB07460CE083E0E86980074AD5A068D7
:1018800000287DD046E0FFF7EFFBC01B022878D888
:1018900077480068C005F6D5A068012810D004215B
:1018A0000528E86911D040084000E861E8698843EC
:1018B000E861A068002818D0FFF7D6FB074610E0C3
:1018C000E96901200143E961F3E70843E861E86958
:1018D00001210843ECE7FFF7C7FBC11B65488142C4
:1018E0004FD8E8698007F6D50CE0FFF7BDFB074647
:1018F00005E0FFF7B9FBC11B5E4881427FD8E8696C
:101900008007F6D40098002804D0F06B0121090765
:101910008843F0632078800622D50120E1698005A4
:10192000002931680ED001433160FFF79DFB054669
:1019300004E0FFF799FB401B022860D830680002E2
:10194000F7D50DE081433160FFF78EFB054604E0DB
:10195000FFF78AFB401B022851D830680002F7D4F9
:10196000206A002845D0B1688906490F022950D065
:1019700001273F060228306808D0B843306001E0F4
:101980007FE03CE0FFF770FB04463AE0B84330608C
:10199000FFF76AFB054604E0FFF766FB401B0228E1
:1019A0002DD830688001F7D4A16A606AE26A0843E2
:1019B000216B120211430843616B0843A16B08437A
:1019C000F1682D4A11400843F060306838433060B8
:1019D000F068012109070843F060FFF745FB044662
:1019E00004E0FFF741FB001B022808D830688001A3
:1019F000F7D548E0FFF738FB001B022801D9032088
:101A0000F8BD30688001F5D4F0681C490840F060EA
:101A100039E00128F4D0F068626A8107890F9142A9
:101A20002FD17021A26A014091422AD17F21E26A1E
:101A3000090201401202914223D11F214904226B65
:101A4000014091421DD107214906626B014091423C
:101A500017D1400FA16B4007884211E000100240EF
:101A60000024F400740000206C00002040100240AC
:101A700000700040881300008C80C111FCFFFEEE56
:101A800001D00120F8BD0020F8BDF8B504000CD04D
:101A9000606A002600280AD0266166612546403526
:101AA000A662687F002808D00BE00120F8BD6168BD
:101AB000C81FFD38F2D0E661F0E72E77204600F02F
:101AC0005BF802226A77206801684023994301602D
:101AD0000723E1681B02994201D9002001E001209F
:101AE00000030F273F02B94202D0994200D0A662FC
:101AF000FF236168053319402127A368BF023B40DB
:101B0000194323691340227D1943D207D20F114391
:101B10000123A2695B021A401143E26938231A408B
:101B20001143226A80231A401143A26A9B011A4082
:101B3000114322681160A1690422090C1140626AF4
:101B400010231A401143626B08231A4011430F23DC
:101B5000E2681B021A4011430122120310400143A4
:101B6000206841602068C16952109143C1612666B6
:101B7000012068770020F8BDF0B587B00446142135
:101B80006846FEF709FC34492068884261D1334831
:101B9000026881140A4302600068084005902F48DB
:101BA0004038416B012211434163416B1140059163
:101BB000416B022631434163406BD503304005271A
:101BC00000953F07059001926946039602923846B8
:101BD000FFF794F9012229463846FFF73FFA3820EB
:101BE00000250090019602956946039604951C48CD
:101BF000FFF784F91C4E1B4830601027B760112096
:101C0000F56070607561B561F561802035623061A5
:101C10003046FFF71BF8002801D0FEF7AEFE6665E0
:101C2000B462114E0F486036B5601430F56081C65D
:101C3000F560356175618020B561B0603046083867
:101C4000083EFFF703F8002801D0FEF796FEA665D0
:101C5000B46207B0F0BD0000003001404010024007
:101C60000004005058000240DC000020FFB581B0A5
:101C7000044601260A9FFFF7F7F9254640350090F4
:101C8000697F62680498012907D0D31FFD3B31D1D9
:101C9000A268002A2ED104292CD1029900297DD0D6
:101CA00003990029FBD00028F9D0297F012921D0F0
:101CB00001212977697F042901D005216977002155
:101CC0002166039A2264049AEA80049AAA80029AFE
:101CD000A263049AE287049AA287E164216507233C
:101CE0000122E1681B021203994221684B6804D962
:101CF000934303E0022005B0F0BD13434B6021681D
:101D00000A68520603D40A6840231A430A6007216E
:101D1000E26809028A42616843D9002901D001289A
:101D200036D1A06B21680088C860A06B801CA063BE
:101D3000E08F401EE0872BE02068816889070ED580
:101D4000E18F00290BD0012E09D1A16B0988C16058
:101D5000A06B801CA063E08F401EE08700262068F7
:101D60008168C9070CD0E988002909D0C068216CB6
:101D70000880206C801C2064E888401EE8800126D2
:101D8000FFF772F90099401AB84201D3781C58D174
:101D9000E08F0028D0D1E888002800E05EE0CBD1B9
:101DA00043E0002901D0012839D1A06B21680078D7
:101DB0000873A06B401CA063E08F401EE0872EE0FC
:101DC0002068816889070ED5E18F00290BD0012E8C
:101DD00009D1A16B09780173A06B401CA063E08F4F
:101DE000401EE087002620688168C9070CD0E9887A
:101DF000002909D0007B216C0870206C401C2064F5
:101E0000E888401EE8800126FFF72EF90099401A65
:101E1000B84202D3781C02D013E0002F11D0E08F1B
:101E20000028CDD1E8880028CAD139462046009A3A
:101E300000F064FE00280AD02020206600202877C9
:101E40000CE00120687700202877032053E7012069
:101E5000687700202877206E0028F7D001204AE715
:101E6000034A116803235B029943014311607047E1
:101E700000000140094910B5401E884201D90120E7
:101E800010BD074C60610321081F01F0A1FE002076
:101E9000A06107202061002010BD0000FFFFFF00AF
:101EA00000E000E010B5014680310A79012A15D022
:101EB00001220A7124228A60026813681468640887
:101EC00064001460012252079343002242660068B6
:101ED0000360202088600A71104610BD022010BDEA
:101EE0007047704770B50446054680342079012854
:101EF0001AD0012020712420A0602868066802689A
:101F00005208520002602868826807235B069A43E1
:101F10000A438260284600F0FFFF28680660202000
:101F2000A0600020207170BD022070BD70B5044615
:101F3000054680342079012819D001202071242001
:101F4000A06028680668026852085200026028688B
:101F50008268D200D2080A438260284600F0DCFF83
:101F6000286806602020A0600020207170BD02203B
:101F700070BD70477047F8B504468034A1680546C7
:101F8000E6680068826810271206002A1BDA2129F9
:101F900019D1EFF31081012282F310888268802327
:101FA0009A43826081F31088E86F002808D0FEF71A
:101FB0007AFD002804D0E86FFEF7E3FD202824D046
:101FC000284601F07FF92868816849061BD5222E32
:101FD00019D1EFF31081012282F310888268402327
:101FE0009A43826081F310882068002808D0FEF7A9
:101FF0005AFD002804D02068FEF7C3FD202804D035
:10200000284601F02DF90020F8BD27610320F8BD16
:1020100070470000F8B503680446D86919689A68E3
:10202000B94D06462E4025468035002E75D0B74E58
:10203000B74F16400F4037436ED0C70706D0CF05C5
:1020400004D501271F622B693B432B61830708D509
:10205000D30706D0276802233B622B6904273B4342
:102060002B61430708D5D30706D0276804233B62BA
:102070002B6902273B432B61030709D520230B4023
:10208000334305D02668082333622E691E432E6130
:10209000030509D54B0107D501232668DB0233620E
:1020A0002B69202633432B612B69002B42D08006FD
:1020B0000AD520200140C0050240114304D0616FC1
:1020C000002901D020468847286921688968490687
:1020D00002D42821084232D0204601F0C1F82068FD
:1020E0008168490627D5EFF31081012282F3108819
:1020F000836840229343836081F310882868002816
:1021000019D0844981632868FEF703FD002811D0A7
:102110002868816B0DE000E017E0860615D50127E1
:1021200020263F070E4017403E430ED0616FBFE0B0
:1021300020468847F8BD2046FFF76AFFF8BD2046D5
:10214000FFF766FF00202861F8BDE66E012E7DD105
:10215000C6067BD5CE0679D5102018622268906815
:10216000264640064036002857DA29680B6858682A
:102170000004000C45D0B78B874242D9F083086831
:102180000068800636D4EFF31080012181F31088B7
:102190001168FF2301339943116080F31088EFF336
:1021A0001081012080F31088206882685208520054
:1021B000826081F31088EFF31081012080F3108892
:1021C0002068826840239A43826081F3108820202F
:1021D000E8600020E066EFF31081012080F31088B2
:1021E0002068026810239A43026081F310882868EF
:1021F000FEF759FC02202067B08BF18B401A81B2A8
:1022000007E0B18B81429FD1186880069CD50220DF
:1022100020672046FFF764FEF8BDB08BF18B401AB3
:1022200081B2F08B0028F7D00029F5D0EFF31080B1
:10223000012383F310881368FF262136B34313600C
:1022400080F31088EFF31082012000E01BE080F3A0
:102250001088206883682D4EF6433340836082F3F4
:1022600010882020E8600020E066EFF310826067AD
:10227000012080F310882068056810239D430560C5
:1022800082F31088C3E7C60208D5560206D501209E
:10229000000518622046FFF76DFEF8BD06060BD557
:1022A00001278026FF050E403A40164304D0A16F57
:1022B000002900D03CE7F8BD420614D54A0612D5E5
:1022C0002046EFF31081012282F310881A6840241F
:1022D000A2431A6081F310882021A9600021816740
:1022E00000F056F9F8BD020205D54A0003D5204694
:1022F000FFF73FFEF8BDC001FCD50029FADA204601
:10230000FFF7EFFDF8BD00000F080000010000100E
:1023100020010004E130000870B5040005D0254616
:102320008035A868002802D006E0012070BD00209A
:102330002871204600F026F82420A8602068016853
:10234000490849000160A06A002802D0204600F038
:1023500005FE204600F0D4FF0128E7D02068416840
:102360000922D20291434160206881682A22914368
:10237000816020680168012211430160204600F05D
:1023800053FE70BDF0B599B00446142113A8FEF7B2
:1023900003F84C216846FDF7FFFF31492068884269
:1023A0005CD101200025009001956846FEF702FFF0
:1023B000002801D0FEF7E1FA2A48026801218903CA
:1023C0000A43026000680840189026484038426B73
:1023D00002210A434263406B13AA08401890C020B0
:1023E00023C2032021C213A91F48FEF787FD204EF8
:1023F0001E483060B560F5607561B5618027F56194
:1024000037613220356270603046FEF71FFC0028CD
:1024100001D0FEF7B2FA80200651B462144E134880
:10242000603614303060332070603146102008313F
:10243000A1C17561B561F56130463562FEF706FCF4
:10244000002801D0FEF799FAE667002211461B200A
:10245000B462FEF785FE1B20FEF776FE19B0F0BDD4
:1024600000380140401002400004005008000240C3
:102470003002002070B58C231B58202B01D0022085
:1024800070BD00290BD0002A09D0012483682403E1
:10249000A34206D10369002B03D1CB0701D0012051
:1024A00070BD0023C3660C4C0368A34211D00B4CD3
:1024B000A3420ED05C6824020BD5EFF310840125F3
:1024C00085F310881D680126B60635431D6084F328
:1024D000108801F063F870BD008000400084004067
:1024E0007047704770B5054604468035A8682028B7
:1024F00001D0022070BD00290BD0002A09D0012391
:10250000A0681B03984206D12069002803D1C807A0
:1025100001D0012070BD2046403021658282C282F8
:10252000002129612120A860E06F002819D0154BF7
:10253000C362E36F14481863E36F14485863E06F95
:10254000134681632068E66F024628323046216DCB
:10255000FEF7E2FB002804D0102028612020A860AC
:10256000D7E7216840200862EFF31081012080F353
:1025700010882068826880231A43826081F3108863
:10258000002070BD0F32000855320008EB30000803
:1025900070477047FEE7000010B501201349400264
:1025A000886213480024047001F04EFBFEF71AF90C
:1025B000104811490470447004734473C48101616C
:1025C0000E4941610E4981610E49C1610E480168A1
:1025D00010221143016001684022114301600B4A3F
:1025E00005490B48FFF746FF10BD000000040050EE
:1025F00031000020F003002040080020720C002071
:1026000064000020F1360008003801403204000068
:102610009C010020F0B5924D8BB028690178A0296B
:102620007ED142782946A0268969012A10D0022A43
:1026300076D1098801F0EEFA002872D02869C178B5
:1026400082780802104340BA288100284BD0A6E0C7
:10265000844A01241470098801F0DCFA00285FD054
:102660002C702869C178827809021143027949BA2D
:10267000090412021143427911436960C1798279D8
:102680000802104340BA6881686906706969812050
:102690004870286969698078887028696969C07894
:1026A000C870286969690079087128696969407981
:1026B0004871286969698079887128696969C07970
:1026C000C87108216869FEF777F86A69010E11720E
:1026D0006A69010C51726A69010A91726969C8726A
:1026E0000C20E969BAE0296900206A46031DCB5C29
:1026F0001354401CC0B21028F8D35B4B002004A92F
:102700001A5C0A54401CC0B21028F9D3574A6946D3
:1027100004A8FDF74DFF69468878C978000401E0F8
:1027200079E07AE009060843694609880843694662
:10273000089088880990887A0404C87A00060443BF
:1027400008890443887B0704C87B000607438889FF
:102750000C2107436846FEF72FF845498A898B7B91
:1027600052BA12041B02C97B1A430A43B84209D168
:1027700040490898884205D13F490998884201D1CB
:10278000012000E000202873002806D03B48844246
:1027900001D0944201D1012000E000206873287B21
:1027A00000280DD0687B00280AD0A869344B028825
:1027B000288929698002C018091D083A01F0DCFA4D
:1027C000686901240670696982204870286969690E
:1027D000807888702869C1786869C1706869052146
:1027E00004716869FDF7E8FF6A69010E51716A6951
:1027F000010C91716A69010AD17169690872E9690C
:102800000920884768892989401E814203D11549DA
:102810006C70022008700BB0F0BD686906706969C1
:102820008220487028696969807888702869696998
:10283000C078C87069690220087105216869FDF7D0
:10284000BBFF6A69010E51716A69010C91716A6975
:10285000010AD17169690872E96909208847DAE7D4
:10286000F0030020310000200000002010000020B4
:10287000740D002057465447870B00009EF0C3A5F7
:1028800000500008F0B585B00C460746102918D056
:10289000182C18D0202C42D10E2639190422684653
:1028A000091FFDF71AFDA008039020461038C21733
:1028B000520F1018C0100025B1004000081A0290F5
:1028C0002BE00A26E9E70C26E7E728460399FDF7FF
:1028D00065FD002902D0042905D00AE001466846BA
:1028E000FDF74AFE05E0202C03D104216846FDF7E0
:1028F000B5FEAE00F119042201A8FDF7EEFC04229A
:1029000001A96846FDF72DFE3019C0190422694659
:10291000FDF7E3FC6D1C0298EDB2A842D5DC05B0D2
:10292000F0BD000008B51048816B0122114381639E
:10293000806B10400022009011460920FEF710FC29
:102940000920FEF701FC002211460A20FEF708FCD0
:102950000A20FEF7F9FB002211460B20FEF700FCCF
:102960000B20FEF7F1FB08BD00100240F0B587B068
:1029700014216846FDF710FD2548426B02210A43E9
:102980004263426B0A400592416B01252943416332
:10299000416B29400591426B04210A434263406B1D
:1029A0001C4F084005900022C9013846FEF756FB2F
:1029B00001221602052031460007FEF74FFB0122D7
:1029C00040211548FEF74AFB012231463846FEF702
:1029D00045FB032000020024009002946946019503
:1029E00003943846FEF78AFA0520029469460007E8
:1029F000009601950394FEF781FA4020009002941E
:102A00006946019503940448FEF778FA07B0F0BDD3
:102A100000100240000400500008005010B511489A
:102A20000F490160FF2105314160002107228160CB
:102A300012020161C260012241615202826101629F
:102A400020224162C261816207220163C262416346
:102A5000FFF71BF8002801D0FDF78FFF10BD000025
:102A6000003001407800002010B518481649016078
:102A7000E1214902416000218160C1600161816101
:102A8000C16101620C22416242618162FFF744FC34
:102A9000002801D0FDF771FF00210C48FFF746FA2E
:102AA000002801D0FDF769FF00210848FFF71AFA56
:102AB000002801D0FDF761FF0448FFF7F3F9002873
:102AC00001D0FDF75AFF10BD003801409C010020E5
:102AD000FEE7704701B582B00020694608710548DD
:102AE0000090012301AA02A90348FFF7BFF8694635
:102AF00008790EBD8813000078000020F8B50F4655
:102B00000B4615460092032104460022C90200F03C
:102B10001BF82026002812D13B46002280212046A7
:102B2000009500F07DF8002809D103213B460022E2
:102B300049022046009500F007F8002803D0206ED7
:102B4000304320660320F8BDFFB585B00F4604462C
:102B5000002069460E9D16460871FEF785FA411B56
:102B60000898451AFEF780FA0390206823210C305C
:102B700002902A4800684843000D684319E003208A
:102B80004002874206D1002E04D10298007869469F
:102B9000087108790898401C0CD0FEF765FA039973
:102BA000401AA8420ED2002D0CD00098002833D035
:102BB000401E0090206880683840B042DFD100207D
:102BC00009B0F0BD20684168E0229143416060682F
:102BD000C11FFD390CD10121A068C903884202D070
:102BE0004911884204D12068016840229143016064
:102BF0000121A06A4903884207D1206802688A43FC
:102C00000260206802680A43026001204034607755
:102C1000002020770320D3E70025CBE774000020B5
:102C2000FFB581B01E4604460A9DFEF71DFA401B03
:102C3000351AFEF719FA0746264800684001000DCC
:102C400068430CE0701C0BD0FEF70EFAC01BA842C4
:102C500012D2002D10D00098002837D0401E0090CE
:102C6000206881680298884332D000200399884206
:102C7000E8D1002005B0F0BD20684168E022914312
:102C800041606068C11FFD390CD10121A068C903F2
:102C9000884202D04911884204D12068016840224C
:102CA000914301600121A06A4903884207D120684D
:102CB00002688A430260206802680A4302600120B9
:102CC00040346077002020770320D3E70025C7E752
:102CD0000120CBE77400002003E003780B70401C58
:102CE000491C1346521E92B2002BF6D170470000C9
:102CF000F0B505460120C00285B00F461446824259
:102D00005BD801048D4258D32D482E4A00688001BB
:102D1000830F06D0800F012807D12B48006A80025C
:102D200003D4108C8005000B02E0108C8005400B52
:102D3000C00AC0024018A8423FD9FEF7CBF860078E
:102D4000400F00F097FF001986B268050FD10221ED
:102D50000091042101911F21C9066918C90A029135
:102D600001210391049004A96846FEF72DF8002480
:102D7000F6081EE0E000C019817803780A04C178E3
:102D800009060A434178090219430A4381790B0471
:102D9000C17909060B4341790079090201430B43CC
:102DA00029460120FEF766F8002800D10835641C8A
:102DB000A4B2A642DED8FEF749F805B0F0BD000087
:102DC0000075FF1FC075FF1F002002407047FEB551
:102DD0000A2A26D8002A24D000236D4605E09C004C
:102DE0006418045DEC545B1CDBB29342F7D3002300
:102DF0000424A41A08E0D618B60076189F007F189D
:102E0000865D5B1CC655DBB29C42F4DC002306E009
:102E1000E718BF00EE5C7F185B1CC655DBB293421F
:102E2000F6D3FEBD10B500F04FF8FEF735F910BD32
:102E300030B593B03C216846FDF7AEFA002401207E
:102E40000F941094119440021294FEF78DF902250C
:102E5000E8010390009540200A94059008200B900B
:102E600080030C900895000204940D9009950001D0
:102E70000E906846FEF7EEFB002801D072B6FEE722
:102E800007200F9011940221109512940FA8FEF7BD
:102E9000DBFA002801D072B6FEE713B030BD7047F0
:102EA000064800E000BF401EFCD2BFF34F8F05492B
:102EB0000348C860BFF34F8F00BFFDE7FFFF00006E
:102EC0000400FA0500ED00E030B51049104A4888CA
:102ED000904201D2401C48800878012400220D4B0A
:102EE0006402062809D24D88C82D05D95D69654060
:102EF0005D614A80401C087030BD48887D25ED002A
:102F0000A842F9D99C614A800A7030BD6000002057
:102F1000FFFF000000040050F8B50446416E403445
:102F2000002915D000688168806809014D0F0A4E9C
:102F3000400F3746315C083F385CC000FDF72EFA81
:102F40006085785D715DC000FDF728FA2085F8BDC9
:102F500001206085FAE700001E40000810B5018DD1
:102F6000090707D501684A680123DB039A43836B8D
:102F70001A434A60018DC90707D001684A680123D6
:102F80005B049A43C36A1A434A60018D890707D5D7
:102F900001684A6801231B049A43036B1A434A6081
:102FA000018D490707D501684A6801239B049A43AC
:102FB000436B1A434A60018DC90607D501688A68C8
:102FC00001231B039A43C36B1A438A60018D890650
:102FD00007D501688A6801235B039A43036C1A438F
:102FE0008A60018D490612D501684B6801221205DD
:102FF000446C934323434B60416C914207D1016879
:103000004A6803235B059A43836C1A434A60018D27
:10301000090607D501684A680123DB04C06C9A439E
:1030200002434A6010BD0000FEB50546002680350B
:1030300004462E61FEF718F80190206800682027EA
:103040000007002817DA254800900022390420469E
:10305000019B00F0FBFA00280DD0EFF31081012056
:1030600080F310882068026880239A43026081F30D
:103070001088AF6028E020680068400727D517480F
:1030800000900121002289052046019B00F0DEFA14
:1030900000281CD0EFF31081012080F310882068F5
:1030A0000268FF2321339A43026081F31088EFF313
:1030B0001081012080F31088206882685208520035
:1030C000826081F31088EF602E710320FEBDAF6037
:1030D000EF60E66626672E710020FEBDFFFFFF0150
:1030E00010B5806AFEF794FF10BD70B5846A204663
:1030F000803081680546C66820688068000604D56F
:10310000212902D1204600F0DDF8206880684006C1
:1031100004D5222E02D1204600F0A2F82869102101
:10312000084328612046FEF773FF70BD70B5014665
:103130000A68806A1268920635D4EFF31083012280
:1031400082F3108802681468FF250135AC431460CF
:1031500083F31088EFF31083012282F31088026852
:10316000946864086400946083F31088EFF310831C
:10317000012282F31088026894684025AC43946071
:1031800083F3108820238C221350C26E012A0AD1A7
:10319000EFF3108382F31088026814681025AC43A3
:1031A000146083F3108800220267C26E012A02D0E5
:1031B000FFF796F970BD0968496802464032938B63
:1031C00089B28B4200D9D183D18B591A89B2FEF7CB
:1031D00087FE70BD10B50346806A01210167C16E8C
:1031E000012902D0FFF77DF910BD014640310A46A2
:1031F000898B4C08D4831B685B689BB2994200D3CF
:10320000D383D28B891A89B2FEF76AFE10BD10B53E
:1032100001460968806A0968890618D4EFF31082AC
:10322000012181F3108801688B688024A3438B609F
:1032300082F31088EFF31081012282F31088006876
:10324000026840231A43026081F3108810BDFFF723
:103250009FF910BD10B5806AFFF79BF910BD000003
:1032600010B5EFF31082012181F3108801680B681B
:10327000FF242134A3430B6082F31088EFF3108204
:10328000012181F3108801688B680D4C23408B600D
:1032900082F31088C16E01290AD1EFF3108281F305
:1032A000108801680B681024A3430B6082F3108818
:1032B00020228C210A500021C166416710BD000008
:1032C000FEFFFFEF10B5EFF31082012181F31088AC
:1032D00001680B68C024A3430B6082F31088EFF3EE
:1032E0001082012181F3108801688B680124E405B4
:1032F000A3438B6082F3108820218030816010BD51
:10330000F8B504462669A168E76931436669002576
:1033100000683E433143924B924A0668924F3E40CA
:103320000E4306602068416803263603B143E66811
:10333000314341602168A069994203D0914201D094
:10334000266A30438E68894F3E4006438E6020686F
:10335000C16A666A090909013143C162844E216864
:103360008448B1420AD140698007800F4ED00128BD
:103370005DD002284AD0032847D15AE07E4EB142A0
:103380000AD140690C26304040D004283ED008289D
:103390004BD00C2839D14CE0784EB1420AD140696B
:1033A0003026304032D0102841D020283DD030285F
:1033B0002BD13EE0724EB14205D0724EB14202D0E6
:1033C000714EB14201D1002020E099420CD14069F8
:1033D0000326B602304019D00126B602801B26D043
:1033E000801B22D0801B0EE091420ED14069032643
:1033F000360230400AD0FF38401E18D0FF38401E39
:1034000013D0FF380138002813D010205F4E604FD2
:10341000994201D0914242D100280CD0022814D008
:1034200004280BD0082874D10DE00220EEE7042018
:10343000ECE70820EAE7FEF7B3F801E0FEF7C4F88E
:10344000060002D180E00126F603606A4000395A86
:1034500030460091FCF7A2FF676879007918814235
:1034600071D8390381426ED3002330461946009A41
:10347000FCF7B2FE020E0902030278081143181885
:10348000002251413A460023FCF7A6FE032109021F
:10349000404A411A914256D82168C86054E001213F
:1034A000E269C9038A422BD1002806D002280DD038
:1034B000042805D0082846D107E0FEF771F801E09E
:1034C000FEF782F8060001D13EE00E46606A400039
:1034D000395A3046FCF762FF616840004A0880189C
:1034E000FCF75CFF01462C4A103991422BD8511C45
:1034F00002460A400007410F20681143C16023E0E3
:10350000002807D002280ED0042806D008281AD197
:1035100008E018E0FEF744F801E0FEF755F8060071
:1035200001D111E00E46606A4000395A3046FCF77E
:1035300035FF61684A088018FCF730FF0146164ADB
:10354000103991420AD90125204601214030418598
:10355000018500206067A0672846F8BD80B29BE720
:103560000080004000840040F369FFCFFFF4FF11AA
:103570000038014040100240004400400048004034
:10358000004C004000500040003C01400024F4008A
:10359000FE3F0008FFFC0F00EFFF000070B504467F
:1035A00081654030002125468283803529612220B3
:1035B000E8602868002819D0214BC3622B68214895
:1035C00018632B6820485863286813468163A66DEA
:1035D0002168324624312868FDF79EFB002805D07B
:1035E000102028612020E860012070BD206900289B
:1035F0000CD0EFF31081012080F31088206802685E
:10360000FF2301331A43026081F31088EFF3108126
:10361000012080F3108820688368012213438360AF
:1036200081F31088EFF3108182F31088206882689C
:1036300040231A43826081F31088002070BD00008F
:103640002D310008D5310008EB300008FFB581B0FE
:1036500007460D46044680370A9E32E0701C30D083
:10366000FDF702FD0499401AB04218D8002E16D07A
:1036700020680168490724D5802D22D0402D20D014
:10368000C169C94309070CD4082505622046FFF724
:10369000E7FD3D6100203871012005B0F0BD032039
:1036A000FBE7C069C04300050BD401202168C002BC
:1036B00008622046FFF7D4FD2020386100203871D1
:1036C000EDE72068C1692846884305D000200399AA
:1036D0008842C3D00020E0E70120F8E710B5FDF7ED
:1036E0009BF80248FEF796FC10BD00009C010020EC
:1036F00010B50349024649690248FEF7F3FE10BDC2
:10370000F00300209C01002070B5044600F06DF825
:1037100000F052F801250526ED0336070022294660
:103720003046FDF79BFC2020FFF7D4F92002000E65
:10373000FFF7D0F92004000EFFF7CCF9E0B2FFF755
:10374000C9F9012229463046FDF788FC00F034F81B
:1037500070BD10B501220520D1030007FDF77EFCE6
:1037600010BDF8B50646012715460C46FF03052097
:10377000002239460007FDF771FC0320FFF7AAF984
:103780002002000EFFF7A6F92004000EFFF7A2F9B1
:10379000E0B2FFF79FF9002405E0FF20FFF79AF958
:1037A0003055641CA4B2AC42F7D30520012239463F
:1037B0000007FDF753FCF8BD70B50124E4030525AF
:1037C0002D07002221462846FDF748FC0520FFF77B
:1037D00081F9FF20FFF77EF906460122214628469F
:1037E000FDF73CFCF007ECD170BD70B50124052558
:1037F000E4032D07002221462846FDF72FFC062072
:10380000FFF768F9012221462846FDF727FC70BD25
:10381000F3B58BB010213D4C0A466846FFF7A1FF77
:1038200069460C9A0B98FCF7C3FE6A46D17B107B65
:1038300009060843917B527B090412021143084395
:103840000103090C0891000702D0481C80B20890BF
:10385000202000270A9051E00121C9068C4253D351
:103860002B4800688001820F06D0800F012809D103
:103870002848006A800205D42548C030008C8005A5
:10388000000B04E02248C030008C8005400BC00AC9
:10389000C0024018A04237D9FDF71CFB60050FD1CC
:1038A00002210491042105911F21C9066118C90A4A
:1038B000069101210791099009A904A8FDF784FA4E
:1038C0000A983901091810226846FFF74AFF69462D
:1038D0000C9A0B98FCF76CFE6D4600260CCD214629
:1038E0000120FDF7C7FA002800D10834761CF6B293
:1038F000022EF3D3FDF7AAFA7F1CBFB208988742C5
:10390000AAD30549032008700DB0F0BD0048000897
:103910000075FF1F0020024031000020F0B58DB07F
:103920001022454904A8FFF71CFF44490498884227
:1039300002D000200DB0F0BD102200216846FFF734
:1039400010FF3F49002008AA0B5C1354401CC0B272
:103950001028F9D33B4A694608A8FCF729FE6846B7
:1039600080780C2106046846C07800060643684645
:103970000088064368468788807A04046846C07ACF
:10398000000604436846008904436846807B0504BA
:103990006846C07B00060543684680890543684643
:1039A000FCF70AFFA84239D12748864236D127487A
:1039B000874233D126488189827B49BA09041202A1
:1039C000C07B114301432348844201D08C4225D15E
:1039D0000025ED430027059C1AE00126B602B442FB
:1039E00000D8A6B2324639461B48FFF7BAFE00207F
:1039F00019491A4A08E00B5C6B401B069B0DD35813
:103A00002D0A5D40401C80B2B042F4D3BF19A41B04
:103A1000002CE2D10699E843884203D00648FFF71C
:103A200073FE86E707490648FFF7F2FE0248FFF7F4
:103A30006BFE01207EE7000000F01F004657454E58
:103A4000000000201000002057465447870B00005C
:103A5000740D00209EF0C3A5400800201004002033
:103A6000F3B54E4C85B000274E49E76061614C4884
:103A7000102220614C49FFF72FF94B49069A05980F
:103A8000FCF796FD4848C27B017B12068918827BB1
:103A9000407B12040002101808180103090CA060F2
:103AA000A180000701D0491CA1802069103020614D
:103AB00067806AE001226069D20690426BD33B497D
:103AC000096889018B0F06D0890F012909D138496E
:103AD000096A890205D43549C031098C8905090B69
:103AE00004E03249C031098C8905490BC90AC90271
:103AF000891881424FD9FDF7EDF9606941050FD171
:103B000002210091042101911F21C9064018C00A19
:103B100002900120039004A904976846FDF754F928
:103B2000608821690001401810221F49FFF7D4F86E
:103B30001D49069A0598FCF73BFD1B48E0600646C8
:103B40003D462770203EE068227801689200B1501F
:103B50000268A261436823626562E3620830A26280
:103B6000E06001206169FDF785F9002802D16069F4
:103B7000083060612078401CC0B220700228E2D377
:103B8000FDF764F96088401C60806088A1888842E5
:103B900090D30320607007B0F0BD0000300000201B
:103BA0001050000800480008300800200075FF1F72
:103BB0000020024030B47446641E2578641CAB4279
:103BC00000D21D46635D5B00E31830BC184700005F
:103BD0008307FF22DB0E9A408907090E99400028CF
:103BE00008DB830809489B001818036893430B43BC
:103BF000036070470007000F0838830804489B00E3
:103C00001818C36993430B43C361704700E400E095
:103C100000ED00E010B5052914D34218121F5378A7
:103C200014781B0223435BBA1C049378D2781B02DE
:103C30001C43091F144389B2FCF7BEFDA04201D109
:103C4000012010BD002010BD10B5FDF713FA084C7F
:103C50002060FDF715FA6060FDF718FA23460F3370
:103C60005A1E511EA060481E00F09EF810BD0000B4
:103C7000740D0020014600B500200B00FFF79AFFED
:103C800008060507090B0D0F1106072000BD0620C9
:103C900000BD052000BD042000BD032000BD0220A2
:103CA00000BD012000BD000070B572B601680C4A6D
:103CB000114001225207914210D144680068FCF77C
:103CC0004FFA0020074B084E421E8100CD182A6093
:103CD00089190A60401C0828F7DBA04770BD000066
:103CE0000000FE2F80E100E080E200E010B51C4CF7
:103CF0002078002815D00020E0816078002813D0BB
:103D00006420FDF74FF8207B002806D0607B002858
:103D100003D014491448FFF7A3FE1448FFF7F4FC3E
:103D20001BE0E089401CE7E7E089052811D3FFF795
:103D3000F5FD002811D10E484168090E08290CD163
:103D40000C4C2178002901D1FFF7AEFF2078032821
:103D500003D03220FDF726F810BDFFF7A1F80000D0
:103D6000F0030020100000200000002000F01F00E1
:103D7000004800083100002010B592B2FEF7B8FFED
:103D800010BDFDF791F9FFF753F8FEF7EFFDFEF7D1
:103D9000C9FDFEF769FEFEF741FEFFF7DAFCFEF70C
:103DA000FBFBFFF7A3FFFCE7F0B50E4E9C467568E2
:103DB00003462F0A280C4740280EB4684740674046
:103DC000200A4740200C4740200E47406F401F709C
:103DD0003068000C087030886146000A1070307836
:103DE0000870F0BD740D0020637C777BF26B6FC5AB
:103DF0003001672BFED7AB76CA82C97DFA5947F0EE
:103E0000ADD4A2AF9CA472C0B7FD9326363FF7CCC9
:103E100034A5E5F171D8311504C723C31896059A66
:103E2000071280E2EB27B27509832C1A1B6E5AA089
:103E3000523BD6B329E32F8453D100ED20FCB15B74
:103E40006ACBBE394A4C58CFD0EFAAFB434D3385DD
:103E500045F9027F503C9FA851A3408F929D38F5B1
:103E6000BCB6DA2110FFF3D2CD0C13EC5F974417E8
:103E7000C4A77E3D645D197360814FDC222A90885F
:103E800046EEB814DE5E0BDBE0323A0A4906245CEB
:103E9000C2D3AC629195E479E7C8376D8DD54EA950
:103EA0006C56F4EA657AAE08BA78252E1CA6B4C61C
:103EB000E8DD741F4BBD8B8A703EB5664803F60E75
:103EC000613557B986C11D9EE1F8981169D98E9464
:103ED0009B1E87E9CE5528DF8CA1890DBFE642687D
:103EE00041992D0FB054BB1652096AD53036A5380A
:103EF000BF40A39E81F3D7FB7CE339829B2FFF87D2
:103F0000348E4344C4DEE9CB547B9432A6C2233DB5
:103F1000EE4C950B42FAC34E082EA16628D924B266
:103F2000765BA2496D8BD12572F8F6648668981687
:103F3000D4A45CCC5D65B6926C704850FDEDB9DAE6
:103F40005E154657A78D9D8490D8AB008CBCD30AD4
:103F5000F7E45805B8B34506D02C1E8FCA3F0F02B0
:103F6000C1AFBD0301138A6B3A9111414F67DCEA7F
:103F700097F2CFCEF0B4E67396AC7422E7AD3585F8
:103F8000E2F937E81C75DF6E47F11A711D29C58902
:103F90006FB7620EAA18BE1BFC563E4BC6D27920E4
:103FA0009ADBC0FE78CD5AF41FDDA8338807C731ED
:103FB000B11210592780EC5F60517FA919B54A0DE5
:103FC0002DE57A9F93C99CEFA0E03B4DAE2AF5B05A
:103FD000C8EBBB3C83539961172B047EBA77D62676
:103FE000E169146355210C7D010204081020408012
:103FF0001B366CD8AB4D081C3044586C8000010057
:1040000002000400060008000A000C001000200056
:1040100040008000000101010103070100000804C5
:10402000020408010101000000000000000000007F
:104030000000000000000000000000000000000080
:10404000000000000000000001000000020000006D
:10405000030000000400000006000000070000004C
:10406000080000000900000000000000000000003F
:10407000000000000000000001000000020000003D
:104080000300000004000000A84000080000002019
:10409000780000000001000820410008780000209E
:1040A000881300001C01000867376B326D397052AD
:1040B0003478573163513876487435624E387745D5
:1040C000336A4C36794130664B72376450327356DE
:1040D000396D58347155317A00000000000000003D
:1040E00000000000000000000000000000000000D0
:1040F00000000000000000000000000000000000C0
:1041000000000000000000000000000000000000AF
:104110000100000004000000000000000024F40082
:04000005080000BD32
:00000001FF
