:020000040800F2
:200000003008002099010008051C0008311B00080000000000000000000000000000000069
:200020000000000000000000000000000B1C00080000000000000000091C0008631C0008DD
:20004000AB010008AB010008AB010008AB010008AB010008AB010008AB010008AB01000800
:20006000AB010008AB010008AB010008AB010008AB010008AB010008AB010008AB010008E0
:20008000AB010008AB010008AB010008AB010008AB010008AB010008AB010008AB010008C0
:2000A000AB010008AB010008AB010008AB010008AB010008AB010008AB01000800F002F86A
:2000C00000F03EF80CA030C8083824182D18A246671EAB4654465D46AC4201D100F030F822
:2000E0007E460F3E0FCCB6460126334200D0FB1AA246AB463343184734230000542300001B
:20010000103A02D378C878C1FAD8520701D330C830C101D504680C607047000000230024B3
:2001200000250026103A01D378C1FBD8520700D330C100D50B6070471FB51FBD10B510BDF4
:2001400000F057F91146FFF7F7FF02F021F800F06FF903B4FFF7F2FF03BC00F075F90000FE
:2001600070B505460C46164602E00FCC0FC5103E102EFAD2082E02D303CC03C5083E042E5E
:2001800007D301CC01C5361F03E021782970641C6D1C761EF9D270BD074880470748004747
:2001A000FEE7FEE7FEE7FEE7FEE7FEE704480549054A064B70470000DB1C0008BD0000082C
:2001C00030020020300800203004002030040020F8B5042A2CD3830712D00B78491C03702C
:2001E000401C521E83070BD00B78491C0370401C521E830704D00B78491C0370401C521E22
:200200008B079B0F05D0C91ADF002023DE1B08C90AE0FFF7A5FFF8BD1D4608C9FD401C46F2
:20022000B4402C4310C0121F042AF5D2F308C91A521EF0D40B78491C0370401C521EEAD46E
:200240000B78491C0370401C012AE4D409780170F8BD01E004C0091F0429FBD28B0701D52E
:200260000280801CC90700D00270704700290BD0C30702D00270401C491E022904D3830736
:2002800002D50280801C891EE3E70022EEE70022DFE7002203098B422CD3030A8B4211D361
:2002A00000239C464EE003460B433CD4002243088B4231D303098B421CD3030A8B4201D3B0
:2002C00094463FE0C3098B4201D3CB01C01A524183098B4201D38B01C01A524143098B4240
:2002E00001D34B01C01A524103098B4201D30B01C01A5241C3088B4201D3CB00C01A5241A7
:2003000083088B4201D38B00C01A524143088B4201D34B00C01A5241411A00D2014652410E
:20032000104670475DE0CA0F00D04942031000D34042534000229C4603098B422DD3030A5A
:200340008B4212D3FC22890112BA030A8B420CD3890192118B4208D3890192118B4204D318
:2003600089013AD0921100E08909C3098B4201D3CB01C01A524183098B4201D38B01C01A9B
:20038000524143098B4201D34B01C01A524103098B4201D30B01C01A5241C3088B4201D392
:2003A000CB00C01A524183088B4201D38B00C01A5241D9D243088B4201D34B00C01A524192
:2003C000411A00D20146634652415B10104601D34042002B00D54942704763465B1000D32D
:2003E000404201B50020C046C04602BD704770477047754600F024F8AE46050069465346AD
:20040000C008C000854618B020B5FFF7CFFE60BC00274908B6460026C0C5C0C5C0C5C0C55F
:20042000C0C5C0C5C0C5C0C5403D49008D46704710B50446C046C0462046FFF78AFE10BD8C
:2004400000487047D001002001491820ABBEFEE726000200704710B505E00B7804786340B1
:200460000370401C491C521EF7D210BDF0B585B0140005460E463DD0002D03D010226846C8
:20048000FFF7A6FE2021204600F038F810221A493046FFF7E0FF304600F0C9F8102130464D
:2004A00000F0D6F8144F0D24E03F2001C11910223046FFF7D0FF304600F040F8304600F05F
:2004C000B6F81021304600F0C3F8641E2406240EEBD1394610223046FFF7BDFF002D09D0A3
:2004E000102229463046FFF7B6FF102269462846FFF76EFE05B0F0BD3001002010B50C46BF
:200500000A4601460348FFF763FE2146014801F011FB10BD5000002030B50022064C08E077
:20052000835C1D092D011B072D191B0FEB5C8354521C8A42F4D330BDCC210008FEB50746F5
:200540000024A000C519042229466846FFF740FE684600780E2100F08DFA06466846407804
:200560000B2100F087FA4640684680780D2100F081FA46406846C078092100F07BFA464098
:20058000684606710078092100F074FA0646684640780E2100F06EFA4640684680780B21A5
:2005A00000F068FA46406846C0780D2100F062FA46406846467100780D2100F05BFA0646E1
:2005C00068464078092100F055FA4640684680780E2100F04FFA46406846C0780B2100F030
:2005E00049FA46406846867100780B2100F042FA0646684640780D2100F03CFA4640684683
:200600008078092100F036FA46406846C0780E2100F030FA46406846C6712846042201A93A
:20062000FFF7D6FD641CE4B2042C8AD3FEBD10B504460322012101F0E9FA02221146204688
:2006400001F0E4FA01220321204601F0DFFA10BD30B50022064C08E0835C1D092D011B07F1
:200660002D191B0FEB5C8354521C8A42F4D330BDCC22000825489AB00024047044602449A8
:200680008460244A0B68934204D18968C1600121417003E00021C943C160447001F0EAFB4B
:2006A000002801D000BFFDE740211B4800F05DFA0028F9D06B4610AA4021174800F060FA2D
:2006C0000028F1D11398000C082801D8C2B217E00938030001F002FB070507090B0D0F117F
:2006E00013000C220CE010220AE0142208E0182206E0202204E0302202E0402200E022466F
:200700006946109801F0F4FBCEE700003000002000F80108414A504150010020564B9AB024
:200720000FCB03936B4607C31022544912A8FFF74FFD534A694612A8FFF798FE684601F0D2
:200740002FFD064601A801F02BFD054602A801F027FD03A801F024FD04464A48864244D1DF
:200760004948854241D10C21684601F0F5FAA0423BD1414B10330FCB0F930CAB07C3102268
:200780003E4908A8FFF724FD3D4A0CA908A8FFF76DFE0FA801F004FD040026D00D200003EB
:2007A000844222D8344B20330FCB0F930CAB07C3334A0CA908A8FFF759FE0CA801F0F0FCEA
:2007C00006460DA801F0ECFC0546304886420CD10B990A9807910690099F089E2A4608A9F4
:2007E000204601F08FFC002801D0294841E006980A90284807990997089620180B91C70A61
:20080000062600F0E3FBF01F189002200490042005AAC1C218A904A800F052FB002802D077
:2008200000F090FB10E000F08DFB20460F30000908A901F0ABFA002806D12146144C2046B4
:2008400001F08AFAA84201D001F078FA1F26202500F0BCFB0020C04306900220169004202F
:2008600017AA61C206A916A800F02AFB00F06AFB204601F0C9FA000000000108000000207A
:2008800010000020574654474D4F540043544F4D00300008FF07000030B51A4C3523026882
:2008A00017491B01A24200D117498032016414681F252D04AC43858E2D042C4314600A4639
:2008C000703242640268803214680F252D06AC43058F2D062C4314600A46B0328264D83216
:2008E000C264132252018A1802654F22D2008A1842650022C81800E004C18142FCD330BD8F
:2009000000B400400068004050B70040F0B58D680C692C4360C90839002E16D00126B60714
:2009200035432C438E69CD690F8C35434E693F063E4335438E89406D360435434826734301
:20094000C01830C000230B4F0EE0AD04E9E7D418E678D55C36063543A6786478360424025A
:200960002643354320C01B1DCC683C5D9C42EED8F0BD0000DA23000803494A6901231B0419
:20098000184302434A6170470020024010B5084B5A69084C224001246403042801D0224374
:2009A00000E0A243C800044910430843586110BD0020024007E0FFFF0200010030B50549BC
:2009C0004C6901252C434C610260BFF36F8F436030BD00000020024030B50B4C00236269F2
:2009E0000125AD042A436261EFF3108272B620C95B1C20C0DBB2402BF9D320698003800FB5
:200A0000FBD182F3108830BD00200240F8B5044600F0A2FB032706463F04124D06E0601CB0
:200A200004D000F099FB801BA04213D228693842F5D128690C4908400C4929610CD00C49ED
:200A400048600120F8BD601C06D000F085FB801BA04201D30320F8BD28694003F3D4002072
:200A6000F8BD000000200240FAC30000FBC30800B401002010B500221346CC0700D04240A2
:200A80004400000601D51B2000E0002044405B1C4908DBB2E0B2082BEFD3104610BD000078
:200AA00070B5044600F058FB0546601C02D004480078241800F050FB401BA042FAD370BD79
:200AC0004000002070B504464030007F022802D0206E082107E020688030436C9B0206D55F
:200AE000206E0121490208432066012070BD406C8003850F2B462046FFF708FF012021689B
:200B0000A8408031C864A065002070BD10B55C22125C012A07D0022A05D0016E0222114323
:200B20000166012010BD0A68002A0ED00A7B0B6952071A430B7A4C6949689B07406C234398
:200B4000C90040180CC0002010BD0B7A4A699B071A430B7B0C8ADB06240449682343006CDC
:200B60001A43890040180260EDE700688030402903D080690007000F70470069FAE70000AD
:200B8000F0B59C465C231B5C0024022B03D0016E0822114356E0FF250135036840293ED055
:200BA00080339E6936074BD09D69ED0103D51D68ED0500D501249B699B059B0F1D19C46C32
:200BC00048236B43E41801262368B6073340536023683AD0DB00DB08136001262368760776
:200BE0003340936023687612DB0FDB071361A3889BB2D36163681B031B0FD360636833400C
:200C000053616368760033409361636800265B005B0E13626368DB0F083453621CE08033F9
:200C20001E6936070CD01D69ED0103D51D68AD0500D501241B699B059B0F1D19846CBFE7FD
:200C4000016E294301660120F0BDDB005B0DC3E7A75D63469F55761C074FD368FB5CB34287
:200C6000F6D80068402903D08030C5610020F0BD80304561FAE70000DA230008F8B5040072
:200C800005D025464035287F002802D006E00120F8BD00206877204600F0C2F820688169C1
:200CA00010229143816100F057FA0746012604E000F052FAC01B0A2810D82068806900070A
:200CC000F6D4206881693143816100F045FA07460AE000F041FAC01B0A2805D9206E304305
:200CE000206603202877D2E720688069C007F0D02068816902221143816147482168814254
:200D000002D1464960680860207C40210128206882693AD00A438261607C012189030128BB
:200D20002068826933D08A438261A07C012109030128206882692CD00A4382612168886901
:200D4000032212029043A2681043886120688169A4229143816121680A69102082430A61F7
:200D6000E168012917D000291DD02022022916D021688B6980273B438B6121680B690343DF
:200D80000B61E06803280AD00DE08A43C3E70A43CAE78A43D1E720688169042201E02068B2
:200DA000816911438161207E7F21400649064018E1690902FF3901390843216A491E084399
:200DC000A18A0A0401210904521A10432268D0610320A2680002824210D1E26AA06A1202F3
:200DE000FF3A401E013A1043226B1201103A1043A28C1204511A08432168C86020688030AE
:200E0000016CE26B114301642046FFF745FD0020A06520662E77F8BD006400400065004073
:200E200010B59AB00446142113A8FFF730FA4C216846FFF72CFA15492068884224D101204C
:200E40004006002400901294684600F00BFA1048C26B81140A43C263C26B0A401892416BF6
:200E6000012211434163406B1594104018900320C002139002201490032016901790052028
:200E800013A9000700F0B6F81AB010BD0064004000100240014640310A7F012A05D0016EB4
:200EA0000422114301660120704702220A7701688A69520852008A61002101660846704754
:200EC000F8B51E4E044630780F4601280AD001203070002070607D20C000FFF797FD0028EF
:200EE00002D028E00220F8BD2168042904D00021C9433960A56814E06068FFF73DFD7D205B
:200F0000C000FFF783FD16E029466068FFF73EFD7D20C000FFF77AFD002801D03D6005E0F8
:200F20006D1CE268A1688918A942EDD804494A6902239A434A6100213170F8BDB40100208B
:200F40000020024010B57D200124C000FFF75EFD054841698204114341614069002800DA79
:200F60000024204610BD000000200240F0B51FB4144C06462078154601280AD001202070ED
:200F800000277D20C0006760FFF740FD002803D010E0022005B0F0BD012E0DD02946019850
:200FA000FFF71AFD7D20C000FFF730FD06494A69B2434A612770EDE72A46039B0198FFF7FA
:200FC000FDFCEFE7B401002000200240064900204A69002A07DA054A8A60054A8A604969BA
:200FE000002900DA012070470020024023016745AB89EFCDF0B5002303249DE001259D4085
:201000002A4072D00E79B607B60F012E01D0022E16D186682746B4465E00B646B7406646B2
:20102000BE43B446CF687646B7406646374387604668AE430D79ED06ED0F9D4035434560B0
:201040000D79ED43AD0708D0C5685F002646BE40B5438E68BE402E43C6600D79AD07AD0FDF
:20106000022D0ED1DD08AD002D18AC462D6A5E07F60E0F27B740BD430F69B7402F436546E0
:201080002F6205685F002646BE40B5430E79B607B60FBE402E4306604D68AD03AD0F4AD078
:2010A0009E08284DB6007519AC462D6E9E07F60E0F27B740BD4305273F07B84201D1002709
:2010C00015E0214FB84201D1012710E01F4FB84201D102270BE01E4FB84201D1032706E030
:2010E0001C4FB84202D1042701E024E00527B7402F43144D664637662D684E689543F6024E
:2011000000D515430F4F3D607D684E689543B60200D515437D600B4E803675684F689543F7
:20112000BF0300D51543756035684F689543FF0300D5154335605B1C0A681546DD4000D0CA
:201140005CE7F0BD001802400004005000080050000C0050001000500148806870470000F5
:20116000400000200248816802788918816070474000002010B5084800240168821511433C
:201180000160022000F00AF8002801D0012401E000F028F8204610BD0020024070B50F4EB4
:2011A000002431780546002915D07D20C000FFF770F801460A480068FFF76BF800F0A0FC68
:2011C000002808D1042D06D200222946401E00F01FF8756000E00124204670BD4000002042
:2011E0004C00002008B50948016801221143016000681040009005484038C26B01040A43A8
:20120000C263C06B0840009008BD00004010024010B500F071FD10BD10B50F4C2168032291
:201220005202914301432160C11FFF39FA390ED10A480621006848430949FFF72AF8401C65
:2012400002E0002805D0401E61694905F9D4002010BD032010BD0000007000404C00002073
:2012600040420F00FEB5044600680027984D994E800355D500200090F06BC00007D4F16BD6
:20128000A8050143F163F16B01400120009092480168821511430160FFF75EFF019005E063
:2012A000FFF75AFF0199401A022825D88A480068C005F5D5E8690321090208400FD0216CC7
:2012C00081420CD0E86903210902EA698843012109040A43EA61EA698A43EA61E861C0078F
:2012E0000FD0FFF739FF019008E0FFF735FF0199411A7A48814201D9032709E0E8698007FF
:20130000F3D5E869032109028843216C0843E8610098002804D0F16B012000078143F16369
:201320002078C00705D06869616880088000084368612078800705D568690C218843A168F8
:20134000084368612078400705D5686930218843E168084368612078C00606D56869032148
:20136000890288432169084368612088C00406D568690321090288436169084368612088E1
:20138000800506D56869032189048843A16A084368612088400506D56869032109058843EB
:2013A000E16A084368612078800606D56869032109038843A169084368612078400606D532
:2013C0006869032189038843E16908436861208840040ED56869216B80008008084368611B
:2013E0000121206B8907884203D1F06889130843F0602068000305D5686940218843616B55
:20140000084368612068810235480BD569698210A36B914319436961A16B914202D1F168D9
:201420000143F160216849020AD56969E26B814311436961E16B814202D1F1680143F16093
:20144000218809050DD5A969226A890889001143A961216A012904D1F1680122120411436D
:20146000F160218889040DD5A9690C229143626A1143A961616A042904D1F1680122120466
:201480001143F1602168C9010ED5A969032212039143626C1143A9610122616C520391420D
:2014A00002D1F1680143F160216889010DD5A969032212029143A26C1143A961A26CD11FED
:2014C000F93902D1F1680143F1603846FEBD000040100240001002400070004088130000B1
:2014E00000000001F8B50F46060043D04D4D28684007400FB84213D22868C008C00038439E
:201500002860FFF729FE044605E0FFF725FE011B4548814261D828684007400FB842F4D154
:201520003068424C81070DD5400704D5A068072109030843A060A0680F2109028843B1684D
:201540000843A0603078C00732D0706801280AD002280BD000280FD03449403103280ED0F1
:20156000C969890704E02168890301E021688901002906DB0120F8BD21684905F8E7096AB3
:20158000EFE7A168C908C9000143A160FFF7E4FD009006E0FFF7E0FD0099411A224881424C
:2015A0001BD8A068382108407168C9008842F1D128684007400FB84217D91A480168C908B5
:2015C000C90039430160FFF7C7FD054607E0FFF7C3FD411B1448814201D90320F8BD11483D
:2015E00000684007400FB842F1D13078400706D5A068072109038843F1680843A06000F0CC
:201600001DF8A1683C2289091140094A515CC906C90EC8400749086007480068FFF7BEFD9D
:20162000F8BD0000002002408813000000100240EC2300084C0000204400002010B5204C8E
:20164000A068204A8006400F16D0A0688006410F501001290FD0A1688906490F022912D019
:20166000A0688006400F042823D0A0688006400F032821D0002010BD206801218004400F0B
:201680008140104612E0E1688B07E1689B0F4906490F491C032B00D01046FEF7FAFDE168DE
:2016A0004904490E4843E168490F491CFEF7F1FD10BD0120C00310BD7D20000210BD000028
:2016C000001002400024F400F8B504007ED020783827C007FE4D002846D0A868E968384081
:2016E0008907890F102802D008280BD001E0032908D001206268000482420AD12968014365
:20170000296015E0286880032ED560680028DDD02AE0052301211B0489049A422A6802D157
:201720000A432A60EAE782432A60286888432860606800280CD0FFF70FFD064604E0FFF7DB
:201740000BFD801B642873D828688003F7D50BE0FFF702FD064604E0FFF7FEFC801B642809
:20176000F1D828688003F7D42078800769D5A868E96838408A070721920FC902102802D05D
:20178000002813D001E0022A10D0E068002846D0286888432169084328602868FF21013131
:2017A00008432860FFF7D8FC06462CE02A68520502D5E268002A89D06A687F231B029A4339
:2017C00063691B021A436A60002800E08DE00ED128688843216908432860286801218004B7
:2017E000400F8140BB48FEF754FDBB490860BB480068FFF7D3FC002877D122E0FFF7ACFCE4
:20180000801B02289FD828684005F7D568687F2109028843616909020843686011E029683B
:20182000FF20013081432960FFF796FC064605E0B5E0FFF791FC801B022884D82868400544
:20184000F7D42078A64E00072ED5A8688006400F03280AD0A0690028306A16D0012108431F
:201860003062FFF779FC07460BE0306A80071BD5A06900289FD017E0FFF76EFCC01B022826
:20188000C0D8306A8007F7D50EE0400840003062FFF762FC074604E0FFF75EFCC01B0228E1
:2018A0007DD8306A8007F7D4207840076BD5A86800278006400F042818D0E86BC00008D4B9
:2018C000E96B012000070143E963E96B01400127009184480168C90519D40168821511436A
:2018E0000160FFF739FC00900DE083E0F069800749D5A06800287DD045E0FFF72DFC009924
:20190000401A02284BD877480068C005F5D5A168012910D004200529F16911D04908490030
:20192000F161F1698143F161A068002816D0FFF713FC00900EE0F06901210843F061F3E75B
:201940000143F161F7E7FFF707FC0099411A6648814224D8F0698007F5D50DE0FFF7FCFB35
:20196000009006E0FFF7F8FB0099411A5E4881427FD8F0698007F5D4002F04D0E96B012033
:2019800000078143E9632078800624D50120E16980050029296810D00143296000E068E09A
:2019A000FFF7DAFB064604E0FFF7D6FB801B02285FD828680002F7D50DE081432960FFF7DB
:2019C000CBFB064604E0FFF7C7FB801B022850D828680002F7D4206A002844D0A9688906A9
:2019E000490F02294FD0012636060228286807D0B04300E07FE02860FFF7AEFB04463AE094
:201A0000B0432860FFF7A8FB074604E0FFF7A4FBC01B02282DD828688001F7D4A16A606A31
:201A2000E26A0843216B120211430843616B0843A16B0843E9682D4A11400843E860286826
:201A400030432860E868012109070843E860FFF783FB044604E0FFF77FFB001B022808D83F
:201A600028688001F7D548E0FFF776FB001B022801D90320F8BD28688001F5D4E8681C4974
:201A80000840E86039E00128F4D0E868626A8107890F91422FD17021A26A014091422AD1F5
:201AA0007F21E26A090201401202914223D11F214904226B014091421DD107214906626BB3
:201AC0000140914217D1400FA16B4007884211E0001002400024F4004C0000204400002073
:201AE0004010024000700040881300008C80C111FCFFFEEE01D00120F8BD0020F8BD0000C8
:201B0000094910B5401E884201D9012010BD074C60610321081F00F0EFF80020A061072040
:201B20002061002010BD0000FFFFFF0000E000E000BFFDE7F0B589B00C460746102917D03A
:201B4000182C17D0202C59D10E263919042204A8091FFEF73DFBA008019020461038C21777
:201B6000520F1018C0100025B10040000E1A43E00A26EAE70C26E8E728460199FEF789FB28
:201B8000002902D004291CD021E004A9069107906946087C0699029008460322491CFEF724
:201BA00017FB69460298C87404210698FEF7B4FC69460A7C12490798085C694642400A74E4
:201BC00005E0202C03D1042104A8FEF7A5FCA800C1190290042205A8FEF7FAFA042205A9F5
:201BE00004A8FEF738FC029804220019C01904A9FEF7EEFA6D1CEDB2AE42BDDC09B0F0BDBD
:201C0000CC23000800BFFDE770477047FEB50A2A26D8002A24D000236C4605E09D006D18DD
:201C2000455DE5545B1CDBB29342F7D300230425AD1A08E0D618B60076189F007F18865DE0
:201C40005B1CC655DBB29D42F4DC002306E0EF18BF00E65C7F185B1CC655DBB29342F6D351
:201C6000FEBD10B5FFF77EFA10BD30B593B03C216846FEF70CFB002501200F951095119545
:201C800040021295FFF7C8FA0224E0010390009440200A95059008200B9080030C90089463
:201CA000000204950D90099400010E906846FFF70BFD002802D072B600BFFDE707200FA960
:201CC00031C102210FA81295FFF70CFC002802D072B600BFFDE713B030BD704730B47446C9
:201CE000641E2578641CAB4200D21D46635D5B00E31830BC184700008307FF22DB0E9A4054
:201D00008907090E9940002808DB830809489B001B18186890430843186070470007000FAB
:201D20000838830804489B001B18D86990430843D861704700E400E000ED00E0BFF34F8F4E
:201D400004490348C860BFF34F8F00BFFDE700000400FA0500ED00E030B50022D2430A4C4E
:201D60000DE003785A400023401CD50702D05208624000E052085B1CDBB2082BF5D3491E98
:201D8000EFD2D04330BD00002083B8EDF3B507468DB01B480026194C0A90FFF717F9002555
:201DA00025E0102204A80A99FEF712FA154A04A90E98FEF75BFB0698059B0799019100909F
:201DC000049A21460120FFF7D1F8002808D1214608310120019B009AFFF7C8F8002801D077
:201DE000012606E00A98103410306D1C0A90BD42D7D3FFF7A7F830460FB0F0BD0030000835
:201E00003000010810000020046805464668200DC11FFF39FA3907D17008104940008842C9
:201E200002D30F49884201D3FEF724FC72B600200C490861486188610B49401E08600B49BC
:201E400008600B488560BFF34F8FBFF36F8F84F3088862B6B04700BFFDE7000000300008B1
:201E60000000010800E000E080E100E080E200E000ED00E030B51B491B4887B0002412C070
:201E8000032109024460016001250572447284720421C16001611921416106218161022115
:201EA000C161032101620463C5620C224463426281620838FEF7E2FE00280CD100940B488E
:201EC0000590019402946946039504940648FEF71DFE002802D0012007B030BD0248FEF707
:201EE000D9FFF9E70064004050010020FF070000F0B54D4C0746607887B015460E4600289E
:201F000007D0042D05D3084600F055F9E16888426CD103200002381A37460837002807D0D3
:201F2000012839D0022861D12078012837D15FE0182D01D2002140E0301D00F03CF90546F5
:201F40003A494038884201D300213CE00020C04301900220039004200490202005901F2076
:201F60000690FFF733F801A903A8FEF7A9FF0646FEF7E8FF002E01D000212FE010223946B0
:201F8000002000F097F80028F6D101202070102065600146A06026E02078012802D000210C
:201FA000062021E00C2D25D3301D00F004F9A168083D884203D0052016E0072014E06368A3
:201FC00042199A4201D902200EE06A07F5D12A46394600F06FF8002802D0A168032003E05A
:201FE000A0684119A160002000F026F807B0F0BD082D01D2A168E0E7301D00F0DCF8A168FA
:202000008842E0D162689042DDD1002000F014F81420FEF745FDBFF34F8F06490448C86021
:20202000BFF34F8F00BFFDE730000020C1F700000400FA0500ED00E030B58DB00C460546D6
:20204000242103A8FEF723F917484178002901D0C16801E00021C9436A461170080A507033
:20206000080C9070080ED0701571002050719071D0711472210A5172210C9172210ED17237
:202080000A4903910921069101210905049008910590490007900A9009910B9003A90448FF
:2020A000FEF710FD0DB030BD300000200503000050010020F7B512490026471882B0154692
:2020C000500702D0012005B0F0BDFEF77FFF002410E00398082201196846FEF779F8391988
:2020E0000120019B009AFEF741FF002801D0012602E00834AC42ECD3FEF724FF3046E2E712
:2021000000000108F7B501460F310909002486B0E4431C4F05460026049126E010223946C8
:202120006846FEF755F8184A69460798FEF79EF9102D02D31022002102E02A4600210FE0AC
:202140006846405C44400020E30703D00F4B64085C4000E06408401CC0B20828F4D3491CFC
:202160009142EDD3AD1A761C103704988642D5D30899E043884202D0012009B0F0BD002019
:20218000FBE7000030000108100000202083B8EDFEF7F0FFFFF769FDFEF7C0FA00BFFDE71A
:2021A0008178C2780904120611434278037810021843084370478178C27809041206114323
:2021C000427803781002184308437047637C777BF26B6FC53001672BFED7AB76CA82C97DAE
:2021E000FA5947F0ADD4A2AF9CA472C0B7FD9326363FF7CC34A5E5F171D8311504C723C37D
:202200001896059A071280E2EB27B27509832C1A1B6E5AA0523BD6B329E32F8453D100ED82
:2022200020FCB15B6ACBBE394A4C58CFD0EFAAFB434D338545F9027F503C9FA851A3408F8C
:20224000929D38F5BCB6DA2110FFF3D2CD0C13EC5F974417C4A77E3D645D197360814FDC39
:20226000222A908846EEB814DE5E0BDBE0323A0A4906245CC2D3AC629195E479E7C8376D3A
:202280008DD54EA96C56F4EA657AAE08BA78252E1CA6B4C6E8DD741F4BBD8B8A703EB566B1
:2022A0004803F60E613557B986C11D9EE1F8981169D98E949B1E87E9CE5528DF8CA1890D2B
:2022C000BFE6426841992D0FB054BB1652096AD53036A538BF40A39E81F3D7FB7CE3398247
:2022E0009B2FFF87348E4344C4DEE9CB547B9432A6C2233DEE4C950B42FAC34E082EA1662E
:2023000028D924B2765BA2496D8BD12572F8F66486689816D4A45CCC5D65B6926C704850BE
:20232000FDEDB9DA5E154657A78D9D8490D8AB008CBCD30AF7E45805B8B34506D02C1E8FEC
:20234000CA3F0F02C1AFBD0301138A6B3A9111414F67DCEA97F2CFCEF0B4E67396AC742296
:20236000E7AD3585E2F937E81C75DF6E47F11A711D29C5896FB7620EAA18BE1BFC563E4BD4
:20238000C6D279209ADBC0FE78CD5AF41FDDA8338807C731B11210592780EC5F60517FA9F1
:2023A00019B54A0D2DE57A9F93C99CEFA0E03B4DAE2AF5B0C8EBBB3C83539961172B047E23
:2023C000BA77D626E169146355210C7D01020408102040801B366CD8AB4D00010203040575
:2023E0000607080C10141820304000000000000000000000000000000000000000000000F0
:202400000000000000000000000000000100000002000000030000000400000006000000AC
:202420000700000008000000090000004C2400080000002050000000000100089C240008CB
:2024400050000020E00700001C010008CD11C5E4F8FBA2DC3983D84C0F78ACE4D1160BF728
:20246000B6BAA63D8B965F456224ECBA1C80820094A96649077152BF33DCE22E0000000066
:1C2480000000000000000000000000000100000004000000000000000024F40023
:20300000D80A002099310008A1630008015D0008000000000000000000000000000000006A
:20302000000000000000000000000000D36300080000000000000000D1630008796600082F
:20304000AB310008AB310008AB310008AB310008AB310008AB310008AB310008AB31000850
:20306000AB310008AB310008AB310008AB310008AB310008AB310008AB3100082567000880
:20308000AB310008AB310008AB310008AB310008AB310008AB310008AB310008AB31000810
:2030A000AB310008AB310008AB310008AB310008AB310008AB310008AB31000800F002F8EA
:2030C00000F03EF80CA030C8083824182D18A246671EAB4654465D46AC4201D100F030F8F2
:2030E0007E460F3E0FCCB6460126334200D0FB1AA246AB46334318476C4200008C4200003D
:20310000103A02D378C878C1FAD8520701D330C830C101D504680C60704700000023002483
:2031200000250026103A01D378C1FBD8520700D330C100D50B6070471FB51FBD10B510BDC4
:2031400000F09CF91146FFF7F7FF03F0A9FE00F0B4F903B4FFF7F2FF03BC00F0BBF900006F
:2031600070B505460C46164602E00FCC0FC5103E102EFAD2082E02D303CC03C5083E042E2E
:2031800007D301CC01C5361F03E021782970641C6D1C761EF9D270BD074880470748004717
:2031A000FEE7FEE7FEE7FEE7FEE7FEE704480549054A064B70470000F1660008BD3000086C
:2031C000D8040020D80A0020D8060020D806002010B5202A04DB0146203A9140002010BDA8
:2031E000914020239C1A0346E3401943904010BD034610B50B439B070FD1042A0DD308C8E4
:2032000010C9121FA342F8D018BA21BA884201D9012010BD0020C04310BD002A03D0D307F1
:2032200003D0521C07E0002010BD03780C78401C491C1B1B07D103780C78401C491C1B1BB5
:2032400001D1921EF1D1184610BDF8B5042A2CD3830712D00B78491C0370401C521E830708
:203260000BD00B78491C0370401C521E830704D00B78491C0370401C521E8B079B0F05D0B6
:20328000C91ADF002023DE1B08C90AE0FFF768FFF8BD1D4608C9FD401C46B4402C4310C05D
:2032A000121F042AF5D2F308C91A521EF0D40B78491C0370401C521EEAD40B78491C037096
:2032C000401C012AE4D409780170F8BD01E004C0091F0429FBD28B0701D50280801CC907EB
:2032E00000D00270704700290BD0C30702D00270401C491E022904D3830702D50280801C7F
:20330000891EE3E70022EEE70022DFE7020A08704A70020C8A70020ECA70704700220309E8
:203320008B422CD3030A8B4211D300239C464EE003460B433CD4002243088B4231D30309DF
:203340008B421CD3030A8B4201D394463FE0C3098B4201D3CB01C01A524183098B4201D337
:203360008B01C01A524143098B4201D34B01C01A524103098B4201D30B01C01A5241C308BD
:203380008B4201D3CB00C01A524183088B4201D38B00C01A524143088B4201D34B00C01A1F
:2033A0005241411A00D201465241104670475DE0CA0F00D04942031000D3404253400022D8
:2033C0009C4603098B422DD3030A8B4212D3FC22890112BA030A8B420CD3890192118B424C
:2033E00008D3890192118B4204D389013AD0921100E08909C3098B4201D3CB01C01A5241D2
:2034000083098B4201D38B01C01A524143098B4201D34B01C01A524103098B4201D30B0127
:20342000C01A5241C3088B4201D3CB00C01A524183088B4201D38B00C01A5241D9D2430861
:203440008B4201D34B00C01A5241411A00D20146634652415B10104601D34042002B00D54C
:203460004942704763465B1000D3404201B50020C046C04602BD704770477047754600F030
:2034800025F8AE46050069465346C008C000854618B020B5FFF78AFE60BC00274908B646D0
:2034A0000026C0C5C0C5C0C5C0C5C0C5C0C5C0C5C0C5403D49008D46704710B50446C04659
:2034C000C0462046FFF745FE10BD0000004870477804002001491820ABBEFEE726000200E7
:2034E00070470000FEB514460546002922D1042B20D3A07821780704E07800060743607843
:20350000000208430743384600F0C0F9002811D003210902681A8D4211D00CDCFF3D213D01
:2035200013D0022D1BD0042D04D10C2B02D3201D00F0C0F9FEBD012801D00228FAD11A468C
:203540002146284603F068FBFEBD0C2BFCD36946204600F067FC684602F0A0FEFEBD0C2BE7
:20356000FCD3A078E17800040906084361782278090211430843009021796846017162796B
:203580004271E079A37904021C436846C4805048002605462035042A4ED006DC012A0BD01A
:2035A000022A15D0032A04D11FE00F2A5BD0102A69D00223009652E005460484454800686D
:2035C000846300F06FF9288C00230122009029E00546448440480068446300F063F9002300
:2035E000688C02221146009039E0642C00D96424002907D001290ED0FF2915D00123032264
:2036000000962CE02C7100F04DF90023287903221946009023E06C7100F044F9687900234C
:203620000322009001211AE02C716C7100F03AF900230322009411E02849642C01D26424F3
:2036400002E08C4200D90C46C4840485204602F0DFFD00F027F9009400230422FF213846FF
:2036600000F0C6FCFEBD0024194800F0E3F8002804D01B4806701B48066000E0042423467E
:203680000F220096EAE70446008C0023009001221946384600F0ACFC608C009000230222AE
:2036A0000121384600F0A4FC28790023009003221946384600F09CFC687900900023032243
:2036C0000121384600F094FCE08C0090C4E70000840300206C01002004020020204E00005B
:2036E000480000205800002010B5084C607800280AD0074800F09EF8002805D005490020B7
:20370000087005490860607010BD000010000020840300204800002058000020094800785E
:2037200000280DD008480168491C02D00168491C016000680549884202D3054901204870E9
:20374000704700004800002058000020881300001000002010B53C2100F0ECF910BD10B57E
:203760000446FFF7F7FFE16B814201D1012010BD002010BD10B5044600F018F80A4920686D
:20378000884209D1A088012806D12046FFF7E7FF002801D0012010BD204600F00FF8204671
:2037A00000F048F8002010BD414A504110B540220149FFF7D5FC10BD00F80108F8B50446D3
:2037C0004021FFF7A1FD174801252060A58000F0EFFA21460C31A06002F0E4FD2646257574
:2037E00016361D22771C10A0627503F0A3FB30701A223A701223237622770C22627714206B
:20380000A5772084608420463221203001714171C821E184218500218172C1722163616354
:203820000176F8BD414A504141707220323920323032360070B50446FFF78CFF104EE06317
:20384000304600F091F90F4D6868002811D140222146304600F0F0F9E868002809D1A868C8
:20386000002806D1402221463046FFF7C1FC002801D0002070BD0449A0680860012070BD06
:2038800000F801084800002008000020002803D003490968884201D1012070470020704794
:2038A000080000200248012101700021016170474800002010B50122034614460021585C01
:2038C000002808D00022202806D0002420385E2802D9002010BD0024491CC9B20829EED3E8
:2038E00022430B48002A07D001460C398A680146104602F057FD03E008221946FFF7A5FCAB
:2039000003480C38FFF796FF02F00EFE012010BD9003002010B505E00B780478634003702F
:20392000401C491C521EF7D210BD0000F0B585B0140005460E463DD0002D03D01022684646
:20394000FFF783FC2021204600F038F810221A493046FFF7DFFF304600F0C9F8102130467E
:2039600000F0D6F8144F0D24E03F2001C11910223046FFF7CFFF304600F040F8304600F06B
:20398000B6F81021304600F0C3F8641E2406240EEBD1394610223046FFF7BCFF002D09D0AF
:2039A000102229463046FFF7B5FF102269462846FFF74BFC05B0F0BD4003002010B50C46DE
:2039C0000A4601460348FFF740FC2146014802F099F910BD6002002030B50022064C08E00F
:2039E000835C1D092D011B072D191B0FEB5C8354521C8A42F4D330BDE4700008FEB507469A
:203A00000024A000C519042229466846FFF71DFC684600780E2100F001FC064668464078BE
:203A20000B2100F0FBFB4640684680780D2100F0F5FB46406846C078092100F0EFFB464044
:203A4000684606710078092100F0E8FB0646684640780E2100F0E2FB4640684680780B21C6
:203A600000F0DCFB46406846C0780D2100F0D6FB46406846467100780D2100F0CFFB06468D
:203A800068464078092100F0C9FB4640684680780E2100F0C3FB46406846C0780B2100F051
:203AA000BDFB46406846867100780B2100F0B6FB0646684640780D2100F0B0FB464068462F
:203AC0008078092100F0AAFB46406846C0780E2100F0A4FB46406846C6712846042201A95C
:203AE000FFF7B3FB641CE4B2042C8AD3FEBD10B504460322012102F06DFC02221146204632
:203B000002F068FC01220321204602F063FC10BD30B50022064C08E0835C1D092D011B07EE
:203B20002D191B0FEB5C8354521C8A42F4D330BDE471000870B50022D2430024094D0DE0E9
:203B4000035D5A400023D60702D052086A4000E052085B1CDBB2082BF5D3641C8C42EFD34C
:203B6000D04370BD2083B8ED70B588B0002101910291039104910091264904230968264CE7
:203B80008A012449950FC031098C8905890D002D05D0950F012D04D1256AAD0201D48D0294
:203BA00000E04D020126F606AE191F25ED0686420DD80123DB03960F05D0920F012A04D1EB
:203BC000226A920201D4890200E04902401A13494019C00A0B60124908600390012002215C
:203BE0000490029301910F48206100F035FE694601A800F0ABFD0C4908600C49009808600D
:203C000020690B4908400B49086000F0E1FD08B070BD00000075FF1F002002405C0000209F
:203C200060000020FBC308004C00002064000020FAC3000050000020F7B50025564982B07F
:203C4000681E174608605549086056485449016100F002FE92E00024E4430026019419E015
:203C6000F200FF2000210092FFF7B2FAC343CA4301981C400240019203980021405D009A0E
:203C8000FFF7A6FA019A044311436D1C761C0191082E01D2BD42E3D300F0B2FE064616E00B
:203CA00000F0AEFE811B7D20C00081420FD93A490320086039480168491C01D10299016099
:203CC00038480069384908403849086059E0354800698003800FE3D1324E31483061706901
:203CE000012108437061EFF3108072B602990C60BFF36F8F029A019980F31088516000F053
:203D00007FFE04461AE000F07BFE011B7D20C000814213D920490320086020480168491C27
:203D200001D1029901601F4801691F4A11401F4A1160416949084900416122E0306980034C
:203D4000800FE0D17069400840007061316916480140164801600068002809D00E49012018
:203D600008600E480168491C0BD10299016008E0094900200860029808300290BD4200D2E8
:203D800069E708480169084801400848016000F01FFD05B0F0BD000054000020680000206D
:203DA000FBC3080000200240FAC300005000002010B5104948680B688A68010A040C6140BF
:203DC000040E61405140140A6140140C6140120E5140484019020A0E190400061204090E63
:203DE00010430902DBB20843184301D10120000610BD00009075FF1F10B5074807498068FD
:203E00000860074800F08CFC00220121044800F01AFA02F05FFB10BD8403002008000020F7
:203E2000A400002010B58278C37812041B061A43437804781B0223431A430A6002790A71B9
:203E400042794A71827AC37A12041B061A43437A047A1802204302438A6010BD00B59BB06B
:203E60003BE06B4610AA40212D4800F0C5FA002839D11398030002F0D5FF1027090B0D0F2A
:203E800011131517191B1D1F2123252701231CE002231AE0032318E0042316E0052314E03C
:203EA000062312E0072310E008230EE00C230CE010230AE0142308E0182306E0202304E015
:203EC000302302E0402300E000231649012008706A4611991098FFF705FB4021104800F0AE
:203EE00080FA0028BDD110481099016011994160129981601399C16014990161159941612D
:203F0000169981611799C1611899016219994162402269462830FFF723F91BB000BD0000D2
:203F2000A400002084000020C403002010B58CB0002002F0FBF80446012002F0F7F819497E
:203F40000A6869460A70130A4B70130C8B70120ECA700C71220A4A71220C8A71220ECA7182
:203F60000872020A4A72020C8A72000EC872242103A8FFF7C9F9FF202230039009210020B7
:203F8000069101210905049008910590490007900A9009910B906A4603A9034800F0CEF98B
:203FA0000CB010BD08000020A400002030B589B00C46054624216846FFF7A6F909210020FF
:203FC00003910121009509050190059102904900049007900691089022466946034800F0DA
:203FE000ADF9002800D0012009B030BDA4000020FEB50026089D009601966C460296207013
:20400000070A6770070CA770000EE07021716271A371E6712572280A6072FF200C226946C9
:204020002430FFF7C3FFFEBD0020704772B6FEE70020704700207047002070470020704779
:2040400030B51A4C3523026817491B01A24200D117498032016414681F252D04AC43858EB8
:204060002D042C4314600A46703242640268803214680F252D06AC43058F2D062C431460FC
:204080000A46B0328264D832C264132252018A1802654F22D2008A1842650022C81800E0D9
:2040A00004C18142FCD330BD00B400400068004050B70040F0B58D680C692C4360C90839F1
:2040C000002E16D00126B60735432C438E69CD690F8C35434E693F063E4335438E89406D08
:2040E0003604354348267343C01830C000230B4F0EE0AD04E9E7D418E678D55C3606354307
:20410000A6786478360424022643354320C01B1DCC683C5D9C42EED8F0BD000011730008A2
:2041200003494A6901231B04184302434A6170470020024010B5084B5A69084C2240012423
:204140006403042801D0224300E0A243C800044910430843586110BD0020024007E0FFFF51
:204160000200010030B505494C6901252C434C610260BFF36F8F436030BD0000002002400E
:2041800030B50B4C002362690125AD042A436261EFF3108272B620C95B1C20C0DBB2402B1A
:2041A000F9D320698003800FFBD182F3108830BD00200240F8B5044600F022FC03270646F5
:2041C0003F04124D06E0601C04D000F019FC801BA04213D228693842F5D128690C490840A1
:2041E0000C4929610CD00C4948600120F8BD601C06D000F005FC801BA04201D30320F8BDC5
:2042000028694003F3D40020F8BD000000200240FAC30000FBC308005C04002010B50022E2
:204220001346CC0700D042404400000601D51B2000E0002044405B1C4908DBB2E0B2082B07
:20424000EFD3104610BDF7B55C22125CCB0582B00193012A08D0022A06D0016E022211435F
:204260000166012005B0F0BD0668B26DCB0400930B049C460B024F078D068C039E46002FDC
:2042800001D0D7071BD06F0F01D0970717D5019F7F0F01D0570712D5009F3F0F01D017078B
:2042A0000DD563465F0F01D0D70608D5A70F01D0970604D573469F0E05D0570603D4F76DAA
:2042C00001231F43F7654B0701D0D3071BD16B0F01D0930717D4019B5B0F01D0530712D42C
:2042E000009B1B0F01D013070DD463465B0F01D0D30608D4A30F01D0930604D473469B0E3E
:2043000006D0520604D50268D36D02242343D3650A0605D502688032D36D049C2343D365A4
:20432000CA0505D502688032136E049C234313660068426D0A434265002093E770B50446A4
:204340004030007F022802D0206E082107E020688030436C9B0206D5206E0121490208432F
:204360002066012070BD406C8003850F2B462046FFF7A0FE01202168A8408031C864A065C7
:20438000002070BD10B55C22125C012A07D0022A05D0016E022211430166012010BD0A686E
:2043A000002A0ED00A7B0B6952071A430B7A4C6949689B07406C2343C90040180CC000209A
:2043C00010BD0B7A4A699B071A430B7B0C8ADB06240449682343006C1A4389004018026091
:2043E000EDE700688030402903D080690007000F70470069FAE70000F0B59C465C231B5C18
:204400000024022B03D0016E0822114356E0FF250135036840293ED080339E6936074BD007
:204420009D69ED0103D51D68ED0500D501249B699B059B0F1D19C46C48236B43E41801264F
:204440002368B6073340536023683AD0DB00DB081360012623687607334093602368761280
:20446000DB0FDB071361A3889BB2D36163681B031B0FD36063683340536163687600334064
:204480009361636800265B005B0E13626368DB0F083453621CE080331E6936070CD01D6983
:2044A000ED0103D51D68AD0500D501241B699B059B0F1D19846CBFE7016E29430166012008
:2044C000F0BDDB005B0DC3E7A75D63469F55761C074FD368FB5CB342F6D80068402903D0C0
:2044E0008030C5610020F0BD80304561FAE700001173000800688030406C4007400F704745
:20450000F8B5040005D025464035287F002802D006E00120F8BD00206877204600F0C2F8C9
:204520002068816910229143816100F069FA0746012604E000F064FAC01B0A2810D82068AB
:2045400080690007F6D4206881693143816100F057FA07460AE000F053FAC01B0A2805D939
:20456000206E3043206603202877D2E720688069C007F0D0206881690222114381614748E6
:204580002168814202D1464960680860207C40210128206882693AD00A438261607C01216C
:2045A000890301282068826933D08A438261A07C012109030128206882692CD00A4382610E
:2045C00021688869032212029043A2681043886120688169A4229143816121680A691020F5
:2045E00082430A61E168012917D000291DD02022022916D021688B6980273B438B612168B1
:204600000B6903430B61E06803280AD00DE08A43C3E70A43CAE78A43D1E7206881690422A8
:2046200001E02068816911438161207E7F21400649064018E1690902FF3901390843216A29
:20464000491E0843A18A0A0401210904521A10432268D0610320A2680002824210D1E26AA6
:20466000A06A1202FF3A401E013A1043226B1201103A1043A28C1204511A08432168C8600F
:2046800020688030016CE26B114301642046FFF7D7FC0020A06520662E77F8BD0064004097
:2046A0000065004010B59AB00446142113A8FEF72BFE4C216846FEF727FE17492068884207
:2046C00028D101204006002400901294684600F02BFA002801D0FFF7A9FC1048C26B8114AF
:2046E0000A43C263C26B0A401892416B012211434163406B1594104018900320C00213908C
:2047000002201490032016901790052013A9000700F0B6F81AB010BD006400400010024050
:20472000014640310A7F012A05D0016E0422114301660120704702220A7701688A695208B5
:2047400052008A610021016608467047F8B51E4E044630780F4601280AD00120307000204B
:2047600070607D20C000FFF725FD002802D028E00220F8BD2168042904D00021C9433960CB
:20478000A56814E06068FFF7CBFC7D20C000FFF711FD16E029466068FFF7CCFC7D20C000EA
:2047A000FFF708FD002801D03D6005E06D1CE268A1688918A942EDD804494A6902239A4354
:2047C0004A6100213170F8BD5C0400200020024010B57D200124C000FFF7ECFC05484169B9
:2047E0008204114341614069002800DA0024204610BD000000200240F0B51FB4144C0646B5
:204800002078154601280AD00120207000277D20C0006760FFF7CEFC002803D010E00220D9
:2048200005B0F0BD012E0DD029460198FFF7A8FC7D20C000FFF7BEFC06494A69B2434A61B9
:204840002770EDE72A46039B0198FFF78BFCEFE75C04002000200240064900204A69002AC5
:2048600007DA054A8A60054A8A604969002900DA012070470020024023016745AB89EFCD36
:20488000F0B5002303249DE001259D402A4072D00E79B607B60F012E01D0022E16D18668EF
:2048A0002746B4465E00B646B7406646BE43B446CF687646B7406646374387604668AE4303
:2048C0000D79ED06ED0F9D40354345600D79ED43AD0708D0C5685F002646BE40B5438E6843
:2048E000BE402E43C6600D79AD07AD0F022D0ED1DD08AD002D18AC462D6A5E07F60E0F2720
:20490000B740BD430F69B7402F4365462F6205685F002646BE40B5430E79B607B60FBE404E
:204920002E4306604D68AD03AD0F4AD09E08284DB6007519AC462D6E9E07F60E0F27B740A3
:20494000BD4305273F07B84201D1002715E0214FB84201D1012710E01F4FB84201D1022746
:204960000BE01E4FB84201D1032706E01C4FB84202D1042701E024E00527B7402F43144DC5
:20498000664637662D684E689543F60200D515430F4F3D607D684E689543B60200D5154333
:2049A0007D600B4E803675684F689543BF0300D51543756035684F689543FF0300D5154380
:2049C00035605B1C0A681546DD4000D05CE7F0BD001802400004005000080050000C0050BF
:2049E00000100050426913460B401B0491430B4383617047002A01D08161704781627047FE
:204A00000148806870470000940000200248816802788918816070479400002010B508484B
:204A200000240168821511430160022000F00AF8002801D0012401E000F028F8204610BD47
:204A40000020024070B50F4E002431780546002915D07D20C000FEF761FC01460A4800689C
:204A6000FEF75CFC00F05CFD002808D1042D06D200222946401E00F02DF8756000E00124B8
:204A8000204670BD94000020A000002008B50A480168012211430160006810400090064829
:204AA0004038C26B01040A43C263C06B08400090C81400F02BFD08BD40100240002805DB84
:204AC000C106C90E01208840014908607047000000E100E010B502F0B3F910BD10B50F4CD5
:204AE000216803225202914301432160C11FFF39FA390ED10A480621006848430949FEF73E
:204B00000DFC401C02E0002805D0401E61694905F9D4002010BD032010BD00000070004081
:204B2000A000002040420F00FEB5044600680027984D994E800355D500200090F06BC00054
:204B400007D4F16BA8050143F163F16B01400120009092480168821511430160FFF750FFB7
:204B6000019005E0FFF74CFF0199401A022825D88A480068C005F5D5E869032109020840D2
:204B80000FD0216C81420CD0E86903210902EA698843012109040A43EA61EA698A43EA613A
:204BA000E861C0070FD0FFF72BFF019008E0FFF727FF0199411A7A48814201D9032709E0EA
:204BC000E8698007F3D5E869032109028843216C0843E8610098002804D0F16B01200007B1
:204BE0008143F1632078C00705D06869616880088000084368612078800705D568690C21BC
:204C00008843A168084368612078400705D5686930218843E168084368612078C00606D570
:204C200068690321890288432169084368612088C00406D568690321090288436169084364
:204C400068612088800506D56869032189048843A16A084368612088400506D5686903215A
:204C600009058843E16A084368612078800606D56869032109038843A16908436861207881
:204C8000400606D56869032189038843E16908436861208840040ED56869216B8000800815
:204CA000084368610121206B8907884203D1F06889130843F0602068000305D568694021DF
:204CC0008843616B084368612068810235480BD569698210A36B914319436961A16B914276
:204CE00002D1F1680143F160216849020AD56969E26B814311436961E16B814202D1F16804
:204D00000143F160218809050DD5A969226A890889001143A961216A012904D1F168012249
:204D200012041143F160218889040DD5A9690C229143626A1143A961616A042904D1F1683C
:204D4000012212041143F1602168C9010ED5A969032212039143626C1143A9610122616C03
:204D60005203914202D1F1680143F160216889010DD5A969032212029143A26C1143A961CA
:204D8000A26CD11FF93902D1F1680143F1603846FEBD000040100240001002400070004055
:204DA0008813000000000001F8B50F46060043D04D4D28684007400FB84213D22868C00845
:204DC000C00038432860FFF71BFE044605E0FFF717FE011B4548814261D828684007400FFC
:204DE000B842F4D13068424C81070DD5400704D5A068072109030843A060A0680F2109027A
:204E00008843B1680843A0603078C00732D0706801280AD002280BD000280FD0344940311D
:204E200003280ED0C969890704E02168890301E021688901002906DB0120F8BD2168490503
:204E4000F8E7096AEFE7A168C908C9000143A160FFF7D6FD009006E0FFF7D2FD0099411A4A
:204E6000224881421BD8A068382108407168C9008842F1D128684007400FB84217D91A48C9
:204E80000168C908C90039430160FFF7B9FD054607E0FFF7B5FD411B1448814201D9032034
:204EA000F8BD114800684007400FB842F1D13078400706D5A068072109038843F1680843B5
:204EC000A06000F01DF8A1683C2289091140094A515CC906C90EC840074908600748006866
:204EE000FFF7B0FDF8BD000000200240881300000010024024730008A000002098000020F4
:204F000010B5204CA068204A8006400F16D0A0688006410F501001290FD0A1688906490FFC
:204F2000022912D0A0688006400F042823D0A0688006400F032821D0002010BD20680121D8
:204F40008004400F8140104612E0E1688B07E1689B0F4906490F491C032B00D01046FEF752
:204F6000DDF9E1684904490E4843E168490F491CFEF7D4F910BD0120C00310BD7D200002FE
:204F800010BD0000001002400024F400F8B504007ED020783827C007FE4D002846D0A86884
:204FA000E96838408907890F102802D008280BD001E0032908D001206268000482420AD178
:204FC00029680143296015E0286880032ED560680028DDD02AE0052301211B0489049A42EF
:204FE0002A6802D10A432A60EAE782432A60286888432860606800280CD0FFF701FD064666
:2050000004E0FFF7FDFC801B642873D828688003F7D50BE0FFF7F4FC064604E0FFF7F0FC89
:20502000801B6428F1D828688003F7D42078800769D5A868E96838408A070721920FC90247
:20504000102802D0002813D001E0022A10D0E068002846D028688843216908432860286880
:20506000FF21013108432860FFF7CAFC06462CE02A68520502D5E268002A89D06A687F23F6
:205080001B029A4363691B021A436A60002800E08DE00ED12868884321690843286028686A
:2050A00001218004400F8140BB48FEF737F9BB490860BB480068FFF7C5FC002877D122E012
:2050C000FFF79EFC801B02289FD828684005F7D568687F2109028843616909020843686035
:2050E00011E02968FF20013081432960FFF788FC064605E0B5E0FFF783FC801B022884D8BB
:2051000028684005F7D42078A64E00072ED5A8688006400F03280AD0A0690028306A16D0BE
:20512000012108433062FFF76BFC07460BE0306A80071BD5A06900289FD017E0FFF760FCE1
:20514000C01B0228C0D8306A8007F7D50EE0400840003062FFF754FC074604E0FFF750FC04
:20516000C01B02287DD8306A8007F7D4207840076BD5A86800278006400F042818D0E86B57
:20518000C00008D4E96B012000070143E963E96B01400127009184480168C90519D40168C0
:2051A000821511430160FFF72BFC00900DE083E0F069800749D5A06800287DD045E0FFF710
:2051C0001FFC0099401A02284BD877480068C005F5D5A168012910D004200529F16911D01E
:2051E00049084900F161F1698143F161A068002816D0FFF705FC00900EE0F0690121084302
:20520000F061F3E70143F161F7E7FFF7F9FB0099411A6648814224D8F0698007F5D50DE00D
:20522000FFF7EEFB009006E0FFF7EAFB0099411A5E4881427FD8F0698007F5D4002F04D0DE
:20524000E96B012000078143E9632078800624D50120E16980050029296810D00143296054
:2052600000E068E0FFF7CCFB064604E0FFF7C8FB801B02285FD828680002F7D50DE0814355
:205280002960FFF7BDFB064604E0FFF7B9FB801B022850D828680002F7D4206A002844D0ED
:2052A000A9688906490F02294FD0012636060228286807D0B04300E07FE02860FFF7A0FB6D
:2052C00004463AE0B0432860FFF79AFB074604E0FFF796FBC01B02282DD828688001F7D4C6
:2052E000A16A606AE26A0843216B120211430843616B0843A16B0843E9682D4A1140084331
:20530000E860286830432860E868012109070843E860FFF775FB044604E0FFF771FB001B94
:20532000022808D828688001F7D548E0FFF768FB001B022801D90320F8BD28688001F5D434
:20534000E8681C490840E86039E00128F4D0E868626A8107890F91422FD17021A26A014015
:2053600091422AD17F21E26A090201401202914223D11F214904226B014091421DD1072108
:205380004906626B0140914217D1400FA16B4007884211E0001002400024F400A00000206E
:2053A000980000204010024000700040881300008C80C111FCFFFEEE01D00120F8BD0020CC
:2053C000F8BDF8B504000CD0606A002500280AD02561656126464036A562707F002808D076
:2053E0000BE00120F8BD6168C81FFD38F2D0E561F0E73577204600F05BF80222727720683E
:2054000001684023994301600723E1681B02994201D9002001E0012000030F273F02B942A7
:2054200002D0994200D0A562FF236168053319402127A368BF023B40194323691340227D03
:205440001943D207D20F11430123A2695B021A401143E26938231A401143226A80231A40CB
:205460001143A26A9B011A40114322681160A1690422090C1140626A10231A401143626B77
:2054800008231A4011430F23E2681B021A4011430122120310400143206841602068C16945
:2054A00052109143C1612566012070770020F8BD10B586B0044614216846FDF725FF104993
:2054C000206888421AD10F48C26BC9130A43C263C26B0A400592426B02210A434263406B42
:2054E000019108400590382000900020029003900920049069460448FFF7C2F906B010BD24
:20550000003C0040001002400004005003490A6803235B029A4302430A60704700000140A4
:20552000094910B5401E884201D9012010BD074C60610321081F01F083FC0020A06107204D
:205540002061002010BD0000FFFFFF0000E000E0704770477047000030B5034620331A7FE1
:20556000012A49D001221A770325CA682D02AA438D6800682A430125AD02AA434D68002458
:205580002A430125ED02AA430D682A4301252D03AA430D692A4301256D03AA434D692A43EE
:2055A0000125AD03AA430D6B2A430F252D04AA430D8B2D042A4301252D07AA43CD692A43D1
:2055C0000E4DA84214D10F252D05AA430D8D2D052A4301252D06AA430D6A2A4301256D0652
:2055E000AA434D6AC96A2A4301256D07AA430A4342641C77002030BD022030BD002C0140D1
:20560000F0B5034620331A7F012A2DD001221A7702225A7705686A68AC68144EB54204D15E
:205620000F273F05BA434F683A437027BA430F6817436F600068B0420CD0012292079042C7
:2056400008D00B4A904205D00A4A904202D00A4A904204D1802289689443214381600120B3
:20566000587700201877F0BD0220F0BD002C014000040040000800400040014070B504008D
:2056800005D025462035687F002802D006E0012070BD00202877204600F016F8022068773C
:2056A000211D206801F090F8012240342272AA77EA7722706270A270E27022716271A271BD
:2056C000E2716A77002070BD08B500680121890788420FD10848C16B01221143C163C06B86
:2056E00010400022009011460F20FFF7F3F90F20FFF7E4F908BD000000100240014620318F
:205700004A7F012A01D00120704702224A770168CB6801221343CB6000680E4988420BD063
:205720009107884208D00C49884205D00B49884202D00B49884207D181680A4B194006298F
:2057400005D0DB1F994202D0016811430160002070470000002C01400004004000080040DF
:2057600000400140070001000168CA6852085200CA6001680A6A084B1A4207D10A6A9B10AC
:205780001A4203D10A68520852000A6001212030417700207047000011110000F8B5054636
:2057A00004462035287F0026012817D001272F7702206877226890682F4B1840FF231B020B
:2057C000984390600868502838D00EDC20284FD006DC00284CD010281ED149E00220F8BD70
:2057E000302845D0402817D13AE060282ED0702818D001221203801A0FD090420CD1CB6839
:205800004A688968206801F046F820688168012292031143816000E001266F770020287724
:205820003046F8BDCB684A688968206801F033F821688868772210438860EEE7CA684968BE
:20584000206801F0AFF95021206806E0CA684968206801F0B8F96021206801F027F8DCE75F
:20586000CA684968206801F09DF940212068F4E7226801461046F0E788FFCEFF7047000069
:20588000F8B504460068C66805690027A907002913DAB10711D5F91E0161012020772068C9
:2058A00080698007204602D0FFF7E8FF04E000F0C5F8204600F0B0F92777680716D5700764
:2058C00014D504202168C043086102202077206880698005800F204602D0FFF7CFFF04E0A8
:2058E00000F0ACF8204600F097F92777280715D5300713D508202168C04308610420207780
:205900002068C0698007204602D0FFF7B7FF04E000F094F8204600F07FF92777E80616D5C6
:20592000F00614D510202168C0430861082020772068C0698005800F204602D0FFF79EFF14
:2059400004E000F07BF8204600F066F92777E80708D0F00706D001202168C043086120469D
:2059600000F0CCF9280601D4A80407D5300605D52168134808612046FFF7EBFDE80507D57D
:20598000300605D521680F4808612046FFF7E0FD680608D5700606D540202168C043086184
:2059A000204600F0ACF9A80608D5B00606D520202168C04308612046FFF7CCFDF8BD0000C1
:2059C0007FDFFFFFFFFEFFFF30B587B0044614216846FDF799FC2468144D0022144801230F
:2059E0000221AC420ED1446B1C434463406B6C4618400590080207C40491052003926946E5
:205A000000070FE00B4DAC420ED1456B042425434563406B2040059040206C4607C40CC436
:205A200069460548FEF72CFF07B030BD002C01400010024000040040000800507047F8B5E7
:205A400004460020264620360090307F0D4601280CD00120082730770C2A48D008DC002A30
:205A600010D0042A1ED0082A06D130E00220F8BD102A52D0142A60D00120009000203077F8
:205A80000098F8BD206800F01BFF2068816939438161206881690422914381612068816997
:205AA0002A6911E0206800F051FF206881690122D202114381612068816952109143816171
:205AC000206881692A69120211438161D6E7206800F080FF2068C1693943C1612068C169C1
:205AE00004229143C1612068C1692A6912E0206800F0B4FF2068C1690122D2021143C16109
:205B00002068C269012189028A43C2612068C1692A6912021143C161B0E7206800F0D8FF80
:205B20002068416D394341652068426D04218A4342652068416D2A6912E0206800F0FCFF0F
:205B40002068416D0122D202114341652068426D012189028A4342652068416D2A691202E9
:205B6000114341658AE770B5040005D025462035687F002802D006E0012070BD0020287728
:205B8000204600F017F802206877211D206800F01BFE012240342272AA77EA7722706270BF
:205BA000A270E27022716271A271E2716A77002070BD000010B594B004464C216846FDF725
:205BC000A3FB12492068884212D101204005009000200E906846FEF7A7FF002801D0FEF7AC
:205BE00025FA0B480268C1140A430260006809E00849884208D106484038C26B02210A439D
:205C0000C263C06B0840139014B010BD002C014040100240000400407047000030B504468F
:205C20000223203000290ED0042911D020464030082912D00C2915D0102918D0C278012A51
:205C40001AD0012030BD827F012AFAD1837714E0C27F012AF5D1C3770FE00278012AF0D1A6
:205C600003700AE04278012AEBD1437005E08278012AE6D1837000E0C3700122206800F011
:205C8000FDFD174A20681749904207D0884205D0154B984202D0154B984204D1436C012589
:205CA000ED032B4343642068012390420AD09A07904207D00E4A904204D00E4A904201D044
:205CC000884207D181680C4A1140062905D0D21F914202D0016819430160002030BD0000C5
:205CE000002C014000400140004401400048014000040040000800400700010070477047A6
:205D0000FEE70000F0B589B00C460746102917D0182C17D0202C59D10E263919042204A808
:205D2000091FFDF792FAA008019020461038C217520F1018C0100025B10040000E1A43E041
:205D40000A26EAE70C26E8E728460199FDF7E6FA002902D004291CD021E004A90691079075
:205D60006946087C0699029008460322491CFDF76CFA69460298C87404210698FDF72CFE27
:205D800069460A7C12490798085C694642400A7405E0202C03D1042104A8FDF71DFEA80034
:205DA000C1190290042205A8FDF74FFA042205A904A8FDF7AFFD029804220019C01904A9E8
:205DC000FDF743FA6D1CEDB2AE42BDDC09B0F0BDE472000810B5012211020248FEF70AFEDB
:205DE00010BD00000004005030B51D491D4887B0002412C0032109024460016001250572D4
:205E0000447284720421C160016119214161062181610221C161032101620463C5620C22C1
:205E20004463426281620838FEF76AFB002801D0FEF7FCF800940C48059001940294694661
:205E4000039504940748FEF79DFA0648FEF768FC002201210348FEF7F6F907B030BD000079
:205E600000640040A4000020FF070000F0B587B014216846FDF748FA1B48416B012529431E
:205E80004163416B29400591426B02210A434263426B0A400592426B04210A434263406BF4
:205EA000052708403F0705900022CF213846FEF7A1FDFF26C436002231460C48FEF79AFDD8
:205EC000CF200024009002946946019503943846FEF7D6FC02946946044800960195039414
:205EE000FEF7CEFC07B0F0BD001002400004005010B511480F490160FF21053141600021EA
:205F00000322816012020161C2604161C1610122016252024162826181620722C26201632B
:205F200008214163FFF74DFA002801D0FEF77EF810BD0000003C00400801002010B598B074
:205F40000024149415941C210DA81694FDF7DCF934216846FDF7D8F92648254901600F2132
:205F600084604160046164214461C16080218161FFF7F9FD002801D0FEF758F814941594EE
:205F800014A91C481694FFF73BFB002801D0FEF74DF8602012940E940D900F941094119486
:205FA00004220DA913941348FFF749FD002801D0FEF73CF8012000944003059001940294ED
:205FC00004940003039406940794099008940A940B9469460C940748FFF7BEFA002801D0A3
:205FE000FEF724F80348FFF7EFFC18B010BD0000002C01406C01002010B588B00024009420
:2060000001940121164802940394049405948907069401603F218460416012490461C160BC
:2060200080218161FFF72AFB002801D0FDF7FEFF01200003009069460948FFF7AFFB00285C
:2060400001D0FDF7F3FF049404A905480694FFF7D7FA002801D0FDF7E9FF08B010BD00003C
:20606000B8010020CF07000010B58AB00024079408941C2168460994FDF746F9174816499E
:2060800001600F218460416064210461C16080218161FFF768FD002801D0FDF7C7FF0794B3
:2060A00007A90E480994FFF7ABFA002801D0FDF7BDFF602000900194029400226946049455
:2060C0000648FFF7BCFC002801D0FDF7AFFF0348FFF77AFC0AB010BD000400400402002081
:2060E00070B5002801D0012400E0002405252D07224604212846FEF77DFC084E22460121B2
:206100003046FEF777FC224608212846FEF772FC224602213046FEF76DFC70BD000400505F
:206120000148C068704700006C000020012801D9002070470249C000085840087047000067
:206140005002002070B5194CE08C00F061F805252D07002201212846FEF74CFC00224021BE
:206160002846FEF747FC002000F088F8002000F08DF80F49208C0968886304210C48FFF785
:206180004DFD0C49608C0968486300210948FFF745FD0120FFF7A4FF0749002008600871A3
:2061A000487188600873487370BD0000840300206C01002004020020500200200020704738
:2061C00004480178002903D00021017001207047002070476C00002004484179002902D12F
:2061E000407B002800D001207047000050020020002070470020704710B5044C0020E0607F
:20620000FEF7FEFBA0600120607010BD6C00002010B5642801D2642003E01349884200D9BC
:20622000084601461148FDF779F841081048491E016010480268136A0F4C234207D1136A4E
:20624000A410234203D113685B085B0013600268D162C160026800215162006801680122B5
:206260001143016010BD0000204E000040420F000C000020B801002011110000024610B569
:20628000052002210007FEF7B5FB10BD024610B5052080210007FEF7ADFB10BD70B504468A
:2062A000007901282AD8A068002827D00020FFF73DFF002822D10120FFF738FF00281DD142
:2062C00060792179002800D00120104ACB00A4689D1828716400D45001226A7100290ED026
:2062E000002800D00120FFF7D1FFFFF785FF08490020096848620648FFF700FA70BD002826
:2063000000D00120FFF7BAFFEFE7000050020020B8010020F8B500251F4F2C461F48E100C2
:2063200008184079002801D0012600E00026385D00280FD0002E13D117490120891C08552D
:20634000FEF75EFB144AA1000D32FA305050385D002805D1002E03D00F490020891C0855D9
:206360003E55641C3543E4B2012CD7D90A4CE41EA07800280DD0002D0BD16078002806D0CB
:20638000FEF73EFBA168401AE0600020607001202070A570F8BD00006F00002050020020C0
:2063A000FEE7000070B5094B0022D5000446EC40E4B225095E5D55004E552407240F6D18B8
:2063C0001C5D521C6C70042AEFDB70BD0073000870477047FEB50A2A26D8002A24D00023C6
:2063E0006C4605E09D006D18455DE5545B1CDBB29342F7D300230425AD1A08E0D618B600C7
:2064000076189F007F18865D5B1CC655DBB29D42F4DC002306E0EF18BF00E65C7F185B1CE8
:20642000C655DBB29342F6D3FEBD000070B5114D2C78FDF701FE002801D001200443FDF7EC
:20644000FDFD002801D002200443FDF7F1FD002801D004200443FDF7E7FD002801D00820A1
:206460000443FDF7E7FD002801D0102004432C70204670BD1600002010B50024FFF7B8FE93
:20648000002803D1FFF7B6FE002800D0012410480078002801D00220044300F099F800285E
:2064A00001D00420044300F08FF8002801D00820044300F08BF8002801D010200443FFF7E8
:2064C0007DFE002801D020200443204610BD00001700002010B5104C122020700F48611CA0
:2064E0000068FCF713FF0821601DFCF70BFF06220BA1601DFCF7A9FE172060731D20A07347
:206500000420E0731A202074192060740C20A0741120E07410BD00002C040020080000201F
:20652000522F4742000000000349012008707D200249C000088070478500002012000020AE
:2065400070B51F4C1F4D607F611C401C6077287E2070A868FCF7DAFE294608220C31601D4C
:20656000FCF773FE172060731D20A0730420E0731A202074287F6074687FA074A87FE07427
:20658000FFF77AFF2075FFF751FF6075284620300079A075288E2146C875000A0876A88E78
:2065A0004876000A8876288CE076688C2077E98C20468177090AC17700212030C17370BD90
:2065C0002C0400208403002000207047002070470020704770B58AB0FFF7FEFDFFF7F0FD0C
:2065E0001F48016800251F4E1F4C002902D18068002808D02088FA2802D3FDF797FC25801F
:2066000035700AB070BD3078002820881FD07D21C9008842F5D32580FFF792FF1348009077
:206620000E20039001200005059001954000029506900495079508950D48FDF75BFF00283E
:20664000DFD00C4A69460A48FDF778FED9E7FA28D7D3FDF76BFC258001203070D1E70000C5
:2066600050020020850000201200002003020000A40000202C04002010B500F03BF8FEF7DB
:20668000C5F910BD30B593B03C216846FCF73CFE002501200F951095119540021295FEF7FC
:2066A0001DFA0224E0010390009440200A95059008200B9080030C900894000204950D904B
:2066C000099400010E906846FEF760FC002801D072B6FEE707200FA931C102210FA8129527
:2066E000FEF762FB002801D072B6FEE713B030BD7047000000B5FDF711F8084842880849BE
:206700008A4202D24288521C428082888A4202D28188491C81800121017000BD1000002046
:20672000FFFF000010B500F007F80248FFF7A8F810BD0000B801002070B5214800680169C1
:20674000C9073BD00121C94301611E4C607905260025360700280DD0206800280AD001214D
:206760003046FEF73FF92068401E20602068002800D16571607B00280DD0A06800280AD0CF
:2067800040213046FEF72EF9A068401EA060A068002800D16573607900280FD1607B0028E3
:2067A0000CD10748FEF7E0FF002201213046FEF721F9002240213046FEF71CF970BD0000E0
:2067C000B801002050020020F0B50268244B0124A407244D244E984205D0A04203D0A842EF
:2067E00001D0B04204D11746702297434A683A431E4F984210D0A0420ED0A8420CD0B0426A
:206800000AD01B4CA04207D0B84205D0194CA04202D0194CA04204D103242402A243CC6814
:2068200022438024A2434C69224302608A68C2620A688262984207D0B84205D00D4A9042D9
:2068400002D00D4A904201D109690163012141610169C90703D00169490849000161F0BDB1
:20686000002C014000040040000800400040014000200040004401400048014010B5CB069A
:20688000DB0E0121046A99408C430462016A9A401143016210BD30B58468FF252D021B0267
:2068A0001343AC430B432343836030BD8268034B1A400A4307210A43826070478FFFCFFFC6
:2068C000F0B5056A026A52085200026243688269194C1B4E224092080C6892001443022247
:2068E00095438A682A43154DA84207D0B04205D0144FB84202D0144FB84206D10827BA43E8
:20690000CF681743042297433A46A84207D0B04205D00C4DA84202D00B4DA84206D1032588
:206920002D02AB434D691D438B692B4343608461496841630262F0BD8FFFFEFF002C0140DC
:2069400000400140004401400048014070B5046A026A10239A43026243688269184D2A40D0
:2069600003252D02AA430D682D021543202294438A6812012243134CA04208D11446CA68AE
:206980008026B443120122434024A24308E00E4CA04205D00D4CA04202D00D4CA04208D17F
:2069A0000324A402A3434C69A4001C438B699B0023434360856149688163026270BD0000C8
:2069C000FF8FFFFE002C014000400140004401400048014070B5046A026AFF2301339A43FE
:2069E00002624368C269184D2A4092080D68920015430122520294438A6812022243134C7D
:206A0000A04208D11446CA68C614B443120222430415A24308E00E4CA04205D00D4CA042B3
:206A200002D00D4CA04208D103242403A3434C6924011C438B691B0123434360C561496813
:206A4000C163026270BD00008FFFFEFF002C014000400140004401400048014030B5046AA7
:206A6000026A01231B039A4302624368C269134D2A4003252D02AA430D682D021543012224
:206A8000520394438A68120322430D4CA04208D00C4CA04205D00C4CA04202D00B4CA042F7
:206AA00005D10124A403A3434C69A40123434360C56149680164026230BD0000FF8FFFFED3
:206AC000002C0140004001400044014000480140F0B5046A026A01263604B24302624268D7
:206AE000436D104D2B400D681D4373009C430B891F040D4B2743984208D00C4B984205D0C6
:206B00000B4B984202D00B4B984204D113464A69B34312021A4342604565496881650762AF
:206B2000F0BD00008FFFFEFF002C014000400140004401400048014030B5036A026A01243E
:206B40002405A24302624268456D114C25400C6824022C4301256D05AB430D892D051D43EE
:206B60000C4B984208D00C4B984205D00B4B984202D00B4B984205D101239B049A434B69AA
:206B80009B021A43426044654968C165056230BDFF8FFFFE002C0140004001400044014087
:206BA0000048014030B5036A046A6408640004628469F025AC43120122430A24A3430B438B
:206BC0008261036230BD30B5046A036A1025AB43036283690F252D031203AB431A43A023C5
:206BE0009C43090121438261016230BD10B524210348FCF789FB02490020087010BD000099
:206C00006003002010B5012211020248FDF7F2FE10BD000000040050F0B51646032212026D
:206C20000D46831A08356A4C91B0002B0ED0224610789268012B74D0022B73D1A3695B1CD9
:206C4000A36102286FD001286ED1A8E060480269521C0261182E01D2002187E0081D00F03D
:206C6000C7F904465B4940380A95884201D3002182E0102229466846FCF7E7FA102256493A
:206C800005A8FCF7E2FA554A694605A8FCF74EFE684600F0ADF9064601A800F0A9F90D90D6
:206CA00003A800F0A5F905464D48864217D10020C0434C4E6A460B23117848400021521CD0
:206CC000C70702D04008704000E04008491CC9B20829F5D35B1EEFD2C043A84202D0002101
:206CE000042071E040490D98884202D0002101206AE00020401E049002200B9004200C903A
:206D000020200D901F200E90FDF7A6FD04A90BA8FDF71CFD0546FDF75BFD002D05D00021FB
:206D200035E010E052E038E012E0102200200A9900F0B0F90028F2D1254801210170102168
:206D4000446081603FE063695B1C6361012802D00021062038E00C2E23D3081D00F048F9A8
:206D6000A168083E814203D005202DE007202BE0636882199A4201D9022025E07207F5D148
:206D80003246294600F086F9002802D0A16803201AE0A0688119A16015E0114613E0082E65
:206DA00001D21146E2E7081D00F022F9A1688142E2D162688242DFD102202070FDF720FE2F
:206DC0006430E060A168002000F01EF911B0F0BD60030020C1F70000180000202800002086
:206DE000574654472083B8ED4D4F540010B50A4CE06800280ED0FDF703FEE168401A09D445
:206E000072B6BFF34F8F06490448C860BFF34F8F00BFFDE710BD0000600300200400FA0571
:206E200000ED00E030B47446641E2578641CAB4200D21D46635D5B00E31830BC18470000C5
:206E40008307FF22DB0E9A408907090E9940002808DB830809489B001B18186890430843F1
:206E6000186070470007000F0838830804489B001B18D86990430843D861704700E400E0D5
:206E800000ED00E010B504490A68821A322A02D30860FCF7E3FF10BD88000020704700006B
:206EA0001F4D0020686020491E488860FDF7B6FDFFF7E8FBFEF7DAFF012211021B48FDF7EC
:206EC00099FDFEF791FFFFF713F8FFF795F8FFF735F8FFF7C9F81648FCF74CFCFFF732F97F
:206EE000FCF78AFFFFF782FEFDF78AFD0446FFF7C9FF204600F0C0F8204600F063F8FFF768
:206F000009FAFFF767FBFFF70BF92860FCF7ECFBFFF76CFFFFF776FE2046FFF7BFFFE3E70B
:206F2000000000200030000800ED00E0000400508403002001784A2914D046291DD04D298F
:206F40001DD0412924D04D291CD04A290DD0412921D053292ED04F292ED04E292ED0442907
:206F60002ED01BE04178612905D080786E281BD06C281BD012E0012070470220704781786C
:206F8000722903D0807879280CD007E0032070474178702904D04078752809D00020704722
:206FA0000420704705207047062070470720704708207047092070470A2070470B207047DD
:206FC0000C20704770B5084C05462078002806D00120FEF7FFFE0548056000202070284691
:206FE00000F03CF870BD00008C000020900000208178C278090412061143427803781002F1
:2070000018430843704700003EB5114A13686A4613701C0A54701C0C94701B0ED370107114
:20702000002353719371D37111720B0A53720B0C9372090ED17207490C22087008462038B2
:20704000C169491CC16169460348FCF7AFFF3EBD08000020800300200503000010B5054903
:207060000A68821AC82A03D308600020FEF7B2FE10BD00009000002004480178002904D0CE
:207080000178034A1170002101707047840000208C000020F7B512490026471882B01546F7
:2070A000500702D0012005B0F0BDFDF7D5FB002410E00398082201196846FCF7C6F83919BC
:2070C0000120019B009AFDF797FB002801D0012602E00834AC42ECD3FDF77AFB3046E2E740
:2070E00000000108637C777BF26B6FC53001672BFED7AB76CA82C97DFA5947F0ADD4A2AF7E
:207100009CA472C0B7FD9326363FF7CC34A5E5F171D8311504C723C31896059A071280E2A1
:20712000EB27B27509832C1A1B6E5AA0523BD6B329E32F8453D100ED20FCB15B6ACBBE3987
:207140004A4C58CFD0EFAAFB434D338545F9027F503C9FA851A3408F929D38F5BCB6DA21A8
:2071600010FFF3D2CD0C13EC5F974417C4A77E3D645D197360814FDC222A908846EEB8142F
:20718000DE5E0BDBE0323A0A4906245CC2D3AC629195E479E7C8376D8DD54EA96C56F4EA36
:2071A000657AAE08BA78252E1CA6B4C6E8DD741F4BBD8B8A703EB5664803F60E613557B946
:2071C00086C11D9EE1F8981169D98E949B1E87E9CE5528DF8CA1890DBFE6426841992D0F4C
:2071E000B054BB1652096AD53036A538BF40A39E81F3D7FB7CE339829B2FFF87348E4344A4
:20720000C4DEE9CB547B9432A6C2233DEE4C950B42FAC34E082EA16628D924B2765BA249C4
:207220006D8BD12572F8F66486689816D4A45CCC5D65B6926C704850FDEDB9DA5E15465755
:20724000A78D9D8490D8AB008CBCD30AF7E45805B8B34506D02C1E8FCA3F0F02C1AFBD03C0
:2072600001138A6B3A9111414F67DCEA97F2CFCEF0B4E67396AC7422E7AD3585E2F937E829
:207280001C75DF6E47F11A711D29C5896FB7620EAA18BE1BFC563E4BC6D279209ADBC0FE49
:2072A00078CD5AF41FDDA8338807C731B11210592780EC5F60517FA919B54A0D2DE57A9F96
:2072C00093C99CEFA0E03B4DAE2AF5B0C8EBBB3C83539961172B047EBA77D626E169146316
:2072E00055210C7D01020408102040801B366CD8AB4D0000574654474D4F54009EF0C3A5E5
:2073000030313233343536373839414243444546000001020304050607080C10141820300F
:2073200040000000000000000000000000000000000000000000000000000000000000000D
:2073400000000000010000000200000003000000040000000600000007000000080000000E
:20736000090000008473000800000020A40000000031000828740008A4000020340A000062
:207380001C310008000000000000000000000000000000000000000000000000CD11C5E411
:2073A000F8FBA2DC3983D84C0F78ACE4D1160BF7B6BAA63D8B965F456224ECBA1C8082001A
:2073C00094A96649077152BF33DCE22E00000000FFFFFFFFFFFFFFFFFFFFFFFF0000000025
:2073E000FFFFFFFFFFFFFFFFFFFFFFFFFFFFFFFF000000000000000000000000000000009D
:20740000000000000000000000000000000000000000000000000000010000000400000067
:08742000000000000024F4004C
:04000005080000BD32
:00000001FF
