:020000040800F2
:1000000068100020D9000008312000087D1C00087D
:1000100000000000000000000000000000000000E0
:10002000000000000000000000000000FD200008AB
:1000300000000000000000003320000855210008E7
:10004000EB00000800000000EB000008EB000008D7
:10005000EB000008EB000008EB000008EB000008D4
:1000600000000000C9040008D9040008EB000008E3
:10007000EB000008EB000008EB00000800000000A7
:10008000EB000008EB000008EB000008EB000008A4
:10009000EB000008EB000008EB000008EB00000894
:1000A000EB000008EB000008EB0000080129000845
:1000B000EB000008EB0000080448854600F054F807
:1000C00000480047132C0008C046C04668100020B6
:1000D00080F30888704700000448804704480047C0
:1000E000FEE7FEE7FEE7FEE7FEE7FEE7C7210008C2
:1000F000B900000830B50B4601460020202201243B
:1001000009E00D46D5409D4205D31D469540491B4B
:100110002546954040191546521E002DF1DC30BD94
:1001200003460B439B0703D009E008C9121F08C010
:10013000042AFAD203E00B780370401C491C521EBB
:10014000F9D27047D2B201E00270401C491EFBD2C6
:1001500070470022F6E710B513460A4604461946D2
:10016000FFF7F0FF204610BD064C0125064E05E0C6
:10017000E36807CC2B430C3C98471034B442F7D3C8
:10018000FFF79EFFD02E0008F02E000810B505E006
:1001900003780C78491C63400370401C521E531CAA
:1001A000F6D110BD70B504460E4625780322611CB9
:1001B0002046FFF7B5FFE5700421204600F066F801
:1001C00005492078895D4840207060786070A0788B
:1001D000A070E078E07070BD302E0008F0B585B0FA
:1001E00006460F461446002C3ED0002E04D01022A6
:1001F00039466846FFF794FF2021204600F038F882
:1002000010221A493846FFF7C1FF384600F0C9F8F6
:100210001021384600F0D8F80D24144DE03D20019F
:10022000411910223846FFF7B1FF384600F040F878
:10023000384600F0B6F81021384600F0C5F8641EC4
:10024000E4B2002CEBD1294610223846FFF79EFF7E
:10025000002E09D0102231463846FFF797FF1022B2
:1002600069463046FFF75CFF05B0F0BDC8060020C8
:1002700010B50C46014622460348FFF751FF2146C0
:10028000014801F003FE10BDE805002030B5002252
:10029000064D08E0835C1C091B071B0F2401641931
:1002A000E35C8354521C8A42F4D330BD302C0008E6
:1002B000FEB507460024A000C5190422294601A85E
:1002C000FFF72EFF684600790E2100F0D3F90646AD
:1002D000684640790B2100F0CDF9464068468079A8
:1002E0000D2100F0C7F946406846C079092100F0A9
:1002F000C1F94640684606700079092100F0BAF954
:100300000646684640790E2100F0B4F9464068463A
:1003100080790B2100F0AEF946406846C0790D2186
:1003200000F0A8F946406846467000790D2100F0BB
:10033000A1F9064668464079092100F09BF946403C
:10034000684680790E2100F095F946406846C079EC
:100350000B2100F08FF946406846867000790B212A
:1003600000F088F90646684640790D2100F082F9D0
:10037000464068468079092100F07CF9464068468D
:10038000C0790E2100F076F946406846C6702846CE
:1003900004226946FFF7C4FE641CE4B2042C8AD32D
:1003A000FEBD10B5044603220121204601F0A7FE40
:1003B00002221146204601F0A2FE0122032120461E
:1003C00001F09DFE10BD000030B50022064D08E092
:1003D000835C1C091B071B0F24016419E35C835415
:1003E000521C8A42F4D330BD302D000810B50022D3
:1003F000D243084B07E00478401C54402406A40D67
:100400001C59120A62400C46491E89B2002CF2D1D6
:10041000D04310BDE801002030B50021094B0A4C43
:1004200008460022C50702D04008584000E04008B6
:10043000521C082AF6D38A00A050491CFF29EFD984
:1004400030BD00002083B8EDE801002010B5164C47
:10045000E069400602D5154904208862E0698007FA
:1004600004D5606A206A022108432062E069C00660
:1004700019D50F4801F0F9F8206A102108432062CD
:10048000606A0C480C49007840580C4C0C49201A02
:1004900080B20880A04201D201F02AFC224609491C
:1004A000034801F05DFB10BD00380140000400501E
:1004B0007C0000203E2E00080400024032040000B0
:1004C000680000201807002010B5024800F064F909
:1004D00010BD00001001002010B5024800F05CF9CA
:1004E00010BD00006C01002010B50446206C0949C5
:1004F0008008800040186064207814210838FFF7D5
:10050000F9FD04498031A164C106C90E012088406B
:10051000E06410BD0008024001798906890E491E79
:10052000064B8A00D2180265044A403242658A07A7
:10053000920F01219140816570470000000902403F
:10054000F0B5856CC46C6C60046D002C02D0456DF8
:10055000846D6C600B4F7C68056C1C263540012651
:10056000AE4034437C60046863608368102B04D021
:10057000036899600068C260F0BD03689A60006813
:10058000C160F0BD0000024072B6FEE703494A694F
:1005900001231B04184302434A61704700200240B4
:1005A000044A5069044B1840C90001430348014301
:1005B000516170470020024007E0FFFF0200010088
:1005C00030B505494C6901252C434C610260BFF3ED
:1005D0006F8F436030BD00000020024030B5002224
:1005E0000A4C63690125AD042B436361EFF310836B
:1005F00072B603E020C920C0521CD2B2402AF9D3FF
:100600002069C003FCD483F3108830BD0020024071
:10061000F8B5074600F014FBC51901242404124E56
:1006200005E000F00DFBA84201D30320F8BD3069BE
:100630002042F6D130690D490840491C316100283B
:1006400003D00B4948600120F8BD00F0F9FAC41945
:1006500005E000F0F5FAA04201D30320F8BD3069AF
:100660004003F6D40020F8BD00200240FA830000C9
:100670004C0C002010B500230022CC0700D04340D2
:100680004400000601D51B2000E000204440E0B2F9
:100690004908521CD2B2082AEFD3184610BD0000F8
:1006A000F0B500280AD0014620314A79022A07D045
:1006B0000422C263002008710120F0BD0120F0BDBA
:1006C000026813680E24A3431360426C1468FF236E
:1006D00001339C4314600268146864086400146069
:1006E0000C4E7268056C1C24254001242746AF403F
:1006F0003A437260856CC26C6A60026D002A05D054
:1007000015689D431560826D406D42604C710020FC
:100710000871F0BD00000240F8B500240146203108
:100720004A79022A03D00421C16301242DE0026822
:1007300013680E25AB431360026813685B085B0007
:100740001360426C1368FF250135AB431360104EF4
:100750007268056C1C231D4001231F46AF403A43BD
:100760007260856CC26C6A60026D002A06D01668E1
:100770001D02AE431660456D826D6A604B710022AA
:100780000A71816B002900D088472046F8BD00001F
:1007900000000240C06B7047F0B42F4E3368016810
:1007A0000C68056C1C22154004221746AF401F42FE
:1007B00013D0670711D50B689B0602D40B689343CF
:1007C0000B607368016C1C2421408A4013437360E2
:1007D000016B00293ED0F0BC08470227AF4002461B
:1007E0001F402032002F19D0A70717D50B689B0692
:1007F00005D40B680A24A3430B600121517173686F
:10080000046C1C210C400221A1400B4373600021A9
:100810001171C16A00291DD0F0BC08470827AF40FC
:100820001F4217D0230715D50B680E24A3430B6076
:100830007368046C1C210C4001210D46A5402B431C
:100840007360C163517100211171416B002901D0A6
:10085000F0BC0847F0BC70470000024070B5044689
:10086000002C3FD02548256814212818FFF742FCAA
:1008700080002064022026462036707128682049B6
:1008800008402860A168E06862690143206910435C
:100890000143A0690143E0690143206A01432068E4
:1008A0000268114301602046FFF71EFE0121A06887
:1008B00089030025884200D165602079616C80063B
:1008C000800E0860A16CE06C48606068401E0328E0
:1008D0000AD82046FFF720FE206D0560616DA06DEF
:1008E000486004E0012070BD25656565A565E56388
:1008F000012070713571002070BD0000F8FFFDBF50
:100900000F80FFFFF8B504468C46002520462030B6
:10091000017901290BD00126067147790021012FA9
:1009200007D08022E263017101252846F8BD02202C
:10093000F8BD02274771E163206801684908490052
:10094000016061462046FFF7FBFD206B002805D0C3
:10095000206801680E221143016009E020680168E7
:10096000042291430160206801680A22114301605A
:10097000606C0168084AC90302D50168114301602F
:10098000206D002802D001681143016020680168D1
:1009900031430160C9E700000001000070B5044662
:1009A00000F04EF90546601C02D004480078241877
:1009B00000F046F9401BA042FAD370BD6C00002045
:1009C000F8B504460E461E4F387801280AD001209B
:1009D0003870002078607D20C000FFF719FE0028E5
:1009E00002D029E00220F8BD042161602268042AB7
:1009F00003D0491F3160A56814E00846FFF7C6FD23
:100A00007D20C000FFF704FE16E029466068FFF76E
:100A1000C7FD7D20C000FFF7FBFD002801D0356039
:100A200005E06D1CE268A1688918A942EDD8054966
:100A30004A6902239A434A6100213970F8BD0000D7
:100A40004C0C002000200240012005494A69C307E0
:100A50001A434A614969002900DA00207047000002
:100A600000200240F0B51FB4064614461D46144F40
:100A7000387801280AD001203870002078607D2065
:100A8000C000FFF7C5FD002803D010E0022005B02C
:100A9000F0BD012E0ED021460198FFF79FFD7D206D
:100AA000C000FFF7B5FD07494A69B2434A6100211A
:100AB0003970ECE722462B460198FFF781FDEEE7FF
:100AC0004C0C002000200240002006494A69002A00
:100AD00007DA054A8A60054A8A604969002900DA0E
:100AE000012070470020024023016745AB89EFCD0C
:100AF000F0B500228FE0012797403B40002B7DD0CE
:100B00000C79A407A40F012C01D0022C10D1856808
:100B100054000326A640B543CE68A6402E43866007
:100B20004468BC430D79ED06ED0F954025434560C3
:100B30000C79E443A40708D0C56854000326A640F6
:100B4000B5438E68A6402E43C6600C79A407A40F57
:100B5000022C0CD1D408A40027183D6A5407E40ED7
:100B60000F26A640B5430E69A6402E433E62056897
:100B700054000326A640B5430E79B607B60FA6402B
:100B80002E4306604C68A403A40F43D09508254C5F
:100B9000AD002F193D6E9407E40E0F26A640B54315
:100BA00005263607B04201D100260FE01E4EB042A6
:100BB00001D101260AE01D4EB04201D1022605E016
:100BC0001B4EB04201D1032600E00526A6402E436D
:100BD000144D3E662C689C434E68F60200D51C43BB
:100BE0002C606C689C434E68B60200D51C436C6058
:100BF0000C4D80356C689C434E6800E00AE0B603FB
:100C000000D51C436C602C689C434E68F60300D5ED
:100C10001C432C60521C0B681C46D44000D06AE771
:100C2000F0BD000000180240000400500008005011
:100C3000000C0050002A01D081617047816270472A
:100C400001488068704700006C00002002488168FD
:100C500002788918816070476C00002010B500246C
:100C600007480168821511430160032000F00AF86B
:100C7000002801D0012401E000F02CF8204610BD2E
:100C80000020024070B505460024104E317800293E
:100C900019D07D20C000FFF72DFA01460C480068EE
:100CA000FFF728FA00F060FC002801D001240BE0D7
:100CB000042D06D200222946501E00F031F875603E
:100CC00002E0012400E00124204670BD6C000020F9
:100CD0007800002008B50B4801680122114301602B
:100CE00000681040009007484038C26B01040A4376
:100CF000C263C06B084000900320400200F02AFC51
:100D000008BD000040100240002805DBC106C90EE6
:100D100001208840014908607047000000E100E0C0
:100D200010B501F0ABFE10BD10B50F4C21680322C9
:100D30005202914301432160C11FFF39FA390ED19C
:100D40000A480621006848430949FFF7D3F9401CC7
:100D500002E0002805D0401E61694905F9D4002051
:100D600010BD032010BD000000700040780000207E
:100D700040420F00FEB50446002500272068594E6A
:100D8000800367D50020019056484038C06BC000F2
:100D90000AD454484038C16B02041143C163C06B8C
:100DA00010400090012001904F48016882151143C6
:100DB0000160FFF745FF029007E0FFF741FF02994E
:100DC000401A022801D9032503E047480068C005FE
:100DD000F3D5002D04D02F460198012834D039E0F6
:100DE000F06903210902084000280FD0A16981425F
:100DF0000CD0F069032109028843F269012109043A
:100E00000A43F261F2698A43F261F061C0070FD0D0
:100E1000FFF716FF029008E0FFF712FF0299411A50
:100E20003248814201D9032502E0F0698007F3D5F9
:100E3000002D01D02F46CFE7F06903210902884336
:100E4000A1690843F061C7E726484038C16B020436
:100E50009143C1632078C00705D07069616880083C
:100E60008000084370612078800705D570690C21E7
:100E70008843A168084370612078800606D57069B0
:100E8000032109038843E168084370612088400416
:100E900010D5706961698000800808437061012184
:100EA00060698907884205D10E484038C2688913B5
:100EB0000A43C2602088000512D5706903218903A6
:100EC00088432169084370610121206989038842B0
:100ED00006D104484038C168012212041143C160A0
:100EE0003846FEBD401002400070004088130000EC
:100EF000F8B504460D46002C0FD054480068400752
:100F0000400FA84218D2514F3868C008C00028438B
:100F10003860FFF795FE064609E00120F8BDFFF7AF
:100F20008FFE811B4A48814201D90320F8BD3868F1
:100F30004007400FA842F2D12068464E81070DD5E8
:100F4000400704D5B068072109030843B060B068C2
:100F50000F2109028843A1680843B0602078C007C8
:100F60003BD0606801280CD002280FD0002812D096
:100F700038494031032813D0C969890715D40120A5
:100F8000F8BD3168890310D40120F8BD31688901AA
:100F90000BD40120F8BD3168490506D40120F8BD05
:100FA000096A890701D40120F8BDB168C908C900E0
:100FB0000143B160FFF744FE074607E0FFF740FE3C
:100FC000C11B2348814201D90320F8BDB0683821F4
:100FD00008406168C9008842F0D11C48016849078F
:100FE000490FA94216D90168C908C90029430160FF
:100FF000FFF726FE074607E0FFF722FEC11B144855
:10100000814201D90320F8BD104800684007400F15
:10101000A842F1D12078400706D5B1680720000327
:101020008143E0680143B16000F036F8B1683C22CA
:1010300089091140084A515CC906C90EC8400749D0
:10104000086007480068FFF71DFEF8BD0020024059
:101050008813000000100240702E00087800002065
:1010600070000020014800687047000078000020F0
:1010700000B5FFF7F7FF0649896807221203114000
:10108000090B044A8900515CC906C90EC84000BD5D
:1010900000100240B02E000810B5244CA068244A6D
:1010A0008006400F16D0A0688006410F501001291D
:1010B0000FD0A1688906490F022914D0A0688006C4
:1010C000400F04282CD0A0688006400F03282AD0A7
:1010D000002010BD206801218004400F814010468F
:1010E000FFF708F810BDE1688B079B0FE168490620
:1010F000490F491C032B0CD01046FEF7FBFFE1689B
:101100004904490E4843E168490F491CFEF7F2FFC4
:1011100010BDFEF7EFFFE1684904490E4843F2E7CE
:101120000120C00310BD7D20000210BD0010024050
:101130000024F400FEB50446002C0DD0207838279A
:10114000C007F94E002851D0B0683840F1688907CF
:10115000890F102802D003E00120FEBD03290AD028
:10116000082808D001216068090488420BD1306842
:10117000084330601AE03068800337D56068002883
:1011800034D10120FEBD052301221B0492049842A4
:1011900006D130681043306030680843306005E0A5
:1011A0003068884330603068904330606068002861
:1011B0000ED0FFF745FD054606E0FFF741FD401B59
:1011C000642801D90320FEBD30688003F5D50DE009
:1011D000FFF736FD054606E0FFF732FD401B6428A9
:1011E00001D90320FEBD30688003F5D42078800744
:1011F0006DD5B0683840F1688A07920F0721C9029F
:10120000102801D1022A12D0002810D0E06800284E
:101210004AD0306888432169084330603168FF2034
:10122000013001433160FFF70BFD054630E03268C5
:10123000520502D5E268002A0AD072687F231B0299
:101240009A4363691B021A437260002802D010E0BF
:101250000120FEBD30688843216908433060306852
:1012600001218004400F8140B048FEF743FFB049A0
:101270000860B0480068FFF705FD002827D001206E
:10128000FEBDFFF7DDFC401B022801D90320FEBD97
:1012900030684005F5D571687F20000281436069A0
:1012A00000020143716012E03168FF200130814388
:1012B0003160FFF7C5FC054606E0FFF7C1FC401BA7
:1012C000022801D90320FEBD30684005F5D42078FE
:1012D000994D000734D5B0688006400F03280AD026
:1012E000A06900281AD0286A012108432862FFF764
:1012F000A7FC07460EE0286A800721D5A0690028D0
:101300001ED10120FEBDFFF79BFCC01B022801D9A6
:101310000320FEBD286A8007F5D511E0286A400841
:1013200040002862FFF78CFC074606E0FFF788FCC8
:10133000C01B022801D90320FEBD286A8007F5D40E
:101340002078400775D500200190B0688006400FD6
:10135000042818D0F06BC00009D4F16B01200007FD
:101360000143F163F16B014000910120019073484A
:101370000168C9051AD40168821511430160FFF79D
:101380005FFC07460EE0E869800752D5A068002898
:101390004FD10120FEBDFFF753FCC01B022801D92D
:1013A0000320FEBD65480068C005F4D5A06801288B
:1013B00010D00421052812D0E86940084000E861F7
:1013C000E8698843E861A06800281CD0FFF738FC72
:1013D000074614E0E86901210843E861F3E7E8699A
:1013E0000843E861E86901210843E861EBE7FFF79A
:1013F00027FCC11B5248814201D90320FEBDE86988
:101400008007F4D50EE0FFF71BFC074607E0FFF767
:1014100017FCC11B4A48814201D90320FEBDE8697F
:101420008007F4D40198012803D1F16B00078143B0
:10143000F163E069002845D0B1688906490F0229A7
:1014400050D001273F06022806D03068B8433060EC
:10145000FFF7F6FB04463DE03068B8433060FFF725
:10146000EFFB054606E0FFF7EBFB401B022801D926
:101470000320FEBD30688001F5D4616A206AA26A4B
:101480000843E16A120211430843216B0843F168E3
:101490002C4A11400843F060306838433060F068EF
:1014A000012109070843F060FFF7CAFB044606E084
:1014B000FFF7C6FB001B022801D90320FEBD3068E0
:1014C0008001F5D544E0FFF7BBFB001B022801D9E2
:1014D0000320FEBD30688001F5D4F0681A49084049
:1014E000F06035E0012831D0F068226A8107890F69
:1014F000914216D17021626A0140914211D17F213F
:10150000A26A09020140120291420AD11F21490434
:10151000E26A0140914204D1400F216B40078842AA
:1015200016D00120FEBD0000001002400024F4008F
:101530007800002070000020401002400070004041
:10154000881300008C80C11FFCFFFEEF0120E9E73B
:101550000020E7E7034A116803235B029943014334
:10156000116070470000014010B50949401E8842D3
:1015700001D9012010BD074C60610321081F01F053
:101580007DFA0020A06107202061002010BD00002E
:10159000FFFFFF0000E000E010B5014680310A794E
:1015A000012A15D001220A7124228A600268136878
:1015B00014686408640014600122520793430022F7
:1015C000426600680360202088600A71002010BD18
:1015D000022010BD7047704770B505462C46803418
:1015E000207901281AD0012020712420A0602868C9
:1015F0000668026852085200026028688268072361
:101600005B069A430A438260284600F0F3FD28688F
:1016100006602020A0600020207170BD022070BDF7
:1016200070B505462C4680342079012819D0012058
:1016300020712420A06028680668026852085200C1
:10164000026028688268D200D2080A438260284675
:1016500000F0D0FD286806602020A06000202071E6
:1016600070BD022070BD70477047F8B505462C4626
:101670008034A168E6682868826810271206002A6C
:101680001BDA212919D1EFF31081012282F310888E
:10169000826880239A43826081F31088E86F002873
:1016A00008D0FEF7FDFF002804D0E86FFFF772F8BE
:1016B000202809D0284600F05AFF2868816849068A
:1016C0001FD5222E03D01CE027610320F8BDEFF3C5
:1016D0001081012282F31088826840239A4382603D
:1016E00081F310882068002808D0FEF7D9FF002871
:1016F00004D02068FFF74EF8202804D0284600F0D8
:10170000EFFE0020F8BD27610320F8BD7047000000
:10171000F8B504462368D86919689A68B24D064638
:101720002E40002E0ED185060CD5012720253F071F
:101730000D4017403D4305D0616F002901D0204680
:101740008847F8BD25468035002E74D0A74EA84F97
:1017500016400F4037437DD0C70706D0CF0504D5CC
:1017600001271F622B693B432B61830708D5D307F1
:1017700006D0276802233B622B6904273B432B6179
:10178000430708D5D30706D0276804233B622B699B
:1017900002273B432B61030709D520230B4033432A
:1017A00005D02668082333622E691E432E61030587
:1017B00009D54B0107D501232668DB0233622B696B
:1017C000202633432B612B69002BBAD080060AD523
:1017D00020200140C0050240114304D0616F002960
:1017E00001D020468847286921688968490602D4C3
:1017F0002821084228D0204600F072FE2068816827
:1018000049061DD5EFF31081012282F31088836809
:1018100040229343836081F31088286800280BD00E
:10182000744981632868FEF777FF002889D028680B
:10183000816B8847F8BD0DE02046FFF767FFF9E7A9
:101840002046FFF763FFF5E72046FFF75FFF002024
:101850002861EFE7E66E012E7ED1C6067CD5CE0666
:101860007AD510221A6220688168264649064036D9
:1018700000294CDA2B681968496889B20029D9D047
:10188000B78B8F42D6D9F18319680968890634D499
:10189000EFF31081012383F3108803681701BB4322
:1018A000036081F31088EFF31081012080F310882A
:1018B000206883685B085B00836081F31088EFF326
:1018C0001081012080F31088206883684027BB4383
:1018D000836081F310882020E8600020E066EFF349
:1018E0001081012080F3108820680368934303600F
:1018F00081F310882868FEF7D3FE02202067B08BA2
:10190000F18B401A81B22046FFF764FE92E7B18B5B
:10191000F38BC91A89B2F38B002B8BD0002989D0A5
:10192000EFF31083012686F310880668FF2721371E
:10193000BE43066083F31088EFF31083012080F329
:10194000108820688668294FFF433E40866083F3F5
:1019500010882020E86000E013E00020E066606767
:10196000EFF31083012080F3108820680568954309
:10197000056083F31088022020672046FFF72AFEC7
:1019800058E7C50208D5550206D5012000051862A2
:101990002046FFF769FE4DE703060CD5012580239D
:1019A000ED050B402A40134305D0A16F0029ADD0AF
:1019B000204688473EE7420605D54A0603D520461D
:1019C00000F0C0FD36E7020205D54A0003D52046E7
:1019D000FFF749FE2EE7C00198D5002996DA204688
:1019E000FFF7F9FD26E700000F08000001000010D6
:1019F000200100046D23000870B50446002C05D0BA
:101A000025468035A868002802D006E0012070BD78
:101A100000202871204600F029F82420A8602068C2
:101A20000168490849000160204600F0BFFD012817
:101A300019D0A06A002802D0204600F0FDFB2068E3
:101A400041680922D20291434160206881682A22BC
:101A500091438160206801680122114301602046A2
:101A600000F050FC70BD012070BD0000F0B58DB0DD
:101A70000446142108A8FEF76CFB1C2101A8FEF700
:101A800068FB3249206888425ED101260196002514
:101A9000029501A8FFF76EF9002801D0FEF774FD4A
:101AA0002B480268012189030A430260006808404C
:101AB000009027484038426B04210A434263406B40
:101AC0000840009030200890022009900A950B955C
:101AD0000C9608A91F48FFF70BF8204E1E483060EF
:101AE00032207060B560F560802737617561B5613F
:101AF000F56135623046FEF7B1FE002801D0FEF7F1
:101B000043FD80200651B4621348144E14305C36F5
:101B10003060332070601020B060F560376175610F
:101B2000B561F56135623046FEF798FE002801D0B8
:101B3000FEF72AFDE667B462002211461B20FFF77C
:101B4000EFF81B20FFF7E0F80DB0F0BD00380140C2
:101B50004010024000080050080002401001002020
:101B600070B58C231B58202B01D0022070BD00299A
:101B70000AD0002A08D0012483682403A34209D193
:101B80000369002B02D005E0012070BDCB0701D016
:101B9000012070BD0023C36603685C6824020BD576
:101BA000EFF31084012585F310881D680126B60621
:101BB00035431D6084F3108800F0DCFD70BD704774
:101BC0007047000070B5044625468035A868202877
:101BD00001D0022070BD00290AD0002A08D00123BC
:101BE000A0681B03984209D12069002802D005E0B3
:101BF000012070BDC80701D0012070BD21652046BD
:101C000040308282C282002129612120A860E06FD9
:101C100000281AD0154BC362E36F15481863E36FB1
:101C200014485863E06F8163206813462830E66FDC
:101C300002463046216DFEF765FE002805D01020D3
:101C400028612020A860012070BD21684020086222
:101C5000EFF31081012080F31088206882688023D0
:101C60001A43826081F31088002070BD8924000827
:101C7000D52400088123000870477047FEE7000064
:101C800010B5114800240470FEF7C6FB0F4804701D
:101C9000447084810E4901610E4941610E498161A0
:101CA0000E49C1610E4801681022114301600168AC
:101CB0004022114301600B49042088620A4A04490A
:101CC0000A48FFF74DFF10BD39000020C801002071
:101CD000180700204A0B0020680000201529000882
:101CE0000038014000040050320400007C00002055
:101CF000F8B5624C0027206921460378A025896940
:101D00005F4AA02B02D14678012E02D0A02B4BD0E7
:101D10004DE017805B4A01261670098800F0DFFE4F
:101D2000002840D02670206982784179120611433C
:101D3000C278037912041B021A431143616081794E
:101D4000C079090201436181606905706169812080
:101D50004870206961698078887020696169C078FD
:101D6000C8702069616900790871206961694079EA
:101D70004871206961698079887120696169C079D9
:101D8000C87108216069FEF731FB6269010E1172AA
:101D90006269010C51726269010A91726169C872CB
:101DA000E1690C208847F8BD4378022B03D01088E6
:101DB000401C1080F8BD1780098800F090FE0227B3
:101DC0008226002838D021698878CA78000210431A
:101DD0002081A2692C4B12888002083A091DC01884
:101DE00000F012FF606905706069467020696169E2
:101DF0008078887020696169C078C8706069012541
:101E0000057105216069FEF7F1FA6269010E5171F1
:101E10006269010C91716269010AD171616908728C
:101E2000E1690920884760892189401E8142C1D12A
:101E3000657014480770F8BD606905706069467088
:101E4000206961698078887020696169C078C8708C
:101E50006069077105216069FEF7C8FA6269010EC1
:101E600051716269010C91716269010AD1716169F4
:101E70000872E16909208847F8BD0000C801002008
:101E8000000000203900002000400008F0B585B0B7
:101E900007460C46102C18D0182C18D0202C42D1F4
:101EA0000E263919091F04226846FEF739F9002564
:101EB000A008039020461038C117490F0818C01019
:101EC0004000B100081A02902AE00A26E9E70C2631
:101ED000E7E728460399FEF70DF9002902D0042907
:101EE00005D00AE001466846FEF75CF905E0202CC3
:101EF00003D104216846FEF7C9F9AE00F1190422A6
:101F000001A8FEF70DF9042201A96846FEF73EF983
:101F10003019C01904226946FEF702F96D1CEDB2B2
:101F20000298A842D5DC05B0F0BD000008B50C4809
:101F3000816B012211438163806B1040009000226D
:101F400011460920FEF7ECFE0920FEF7DDFE002217
:101F500011460A20FEF7E4FE0A20FEF7D5FE08BD72
:101F600000100240F0B587B0142102A8FEF7F1F886
:101F70001348416B042421434163416B214001918B
:101F8000416B022529434163416B29400191416B1B
:101F9000012631434163406B30400190094F0022DC
:101FA00004213846FEF746FE029403960020049072
:101FB000059502A93846FEF79BFD07B0F0BD00006D
:101FC000001002400004005010B518481649016086
:101FD0007D21C902416000218160C16001610C2244
:101FE00042618161C161016241628162FFF704FD6A
:101FF000002801D0FEF7C8FA00210C48FFF710FBBB
:10200000002801D0FEF7C0FA00210848FFF7E4FAE3
:10201000002801D0FEF7B8FA0448FFF7BDFA0028FF
:1020200001D0FEF7B1FA10BD003801407C0000205D
:10203000FEE7704703E00378401C0B70491C134611
:10204000521E92B2002BF6D170470000F0B585B059
:1020500005460E4614460120C002824249D80004BB
:10206000854246D32449098C0906490EC90208183D
:10207000A8423ED9FEF728FD6007400F00F04AFD58
:10208000001987B268050ED10290022101911F212B
:10209000C9066918C90A0391012104910090694693
:1020A00001A8FEF78DFC0024FF081EE0E000325C72
:1020B00080194178C37809020A43817809041B0614
:1020C00019430A434179037909020B438179C079A5
:1020D0000904000601430B4329460120FEF7C2FC18
:1020E000002800D10835641CA4B2A742DED8FEF750
:1020F000ABFC05B0F0BD0000C075FF1F7047FEB51A
:102100000A2A26D8002A24D000236D4605E09C0028
:102110006418045DEC545B1CDBB29342F7D30023DC
:102120000424A41A08E0D618B60076189F00865D2D
:102130007F18C6555B1CDBB29C42F4DC002306E032
:10214000E718BF00EE5C7F18C6555B1CDBB29342FC
:10215000F6D3FEBD10B5FEF779FD10BD30B591B0D8
:10216000342104A8FDF7F5FF0024009401940294A3
:10217000039401204002FEF7D7FD02250495E801F3
:1021800007900894402009900B950C950D94082019
:102190000E9080030F900003109004A8FEF7CAFF72
:1021A000002801D0FEF7F0F9072000900195029475
:1021B000039402216846FEF79BFE002801D0FEF73B
:1021C000E3F911B030BD7047074800E000BF401E82
:1021D000411CFBD1BFF34F8F05490448C860BFF3D2
:1021E0004F8F00BFFDE70000FFFF00000400FA056D
:1021F00000ED00E0F8B50446416E4034002915D0EA
:102200000068816809014D0F8068400F094E37460C
:10221000315C083F385CC000FDF76CFF6085785D7D
:10222000715DC000FDF766FF2085F8BD0120608567
:102230002085F8BD662E000810B5018DC90707D0AE
:1022400001684A6801235B049A43C36A1A434A60DF
:10225000018D890707D501684A6801231B049A4349
:10226000036B1A434A60018D490707D501684A6824
:1022700001239B049A43436B1A434A60018D09076B
:1022800007D501684A680123DB039A43836B1A432D
:102290004A60018DC90607D501688A6801231B03BE
:1022A0009A43C36B1A438A60018D890607D501687A
:1022B0008A6801235B039A43036C1A438A60018D89
:1022C000490612D501684B6801221205446C9343FC
:1022D00023434B60416C914207D101684A68032354
:1022E0005B059A43836C1A434A60018D090607D542
:1022F00001684A680123DB04C06C9A4302434A60C8
:1023000010BD0000FEB504462546002680352E612E
:10231000FEF796FC019020680068134F00070BD56C
:1023200001210097002249052046019B00F07AFA1E
:10233000002801D00320FEBD2068006840070BD5AF
:1023400001210097002289052046019B00F06AFACE
:10235000002801D00320FEBD2020A860E860E666CA
:1023600026672E710020FEBDFFFFFF0110B5806AB9
:10237000002201464031CA83CA82FFF7C7F910BD67
:10238000F8B5846A2046803081680546C6682068B2
:10239000806800270006002806DA212904D156208B
:1023A0000753204600F0E3F820688068400606D511
:1023B000222E04D15E200753204600F091F82869B0
:1023C0001021084328612046FFF7A0F9F8BD70B539
:1023D0000146886A0968096800238906002937DBF5
:1023E0005E210B52EFF31082012181F31088016806
:1023F0000C68FF250135AC430C6082F31088EFF3C5
:102400001082012181F3108801688C6864086400DF
:102410008C6082F31088EFF31082012181F3108821
:1024200001688C684025AC438C6082F310882022C0
:102430008C210A50C16E01290AD1EFF3108281F379
:10244000108801680C681025AC430C6082F310887A
:102450000367C16E012902D0FFF7B1FB70BD5C219B
:10246000095AFFF7B7F870BD10B5806A01210167FE
:10247000C16E012902D0FFF7A3FB10BD5C21095AF0
:102480004908FFF7A7F810BD10B50146886A09682A
:10249000096889061BD4002256210A52EFF31082E4
:1024A000012181F3108801688B688024A3438B602D
:1024B00082F31088EFF31081012282F31088006804
:1024C000026840231A43026081F3108810BDFFF7B1
:1024D000D3FB10BD10B5806AFFF7CFFB10BD000025
:1024E00010B5EFF31082012181F3108801680B68A9
:1024F000FF242134A3430B6082F31088EFF3108292
:10250000012181F3108801688B680D4C23408B609A
:1025100082F31088C16E01290AD1EFF3108281F392
:10252000108801680B681024A3430B6082F31088A5
:1025300020228C210A500021C166416710BD000095
:10254000FEFFFFEF10B5EFF31082012181F3108839
:1025500001680B684024A3430B6082F3108820229B
:1025600088210A5000218167FFF786FB10BD10B556
:10257000EFF31082012181F3108801680B68C024F9
:10258000A3430B6082F31088EFF31082012181F3E3
:102590001088016880308B680124E405A3438B60B8
:1025A00082F310882021816010BD0000F8B5044638
:1025B0000025A1682069E269014360691043014375
:1025C00020680268614B1A400A4302602068416833
:1025D000032212039143E26811434160A069216A1A
:1025E0000143206882685A4B1A400A43826020687F
:1025F000C16A626A090909011143C162554A20682A
:102600005549904213D148698007800F07D00128AF
:1026100009D0022805D0032807D0102029E0002087
:1026200027E0022025E0042023E0082021E04B4A97
:10263000904213D148690C21084007D0042809D0E2
:10264000082805D00C2807D0102012E0002010E048
:1026500002200EE004200CE008200AE040498842F5
:1026600001D1002005E03F49884201D1002000E06F
:1026700010200122E369D2033B493C4E3C4F934278
:1026800030D1002822D0022824D0042824D00828C1
:1026900001D000220125002A4ED0606A4000315A44
:1026A0001046FDF727FD616840004A088018FDF7D5
:1026B00021FD01461039B94212D82D49491C01406B
:1026C0000007420F0A432068C26035E0FEF7D0FCE5
:1026D0000246E0E70A46DEE7FEF7DEFC0246DAE7FE
:1026E000012529E000281CD002281ED004281ED075
:1026F000082801D000220125002A1DD0606A400070
:10270000315A1046FDF7F6FC61684A088018FDF75B
:10271000F1FC01461039B9420DD8216880B2C86079
:102720000AE0FEF7A5FC0246E6E70A46E4E7FEF704
:10273000B3FC0246E0E701250121204640304185F7
:10274000018500206067A0672846F8BDF369FFCFC8
:10275000FFF4FF11003801404010024000440040E7
:1027600000480040004C00400024F400462E0008C1
:10277000EFFF000070B50446A1655C200253002104
:102780002546803529612220E8602868002819D074
:10279000214BC3622B68214818632B68204858637B
:1027A000286881632168A66D134624313246286863
:1027B000FEF7A8F8002805D0102028612020E86046
:1027C000012070BD206900280CD0EFF3108101209A
:1027D00080F3108820680268FF2301331A430260E7
:1027E00081F31088EFF31081012080F310882068B6
:1027F000836801221343836081F31088EFF3108113
:1028000082F310882068826840231A43826081F333
:102810001088002070BD0000CF2300086924000844
:1028200081230008FFB581B00A9E04460F46254665
:10283000803557E0701C55D0FEF702FA0499401A13
:10284000B0422FD8002E2DD020680168490749D505
:10285000C069C043000545D401202168C002086258
:10286000EFF31081012080F3108820680268FF23B5
:10287000A1339A43026081F31088EFF310810120A5
:1028800080F310882068826852085200826081F3C9
:1028900010882020A860E8602861002028710320AB
:1028A00005B0F0BDEFF31081012080F3108820689F
:1028B0000268FF23A1339A43026081F31088EFF38B
:1028C0001081012080F3108820688268520852002D
:1028D000826081F310882020A860E86000202871C1
:1028E0000320DDE72068C1693846884305D0002011
:1028F000039988429ED00020D2E70120F8E700002B
:1029000010B5FDF7A3FD0248FEF702FF10BD000061
:102910007C00002010B5054B042199610449024652
:1029200049690448FFF74EF910BD0000000400504B
:10293000C80100207C000020F3B585B0434C00277F
:10294000E760434820614349616110224249FFF733
:1029500071FB4149069A0598FDF740FC3E48C27B51
:10296000017B12068918827B407B1204000210183A
:102970000818A0600103090CA180000701D0491CC0
:10298000A180206910302061678056E001216069D4
:10299000C906884257D3314A128C1206520ED2020F
:1029A000511881424FD9FEF78FF8606941050ED169
:1029B0000297022101911F21C9064018C00A039005
:1029C000012004900097694601A8FDF7F9FF60888F
:1029D00021690001401810221F49FFF72BFB1E49F7
:1029E000069A0598FDF7FAFB1B48E0603D46277004
:1029F0000646203EE068227801689200B1500268E5
:102A0000A2614168656208302162E060A262E16211
:102A10000B4601206169FEF725F8002802D16069A4
:102A2000083060612078401CC0B220700228E1D3D9
:102A3000FEF70AF86088401C60806088A1888842A0
:102A4000A4D30320607007B0F0BD00003800002060
:102A5000004000080038000808070020C075FF1F6C
:102A600030B47446641E2578641CAB4200D21D4607
:102A7000635D5B00E31830BC184700008307FF224A
:102A8000DB0E9A408907090E9940002808DB83086D
:102A900009489B001818036893430B430360704771
:102AA0000007000F0838830804489B001818C36902
:102AB00093430B43C361704700E400E000ED00E086
:102AC00002E008C8121F08C1002AFAD170477047F7
:102AD000002001E001C1121F002AFBD1704710B590
:102AE000052901D2002010BD4218121F1378D47896
:102AF0001B061C43537892781B04120213431C4399
:102B0000091F89B2FDF772FCA04201D1012010BD5E
:102B1000002010BD00B5014600200B00FFF7A0FF0C
:102B200008060507090B0D0F1106072000BD06203A
:102B300000BD052000BD042000BD032000BD022013
:102B400000BD012000BD000070B572B601680C4ADE
:102B5000114001225207914210D144680068FDF7EC
:102B6000B7FA0020074B084E421E8100CD182A609C
:102B700089190A60401C0828F7DBA04770BD0000D7
:102B80000000FE2F80E100E080E200E010B518496F
:102B90000878002805D0002088814878002807D1CF
:102BA00003E08889401C8881F7E78989052919D3C2
:102BB000002803D00F491048FFF7BEFE0F484168B8
:102BC000090E082901D0FFF7FFFA0D4C21780029E2
:102BD00003D00C490988402901D9FFF7B5FF2078B7
:102BE000032803D03220FDF7D9FE10BDFFF7ECFA21
:102BF000C801002012000020020000200038000858
:102C0000390000200000002010B592B2FFF71EFA34
:102C100010BDFEF723F8FFF7A1FAFFF7A3F9FFF7BE
:102C200085F9FFF7D1F9FFF72BF8FFF7AFFFFCE7C6
:102C3000637C777BF26B6FC53001672BFED7AB7679
:102C4000CA82C97DFA5947F0ADD4A2AF9CA472C024
:102C5000B7FD9326363FF7CC34A5E5F171D8311591
:102C600004C723C31896059A071280E2EB27B275B2
:102C700009832C1A1B6E5AA0523BD6B329E32F842A
:102C800053D100ED20FCB15B6ACBBE394A4C58CF22
:102C9000D0EFAAFB434D338545F9027F503C9FA8F6
:102CA00051A3408F929D38F5BCB6DA2110FFF3D2C4
:102CB000CD0C13EC5F974417C4A77E3D645D197378
:102CC00060814FDC222A908846EEB814DE5E0BDB72
:102CD000E0323A0A4906245CC2D3AC629195E479A9
:102CE000E7C8376D8DD54EA96C56F4EA657AAE0803
:102CF000BA78252E1CA6B4C6E8DD741F4BBD8B8A9E
:102D0000703EB5664803F60E613557B986C11D9E03
:102D1000E1F8981169D98E949B1E87E9CE5528DF7A
:102D20008CA1890DBFE6426841992D0FB054BB16A6
:102D300052096AD53036A538BF40A39E81F3D7FB30
:102D40007CE339829B2FFF87348E4344C4DEE9CB7A
:102D5000547B9432A6C2233DEE4C950B42FAC34EEF
:102D6000082EA16628D924B2765BA2496D8BD125A5
:102D700072F8F66486689816D4A45CCC5D65B69249
:102D80006C704850FDEDB9DA5E154657A78D9D84ED
:102D900090D8AB008CBCD30AF7E45805B8B345060D
:102DA000D02C1E8FCA3F0F02C1AFBD0301138A6B27
:102DB0003A9111414F67DCEA97F2CFCEF0B4E67357
:102DC00096AC7422E7AD3585E2F937E81C75DF6E05
:102DD00047F11A711D29C5896FB7620EAA18BE1B6B
:102DE000FC563E4BC6D279209ADBC0FE78CD5AF411
:102DF0001FDDA8338807C731B11210592780EC5F57
:102E000060517FA919B54A0D2DE57A9F93C99CEFB2
:102E1000A0E03B4DAE2AF5B0C8EBBB3C83539961B3
:102E2000172B047EBA77D626E169146355210C7DF1
:102E300001020408102040801B366CD8AB4D081CE2
:102E40003044586C800001000200040006000800B5
:102E50000A000C0010002000400080000001010169
:102E60000103070100000804020408010101000039
:102E70000000000000000000000000000000000052
:102E80000000000000000000000000000000000042
:102E90000100000002000000030000000400000028
:102EA0000600000007000000080000000900000004
:102EB0000000000000000000000000000000000012
:102EC00001000000020000000300000004000000F8
:102ED000F02E0008000000207C000000C02A00083E
:102EE0006C2F00087C000020EC0F0000D02A0008A6
:102EF00000003235363934373538696B6D67747296
:102F000064736E73797535333961396F656D7368C4
:102F10007A6A6E73797535333961396F656D7368A7
:102F20007A6A0000000000000000000000000000BD
:102F30000000000000000000000000000000000091
:102F40000000000000000000000000000000000081
:102F50000000000000000000000000000100000070
:0C2F600004000000000000000024F40049
:04000005080000B936
:00000001FF
