:020000040800F2
:2000000070100020E10000088D240008312000080000000000000000000000000000000045
:200020000000000000000000000000007125000800000000000000008F2400085D260008DC
:20004000F3000008F3000008F3000008F3000008F3000008F3000008F3000008F3000008C8
:2000600000000000C9050008D9050008F3000008F3000008F3000008F3000008F3000008DD
:20008000F3000008F3000008F3000008F300000800000000F3000008F3000008F300000883
:2000A000F3000008F3000008F3000008E52C0008F3000008F3000008000000000000000040
:2000C0000448854600F0A6F800480047612F0008C046C0467010002080F3088870470000EE
:2000E0000448804704480047FEE7FEE7FEE7FEE7FEE7FEE769260008C100000830B50B4666
:20010000014600202022012409E00D46D5409D4205D31D469540491B254695404019154679
:20012000521E002DF1DC30BDF0B51FB40646002082B005464024019100901BE00199224684
:200140000F46304600F054F8049A059B801A994110D310461946224600F03AF8361A8F41A4
:200160000197224601200021009F00F031F838184D4100902046641E0028DFDC019B009818
:200180002946324607B0F0BD03460B439B0703D009E008C9121F08C0042AFAD203E00B78F5
:2001A0000370401C491C521EF9D27047D2B201E00270401C491EFBD270470022F6E710B537
:2001C00013460A4604461946FFF7F0FF204610BD10B5202A04DB0146203A9140002010BD68
:2001E000914020239C1A0346E3401943904010BD10B5202A04DB0846203AD040002110BD3C
:200200000B46D340D0402024A21A91400843194610BD0000064C0125064E05E0E36807CC53
:200220002B430C3C98471034B442F7D3FFF74CFF88320008A832000810B4002A17DD401E00
:20024000491ED30705D043784C7863404370401C491C52100BD043784C78634043708378E5
:200260008C78891C63408370801C521EF3D110BC70470000002A76D0F7B584B004981446A6
:200280000D46002803D010226846FFF77DFF2146202422463448FFF777FF2146324801F0F1
:2002A000FFFF102231492846FFF7C6FF03220121284602F05FF902221146284602F05AF93E
:2002C00001220321284602F055F91021284600F0E9F8274F0D262449300141181022284679
:2002E000FFF7AAFF284600F071F803220121284602F040F902221146284602F03BF9012286
:200300000321284602F036F96C1E08206278401E110712091201090FD219515C6170A2785F
:20032000110712091201090FD219515CA170A41C0028EBD1761E3606360ECCD10A491022DC
:200340002846FFF779FF0498002809D0014610222846FFF771FF102269460498FFF714FF51
:2003600007B0F0BDFFE77047EC050020CC060020EC300008002925D010B4CB07124A401EE7
:20038000002B08D043781C071B091B01240F9B181B5D4370401C490812D044782307240989
:2003A00024011B0FA418E35C437083781C071B091B01240F9B181B5D8370801C491EECD1D1
:2003C00010BC704770470000EC2F0008F1B589B000240998A10009180191087806904A78F0
:2003E00004928A780392C97802910E2100F034F906460B21049800F02FF946400D21039835
:2004000000F02AF946400921029800F025F946400921069800F020F905460E21049800F014
:200420001BF945400B21039800F016F945400D21029800F011F945400D21069800F00CF9D0
:2004400007460921049800F007F947400E21039800F002F947400B21029800F0FDF8784073
:2004600007900B21069800F0F7F807460D21049800F0F2F847400921039800F0EDF84740A3
:200480000E21029800F0E8F8019947400E704D700798641C8870E4B2CF70042C99D30AB025
:2004A000F0BD0000002925D010B4CB07124A401E002B08D043781C071B091B01240F9B181A
:2004C0001B5D4370401C490812D044782307240924011B0FA418E35C437083781C071B0910
:2004E0001B01240F9B181B5D8370801C491EECD110BC704770470000EC30000830B400226B
:200500000B46D243134C491E002B20DD01238B4307D00278104DD2431206920DA2586A4077
:20052000401CC91A10D4037853401B069B0DE358120A53404278801C5A401206920DA25836
:200540001B0A5A40891EEED530BCD04370470023E7E70000EC010020FFFFFF0010B5134C9D
:20056000E069800704D5606A206A022108432062E069C00619D50E4801F090F9206A102106
:2005800008432062606A0B480B49007840580B4C0B49201A80B20880A04201D201F098FD33
:2005A00022460849024801F067FC10BD0038014080000020FA31000804000240320400004F
:2005C000680000201C07002010B5024800F01EF910BD00001401002010B5024800F016F92A
:2005E00010BD00007001002072B6FEE7F8B5074600F0C6FB144EC51901243069240420425D
:2006000006D000F0BDFBA84216D230692042F8D130690E4908400E49316103D00D494860D4
:200620000120F8BD00F0ACFBC4193069400308D500F0A6FBA04201D30320F8BD30694003BC
:20064000F6D40020F8BD000000200240FAC30000FBC30000500C002002460020CB0700D098
:2006600010465300120601D51B2200E000225340DAB24B08D90700D050405100120601D5B3
:200680001B2200E0002251405A08C9B2D30700D048404B00090601D51B2100E000214B4083
:2006A000D9B25208D30700D048404B00090601D51B2100E000214B40D9B25208D30700D09C
:2006C00048404B00090601D51B2100E000214B40D9B25208D30700D048404B00090601D553
:2006E0001B2100E000214B40D9B25208D30700D048404B00090601D51B2100E000214B4023
:200700005208D9B2D20700D048407047F0B400280BD0014620314A79022A09D00422C263BA
:2007200000200871F0BC01207047F0BC01207047026813680E24A3431360426C1468FF235C
:2007400001339C431460026814686408640014600D4A5568066C1C24264001242746B74033
:200760003D435560826CC56C5560026D002A05D015689D431560826D406D42604C71002015
:200780000871F0BC7047000000000240F8B50024024620325179022903D00421C16301249A
:2007A0002DE001680B680E25AB430B6001680B685B085B000B60416C0B68FF250135AB4357
:2007C0000B6010494D68066C1C231E4001231F46B7403D434D60816CC56C4D60016D002982
:2007E00006D00E681D02AE430E60416D856D4D60537100211171816B002900D08847204661
:20080000F8BD000000000240C06B7047F0B42E490C6802681368056C1C273D400426AE4042
:20082000264214D05E0712D513689B0603D4146804239C4314604B68046C04223C40A24090
:2008400013434B60016B00293CD1F0BC70470227AF40064627402036002F19D09F0717D5C7
:2008600013689B0605D413680A24A3431360012272714B68046C1C2214400222A24013436A
:200880004B6000213171C16A00291BD1F0BC70470827AF402742F9D01B07F7D513680E245C
:2008A000A34313604B68046C1C22144001221546A5402B434B60C263727100213171416B37
:2008C0000029E3D0F0BC084700000240002801D10120704770B5044606682F48142130185C
:2008E000FFF70CFC80002064022025462035687130682A4908403060E168A06862690843F1
:20090000216911430843A1690843E1690843216A084321680A6810430860206C20498008BB
:20092000800046186664207814210838FFF7E6FB1C49C206A1640121D20E08469040E06495
:20094000A2688B0300209A4200D1606022799206920E3260A26CE36C53606268531E032B94
:2009600012D89206920E104E93009B190F4E6665521E9607B60F0A462365B240A26518606D
:20098000626DA36D536002E020656065A065E06369712871002070BDF8FFFDBF0F80FFFF51
:2009A0000008024080080240FC08024040090240F0B40446203426790025012E0CD001261A
:2009C000267167790026012F09D08021C163267101252846F0BC7047F0BC02207047022770
:2009E0006771C66304682668760876002660846CC66C6660046D002C02D0446D866D6660C1
:200A00001D4C6668076C1C2427400124BC402643194C6660046863608368102B03680BD035
:200A200099600168CA60016B002901680A6807D00E231A430A600BE09A600268D160F2E792
:200A400004239A430A6001680A680A231A430A60416C0A68D303094A02D50B6813430B6006
:200A6000016D002902D00B6813430B6000680168012211430160ACE700000240000100005A
:200A800070B5044600F07CF90546601C02D004480078241800F074F9401BA042FAD370BD55
:200AA00070000020F3B50546254881B0017801290BD00121017000217D27FF004160384621
:200AC000FFF794FD002803D034E0022003B0F0BD0421696029681B4E042919D00022029943
:200AE000D2430A60AC68E9686118A1421ED9164F7069E100384001431448014371617D20D5
:200B0000C000FFF773FD00280AD002990C600DE070690F49084370613846FFF767FD09E0AB
:200B2000EA68A968641C8918A142E1D87169022291437161024A0021117003B0F0BD0000A3
:200B4000500C00200020024007E0FFFF0200010004000100054901204A69C3071A434A61D6
:200B60004969002900DA00207047000000200240F0B51FB4074620480E4601781446012909
:200B80000AD001210170002141607D20C000FFF72DFD002803D01FE0022005B0F0BD174DC7
:200BA000012F1ED068690121890408436861EFF3108172B6012004CC401C04C64028FADD92
:200BC0002869C003FCD481F310887D20C000FFF70DFD6969B9436961074A0021117005B048
:200BE000F0BD039869690122114369613460BFF36F8F7060E9E70000500C002000200240D8
:200C0000064900204A69002A07DA054A8A60054A8A604969002900DA012070470020024046
:200C200023016745AB89EFCD0B680022002B7DD0F0B401240B689440234078D00D79AD07F2
:200C4000AD0F012D01D0022D10D1856856000327B740BD43CF68B7402F4387604568A54349
:200C60000C79E406E40F94402C4344600C79E443A40708D0C66855000324AC40A6438C6889
:200C8000AC403443C4600C79A407A40F022C0CD1D408A40027183C6A5507EE0E0F25B540F9
:200CA000AC430D69B54025433D62056856000324B440A5430C79A407A40FB4402C43046063
:200CC0004C68A403A40F43D09508254CAD002F193C6E9507EE0E0F25B540AC4305252D0738
:200CE000A84201D100250FE01E4DA84201D101250AE01D4DA84201D1022505E01B4DA84269
:200D000001D1032500E00525B5402543144E3D6634684D689C43ED0200D51C4334607468AA
:200D20004D689C43AD0200D51C4301E017E00FE074600F4C65684E689D43B60300D51D43F5
:200D4000656025684E689D43F60300D51D4325600B68521CD34000D06BE7F0BC70477047C8
:200D6000001802400004005000080050000C005080180240002A01D0816170478162704709
:200D80000148806870470000700000200248816802788918816070477000002010B5084850
:200DA00000240168821511430160012000F00AF8002801D0012401E000F028F8204610BD05
:200DC0000020024070B50F4E002431780546002915D07D20C000FFF791F901460A4800682B
:200DE000FFF78CF900F092FC002808D1042D06D200222946401E00F02DF8756000E0012412
:200E0000204670BD700000207C000020094881B001680122114301600068104000900648BA
:200E2000C26B01040A43C263C06B0840009001B0704700004010024000100240002805DBB7
:200E4000C106C90E01208840014908607047000000E100E08207D30EFF229A408907090ED5
:200E60009940002808DB830809489B001818036893430B43036070470007000F083883085D
:200E800004489B001B18D86990430843D861704700E400E000ED00E010B5104C2168032289
:200EA0005202914301432160C11FFF39FA3910D10B480621006848430A49FFF71FF9616981
:200EC000401C490505D5002805D06169401E4905F9D4002010BD032010BD000000700040C1
:200EE0007C00002040420F00F0B5044683B0002000902068664D800359D5002001906548A9
:200F0000C06BC00008D46348C26B01040A43C263C06B0840012001905F4F3868B91508432F
:200F20003860FFF72DFF06463868C00507D4FFF727FF801B022825D83868C005F7D5E8690B
:200F40000321090208400FD0616A81420CD0E86903210902EA698843012109040A43EA616C
:200F6000EA698A43EA61E861C00711D0FFF708FF0646E86980070BD4484FFFF701FF801BED
:200F8000B84202D90320009009E0E8698007F4D5E869032109028843616A0843E8610198FC
:200FA000002804D03B48C26B01048A43C2632078C00705D0686961688008800008436861A4
:200FC0002078C00606D56869032189028843A168084368612088800506D5686903218904E6
:200FE00088436169084368612088400506D56869032109058843A169084368612078800676
:2010000006D56869032109038843E168084368612088400410D56869E1698000800808438D
:2010200068610121E0698907884205D11948C168012212041143C160206880020FD5696954
:2010400001208005226A814311436961216A814205D11048C168012212061143C16020887F
:20106000000511D56869032189038843216908436861012120698903884205D10548C1684E
:20108000012212041143C160009803B0F0BD0000401002400010024000700040881300007B
:2010A000002801D101207047F8B5054657480E4600684007400FB04219D2544F3868C0088D
:2010C000C00030433860FFF75BFE044638684007400FB0420BD04E4FFFF752FE001BB842B1
:2010E0006FD84A4800684007400FB042F4D12868484C81070DD5400704D5A0680721090378
:201100000843A060A0680F2109028843A9680843A0602878C00739D0686801280BD00228AC
:201120000DD000280FD03C49032810D0C969890710D40120F8BD21688903FAD50AE0216868
:201140008901F6D506E021684905F2D502E0096A8907EED5A168C908C9000143A160FFF730
:201160000FFE0746A0686A6838210840D20090420CD0FFF705FEC11B2548814221D8A06814
:20118000382108406968C9008842F2D11F4801684907490FB1421CD900681C49C008C000D2
:2011A00030430860FFF7ECFD0746184800684007400FB0420DD0FFF7E3FDC11B144881422A
:2011C00001D90320F8BD114800684007400FB042F1D12878400706D5A06807210903884389
:2011E000E9680843A06000F033F8A1683C22890911400A4A515CC906C90EC8400849086086
:2012000008480068FFF7DEFDF8BD000000200240881300000010024040100240283200084D
:201220007C0000207400002006480749006889681C22890A1140054A515CC906C90EC840BB
:20124000704700007C000020001002406832000810B5204CA068204A8006400F16D0A068E1
:201260008006410F501001290FD0A1688906490F022912D0A0688006400F042823D0A0682E
:201280008006400F032821D0002010BD206801218004400F8140104612E0E1688B07E168C6
:2012A0009B0F4906490F491C032B00D01046FEF725FFE1684904490E4843E168490F491C8D
:2012C000FEF71CFF10BD0120C00310BD7D20000210BD0000001002400024F400002801D1B0
:2012E00001207047F8B5044600783827C00700284DD0FC4DA868E96838408907890F1028BA
:2013000002D008280BD001E0032908D001216068090488420AD128680843286017E0286885
:20132000800334D5606800287ED030E0052301221B0492049842286804D110432860286829
:20134000084303E088432860286890432860606800280ED0FFF714FD06462868800316D403
:20136000FFF70EFD801B64286FD828688003F7D50DE0FFF705FD06462868800307D5FFF709
:20138000FFFC801B642860D828688003F7D4207880076DD5D34EB068F16838408A070721F1
:2013A000920FC902102802D0002826D001E0022A23D0E0680028306848D0884321690843D9
:2013C00030603168FF20013001433160FFF7D8FC05463068400507D4FFF7D2FC401B0228A9
:2013E00033D830684005F7D570687F210902884361690902084370603AE03268520502D519
:20140000E268002A10D072687F231B029A4363691B021A437260002810D1306888432169F4
:2014200008433060306800E08CE08004400F01218140AD48FEF762FEAC490860AC48006834
:20144000FFF7C0FC00287DD112E07CE0FF21013188433060FFF794FC05463068400507D5DF
:20146000FFF78EFC401B02286DD830684005F7D42078A04D000733D59A4880688006400F47
:20148000032815D0A0690028286A18D0012108432862FFF775FC0646286A800720D4FFF7E4
:2014A0006FFC801B02284ED8286A8007F7D517E0286A800714D5A069002843D010E040087C
:2014C00040002862FFF75CFC0646286A800707D5FFF756FC801B022835D8286A8007F7D4B5
:2014E0002078400778D57F48002781688906490F042948D0C06BC00008D47A48C26B010402
:201500000A43C263C06B0840012700907A480168C90514D401688015014377480160FFF7F5
:201520002FFC064674480068C00508D4FFF728FC801B02286BD870480068C005F6D5A16894
:20154000012901E09DE062E024D004200529E96924D049084900E961E9698143E961A068E9
:20156000002822D0FFF70CFCE969064689072CD4624DFFF705FC801BA84248D85D48C0690C
:201580008007F6D521E0E869800725D5A068002877D021E0E96901200143DFE70143E961A3
:2015A000E86901210843E861D9E7FFF7E9FBE9690646890709D5514DFFF7E2FB801BA84288
:2015C00025D84C48C0698007F6D4002F04D04548C26B01048A43C263E069002850D0414D2D
:2015E000A9688906490F022954D001263606022828680ED0B0432860FFF7C2FB04462868A1
:20160000800142D5FFF7BCFB001B02283AD90320F8BDB0432860FFF7B3FB074628688001D8
:2016200007D5FFF7ADFBC01B0228F0D828688001F7D4616A206AA26A0843E16A1202114328
:201640000843216B0843616B0843E9682C4A11400843E860286830432860E8680121090799
:201660000843E860FFF78CFB0446286880014BD4FFF786FB001B0228C9D828688001F7D5A6
:2016800042E02DE028688001BCD4E8681D490840E86039E00128BBD0E868226A8107890F6B
:2016A00091421DD17021626A0140914218D17F22120201461140A26A1202914210D11F21AE
:2016C0004904E26A014091420AD107214906226B0140914204D1400F616B4007884213D086
:2016E0000120F8BD001002400024F4007C000020740000204010024000700040881300009D
:201700008C80C111FCFFFEEE0020EAE70B4910B4401E884202D910BC01207047084948615A
:2017200008480722C3691B021B0A4C042343C361002088610A6110BC70470000FFFFFF00F4
:2017400000E000E004ED00E0014680310A79012A01D10220704710B401220A7124228A6015
:201760000268136814686408640014600122520793430022426600680360202088600A713A
:2017800010BC10467047704770470000F8B50646044680363079012833D00120307124222C
:2017A000B2602268136800931368834313602268936807256D06AB430B4393602546616E3E
:2017C000403500291FD020688168806809014F0F0E49400F0E4A095C105CC000FEF78EFCAD
:2017E00068850A48C15D0838C05DC000FEF786FC28852168009808602020B06000203071B1
:20180000F8BD0220F8BD6885F2E700002032000818320008F8B506460446803630790128FF
:2018200032D0012030712422B26022681368009313688343136022689368DB00DB080B43AF
:2018400093602546616E403500291FD020688168806809014F0F0E49400F0E4A095C105C3E
:20186000C000FEF74BFC68850948C15D0838C05DC000FEF743FC2885216800980860202049
:20188000B06000203071F8BD0220F8BD6885F2E7203200081832000870477047F8B5054613
:2018A00004468035A868EE6821688A6810271206002A33DA212831D1EFF31080012282F36D
:2018C00010888A6880239A438A6080F31088E06F002808D0FEF71AFF002804D0E06FFEF76C
:2018E00093FF202852D0EFF31080012181F3108821680A68C0239A430A6080F31088EFF33A
:201900001080012181F3108821688A680123DB059A438A6080F310882020A86021688868F7
:20192000400645D5222E43D1EFF31080012686F310888A6840239A438A6080F31088286882
:20194000002808D0FEF7E2FE002804D02868FEF75BFF20281AD0EFF3108086F31088216899
:201960000A68FF2321339A430A6080F31088EFF3108086F3108821688A680E4B1A408A6092
:2019800080F31088E06E012803D00CE02F610320F8BDEFF3108086F3108821680A68BA4323
:2019A0000A6080F310882020E8600020E06660670020F8BDFEFFFFEF70470000F8B503686E
:2019C0000446D96918689A68C84D0E462E4025468035002E71D0C64EC64F16400740374353
:2019E0006AD0CF0706D0C70504D501271F622B693B432B618B0708D5D30706D02768022342
:201A00003B622B6904273B432B614B0708D5D30706D0276804233B622B6902273B432B6167
:201A20000B0709D520230340334305D02668082333622E691E432E610B0509D5430107D502
:201A400001232668DB0233622B69202633432B612B69002B3DD089060AD520210840C905F5
:201A60000A40104304D0616F002901D020468847286922689168490602D42821084259D001
:201A8000EFF31081012080F310881368FF262136B343136081F31088EFF3108180F31088BD
:201AA00022689368944E3340936081F31088E16E01290FD019E000E042E08E0640D5012729
:201AC00020263F07064017403E4339D0616F00297ED1F8BDEFF3108180F3108822681368D3
:201AE0001026B343136081F310882021E9600021E166616722689168490617D5EFF3108150
:201B000080F31088936840208343936081F31088286800280AD0794981632868FEF736FEA9
:201B20000028D6D02868816B8847F8BD2046FFF743FFF8BD2046FFF73FFF00202861F8BD8C
:201B4000E66E012E7ED1CE067CD5C6067AD5102018622068816826464906403600294BDAD9
:201B60002A68116849680904090CE8D0B38B8B42E5D9F18311680968890633D4EFF310829E
:201B8000012181F3108803680F02BB43036082F31088EFF3108081F31088226893688B435C
:201BA000936080F31088EFF3108081F31088226893684027BB43936080F310882020E86039
:201BC0000020E066EFF3108081F31088216800E061E00A6810239A430A6080F310882868F0
:201BE000FEF794FD02202067B08BF18B401A81B22046FFF7C8FDF8BDB28BF18B511AF28BFB
:201C000089B2002AF7D00029F5D0EFF31083012282F310880668FF272137BE43066083F33C
:201C20001088EFF3108082F3108823689E68324F3E409E6080F310882020E8600020E06606
:201C4000606700E010E0EFF3108082F310882268156810239D43156080F31088022020672B
:201C60002046FFF790FDF8BDCE0208D5560206D50120000518622046FFF70FFEF8BD0E0614
:201C80000CD501278026FF0506403A40164305D0A16F0029F2D020468847F8BD4A0614D585
:201CA000420612D52046EFF31081012282F310881C68402294431C6081F310882021A9605D
:201CC0000021816700F0B2F9F8BD0A0205D5420003D52046FFF7E0FDF8BDC901FCD50028FA
:201CE000FADA2046FFF750FDF8BD00000F0800000100001020010004FEFFFFEFF927000852
:201D0000002801D10120704770B5054604468035A868002803D12871204600F027F8242024
:201D2000A86020680168490849000160204600F055FE012818D0A06A002802D0204600F09B
:201D4000BFFC206841680922D20291434160206881682A2291438160206801680122114349
:201D60000160204600F012FD70BD0000F0B591B000240A940B940C940D940E94009401941D
:201D80000294039404940646059406940794089409943149306888425BD1012000906846C4
:201DA000FFF7A2F8002801D0FEF71EFC2B480268012189030A430260006808400F90284892
:201DC000426B02210A434263406B0B9108400F90C0200A9003200D900C940AA90E9421487B
:201DE000FEF722FF214D20482860AC603220EC60686080206C61AC6187012F62EC61286194
:201E00002846FEF763FD002801D0FEF7EDFB80208551AE62174D164828603320686010200E
:201E2000EC60A8606C61AC612F628020EC6128612846FEF74BFD002801D0FEF7D5FBF567A8
:201E4000002211461B20AE62FFF704F81B20FEF7F5FF11B0F0BD000000380140401002402F
:201E6000001002400004005008000240140100201C00024070010020F8B505468035EB684E
:201E8000202B01D00220F8BD00290BD0002A09D0012483682403A34206D10369002B03D1EA
:201EA000CB0701D00120F8BD0023C3662E4C03680126A3420ED05C6824020BD5EFF310844E
:201EC000A44686F310881C68B7063C431C60644684F31088044681654030828300271346ED
:201EE0002F612220E8602868002817D01F49C16229681F48086329681E484863286887631F
:201F00002168A26D24312868FEF752FD002805D0102028612020E8603046F8BD20690028E6
:201F20000BD0EFF3108086F3108821680A68FF2301331A430A6080F31088EFF3108086F335
:201F4000108821688A6832438A6080F31088EFF3108086F3108821688A6840231A438A605C
:201F600080F310883846F8BD00800040D5280008672900080D2800087047704770B50546AB
:201F800004468035A868202801D0022070BD00290BD0002A09D00123A0681B03984206D1C8
:201FA0002069002803D1C80701D0012070BD2046403021658282C282002028612121A96016
:201FC000E16F00291AD0164BCB62E36F15491963E36F15495963E16F134688632068E66F07
:201FE000024628323046216DFEF7E2FC002805D0102028612020A860012070BD2168402033
:202000000862EFF31080012181F3108821688A6880231A438A6080F31088002070BD0000F9
:2020200087290008D12900080D28000870477047FEE7000070B500251A481B4C1B4E057065
:202040002B4618460422C10702D04108614000E04108C80702D04808604000E04808521EAD
:20206000F1D199005B1C7050FF2BEAD91048114905704570858101610F4941610F49816169
:202080000F49C1610F48016810221143016001684022114301600C4A06490C48FFF7ECFEC6
:2020A00070BD0000390000202083B8EDEC010020CC0100201C0700204E0B00206800002014
:2020C000F92C0008003801403204000080000020F8B5704C20690178A02959D14278214605
:2020E000A02689690125012A53D0022A50D10A88052A7DD38118091F4B780F781B023B43B0
:202100005BBA1F048B78C9781B021F430F43121F91B2FEF7F3F9B8426AD12169C8788A781C
:202120000002104340BA20815B4A80028018A269091D1288083A92B200F0AAF960690670CD
:20214000616982204870206961698078887020696169C078C8706069052105716069FEF732
:20216000CDF96269010E51716269010C91716269010AD17161690872E1690920884760899C
:202180002189401E814203D14449657002200870F8BD424A15700A88052AF9D38118091F90
:2021A0004B780F781B023B435BBA1F048B78C9781B021F430F43121F91B2FEF79FF9B842F2
:2021C000E6D125702069C178827809021143027949BA090412021143427911436160C1799B
:2021E00082790802104340BA60816069067000E02DE061698120487020696169807888701A
:2022000020696169C078C870206961690079087120696169407948712069616980798871AC
:2022200020696169C079C87108216069FEF766F96269010E11726269010C51726269010AC5
:2022400091726169C872E1690C208847F8BD606906706169822048702069616980788870D7
:2022600020696169C078C87061690220087105216069FEF743F96269010E51716269010CA2
:2022800091716269010AD17161690872E16909208847F8BDCC01002000400008390000205B
:2022A000F0B585B00C46064610291CD0182C1CD0202C6BD10E213019001F03786A46137084
:2022C0004378537083789370C078D070A0082246103A0290D017400F8018C01000258900D2
:2022E00040000F1A50E00A21E5E70C21E3E728460299FDF703FF002902D004291DD022E041
:202300006A46039010785378137093785370D3789370D07004216846FEF72CF8694608782D
:202320001B4A0399515C4840694608704878487088788870C878C87005E0202C03D104212E
:202340006846FEF717F8A800811903900A78684602714A7842718A788271C978C171042250
:2023600001A9FDF769FF039800198119684600780870684640784870684680788870684601
:20238000C0786D1CC870EDB2AF42B0DC05B0F0BDEC31000808B50C48816B01221143816349
:2023A000806B10400022009011460920FEF752FD0920FEF743FD002211460A20FEF74AFD2F
:2023C0000A20FEF73BFD08BD0010024070B586B00024124800940194029403940494416B1C
:2023E000012529434163416B29400591426B02210A434263406B0A4E084005900022102107
:202400003046FEF7B7FC1020009002946946019503943046FEF708FC06B070BD00100240C8
:202420000004005010B5184816490160E1214902416000218160C16001618161C161016289
:202440000C22416242618162FFF75AFC002801D0FEF7CAF800210C48FFF7DCF9002801D0F0
:20246000FEF7C2F800210848FFF790F9002801D0FEF7BAF80448FFF767F9002801D0FEF78D
:20248000B3F810BD0038014080000020FEE77047F0B504460120C00287B00F461546824292
:2024A00061D8000484425ED33049098C4906890EC9020818A04256D9FEF7A2FB6907490F9E
:2024C0000020082915D20A007A4412799218974410030507090B0D0F07200AE0062008E07E
:2024E000052006E0042004E0032002E0022000E00120401986B260050ED1022102911F21D6
:20250000C9066118C90A04910121059103900090694602A8FEF7C6FA0025F00821D0F60816
:20252000E800C019817803780A04C17809060A434178090219430A4381790B04C179090604
:202540000B4341790079090201430B4321460120FEF70EFB002800D108346D1CADB2AE42CA
:20256000DED8FEF7F7FA07B0F0BD0000C075FF1F70470000F0B584B00A2A6BD8002A69D09E
:202580004418A6460125D407ED07531E64199C460394002B16DD73462F4C039D1B1F6C44BB
:2025A000002D03D01D7965701B1D641C1E7965466D1007D008331F7866701E79A770A41C4C
:2025C0006D1EF7D16346002B04DB9C006418055D6C46E55404239E1A9700002E18DD7B1864
:2025E0001C1873461B1F241FF50703D025791D711B1D241D75102D062D0E09D026791E7103
:20260000267A1E72083308346D1E2D062D0EF5D163460C24002B17DDE41B64180E4B039DE8
:2026200024186B44002D03D05D7825715B1C241D5E7865466D1007D09F782671DE7827721A
:202640009B1C08346D1EF7D1521E03D46B469A5C0C31425404B0F0BDFFFFFFFF10B500F061
:2026600005F8FEF793FB10BD7047000030B41148114A4188914201D2491C4180027800218E
:202680000E4C1023062A0AD24588C82D05D965695D4065614180521C027030BC70474288C2
:2026A0007D25ED00AA42F8D9A3614180017030BC704700006A000020FFFF00000004005019
:2026C00010B4018DC90707D001684A6801235B049A43C36A1A434A60018D890707D50168EF
:2026E0004A6801231B049A43036B1A434A60018D490707D501684A6801239B049A43436B70
:202700001A434A60018D090707D501684A680123DB039A43836B1A434A60018DC90607D510
:202720000268916801231B039943C36B19439160018D890607D501688A6801235B039A43EA
:20274000036C1A438A60018D490612D503685A6801210905446C8A4322435A60426C8A428C
:2027600007D10268516803235B059943836C19435160018D090607D501684A680123DB0469
:20278000C06C9A4302434A6010BC7047F0B5064683B00025803604463561FEF7F1FA01906E
:2027A00020680068134F000709D501210097002249052046019B00F01DFA00280DD1206822
:2027C000006840070CD501210097002289052046019B00F00FFA002802D0032003B0F0BD88
:2027E0002020B060F060E56625673571002003B0F0BD0000FFFFFF0110B5806A0022014626
:202800004031CA83CA82FFF7D7F810BDF8B5806A014680318B68CC680268926815060122C4
:20282000002D1CDA212B1AD1002356252B52EFF3108382F3108805682E68C027BE432E6028
:2028400083F31088EFF3108382F310880568AE68D705BE43AE6083F3108820238B600568D1
:20286000AB685B062CD5222C2AD100235E242352EFF3108482F310882E68FF272137BE43E8
:202880002E6084F31088EFF3108482F310880568AE680F4F3E40AE6084F31088C46E012C3D
:2028A0000AD1EFF3108482F31088026815681026B543156084F310882022CA60C3664367E2
:2028C0000A6910231A430A61FFF776F8F8BD0000FEFFFFEF70B501460968806A096800232B
:2028E0008906002933DB5E210B52EFF31082012181F31088046825680E02B543256082F399
:202900001088EFF3108281F310880468A5688D43A56082F31088EFF3108281F31088046858
:20292000A5684026B543A56082F3108820248C221450C26E012A0AD1EFF3108281F310880E
:2029400001680C681025AC430C6082F310880367C16E012902D0FFF70FFB70BD5C21095A5B
:20296000FEF711FF70BD10B5806A01210167C16E012902D0FFF701FB10BD5C21095A4908D1
:20298000FEF701FF10BD70B501460968806A096889061AD4002256210A52EFF31081012235
:2029A00082F3108803689C688025AC439C6081F31088EFF3108182F310880068026840234A
:2029C0001A43026081F3108870BDFFF72FFB70BD10B5806AFFF72BFB10BD0000F8B5044623
:2029E000016880682369E5691843636900262B431843764A0B68764D2B4003430B602068FC
:202A0000416803231B039943E368194341602168A069914201D0236A18438B686D4D2B406F
:202A200003438B602068C16A636A090909011943C1626949236869488B420AD14069800784
:202A4000800F1BD001282CD0022817D0032814D111E063498B4220D093420ED141690320DB
:202A60008002014019D001208002091A19D0091A15D0814201D1082000E01020012559495E
:202A8000594FED03934241D100280CD002280DD004280DD0082870D10EE00020EEE702202D
:202AA000ECE70420EAE7FEF7BFFB03E00D4603E0FEF7CEFB05007FD0606A4000395A284669
:202AC0000091FDF71BFB67687900791881426ED8390381426BD3002328461946009AFDF7BE
:202AE00023FB020E09020302780811431818002251413A460023FDF717FB032109023B4A83
:202B0000411A914253D82168C86055E0E269AA422AD1002806D0022807D0042807D0082812
:202B200045D108E0FEF780FB03E00D4603E0FEF78FFB050040D0606A4000395A2846FDF77B
:202B4000DDFA616840004A088018FDF7D7FA0146274A103991422AD8511C01400007400F0C
:202B600008432168C86027E0002807D0022808D0042808D008281AD109E018E0FEF754FB0D
:202B800003E00D4603E0FEF763FB050014D0606A4000395A2846FDF7B1FA61684A08801883
:202BA000FDF7ACFA0146124A1039914201D9012602E0216880B2C860204601214030418538
:202BC000018500206067A0673046F8BD00800040F369FFCFFFF4FF1100380140401002405E
:202BE000004400400024F40000320008FFFC0F00EFFF0000FFB50446006881B00E460A9F73
:202C0000C169304688433DD000210398814264D125468035781C57D0FEF7B2F8014604982B
:202C2000081AB84230D8002F2ED02068016849074AD5C069C043000546D401212068C90223
:202C40000162EFF31080012282F3108821680B68FF26A136B3430B6080F31088EFF3108099
:202C600082F3108821688A68520852008A6080F310882020A860E860286100202871032036
:202C800005B0F0BD0121C0E7EFF31081012282F3108820680368FF26A136B343036081F3AA
:202CA0001088EFF3108082F3108821688A68520852008A6080F310882020A860E860002031
:202CC0002871032005B0F0BD2068C1693046884306D00021039881429CD0002005B0F0BDA0
:202CE0000121F7E710B5FDF739FC0248FEF766FE10BD00008000002010B5034902464969CB
:202D00000248FFF73BF910BDCC01002080000020F3B5494C85B000254849E5604848216166
:202D2000484A60610F200B781370401E491C521C0028F8DA4349069A0598FDF79BFA414805
:202D4000C27B017B12068918827B437B12041B02D21889180A03120CA160A280090701D059
:202D6000521CA28021691031216111046580090C5ED00127344EFF066069B8425AD333491E
:202D8000098C4906890EC902C919814252D9FDF737FFA08A40050FD1022100910190626994
:202DA0001F21C9065118C90A029101210391049004A96846FDF776FE60882169000142185B
:202DC00020490F2013780B70401E491C521C0028F8DA1C49069A0598FDF74CFA19480025C8
:202DE000E0602570E068227801689200B1500268A261436823626562E3620830A262E060FB
:202E000001206169FDF7B4FE002802D16069083060612078401CC0B220700228E2D3FDF79B
:202E200099FE6088401C80B26080A1888842A3D30320607007B0F0BD380000200040000845
:202E4000003800080C070020EC060020C075FF1F02E008C8121F08C1002AFAD1704770478B
:202E6000002001E001C1121F002AFBD170470000F8B53048017800291CD000218181417822
:202E800000291AD02C492D48FFF742FF2C4841682C4C090E2C4D082913D000BF00BF00BF88
:202EA000641EFCD2BFF34F8F2848C560BFF34F8F00BFFDE78189491CE0E780890528E5D247
:202EC00027E0234F3978002920D172B60168214A11400122520791421BD146680068FDF71C
:202EE000FBF800201C49C04308601C4A10604860506088609060C860D0600861106148610E
:202F0000506188619061C861D061B0473878032803D03220FDF7B4FDF8BD00BF00BF00BF3E
:202F2000641EFCD2BFF34F8F0848C560BFF34F8F00BFFDE7CC0100201200002002000020C8
:202F400000380008FCFF00000400FA0500ED00E0390000200000FE2F80E100E080E200E05D
:202F6000214992B001200880FDF718FF38216846FDF723F9002501200E950F951095400266
:202F80001195FDF789FF0224E001039000944020059008200A9080030B90079400020C90D3
:202FA0000894000104950D9009956846FEF796F9002801D072B6FEE707200E9010950221DB
:202FC00011950F940EA8FEF76BF8002801D072B6FEE7FFF7FBF9FFF7DDF9FFF723FAFFF7D5
:202FE00029F8FFF745FFFCE700000020637C777BF26B6FC53001672BFED7AB76CA82C97DC6
:20300000FA5947F0ADD4A2AF9CA472C0B7FD9326363FF7CC34A5E5F171D8311504C723C34E
:203020001896059A071280E2EB27B27509832C1A1B6E5AA0523BD6B329E32F8453D100ED54
:2030400020FCB15B6ACBBE394A4C58CFD0EFAAFB434D338545F9027F503C9FA851A3408F5E
:20306000929D38F5BCB6DA2110FFF3D2CD0C13EC5F974417C4A77E3D645D197360814FDC0B
:20308000222A908846EEB814DE5E0BDBE0323A0A4906245CC2D3AC629195E479E7C8376D0C
:2030A0008DD54EA96C56F4EA657AAE08BA78252E1CA6B4C6E8DD741F4BBD8B8A703EB56683
:2030C0004803F60E613557B986C11D9EE1F8981169D98E949B1E87E9CE5528DF8CA1890DFD
:2030E000BFE6426841992D0FB054BB1652096AD53036A538BF40A39E81F3D7FB7CE3398219
:203100009B2FFF87348E4344C4DEE9CB547B9432A6C2233DEE4C950B42FAC34E082EA166FF
:2031200028D924B2765BA2496D8BD12572F8F66486689816D4A45CCC5D65B6926C70485090
:20314000FDEDB9DA5E154657A78D9D8490D8AB008CBCD30AF7E45805B8B34506D02C1E8FBE
:20316000CA3F0F02C1AFBD0301138A6B3A9111414F67DCEA97F2CFCEF0B4E67396AC742268
:20318000E7AD3585E2F937E81C75DF6E47F11A711D29C5896FB7620EAA18BE1BFC563E4BA6
:2031A000C6D279209ADBC0FE78CD5AF41FDDA8338807C731B11210592780EC5F60517FA9C3
:2031C00019B54A0D2DE57A9F93C99CEFA0E03B4DAE2AF5B0C8EBBB3C83539961172B047EF5
:2031E000BA77D626E169146355210C7D01020408102040801B366CD8AB4D081C3044580066
:20320000010002000400060008000A000C0010002000400080000001010101030701000084
:20322000080402040801010100000000000000000000000000000000000000000000000071
:20324000000000000000000001000000020000000300000004000000060000000700000057
:2032600008000000090000000000000000000000000000000000000001000000020000003A
:203280000300000004000000A83200080000002080000000502E000828330008800000201C
:2032A000F00F0000602E000800003235363934373538696B6D67747264736E73797535332F
:2032C0003961396F656D73687A6A6E73797535333961396F656D73687A6A00000000000011
:2032E0000000000000000000000000000000000000000000000000000000000000000000CE
:203300000000000000000000000000000000000000000000000000000100000004000000A8
:08332000000000000024F4008D
:20380000C8090020D938000885930008F97A00080000000000000000000000000000000003
:20382000000000000000000000000000F99A00080000000000000000C9980008B1A000082B
:20384000EB380008EB380008EB380008EB380008EB380008EB380008EB380008EB38000810
:2038600000000000EB380008A54E0008EB38000829430008EB380008EB380008EB38000802
:20388000EB380008EB380008EB380008EB38000800000000EB380008EB380008EB380008FB
:2038A000FD7A0008EB380008EB380008BDAC0008EB380008EB38000800000000000000006C
:2038C0000448854600F01EFD00480047D5B30008C046C046C8090020044880470448004704
:2038E000FEE7FEE7FEE7FEE7FEE7FEE729A10008C138000830B50B46014600202022012493
:2039000009E00D46D5409D4205D31D469540491B2546954040191546521E002DF1DC30BDB8
:2039200070B500242546002801DA01244042002901DA01254942FFF7DDFFAC4200D0404262
:20394000002C00D0494270BDF0B51FB40646002082B005464024019100901BE001992246CF
:203960000F46304600F0A2FB049A059B801A994110D310461946224600F088FB361A8F41AA
:203980000197224601200021009F00F07FFB38184D4100902046641E0028DFDC019B00986F
:2039A0002946324607B0F0BD03460B439B0703D009E008C9121F08C0042AFAD203E00B789D
:2039C0000370401C491C521EF9D27047D2B201E00270401C491EFBD270470022F6E710B5DF
:2039E00013460A4604461946FFF7F0FF204610BD30B504460020034600E05B1C934203D2C4
:203A0000E05CCD5C401BF8D030BDF8B502464A40D40F42004B0052085B089A4202D202468D
:203A2000084611464A0023D0C30D4A00DDB2120EAD1A202D35DA49020126490AF6058A1955
:203A4000002C00D0524220214F1B1146B9402A411018C20D9A4221D0002C17D0012D08DC87
:203A6000DA05801AD20F8019D207DBB200F04AFBF8BDDA05801A012340001B06C018801895
:203A80005A428018CA0F1043490007E04908C2071143DA05801A80194008801800F02AFB21
:203AA000F8BD61000122511A001BF7E70122D2075140AAE70122D2075040A6E7024670B5C5
:203AC0004A40D30FDB0740002DD04A002AD0010E140E000212020919400A520A8418E50186
:203AE00004465443000A120A2E045043A4194219200CC543AA18120C0125AD03521C52191F
:203B000012047F39240400D0521C104301D44000491EC2B20C06C0092018401C4008802ACD
:203B200002D003E0002070BD40084000002900DA0020184370BD70B502464A40D50F400035
:203B40004A00ED0740085208002814D0002A12D0C40DD30D41020120C0055202490A520A90
:203B6000E41A091812187D34914201D3641C00E04900002C01DA002070BD0023914201D3DD
:203B8000891A0343400849000028F7D100290AD0914202D10121C90705E0914201D2012173
:203BA00001E00121C943E005C018401900F0A2FA70BD0000F0B507460846584087B0C00F49
:203BC000049048000E46590040084908BC1A884105D2384631461E4617460B4602465800A6
:203BE000400810434DD0300D039040055900400D490D0590401A0290402873DA1803012189
:203C0000000B09050843019004980092002806D01146019A49420020904100910190029859
:203C200040210A1A0199009800F030FA05460C466B4607CB00F04BFAC0197141039A0E0D1B
:203C40000023D71756401A467A40164344D0049A002A2DD0029A012A039A15DC1205C01A2B
:203C6000914101263605001C7141D20F059ED2070093019202962A46234600F089FA07B024
:203C8000F0BD38463146FAE71605234A0F46B218C01AB74101210905001C4F4100187F4174
:203CA000114618187941E20F10436D19644113E0E2076D0815436408C2071443039A01265B
:203CC0001205C01A91413605001C7141CE07400830434908C01851412A46234600F04BFABF
:203CE000CDE7FFE7049801224000C117121A00238B4104983146C417381AA141EEE730B45D
:203D00000124E407634030BC54E730B40124E407614030BC4EE700000000E0FFF0B51FB4BC
:203D200088B00B990998002448400999C00F490049080991C0070B990090490049080B9184
:203D400009990898A64608431CD00B990A98084318D0099801244000420D4800410D0998F9
:203D600024050003000B204309900B980003000B20430B9050181C4940180022019014462F
:203D8000104605E0002001460DB0F0BD032801DA034600E003239C46C11A0AAE0AE05F0004
:203DA00008ADED5B4F00F75B7D430027AA187C41491C5B1E6145F2DD410004AB5A522104EB
:203DC000120C0A43240C401C0828DFDB019802900099704601910090059B049A07990698EA
:203DE00000F0D6F9D0E700000DFCFFFFF0B50C465C4085B0E40FE40703944C00002664082B
:203E000059009446490802460296224321D062460A431ED06200570D4A000E032303550D5C
:203E2000012402462C492405781B1B0B360B401823432643614600901C46501AB44103D388
:203E40000098401C009002E0921800985B41002803DA0020014605B0F0BD00200121090500
:203E60000746864611E064461D46141BB54106D36546521BB341744607430C43A646CD070E
:203E800040084908284392185B4105460D43EAD11046184313D0604619465040714008435D
:203EA00006D06046101AB34106D20122002306E000220123DB0702E00122D2435310009827
:203EC00074460105381C6141029C039D0019694100F051F9BFE70000FD03000010B5002264
:203EE0009623114600F00EF910BD00000EB5C217C10F5040CA0740180021054B0293019230
:203F000000910A460B4600F043F903B000BD0000330400000EB505490291002100910A46F6
:203F20000B46019100F034F903B000BD33040000410040020122400AD205090E80187F29BC
:203F400001DA00207047962903DC9622511AC840704796398840704770B5CD0F4A0009038A
:203F60000123090B1B0519430B4BED070024520D9A4201DA002070BD074B34339A4203DC48
:203F80009A1A00F093F802E00449511888402C43F1D0404270BD0000FF030000CDFBFFFFEB
:203FA0004A0009030123090B1B051943094B10B5520D9A4201DA002010BD064B34339A4247
:203FC00003DC9A1A00F072F810BD03495118884010BD0000FF030000CDFBFFFFC20FD2076B
:203FE000400040080BD0C10D0723DB01C91840020905400A1143C20840071143704700207F
:204000000146704710B5002904DB0124E40740428C412146002B04DB1C460123DB07524209
:20402000A341994200D1904210BD0000CB0FDB07490010B5490802460A4307D00A0D072488
:204040000903E401090B121B002A01DC002010BDC900440F0C43C100E018D205801800F0B7
:2040600049F810BD0122D207002800DB101A002900DB511A814270470122D207002800DB21
:20408000101A002900DB511A8842704710B5202A04DB0146203A9140002010BD91402023A5
:2040A0009C1A0346E3401943904010BD10B5202A04DB0846203AD040002110BD0B46D340ED
:2040C000D0402024A21A91400843194610BD10B5202A06DBCB170846203A1041C1170B4397
:2040E00006E00B461341D0402024A21A91400843194610BD002904DA401C490001D1400817
:204100004000704770B40024050C05D11024000402D1002921D01124050E01D100020834FC
:20412000050F01D10001241D850F01D18000A41C002801DB4000641C002908D020252E1B5E
:204140000D46F540A14000D001212943084301061B1B000ADB1D02D5002070BC7047DB0554
:20416000181880180029F8DA401C4900F5D170BC40084000704710B5002B08DA0024401C54
:20418000614192185B411A4301D14008400010BDF0B51FB482B005460C0003D0084606F09B
:2041A00029FE02E006F026FE20300246009021462846FFF76BFF049B059A04460F46184347
:2041C0001143084314D0184610431BD0009840210A1A18460599FFF769FF05460E46009A10
:2041E00005990498FFF752FF084305D0012004E02046394607B0F0BD0020C11705430E433F
:204200002C43374300990E986305401A7905E40A00220C43FD0A0A3002D500200146E9E788
:204220000105101969410C9C0D9D00196941FFF7A2FFDFE770B54B005B0803430BD04B00F4
:204240005C0D002633466542B341D417AD1AA34102DB0020014670BD12053018514170BD96
:20426000F8B50546480040080C46284304D06000184A400D904201DD2846F8BD1549353977
:20428000884210DC88420BDB290D200308432903014305D0E00F1049C00741180020F8BD92
:2042A00000200146F8BD161A4020821B28462146FFF7ECFE07460091284621463246FFF7DF
:2042C000F5FE3A46009BFFF756FF3246FFF7DEFEF8BD0000330400000000F03F10B5002932
:2042E00004DB0124E40740428C412146002B04DB1C460123DB075242A3418B4200D18242CD
:2043000010BD0000064C0125064E05E0E36807CC2B430C3C98471034B442F7D3FFF7D4FAA4
:2043200060B7000880B7000810B504F041FD024801F0E2FA10BD0000D801002070B50446DC
:20434000006804F0FFFC002824D0206881688907C90F04D18168104A11401031816002F094
:204360001DF9054612E002F019F9401B02280DD920688068400709D5A06D10210843A06558
:20438000E06D01210843E065084670BD206880684007E8D4002070BDE8FFFF7F10B5846ACB
:2043A000A16D502211420DD1A06D012149020843A065206804F0CAFC00281BD0A07E0028E7
:2043C00007D017E0A16DC90624D5204601F092FA10BD2068016809070CD504F0B3FC0146BD
:2043E000012000290AD0A16D20221143A165E16D0143E165204601F01DFA10BD21684A68A1
:204400000C239A434A60A16DFF22013291430143A165EFE7216D496B884710BD10B5806A03
:20442000816D402211438165C16D04221143C16501F060FA10BD10B5806A01F0FCF910BDAA
:20444000F8B50446006881688907CD0F04F072FC00282AD0002D28D1206881680522114015
:2044600010250126012914D18168114A1140891C816021680320086002F090F8074610E0EB
:2044800002F08CF8C01B02280BD920688068C00707D0A06D2843A065E06D3043E06501200C
:2044A000F8BD20688068C007EAD10020F8BD0000E8FFFF7FF8B5044600200090206804F0F8
:2044C00039FC002845D120688168234A10261140002930D18168D5432940491C81601F48C3
:2044E000006807218905084000020AD51D481C490068FFF7FFF9401C00E0401E0090002803
:20450000FBD1607E012824D002F048F807461BE004F010FC002804D1206881682940491C1E
:20452000816002F03BF8C01B02280DD920680068C043C00708D0A06D3043A065E06D012104
:204540000843E0650846F8BD20680168C943C907DED10020F8BD0000170000800827014070
:20456000400D0300D0010020F0B50646854889B00078B0427ED0844801F042FC824801F095
:204580005BF9182103A8FFF728FA00247E48009401947E490294016084604905C460416003
:2045A0000427890A47610161047644760125857644620722014684622031C2610D730623C5
:2045C0000463436382630C776907C16401F03CFA002801D000F006FD6D48039003208005CE
:2045E00004906C480590684605766B4807906B48089003A9644800F0A3FE002801D000F04E
:20460000F1FC6148002E01946946009502945AD000F0FEFF002801D000F0E4FC604800904F
:20462000694601970294584800F0F2FF002801D000F0D8FC5B48009008200190694602942E
:20464000514800F0E5FF002801D000F0CBFC564800900C200190694602944B4800F0D8FFB3
:20466000002801D000F0BEFC5048009010206946029400E084E00190434800F0C9FF0028BA
:2046800001D000F0AFFC4A48009014200190694602943D4800F0BCFF002801D000F0A2FCCB
:2046A000444800901820019069460294364800F0AFFF002801D000F095FC334800F0A8FD2A
:2046C00007223D4957E000F0A3FF002801D000F089FC3A4800906946019702942A4800F0A3
:2046E00097FF002801D000F07DFC354800900820019069460294244800F08AFF002801D0D9
:2047000000F070FC2F4800900C200190694602941D4800F07DFF002801D000F063FC2348B0
:2047200000901020019069460294174800F070FF002801D000F056FC1D4800901420019030
:2047400069460294104800F063FF002801D000F049FC1848009018200190694602940A48EC
:2047600000F056FF002801D000F03CFC064800F04FFD15490722044801F0E8FA01480670E4
:2047800009B0F0BD4C010020D8010020002401400000C07C004000B8FF0F00004B05000056
:2047A0000800000C0400000802000004002000B4001000B08000001CD80400201000001087
:2047C0002000001440000018C8040020F0B589B0494801F015FB484801F02EF8182103A866
:2047E000FFF7FBF8002444480094019443490294016084604905C46041600426890A466119
:204800000161047644760125857644620621024684622032C1611573416304638163147770
:20482000C46401F011F9002801D000F0DBFB3448039003208005334F049005976846057604
:20484000314807903148089003A92B4800F078FD002801D000F0C6FB0194694626480095C2
:20486000029400F0D5FE002801D000F0BBFB2848009069460196204800F0CAFE002801D0E1
:2048800000F0B0FB234800900820019069461A4800F0BEFE002801D000F0A4FB1E4800908E
:2048A0000C2001906946144800F0B2FE002801D000F098FB194800901020019069460E485D
:2048C00000F0A6FE002801D000F08CFB1420019069460097084800F09BFE002801D000F007
:2048E00081FB054800F094FC06220D49024801F02DFA09B0F0BD0000D801002000240140CB
:204900000000C07C004000B8FF0F00004B05000002000004040000080800000C002000B40B
:20492000C804002010B5074A1278002A09D1064A282313705070054891700170022003F035
:20494000D3FF10BDAA010020F400002070010020F8B5314E3148F178405CFFF7DBFA304A59
:20496000304BFFF7DBF9FFF71BFB2F4CC5B2257030792E49085CFFF7CDFA2D4A2D4BFFF739
:20498000CDF9FFF70DFBC7B2677071792348405CFFF7C0FA264A274BFFF7C0F9FFF700FBE0
:2049A000C1B2A1702089244A904233D92348007901282FD1E078A84205D82279BA4202D8E1
:2049C00062798A4226D9A84208D9401EC1B2E170022005F02BFB962001F014FC20796178DE
:2049E000884208D9401EC1B22171012005F01EFB962001F007FC6079A178884208D9401ED5
:204A0000C1B26171032005F011FB962001F0FAFB00202081F8BD00005E050020E0B50008FB
:204A2000333333333333EB3F7601002022B60008666666666666E63F8813000091010020CD
:204A400070B51D4C20897D210901884233D91B48007901282DD11A4D1A49E878095CE078B7
:204A6000814208D9401CC1B2E170022005F0DEFA962001F0C7FB28791349095C207981425C
:204A800008D9401CC1B22171012005F0CFFA962001F0B8FB68790D49095C6079814208D982
:204AA000401CC1B26171032005F0C0FA962001F0A9FB0020208170BD760100209101002001
:204AC0005E050020E0B5000822B6000852B60008F8B506F0FDF82A4CE06980064ED500F0D6
:204AE0007BFA20682026B0432060606A264DC3B2244928788A190B54082800D21354401C7A
:204B0000C0B228701378A02B0DD15278012A0AD10A2808D3BFF34F8F1D491C48C860BFF346
:204B20004F8F00BFFDE70A78002A24D0032822D3687800281FD1FB2A1DD11648012707702C
:204B400000F07EF80F480146027810310A7042784A7082788A70C278CA7002790A7142798F
:204B60004A7182798A710021017041708170C1706F7009480180206830432060F8BD00003E
:204B800000380140750500208E0100200400FA0500ED00E0AC010020C20100200F487E22DC
:204BA00043780F49A32B08D0A42B0DD0A52B03D180787E280FD20872704780787E2801D2CB
:204BC000887170478A71704780787E2801D2C8717047CA7170470A72704700007505002053
:204BE0005E050020104811494278A82A0AD0A92A13D0AA2A05D18278142A01D91422827080
:204C00004A7170478278022A01D2022202E00C2A01D90C228270CA70704782780F2A01D9F5
:204C20000F2282700A717047750500205E05002002480189491C018170470000AA010020C5
:204C400010B500F0BDF8FFF7A9FFFFF7CBFF2548427801461739B12A22D00ADCA62A19D062
:204C6000A72A29D0B02A1AD180781C282AD91C202BE0B22A1AD0B32A11D11B4A8078917834
:204C800088420CD001231949DB0201281FD0022820D022E08078642801D87F30487210BD44
:204CA00080786428FBD87F30887210BD80786428FBD87F30C87210BD80786E2800D36E202B
:204CC000887310BD172800D21720087310BD0C881C4301E00C889C430C80054B02211970AD
:204CE000907010BD750500208E0100207C01002074010020F8B512480078022806D1114C8F
:204D00001149A088884202D2401CA080F8BD0F4D28682026B04328600D4801270770162269
:204D20000C490D4804F090FE094900200870044927700870A080286830432860F8BD0000A1
:204D400073010020BE0100208813000000380140FB0000205E05002000F8000830B51248EF
:204D60000488002211491248124B012C03D00A8002801A8030BD0C880F4DAC4203D208889E
:204D8000401C088030BD01880C4CA14203D20188491C018030BD19883C2902D21988491C6D
:204DA0001980028030BD0000CC000020CE000020DC000020DE000020FEFF000060EA0000D0
:204DC00010B51648012144787E22154BA02C0CD0A12C15D0A22C07D18478002C1BD07E2C15
:204DE00000D982708078987010BD8478002C05D07E2C00D982708078187010BD8170FAE78A
:204E00008478002C05D07E2C00D982708078587010BD8170FAE78170E4E70000750500206B
:204E20005E05002070B5194C208A142802D2401C208270BD2079164A00250A2808D21549F8
:204E40000988154B591A4300D152401C20711BE0002108464300D35A8B4200D91946401C60
:204E6000C0B20A28F6D3C804000C60814521FEF741FDA081FFF74EF8084A094BFEF74EFF2E
:204E8000FFF78EF8E0812571258270BDFC00002084040020F0000020130800003333333310
:204EA0003333034010B5034801F0A4F8024801F0A1F810BDCC0300202804002010B50446C1
:204EC000006C09498008800040186064207814210838FEF70FFD04498031A164C106C90E41
:204EE00001208840E06410BD000802400179084B8906890E8A00D2180265054A4432491E74
:204F000042658A07920F01219140816570470000FC080240F0B5846CC56C6560046D002CBA
:204F200002D0446D856D65600B4C6568066C1C273E400127B7403D43656004686360836862
:204F4000102B036803D099600068C260F0BD9A600068C160F0BD0000000002401049FE20BF
:204F600008701049002008600F4908800F4908800F4908700F4908800F4908800F490870B8
:204F80000F4908700F4A942111800F4908700F4908700F49FF2008700E490870704700008D
:204FA0004C010020D8000020E80000207C010020D0000020C0000020C2000020F200002023
:204FC000F3000020E6000020AA010020FA0000202201002023010020014900208880704723
:204FE000BE01002072B6FEE703494A6901231B04184302434A61704700200240044A506918
:20500000044BC9001840014303480143516170470020024007E0FFFF0200010030B5054967
:205020004C6901252C434C610260BFF36F8F436030BD00000020024030B50B4C002362694B
:205040000125AD042A436261EFF3108272B620C95B1C20C0DBB2402BF9D32069C003FCD48D
:2050600082F3108830BD000000200240F8B5054601F094FA471901263604114C03E001F06B
:205080008DFAB84214D220693042F8D121690D4801400D48206103D00C4841600120F8BD51
:2050A00001F07CFA451905E001F078FAA84201D30320F8BD20694003F6D40020F8BD0000E2
:2050C00000200240FAC30000FBC30000A805002070B51E481E4C46891C4820380589AE4228
:2050E0000DD06088A18848431A49FEF703FC401B64214843711BFEF713FC1E3000E0164859
:20510000E080E188102215484B2905D90121217001881143018017E0E3880821412B02D902
:2051200003880B430380E388412B0DD22378012B04D1038893430380002222700288120786
:2051400002D502888A430280E08870BDC075FF1F52010020B80B0000FF7F00007C01002066
:2051600070B5224C0020207021480088FEF7B6FE20490968FEF7A2FC20611F480088FEF780
:20518000ADFE2169FEF792FC1C4E054631462069FEF794FC2946FEF7CEFCE0603146E068F0
:2051A000FEF7C9FCFEF71AFF05F06AFFFEF73EFF1349FEF7C0FC1349FEF727FC01467F2030
:2051C000C005FEF7B8FC1049FEF770FC0F49FEF775FCA060A068FEF701FF05F0D3FEFEF731
:2051E00025FF60600120207070BD00005C010020E80000201C0100205601002000401C4612
:2052000000E076450FCF5B3B3393884300002041FEB500270546044640350097287D3E46E9
:2052200001280ED0012028752046FFF709F90290206803F083FD0028A06D04D01021084339
:205240006FE00220FEBDFF210131884302210843A0652068C168354A11400191C168D24341
:205260001140C16000212068826817239A43DB071A4382602E4A20680CE0009B5B1C009360
:20528000934207D3A06D0221884310210843A0652F7536E08368DB0FEFD18030406B491CD4
:2052A0004006400E86190829DDD33046FEF722FB0146206883681F4A13405B1C83602068FA
:2052C0008030436BDB09DB010B434363206881681140891C816001F061F9064613E001F0F9
:2052E0005DF9801B02280ED9206803F027FD002809D0A06D10210843A065E06D01210843C4
:20530000E0650120FEBD206803F018FD0028E6D12068C168019A1143C160A06D8008800027
:20532000401CA0652F750298FEBD00000380000000F20200E8FFFF7F70477047704770475B
:20534000F8B5044600202646074640360090307D0D46012807D001203075206803F0F2FC48
:20536000002802D025E10220F8BDA5482968814238D1206803F0DEFC002804D0012720462D
:20538000FFF75EF8009001206968C005091A0ED04010814208D17F21A868C9048843032121
:2053A00089054218206804E00022206801E0954A2068934903F0D2FC002F06D00098002845
:2053C00003D12046FFF776F80090A06D012109048843A06580202168D5E0024300E08243CB
:2053E0004A60E6E001206A68C005874F121A70D0401082420AD1B94221685BD180310A6A7F
:20540000A868430305D0C3074ED105E000222068ACE04000C00E48E0830701D5012044E082
:20542000430701D5022040E0030701D503203CE0C30601D5042038E0830601D5052034E078
:20544000430601D5062030E0030601D507202CE0C30501D5082028E0830501D5092024E08C
:20546000430501D50A2020E0030501D50B201CE0C30401D50C2018E0830401D50D2014E0A0
:20548000430401D50E2010E0030401D50F200CE0C30301D5102008E0830301D5112004E0B4
:2054A000400301D5122000E00020012383401A430A625DE080314A6AA868430302D0C3075D
:2054C0004CD102E04000C00E49E0830702D5012045E049E0430701D5022040E0030701D584
:2054E00003203CE0C30601D5042038E0830601D5052034E0430601D5062030E0030601D5C6
:2055000007202CE0C30501D5082028E0830501D5092024E0430501D50A2020E0030501D5D9
:205520000B201CE0C30401D50C2018E0830401D50D2014E0430401D50E2010E0030401D5ED
:205540000F200CE0C30301D5102008E0830301D5112004E0400301D5122000E0002001239C
:2055600083401A434A6203E0264A206803F0F6FB2868B842A06D0ED1012149048843A065EB
:20558000FF20216801300860297B012921684A6800D024E721E7012189048843A0652068D7
:2055A00049120160287B01282068426813D08A43426013482A68824228690ED12368D968F2
:2055C000DB68C906890F490088406969DB069B0F5B00994002E00A43EAE76969920223688E
:2055E000940FD20FA2189200D218136A074C00042340084303431362002030750098F8BDA2
:205600000000C07CFFFF8700FFFF170000F000F0F8B500270646044640360097307D0D465D
:2056200001280FD001203075206803F08BFB00280AD0A06D20210843A0650127002030750E
:205640003846F8BD0220F8BD686802287ED001222169D207914202D0121D914206D120686C
:205660002968826A4903490B0A436EE0C206D20E0F20216E904081432868430302D0C30706
:205680004BD102E04000C00E48E0830701D5012044E0430701D5022040E0030701D50320CC
:2056A0003CE0C30601D5042038E0830601D5052034E0430601D5062030E0030601D5072000
:2056C0002CE0C30501D5082028E0830501D5092024E0430501D50A2020E0030501D50B2014
:2056E0001CE0C30401D50C2018E0830401D50D2014E0430401D50E2010E0030401D50F2028
:205700000CE0C30301D5102008E0830301D5112004E0400301D5122000E000209040014319
:2057200021666968E2698808401C904210D820682B68826A9C46C906C90E0F238B409A43B7
:2057400063469B001B0F8B401A4300E03BE082622168AB6828684A69000282431840400195
:20576000400902434A612868002800DB66E72B4A116807239B051940294B984214D10B02BF
:2057800012D4C0020143104603F000FB264825490068FEF7AFF80C21401C484300E0401EA7
:2057A00000900028FBD149E7204B984203D1CB0101D4800205E01E4B9842D7D14802D5D436
:2057C0005802014325E001212069C907884202D0091D884206D120682968826A4903490BA3
:2057E0008A43826228680028C0DA0C4A116807239B0519400A4B984201D1C00208E00B4BB3
:20580000984201D1800203E0094B9842AED140028143104603F0BAFA10E700000827014060
:20582000001000B0400D0300D0010020004000B8002000B47047704770B5040009D0A06D1E
:2058400002210843A0652046FEF778FD050002D00DE0012070BD2046FEF7F2FD050001D1D2
:205860000120A065206881681D4A11408160206841681C4A114041602168D04308602068E3
:20588000C168194A1140C1602068016989008908016120684169C908C900416121680A6A31
:2058A000124802400A6221684A6A02404A622168CA6A0240CA622068816A002686620C48B5
:2058C00081687F22920491438160204600F0CEF92666E665A66540342675284670BD00004A
:2058E000E8FFFF6F60FCFFFF00023E8300F000F00027014070470000F8B50446006806686A
:205900004568B0070FD5A8070DD5A06DC00604D4A06D0121C9020843A0652046FFF70DFD53
:20592000216802200860474F700701D5680703D4300728D5280726D5A06DC00604D4A06D15
:20594000012149020843A065206803F0FFF9002813D0A07E002810D12068016809070CD503
:2059600003F0F0F901460120002960D0A16D20221143A165E16D0143E1652046FFF75AFF53
:2059800021680C20086030060CD528060AD5A06D012109040843A065204600F065F92168FD
:2059A00080200860F0050BD5E80509D5A06D012149040843A0652046FFF7C0FC206807606C
:2059C000B0050DD5A8050BD5A06D012189040843A0652046FFF7B3FC012021684002086038
:2059E000F00618D5E80616D5206B002804D02068C0688007800F0BD0A06D012189020843BE
:205A0000A065E06D02210843E0652046FFF772FF216810200860B00408D5A80406D5204615
:205A2000FFF78AFC0120216840030860F8BD21684A680C239A434A60A16DB9430143A1659B
:205A40009BE7000000010000FEB50027044601973E4602970097002805D02546A06D203589
:205A6000002802D007E00120FEBD204600F01AF9E6655420065520688168C900C90F12D1F1
:205A80008168724A1140012212071143816071486F490068FDF72EFF4000801C00E0401E8B
:205AA00000900028FBD120688168C900C90F08D1A16D10221143A165E16D01221143E165D2
:205AC000174603F03FF9A16DC90601D4002804D0A06D10210843A065B4E0A06DFF2101310F
:205AE000884302210843A065206803F023F900286DD1217EA06889030843617ECA03A17E22
:205B00004B031A431043226B002A01D0012212031043E26810432269002A02DA520052089A
:205B200001E00122520510432A7B52001043019A10432A78012A09D1002922D0A16D20226D
:205B40001143A165E16D01221143E165616A002906D0FF23C1331940A26A014310460843B6
:205B60002168CA683C4B1A400243CA606168029A890F8907E06C0A4310432A7F012A04D0F9
:205B80000CE0012109040843E0E7636C226C491C1A43A36C0B4311461943084321680A6962
:205BA0002E4B1A4002430A6103216068890788420DD0590788420AD04900884207D0284ADF
:205BC00091680F239B0499431840014391600021626B206803F0E1F82249A26B206803F05D
:205BE000DCF80F202169C04300291CD00122520591420AD121688A6A227F9200121FD2061F
:205C0000D20E9040226E1043886220684069616B4007400F88420BD1E665A06D800880006E
:205C2000401CA0650FE021688A6A02438A62ECE7A06D0221884310210843A065E06D0121A8
:205C40000843E06501273846FEBD0000E8FFFF7F400D0300D00100200102FEFF02FCFF1F91
:205C60000027014004FFFF077047000010B5044600680A49884210D1094801680122120593
:205C8000914301600520FF21000700F063FB206D00F06AF90C2000F023FF10BD00240140E5
:205CA0004010024070B586B0054614216846FDF794FE2249286888423DD12148026801217B
:205CC00009050A4302600068084005901C484038416B012211434163406B00261040059069
:205CE000FF20009003200190052069460296000700F09AFB144C13482060A6600520E6609D
:205D0000606080202061400060618000A06120202662E061204600F0C9F9002801D0FFF710
:205D200061F92C65002211460C20A56200F0F4FE0C2000F0E5FE06B070BD000000240140A3
:205D400040100240080002403C020020F7B50446006802F0F7FF002845D125464035287D00
:205D6000012840D001272F752068C1681F4EC9070CD102F0DFFF002804D0206881683140A5
:205D8000891C81602068C1683943C1602046FEF791FB002826D1A06D15490840FF21013124
:205DA0000843A0650020E065226D1249D162226D11491163226D1149516322681C211160DF
:205DC0002875206841681022114341602168206D4031029B019A00F0BBF921688A6832407E
:205DE000121D8A60FEBD0220FEBD0000E8FFFF7FFEF1FFFF9D430008374400081D440008CC
:205E0000F8B5064604464036307D012807D0012737752046FEF792FA050002D028E0022060
:205E2000F8BD206D2521095C022907D100F024F8050003D0A06D40210843A065206841689F
:205E4000102291434160002D204602D0FEF7F8FA09E0FEF7F5FA050005D1A06DFF21013148
:205E600088433843A0652068C16849084900C160002030752846F8BDF0B5002808D0014697
:205E800020314A79022A05D00422C263002008710120F0BD026813680E24A3431360426C1D
:205EA0001468FF2301339C431460026814686408640014600C4A5568066C1C242640012443
:205EC0002746B7403D435560826CC56C5560026D002A05D015689D431560826D406D4260D7
:205EE0004C7100200871F0BD00000240F8B50024024620325179022903D00421C1630124BC
:205F00002DE001680B680E25AB430B6001680B685B085B000B60416C0B68FF250135AB439F
:205F20000B6010494D68066C1C231E4001231F46B7403D434D60816CC56C4D60016D0029CA
:205F400006D00E681D02AE430E60416D856D4D60537100211171816B002900D088472046A9
:205F6000F8BD00000000024070B5040038D0206801684908490001601A48266814213018A0
:205F8000FDF7B8FC800000252064356016484168226C1C231A400123934019434160204613
:205FA000FEF78CFF606C0560A06CE16C41606068401E032807D82046FEF798FF206D056022
:205FC000606DA16D416025656565A565E56225636563A563E563203465712571002070BDF3
:205FE000012070BDF8FFFDBF000002402030407970470000F0B42C490C6802681368056CBB
:206000001C273D400426AE40264211D05E070FD513689B0603D4146804239C4314604B687A
:20602000046C04223C40A24013434B60016B1CE00227AF40064627402036002F19D09F0724
:2060400017D513689B0605D413680A24A3431360012272714B68046C1C2214400222A2409C
:2060600013434B6000213171C16A00291AD0F0BC08470827AF40274214D01B0712D5136834
:206080000E24A34313604B68046C1C22144001221546A5402B434B60C26372710021317179
:2060A000416BE2E7F0BC70470000024070B504003FD02548256814212818FDF71BFC800094
:2060C0002064022026462036707128681F4908402860E168A068626908432169114308431F
:2060E000A1690843E1690843216A084321680A68104308602046FEF7E1FE0121A06889033A
:206100000025884200D165602079616C8006800E0860A06CE16C41606068401E03280AD8EB
:206120002046FEF7E3FE206D0560606DA16D416004E0012070BD25656565A565E5630120BC
:2061400070713571002070BDF8FFFDBF0F80FFFFF8B504468C4620300179002501290BD06E
:206160000126067141790027012907D08021E163077101252846F8BD0220F8BD022141714D
:20618000E7632068016849084900016061462046FEF7C0FE206B00282068016801D00E2264
:2061A00005E0042291430160206801680A2211430160606C0168CA03074902D502680A43ED
:2061C0000260206D002802D002680A4302602068016831430160CDE70001000010B500215C
:2061E0000748C943C1620022C26201630263816282624162426200F05BFC002010BD0000D0
:206200000010024070B5044600F0C8F90546601C02D004480078241800F0C0F9401BA0428D
:20622000FAD370BDC4010020F8B51F4E044630780F4601280AD001203070002070607D20CD
:20624000C000FEF713FF002802D029E00220F8BD042161602268042A03D0491F3960A5681E
:2062600014E00846FEF7C0FE7D20C000FEF7FEFE16E029466068FEF7C1FE7D20C000FEF7A8
:20628000F5FE002801D03D6005E06D1CE268A1688918A942EDD805494A6902239A434A61B5
:2062A00000213170F8BD0000A805002000200240054901204A69C3071A434A614969002969
:2062C00000DA00207047000000200240F0B51FB4144C06462078154601280AD001202070E0
:2062E00000277D20C0006760FEF7C0FE002803D010E0022005B0F0BD012E0DD0294601981D
:20630000FEF79AFE7D20C000FEF7B0FE06494A69B2434A612770EDE72A46039B0198FEF747
:206320007DFEEFE7A805002000200240064900204A69002A07DA054A8A60054A8A6049698C
:20634000002900DA012070470020024023016745AB89EFCDF0B500235AE001249C402246D5
:206360000A4054D09E082C4DB60075192F6EAC469D07EE0E0F25B540AE463D4005273F0711
:20638000B84201D100270FE0244FB84201D101270AE0234FB84201D1022705E0214FB84214
:2063A00001D1032700E00527B740AF4214D11A4E8036356895433560756895437560164EF2
:2063C00075689543756035689543356065462D6E724695436246156605685E000322B2404E
:2063E00015430560DD08AD002D182E6AAC465D07EF0E0F25BD40AE4365462E6285689543FC
:2064000085604568A5434560C4689443C4605B1C0A46DA40A1D1F0BD001802400004005088
:2064200000080050000C0050F0B5002303249AE02A4601259D402A407ED00E79B607B60F0B
:20644000012E01D0022E16D186682746B4465E00B646B7406646BE43B446CF687646B740EE
:206460006646374387604668AE430D79ED06ED0F9D40354345600D79ED43AD0708D0C56892
:206480005F002646BE40B5438E68BE402E43C6600D79AD07AD0F022D0ED1DD08AD002D18D5
:2064A000AC462D6A5E07F60E0F27B740BD430F69B7402F4365462F6205685F002646BE406A
:2064C000B5430E79B607B60FBE402E4306604D68AD03AD0F46D09E08264DB6007519AC4660
:2064E0002D6E9E07F60E0F27B740BD4305273F07B84201D100270FE01F4FB84201D1012775
:206500000AE01E4FB84201D1022705E01C4FB84201D1032700E00527B7402F43154D664666
:2065200037662D684E689543F60200D51543114F3D607D68954300E014E04E68B60200D5A5
:2065400015437D600B4D80356E684F689643BF0300D516436E602E684F689643FF0300D5D8
:2065600016432E605B1C0A681546DA4000D05FE7F0BD00000018024000040050000800500D
:20658000000C00500069084000D001207047002A01D08161704781627047000001488068E7
:2065A00070470000C401002070B5024640325378202B1CD11378012B19D0012313702424CE
:2065C0005470046825689D432560046825681E03B5432560046825680D4325600068016863
:2065E00019430160202050700020107070BD022070BD70B5024640325378202B1BD1137856
:20660000012B18D0012414702423537003681D68A5431D6005682B680F263602B3430902F0
:20662000194329600068016821430160202050700020107070BD022070BD7047704770B530
:20664000040014D02421204640300546417020680168490849000160204600F08FF9002150
:20666000616469702163A9702970084670BD012070BD70B503689A691968D243D40508D49F
:20668000CC43240605D4446C01252C4344642C02DC61530509D4CB431B0606D4436C082477
:2066A00023434364E3010468E361920509D4C943090606D4416C0222114341641102026889
:2066C000D161416C0B22114201D001F0E3FA70BD026891691268436B002B00D018477047F2
:2066E000704740304078704770B5040006D02546403568780026002802D005E0012070BDF2
:206700002E70204600F058F924206870206801684908490001600F216068090688432168D1
:20672000086121688A680120C00382438A60E1680129A16808D021229202114322689160E8
:20674000E168022902D005E00143F7E701212268C902516021684A680F4B1A434A6021689F
:20676000CA688243CA60616920690843A169090208432168C860216AE06908432168086039
:20678000206801680122114301606664202068702663AE70002070BD00800002704770476A
:2067A00070470000F8B5054604464035687820282FD120688069C04300042AD52878012803
:2067C00027D001202870212068701020A87000266664626263851048E06210486063608D6A
:2067E000FF2804D9FF20012320851B0603E0608D012320855B060A480090208DC2B2204629
:2068000001F04EFF2E700121204601F0C1F90020F8BD0220F8BD00000000FFFFCD82000868
:206820000020008070477047FFB5054604464035687883B0202875D10C98002814D00D9896
:20684000002811D0287801286CD001202870FFF7A5FE0746012200901923D103204601F071
:2068600048FF002874D103E00120400260646FE0222068704020A870002666640C98606223
:206880000D98608566630E980090019704A90EC9204601F0B3FD002801D02E7058E0618D8F
:2068A0003448FF2905D9FF22228501231B06009006E0618D21850090208D0123C2B25B0609
:2068C0002046049901F0ECFE00970022042120460E9B01F00EFF00283AD12068406A616ABF
:2068E0000870606A401C6062208D401E81B22185608D401E6085608D00281FD000291DD109
:2069000000970022802120460E9B01F0F2FE00281ED1608DFF2806D9FF22228501231B0616
:20692000009607E024E0608D20850096208D0123C2B25B062046049901F0B2FE608D00284F
:20694000C2D13A4620460E9901F0FAFE002802D0012007B0F0BD20682021C1612068426892
:20696000054B1A4042606970AE702E700020F0E70220EEE70024008000E800FE10B5006891
:206980000B49884213D10B48C16B012292059143C1630524C11424072046FFF7DBFC012146
:2069A00009032046FFF7D6FC182000F099F810BD005800400010024010B586B004461421B3
:2069C0006846FDF70AF817492068884227D1164C606B012108436063606B08400590032041
:2069E000C002009012200190002002900220039006200490052069460007FFF715FDE16B32
:206A0000012080050143E163E16B0022014005911146182000F080F8182000F071F806B0C5
:206A200010BD0000005800400010024070477047024881680278891881607047C401002066
:206A400010B5084800240168821511430160032000F00AF8002801D0012401E000F02AF822
:206A6000204610BD0020024070B50F4E002431780546002915D07D20C000FCF73BFF014608
:206A80000A480068FCF736FF00F042FC002808D1042D06D200222946401E00F03DF87560F3
:206AA00000E00124204670BDC4010020D00100207047000008B50948016801221143016062
:206AC00000681040009005484038C26B01040A43C263C06B0840009008BD000040100240AB
:206AE000002809DBC106C90E0120884003490860BFF34F8FBFF36F8F7047000080E100E017
:206B0000002805DBC106C90E01208840014908607047000000E100E010B504F08FF910BDAE
:206B200010B50F4C216803225202914301432160C11FFF39FA390ED10A4806210068484304
:206B40000949FCF7D7FE401C02E0002805D0401E61694905F9D4002010BD032010BD0000C0
:206B600000700040D001002040420F00F8B5044600680026664D800358D5654800274038AF
:206B8000C06BC00009D462484038C26B01040A43C263C06B0840012700905E480168821596
:206BA00011430160FFF7FAFC009005E0FFF7F6FC0099401A022825D856480068C005F5D528
:206BC000E8690321090208400FD0616A81420CD0E86903210902EA698843012109040A438A
:206BE000EA61EA698A43EA61E861C0070FD0FFF7D5FC009008E0FFF7D1FC0099411A46486C
:206C0000814201D9032609E0E8698007F3D5E869032109028843616A0843E861002F05D077
:206C20003B484038C26B01048A43C2632078C00705D06869616880088000084368612078B3
:206C4000C00606D56869032189028843A168084368612088800506D56869032189048843D6
:206C60006169084368612088400506D56869032109058843A169084368612078800606D589
:206C80006869032109038843E168084368612088400411D56869E1698000800808436861C2
:206CA0000121E0698907884206D119484038C168012212041143C1602068800210D56869C8
:206CC00001218905226A884310436861206A884206D10F484038C168012212061143C160BE
:206CE0002088000512D56869032189038843216908436861012120698903884206D10448F2
:206D00004038C168012212041143C1603046F8BD401002400070004088130000F8B50F461A
:206D2000060043D04D4D28684007400FB84213D22868C008C00038432860FFF72FFC044615
:206D400005E0FFF72BFC011B4548814261D828684007400FB842F4D13068424C81070DD517
:206D6000400704D5A068072109030843A060A0680F2109028843B1680843A0603078C0078B
:206D800032D0706801280AD002280BD000280FD03449403103280ED0C969890704E02168E4
:206DA000890301E021688901002906DB0120F8BD21684905F8E7096AEFE7A168C908C900D1
:206DC0000143A160FFF7EAFB009006E0FFF7E6FB0099411A224881421BD8A0683821084089
:206DE0007168C9008842F1D128684007400FB84217D91A480168C908C90039430160FFF71D
