:020000040800F2
:10000000F0130020A1010008BD270008712300089B
:1000100000000000000000000000000000000000E0
:10002000000000000000000000000000B1280008EF
:100030000000000000000000BF2700080929000898
:10004000B3010008B3010008B3010008B3010008C0
:10005000B3010008B3010008B3010008B3010008B0
:10006000B3010008AD080008BD08000895080008A5
:10007000B3010008B3010008B3010008B301000890
:10008000B3010008B3010008B3010008B301000880
:10009000B3010008B3010008B3010008B301000870
:1000A000B3010008B3010008B3010008B131000832
:1000B000B3010008B3010008B301000800F002F822
:1000C00000F03EF80CA030C8083824182D18A246BD
:1000D000671EAB4654465D46AC4201D100F030F895
:1000E0007E460F3E0FCCB6460126334200D0FB1AA7
:1000F000A246AB46334318477436000094360000DE
:10010000103A02D378C878C1FAD8520701D330C860
:1001100030C101D504680C60704700000023002442
:1001200000250026103A01D378C1FBD8520700D32E
:1001300030C100D50B6070471FB51FBD10B510BD95
:1001400000F0DCF91146FFF7F7FF03F0AEF900F01D
:10015000F4F903B4FFF7F2FF03BC00F0FBF9000071
:1001600080F308887047000070B505460C461646B7
:1001700002E00FCC0FC5103E102EFAD2082E02D38B
:1001800003CC03C5083E042E07D301CC01C5361F9E
:1001900003E021782970641C6D1C761EF9D270BDB5
:1001A0000748804707480047FEE7FEE7FEE7FEE70F
:1001B000FEE7FEE704480549054A064B7047000084
:1001C00081290008BD000008F00D0020F013002078
:1001D000F00F0020F00F0020FEB5054610460C463B
:1001E000184373D0AE468C460020AD1A01469C41A0
:1001F00067D36646002701243D46B61A9D4102D3C7
:1002000013463A462124654676462F04360C3E4373
:100210002D0CB61A9D4104D3150C1B042B4312045C
:100220001034654676462F06360A3E432D0AB61A26
:100230009D4104D3150E1B022B4312020834654660
:1002400076462F0736093E432D09B61A9D4104D341
:10025000150F1B012B431201241D65467646AF077F
:10026000B6083E43AD08B61A9D4104D3950F9B00D6
:100270002B439200A41C65467646EF0776083E4362
:100280006D08B61A9D411AD392185B41641C16E0A2
:100290000018764665464941B71A9D410191009084
:1002A00009D36046B11A98418E4684460098019958
:1002B0000025401C6941DD0752082A435B08641E83
:1002C000E6D57246634603B0F0BDFFE70020014665
:1002D000C046C0462A462346F5E7F8B5042A2CD383
:1002E000830712D00B78491C0370401C521E8307F1
:1002F0000BD00B78491C0370401C521E830704D09E
:100300000B78491C0370401C521E8B079B0F05D0B5
:10031000C91ADF002023DE1B08C90AE0FFF724FF0B
:10032000F8BD1D4608C9FD401C46B4402C4310C012
:10033000121F042AF5D2F308C91A521EF0D40B7802
:10034000491C0370401C521EEAD40B78491C0370F0
:10035000401C012AE4D409780170F8BD01E004C012
:10036000091F0429FBD28B0701D50280801CC90715
:1003700000D00270704700290BD0C30702D0027072
:10038000401C491E022904D3830702D50280801C29
:10039000891EE3E70022EEE70022DFE700220309DF
:1003A0008B422CD3030A8B4211D300239C464EE090
:1003B00003460B433CD4002243088B4231D303094C
:1003C0008B421CD3030A8B4201D394463FE0C309FE
:1003D0008B4201D3CB01C01A524183098B4201D316
:1003E0008B01C01A524143098B4201D34B01C01A01
:1003F000524103098B4201D30B01C01A5241C30879
:100400008B4201D3CB00C01A524183088B4201D3E7
:100410008B00C01A524143088B4201D34B00C01AD3
:100420005241411A00D201465241104670475DE0E8
:10043000CA0F00D04942031000D34042534000226B
:100440009C4603098B422DD3030A8B4212D3FC2214
:10045000890112BA030A8B420CD3890192118B4293
:1004600008D3890192118B4204D389013AD09211A9
:1004700000E08909C3098B4201D3CB01C01A524164
:1004800083098B4201D38B01C01A524143098B422D
:1004900001D34B01C01A524103098B4201D30B0116
:1004A000C01A5241C3088B4201D3CB00C01A52413B
:1004B00083088B4201D38B00C01A5241D9D2430822
:1004C0008B4201D34B00C01A5241411A00D201465F
:1004D000634652415B10104601D34042002B00D5C9
:1004E0004942704763465B1000D3404201B500208B
:1004F000C046C04602BD704770477047754600F061
:1005000025F8AE46050069465346C008C00085463A
:1005100018B020B5FFF74EFE60BC00274908B6466C
:100520000026C0C5C0C5C0C5C0C5C0C5C0C5C0C502
:10053000C0C5403D49008D46704710B50446C046D1
:10054000C0462046FFF705FE10BD0000004870477A
:10055000900D002001491820ABBEFEE726000200E6
:10056000704710B505E003780C7863400370401CB9
:10057000491C521EF7D210BD70B50E4604460578D0
:100580000322411CFFF7A9FEE5700421204600F07C
:1005900065F806492078895D484020706078607071
:1005A000A078A070E078E07070BD0000CC36000844
:1005B000F0B585B0140005460E463DD0002D03D0A1
:1005C00010226846FFF789FE2021204600F038F807
:1005D00010221A493046FFF7C4FF304600F0C9F830
:1005E0001021304600F0D6F8144F0D24E03F2001D2
:1005F000C11910223046FFF7B4FF304600F040F832
:10060000304600F0B6F81021304600F0C3F8641E02
:100610002406240EEBD1394610223046FFF7A1FF05
:10062000002D09D0102229463046FFF79AFF1022EC
:1006300069462846FFF751FE05B0F0BDD003002003
:1006400010B50C460A4601460348FFF746FE214610
:10065000014801F08DFF10BDF002002030B50022EE
:10066000064D08E0835C1C091B0724011B0F64195D
:10067000E35C8354521C8A42F4D330BDCC3400086E
:10068000FEB507460024A000C51904222946684685
:10069000FFF723FE684600780E2100F0EFF90646CA
:1006A000684640780B2100F0E9F9464068468078BA
:1006B0000D2100F0E3F946406846C078092100F0BA
:1006C000DDF94640684606710078092100F0D6F948
:1006D0000646684640780E2100F0D0F9464068464C
:1006E00080780B2100F0CAF946406846C0780D2199
:1006F00000F0C4F946406846467100780D2100F0CC
:10070000BDF9064668464078092100F0B7F9464031
:10071000684680780E2100F0B1F946406846C078FE
:100720000B2100F0ABF946406846867100780B213A
:1007300000F0A4F90646684640780D2100F09EF9C5
:10074000464068468078092100F098F9464068469E
:10075000C0780E2100F092F946406846C6712846DE
:10076000042201A9FFF7B9FD641CE4B2042C8AD36A
:10077000FEBD10B504460322012102F09AF80222C0
:100780001146204602F095F801220321204602F08E
:1007900090F810BD30B50022064D08E0835C1C09BE
:1007A0001B0724011B0F6419E35C8354521C8A420B
:1007B000F4D330BDCC35000810B50022D243084B2D
:1007C00007E0047854402406A40D1C59120A624024
:1007D000401C0C46491E89B2002CF2D1D04310BDFA
:1007E0001004002030B50A4B0A4C002108460022B4
:1007F000C50702D04008584000E04008521C082AB3
:10080000F6D38A00491CA050FF29EFD930BD000063
:100810002083B8ED1004002010B5164CE069800765
:1008200004D5606A206A022108432062E069C0069C
:100830001ED5114801F08DFA206A1021084320626C
:10084000606A0E480E49007840580E4C0E49201A36
:1008500080B20880A04206D2012149020B4800F074
:10086000FFFB01F0C1FD22460949034801F0F0FCFD
:1008700010BD0000003801409C010020DA3600085D
:100880000400024032040000640000200004005014
:100890004008002010B5034800F076F9024800F047
:1008A00073F910BDDC0000203C01002010B50248A7
:1008B00000F06AF910BD00003002002010B50248B7
:1008C00000F062F910BD000090020020F8B5044667
:1008D0000668406C0D4F8508F0B2AD001421083851
:1008E000FFF75CFDBE4203D209496918A16404E028
:1008F00007491C316918C01DA16405498031E164B4
:10090000C106C90E012088402065F8BD08040240D8
:10091000000802400179084B4906490E8A00D218A6
:100920004265054A4432491E82658A07920F0121B9
:100930009140C16570470000FC08024030B5C46CAE
:10094000056D6560446D002C02D0846DC56D6560D9
:10095000446C1C252C400125A540046C656004688E
:1009600063608368102B036803D099600068C260DD
:1009700030BD9A600068C16030BD72B6FEE700000D
:1009800003494A6901231B04184302434A61704723
:100990000020024010B5084B5A69084C224001243F
:1009A0006403042801D0224300E0A243C8000449A4
:1009B00010430843586110BD0020024007E0FFFFCC
:1009C0000200010030B505494C6901252C434C61FA
:1009D0000260BFF36F8F436030BD00000020024013
:1009E00030B50B4C002362690125AD042A436261D6
:1009F000EFF3108272B620C95B1C20C0DBB2402B23
:100A0000F9D320698003800FFBD182F3108830BDB9
:100A100000200240F8B5044600F030FB03270646EC
:100A20003F04124D06E0601C04D000F027FB801B41
:100A3000A04213D228693842F5D128690C490840F0
:100A40000C4929610CD00C4948600120F8BD601C9C
:100A500006D000F013FB801BA04201D30320F8BD99
:100A600028694003F3D40020F8BD000000200240B4
:100A7000FAC30000FBC30000740D002010B5002273
:100A80001346CC0700D042404400000601D51B208D
:100A900000E0002044405B1C4908DBB2E0B2082BB8
:100AA000EFD3104610BD70B5002808D001462031A4
:100AB0004A790024022A04D00422C2630C71012066
:100AC00070BD026813685B085B00136002681368FE
:100AD0000E25AB431360826C1368FF250135AB43D1
:100AE0001360436C1C221340012216469E40036C87
:100AF0005E60C36C066D5E60436D002B05D01E68A2
:100B0000AE431E60C36D806D43604A710C7100205E
:100B100070BD70B50024014620314A79022A03D005
:100B20000421C16301242AE0026813685B085B00AA
:100B30001360026813680E25AB431360826C136860
:100B4000FF250135AB431360436C1C221340012287
:100B500016469E40036C5E60C36C066D5E60436D1E
:100B6000002B05D01E68AE431E60836DC56D5D60B1
:100B70004A7100220A71816B002900D08847204603
:100B800070BDC06B70470000F0B4016C0D68016867
:100B90000C68466C1C22042316401F46B7402F42A7
:100BA0000ED067070CD50C68A40602D40C689C43D1
:100BB0000C60416C11408B40016C4B60016B24E078
:100BC0000227B74003462F402033002F21D0A7072C
:100BD0001FD50C68A40605D40C680A25AC430C602C
:100BE00001215971174C0168A142446C04D9144089
:100BF0000221A140144A04E014400221114AA140FC
:100C0000803A516000211971C16A002918D0F0BCE6
:100C100008470827B7402F4212D0240710D50C6888
:100C20000E25AC430C60446C012114400A46A240DE
:100C3000046C6260C163597100211971416BE4E772
:100C4000F0BC7047800002400004024070B5040010
:100C50000CD02D48256885420AD22C48142128182A
:100C6000FFF79CFB8000606429480BE0012070BD09
:100C70002548142140422818FFF790FB800060644B
:100C800021480838206402202646203670712868E2
:100C9000204908402860E168A0686269084321692A
:100CA00011430843A1690843E1690843216A0843E5
:100CB00021680A68104308602046FFF707FE0121FB
:100CC000A06889030025884200D165602079A16C65
:100CD0004006400E0860E06C216D41606068401E77
:100CE000032808D82046FFF715FE606D0560A06D4B
:100CF000E16D416002E06565A565E565E56301209C
:100D000070713571002070BD08040240F8FFFDBF0E
:100D1000000002400F80FFFFF8B504468C462030EB
:100D20000179002501290BD00126067141790027A0
:100D3000012907D08021E163077101252846F8BD0C
:100D40000220F8BD02214171E7632068016849086B
:100D50004900016061462046FFF7F0FD206B002846
:100D60002068016801D00E2205E004229143016051
:100D7000206801680A2211430160A06C0168CA035F
:100D8000074902D502680A430260606D002802D05C
:100D900002680A4302602068016831430160CDE7C0
:100DA0000001000070B5044600F068F90546601CBB
:100DB00002D004480078241800F060F9401BA042DB
:100DC000FAD370BD68000020F8B51E4E0446307896
:100DD0000F4601280AD001203070002070607D206D
:100DE000C000FFF717FE002802D028E00220F8BD5F
:100DF0002168042904D00021C9433960A56814E0A2
:100E00006068FFF7BDFD7D20C000FFF703FE16E020
:100E100029466068FFF7BEFD7D20C000FFF7FAFDA0
:100E2000002801D03D6005E06D1CE268A1688918CA
:100E3000A942EDD804494A6902239A434A61002134
:100E40003170F8BD740D00200020024010B57D20E7
:100E50000124C000FFF7DEFD05484169820411430B
:100E600041614069002800DA0024204610BD0000DE
:100E700000200240F0B51FB4144C064620781546F9
:100E800001280AD00120207000277D20C000676063
:100E9000FFF7C0FD002803D010E0022005B0F0BD30
:100EA000012E0DD029460198FFF79AFD7D20C00044
:100EB000FFF7B0FD06494A69B2434A612770EDE782
:100EC0002A46039B0198FFF77DFDEFE7740D002094
:100ED00000200240064900204A69002A07DA054A34
:100EE0008A60054A8A604969002900DA0120704752
:100EF0000020024023016745AB89EFCDF0B5002308
:100F000003249DE001259D402A4072D00E79B6074A
:100F1000B60F012E01D0022E16D186682746B446A0
:100F20005E00B646B7406646BE43B446CF687646D6
:100F3000B7406646374387604668AE430D79ED0695
:100F4000ED0F9D40354345600D79ED43AD0708D069
:100F5000C5685F002646BE40B5438E68BE402E433E
:100F6000C6600D79AD07AD0F022D0ED1DD08AD00C5
:100F70002D18AC462D6A5E07F60E0F27B740BD430D
:100F80000F69B7402F4365462F6205685F0026460C
:100F9000BE40B5430E79B607B60FBE402E4306607D
:100FA0004D68AD03AD0F4AD09E08284DB6007519A7
:100FB000AC462D6E9E07F60E0F27B740BD430527A2
:100FC0003F07B84201D1002715E0214FB84201D1B7
:100FD000012710E01F4FB84201D102270BE01E4F3E
:100FE000B84201D1032706E01C4FB84202D10427C2
:100FF00001E024E00527B7402F43144D66463766CD
:101000002D684E689543F60200D515430F4F3D609D
:101010007D684E689543B60200D515437D600B4E42
:10102000803675684F689543BF0300D515437560DA
:1010300035684F689543FF0300D5154335605B1C49
:101040000A681546DD4000D05CE7F0BD001802409C
:101050000004005000080050000C00500010005028
:10106000426913460B401B0491430B438361704755
:10107000002A01D081617047816270470148806811
:1010800070470000680000200248816802788918D3
:10109000816070476800002010B50848002401688E
:1010A000821511430160022000F00AF8002801D0E7
:1010B000012401E000F028F8204610BD0020024085
:1010C00070B50F4E002431780546002915D07D20DB
:1010D000C000FFF763F901460A480068FFF75EF9B0
:1010E00000F0B6FD002808D1042D06D200222946C2
:1010F000401E00F02DF8756000E00124204670BD10
:10110000680000207400002008B50A480168012228
:101110001143016000681040009006484038C26BDF
:1011200001040A43C263C06B08400090C81400F079
:1011300085FD08BD40100240002805DBC106C90E30
:1011400001208840014908607047000000E100E08C
:1011500010B502F0F9F810BD10B50F4C216803224C
:101160005202914301432160C11FFF39FA390ED168
:101170000A480621006848430949FFF70FF9401C57
:1011800002E0002805D0401E61694905F9D400201D
:1011900010BD032010BD000000700040740000204E
:1011A00040420F00FEB5044600680027984D994E56
:1011B000800355D500200090F06BC00007D4F16B80
:1011C000A8050143F163F16B0140012000909248B2
:1011D0000168821511430160FFF750FF019005E09F
:1011E000FFF74CFF0199401A022825D88A48006869
:1011F000C005F5D5E8690321090208400FD0216C2C
:1012000081420CD0E86903210902EA69884301217F
:1012100009040A43EA61EA698A43EA61E861C007AE
:101220000FD0FFF72BFF019008E0FFF727FF019990
:10123000411A7A48814201D9032709E0E869800709
:10124000F3D5E869032109028843216C0843E8616A
:101250000098002804D0F16B012000078143F1635E
:101260002078C00705D0686961688008800008435D
:1012700068612078800705D568690C218843A168DA
:10128000084368612078400705D5686930218843A4
:10129000E168084368612078C00606D568690321C3
:1012A000890288432169084368612088C00406D503
:1012B00068690321090288436169084368612088DD
:1012C000800506D56869032189048843A16A08431B
:1012D00068612088400506D56869032109058843AF
:1012E000E16A084368612078800606D568690321B1
:1012F00009038843A169084368612078400606D540
:101300006869032189038843E1690843686120888B
:1013100040040ED56869216B80008008084368612D
:101320000121206B8907884203D1F06889130843A3
:10133000F0602068000305D5686940218843616B2F
:10134000084368612068810235480BD569698210BD
:10135000A36B914319436961A16B914202D1F1687A
:101360000143F160216849020AD56969E26B814352
:1013700011436961E16B814202D1F1680143F1607F
:10138000218809050DD5A969226A890889001143B8
:10139000A961216A012904D1F168012212041143D3
:1013A000F160218889040DD5A9690C229143626AF4
:1013B0001143A961616A042904D1F1680122120470
:1013C0001143F1602168C9010ED5A96903221203F6
:1013D0009143626C1143A9610122616C52039142F5
:1013E00002D1F1680143F160216889010DD5A96935
:1013F000032212029143A26C1143A961A26CD11F76
:10140000F93902D1F1680143F1603846FEBD0000B0
:10141000401002400010024000700040881300009D
:1014200000000001F8B50F46060043D04D4D286876
:101430004007400FB84213D22868C008C0003843A4
:101440002860FFF71BFE044605E0FFF717FE011BAF
:101450004548814261D828684007400FB842F4D11E
:101460003068424C81070DD5400704D5A06807219C
:1014700009030843A060A0680F2109028843B168EE
:101480000843A0603078C00732D0706801280AD0C5
:1014900002280BD000280FD03449403103280ED049
:1014A000C969890704E02168890301E0216889018D
:1014B000002906DB0120F8BD21684905F8E7096A23
:1014C000EFE7A168C908C9000143A160FFF7D6FD95
:1014D000009006E0FFF7D2FD0099411A22488142B0
:1014E0001BD8A068382108407168C9008842F1D132
:1014F00028684007400FB84217D91A480168C90840
:10150000C90039430160FFF7B9FD054607E0FFF761
:10151000B5FD411B1448814201D90320F8BD114893
:1015200000684007400FB842F1D13078400706D537
:10153000A068072109038843F1680843A06000F010
:1015400031F8A1683C2289091140094A515CC90659
:10155000C90EC8400749086007480068FFF7B0FD9A
:10156000F8BD000000200240881300000010024077
:101570000C370008740000206C0000200648074962
:1015800000688968064A4904490F8900515CC90608
:10159000C90EC840704700007400002000100240CF
:1015A0004C37000810B5204CA068204A8006400F38
:1015B00016D0A0688006410F501001290FD0A168F5
:1015C0008906490F022912D0A0688006400F04281E
:1015D00023D0A0688006400F032821D0002010BD32
:1015E000206801218004400F8140104612E0E1682C
:1015F0008B07E1689B0F4906490F491C032B00D05C
:101600001046FEF7CBFEE1684904490E4843E16805
:10161000490F491CFEF7C2FE10BD0120C00310BDDA
:101620007D20000210BD0000001002400024F400E4
:10163000F8B504007ED020783827C007FE4D00287A
:1016400046D0A868E96838408907890F102802D079
:1016500008280BD001E0032908D0012062680004AB
:1016600082420AD129680143296015E02868800375
:101670002ED560680028DDD02AE0052301211B0457
:1016800089049A422A6802D10A432A60EAE782431F
:101690002A60286888432860606800280CD0FFF71B
:1016A000EDFC064604E0FFF7E9FC801B642873D8D4
:1016B00028688003F7D50BE0FFF7E0FC064604E05E
:1016C000FFF7DCFC801B6428F1D828688003F7D47E
:1016D0002078800769D5A868E96838408A0707211B
:1016E000920FC902102802D0002813D001E0022A6C
:1016F00010D0E068002846D0286888432169084354
:1017000028602868FF21013108432860FFF7B6FCF4
:1017100006462CE02A68520502D5E268002A89D0E4
:101720006A687F231B029A4363691B021A436A603B
:10173000002800E08DE00ED1286888432169084325
:101740002860286801218004400F8140BB48FEF7D3
:1017500025FEBB490860BB480068FFF7B1FC0028C4
:1017600077D122E0FFF78AFC801B02289FD82868E7
:101770004005F7D568687F2109028843616909023D
:101780000843686011E02968FF2001308143296027
:10179000FFF774FC064605E0B5E0FFF76FFC801B21
:1017A000022884D828684005F7D42078A64E000780
:1017B0002ED5A8688006400F03280AD0A06900280B
:1017C000306A16D0012108433062FFF757FC074604
:1017D0000BE0306A80071BD5A06900289FD017E076
:1017E000FFF74CFCC01B0228C0D8306A8007F7D531
:1017F0000EE0400840003062FFF740FC074604E07E
:10180000FFF73CFCC01B02287DD8306A8007F7D464
:10181000207840076BD5A86800278006400F042871
:1018200018D0E86BC00008D4E96B01200007014321
:10183000E963E96B01400127009184480168C9050B
:1018400019D40168821511430160FFF717FC00905D
:101850000DE083E0F069800749D5A06800287DD0BD
:1018600045E0FFF70BFC0099401A02284BD8774857
:101870000068C005F5D5A168012910D0042005290C
:10188000F16911D049084900F161F1698143F161C1
:10189000A068002816D0FFF7F1FB00900EE0F06979
:1018A00001210843F061F3E70143F161F7E7FFF736
:1018B000E5FB0099411A6648814224D8F069800707
:1018C000F5D50DE0FFF7DAFB009006E0FFF7D6FB59
:1018D0000099411A5E4881427FD8F0698007F5D4AB
:1018E000002F04D0E96B012000078143E9632078D1
:1018F000800624D50120E16980050029296810D0DF
:101900000143296000E068E0FFF7B8FB064604E009
:10191000FFF7B4FB801B02285FD828680002F7D5C8
:101920000DE081432960FFF7A9FB064604E0FFF7BD
:10193000A5FB801B022850D828680002F7D4206A33
:10194000002844D0A9688906490F02294FD00126F2
:1019500036060228286807D0B04300E07FE0286000
:10196000FFF78CFB04463AE0B0432860FFF786FBA4
:10197000074604E0FFF782FBC01B02282DD8286829
:101980008001F7D4A16A606AE26A0843216B1202FF
:1019900011430843616B0843A16B0843E9682D4A72
:1019A00011400843E860286830432860E868012156
:1019B00009070843E860FFF761FB044604E0FFF70E
:1019C0005DFB001B022808D828688001F7D548E095
:1019D000FFF754FB001B022801D90320F8BD28683B
:1019E0008001F5D4E8681C490840E86039E0012826
:1019F000F4D0E868626A8107890F91422FD1702183
:101A0000A26A014091422AD17F21E26A0902014083
:101A10001202914223D11F214904226B01409142BD
:101A20001DD107214906626B0140914217D1400F39
:101A3000A16B4007884211E0001002400024F4002E
:101A4000740000206C000020401002400070004034
:101A5000881300008C80C111FCFFFEEE01D0012034
:101A6000F8BD0020F8BDF8B504000CD0606A002570
:101A700000280AD02561656126464036A562707F40
:101A8000002808D00BE00120F8BD6168C81FFD38B0
:101A9000F2D0E561F0E73577204600F05BF80222EE
:101AA0007277206801684023994301600723E16849
:101AB0001B02994201D9002001E0012000030F27F9
:101AC0003F02B94202D0994200D0A562FF2361686B
:101AD000053319402127A368BF023B4019432369FE
:101AE0001340227D1943D207D20F11430123A2696B
:101AF0005B021A401143E26938231A401143226AFB
:101B000080231A401143A26A9B011A4011432268A4
:101B10001160A1690422090C1140626A10231A4065
:101B20001143626B08231A4011430F23E2681B0222
:101B30001A40114301221203104001432068416002
:101B40002068C16952109143C161256601207077F8
:101B50000020F8BDF0B587B0064614216846FEF7B0
:101B60001BFC3149306888425CD1304802688114DE
:101B70000A4302600068084005902C484038416BD9
:101B8000012211434163416B11400591416B0225D4
:101B900029434163406B002428400590D003009006
:101BA0000520029403946946019504940007FFF709
:101BB000A5F9382000900294039469460195049495
:101BC0001B48FFF79BF91C4D1A4828601027AF608F
:101BD0001120EC6068606C61AC61EC6180202C626B
:101BE00028612846FFF732F8002801D0FEF7C5FE2D
:101BF0007565AE62104D0F486035AC601430EC6016
:101C000081C5EC602C616C618020AC61A8602846C5
:101C10000838083DFFF71AF8002801D0FEF7ADFE9E
:101C2000B565AE6207B0F0BD003001404010024023
:101C30000004005058000240DC00002003490A68FC
:101C400003235B029A4302430A607047000001408D
:101C5000094910B5401E884201D9012010BD074C2A
:101C600060610321081F01F06FFB0020A0610720C5
:101C70002061002010BD0000FFFFFF0000E000E039
:101C800010B5014680310A79012A15D001220A7166
:101C900024228A600268136814686408640014606F
:101CA000012252079343002242660068036020200D
:101CB00088600A71104610BD022010BD7047704741
:101CC00070B5044605468034207901281AD00120D9
:101CD00020712420A060286806680268520852001B
:101CE00002602868826807235B069A430A43826081
:101CF000284600F083FE286806602020A0600020AF
:101D0000207170BD022070BD70B504460546803458
:101D10002079012819D0012020712420A060286892
:101D20000668026852085200026028688268D20081
:101D3000D2080A438260284600F060FE28680660E8
:101D40002020A0600020207170BD022070BD70476F
:101D50007047F8B5054604468035A868EE682168E6
:101D60008A6810271206002A1BDA212819D1EFF3FE
:101D70001080012282F310888A6880239A438A6047
:101D800080F31088E06F002808D0FEF78CFE002852
:101D900004D0E06FFEF7F5FE202824D0204601F0A5
:101DA00001F82168886840061BD5222E19D1EFF36F
:101DB0001080012282F310888A6840239A438A6047
:101DC00080F310882868002808D0FEF76CFE0028F1
:101DD00004D02868FEF7D5FE202804D0204600F065
:101DE000AFFF0020F8BD2F610320F8BD7047000051
:101DF000F8B503680446D96918689A68B94D0E4663
:101E00002E4025468035002E75D0B74EB74F164070
:101E1000074037436ED0CF0706D0C70504D501274A
:101E20001F622B693B432B618B0708D5D30706D074
:101E3000276802233B622B6904273B432B614B0736
:101E400008D5D30706D0276804233B622B690227F5
:101E50003B432B610B0709D520230340334305D0B7
:101E60002668082333622E691E432E610B0509D5AF
:101E7000430107D501232668DB0233622B69202644
:101E800033432B612B69002B42D089060AD52021D0
:101E90000840C9050A40104304D0616F002901D0F1
:101EA00020468847286921688968490602D4282184
:101EB000084232D0204600F043FF2168886840067F
:101EC00027D5EFF31080012282F310888B6840221F
:101ED00093438B6080F310882868002819D08449C8
:101EE00081632868FEF715FE002811D02868816BF1
:101EF0000DE000E017E08E0615D5012720263F07EC
:101F0000064017403E430ED0616FBFE02046884731
:101F1000F8BD2046FFF76AFFF8BD2046FFF766FFD1
:101F200000202861F8BDE66E012E7DD1CE067BD55E
:101F3000C60679D5102018622268906826464006A9
:101F40004036002857DA29680B6858680004000CEE
:101F500045D0B78B874242D9F08308680068800675
:101F600036D4EFF31080012181F310881168FF232C
:101F700001339943116080F31088EFF31080012141
:101F800081F3108821688A68520852008A6080F3C1
:101F90001088EFF31080012181F3108821688A688E
:101FA00040239A438A6080F310882020E860002054
:101FB000E066EFF31080012181F3108821680B683F
:101FC000102293430B6080F310882868FEF76BFDA6
:101FD00002202067B08BF18B401A81B207E0B18BF1
:101FE00081429FD1186880069CD502202067204638
:101FF000FFF764FEF8BDB08BF18B401A81B2F08B15
:102000000028F7D00029F5D0EFF31080012383F3E7
:1020100010881368FF262136B343136080F31088BD
:10202000EFF31080012200E01BE082F310882268A9
:1020300093682D4EF6433340936080F31088202040
:10204000E8600020E0666067EFF31080012282F311
:102050001088226813681025AB43136080F3108842
:10206000C3E7CE0208D5560206D501200005186246
:102070002046FFF76DFEF8BD0E060BD50127802622
:10208000FF0506403A40164304D0A16F002900D056
:102090003CE7F8BD4A0614D5420612D52046EFF3B8
:1020A0001081012282F310881A684024A2431A602A
:1020B00081F310882021A9600021816700F056F982
:1020C000F8BD0A0205D5420003D52046FFF73FFEC2
:1020D000F8BDC901FCD50028FADA2046FFF7EFFD6C
:1020E000F8BD00000F0800000100001020010004EE
:1020F000C52B000870B5040005D025468035A868BA
:10210000002802D006E0012070BD00202871204682
:1021100000F026F82420A8602068016849084900DA
:102120000160A06A002802D0204600F089FC204609
:1021300000F056FE0128E7D0206841680922D2024B
:1021400091434160206881682A2291438160206820
:102150000168012211430160204600F0D7FC70BDE8
:10216000F0B599B00646142113A8FEF715F94C21D5
:102170006846FEF711F93149306888425CD1012088
:102180000024009001946846FFF70CF8002801D065
:10219000FEF7F3FB2A480268012189030A43026023
:1021A00000680840189026484038426B02210A43D4
:1021B0004263406B13AA08401890C02013C203204A
:1021C00011C213A91F48FEF799FE204D1E48286032
:1021D000AC60EC606C61AC618027EC612F613220F7
:1021E0002C6268602846FEF731FD002801D0FEF71A
:1021F000C4FB80208551AE62144D13486035143005
:1022000028603320686029461020083191C16C6134
:10221000AC61EC6128462C62FEF718FD002801D065
:10222000FEF7ABFBF567002211461B20AE62FEF7FE
:102230008FFF1B20FEF780FF19B0F0BD0038014072
:10224000401002400004005008000240300200200C
:1022500070B58C231B58202B01D0022070BD0029A3
:102260000BD0002A09D0012483682403A34206D19D
:102270000369002B03D1CB0701D0012070BD0023DF
:10228000C3660C4B04689C4211D00B4B9C420ED091
:1022900063681B020BD5EFF31083012585F31088CB
:1022A00025680126B6063543256083F3108800F0C3
:1022B000E1FE70BD00800040008400407047704720
:1022C00070B5054604468035A868202801D0022054
:1022D00070BD00290BD0002A09D00123A0681B0380
:1022E000984206D12069002803D1C80701D00120F7
:1022F00070BD2046403021658282C2820020286164
:102300002121A960E16F002918D0154BCB62E36F42
:1023100014491963E36F14495963E16F13468863E5
:102320002668216D32462832E06FFEF7F5FC002862
:1023300004D0102028612020A860D8E72168402020
:102340000862EFF31080012181F3108821688A6808
:1023500080231A438A6080F31088002070BD00003B
:10236000F12C0008372D0008CF2B0008704770476C
:10237000FEE7000010B501201149400288621148B3
:1023800000240470FEF72EFA0F48104904704470C0
:10239000848101610E4941610E4981610E49C1612B
:1023A0000E48016810221143016001684022114368
:1023B00001600B4A05490B48FFF74AFF10BD0000BA
:1023C0000004005031000020F003002040080020ED
:1023D000720C002064000020C53100080038014064
:1023E000320400009C010020F8B55E4C20690178A1
:1023F000A02947D142782146A02589690127012AD1
:1024000041D0022A3ED1098800F0C0FF8226002870
:102410007ED02169544BC8788A780002104340BAB4
:102420002081A26980021288C018091D083A01F0B3
:1024300037F8606905706069467020696169807865
:10244000887020696169C078C8706069052107716A
:102450006069FEF7B1F96269010E51716269010CA0
:1024600091716269010AD17161690872E16909209B
:10247000884760892189401E814203D13B496770AA
:1024800002200870F8BD394A1770098800F07EFFF5
:102490000028F7D027702069C1788278090211439B
:1024A000027949BA09041202114342791143616069
:1024B000C17982790802104340BA60816069057071
:1024C000616981204870206961698078887020691D
:1024D0006169C078C87020696169007908712069F4
:1024E00061694079487120696169807988712069E2
:1024F0006169C079C87108216069FEF75DF9626998
:10250000010E11726269010C5172010A626900E0E8
:1025100005E091726169C8720C20E1691FE0606991
:1025200005706069467020696169807888702069EB
:102530006169C078C870616902200871052160690D
:10254000FEF73AF96269010E51716269010C9171ED
:102550006269010AD17161690872E16909208847DD
:10256000F8BD0000F0030020004800083100002002
:10257000F0B587B00C460746102917D0182C17D095
:10258000202C42D10E263919042204A8091FFDF778
:10259000A4FEA008029020461038C217520F10184F
:1025A000C0100025B10040000E1A2CE00A26EAE710
:1025B0000C26E8E728460299FDF7F0FE002902D034
:1025C000042905D00AE0014604A8FDF7D5FF05E07F
:1025D000202C03D1042104A8FEF740F8A800C1195B
:1025E0000390042205A8FDF778FE042205A904A89B
:1025F000FDF7B7FF039804220019C01904A9FDF7DD
:102600006CFE6D1CEDB2AE42D4DC07B0F0BD000034
:1026100008B51048816B012211438163806B104023
:102620000022009011460920FEF792FD0920FEF7D6
:1026300083FD002211460A20FEF78AFD0A20FEF7DC
:102640007BFD002211460B20FEF782FD0B20FEF7DA
:1026500073FD08BD00100240F0B587B01421684634
:10266000FDF79AFE2548426B02210A434263426B02
:102670000A400592416B012529434163416B294082
:102680000591426B04210A434263406B1C4F084092
:1026900005900022C9013846FEF7EAFC0122160225
:1026A000052031460007FEF7E3FC012240211548D2
:1026B000FEF7DEFC012231463846FEF7D9FC032046
:1026C0000002002400900294694601950394384664
:1026D000FEF714FC05200294694600070096019558
:1026E0000394FEF70BFC402000900294694601958C
:1026F00003940448FEF702FC07B0F0BD001002404E
:10270000000400500008005010B511480F49016046
:10271000FF21053141600021032281601202016125
:10272000C260012241619204826101622022416201
:10273000C26181620722C262016308214163FFF71F
:1027400092F9002801D0FEF718F910BD00300140C1
:102750007800002010B5184816490160E1214902AF
:10276000416000218160C16001618161C1610162DC
:102770000C22416242618162FFF7BCFC002801D05B
:10278000FEF7FBF800210C48FFF7BEFA002801D045
:10279000FEF7F3F800210848FFF792FA002801D06D
:1027A000FEF7EBF80448FFF76BFA002801D0FEF7BC
:1027B000E4F810BD003801409C010020FEE770479E
:1027C00003E003780B70401C491C1346521E92B262
:1027D000002BF6D170470000F0B504460120C0027E
:1027E00087B00F46154682425AD80004844257D318
:1027F0002C4909688A012C49930F06D0920F012AAF
:1028000007D12A4A126A920203D4098C8905090B5E
:1028100002E0098C8905490BC90AC9020818A042BF
:102820003ED9FEF757FB6807400F00F0C9FD40197D
:1028300086B260050ED1022102911F21C9066118DE
:10284000C90A04910121059103900090694602A8EC
:10285000FEF7BAFA0025F6081EE0E800C0198178F4
:1028600003780A04C17809060A434178090219432A
:102870000A4381790B04C17909060B434179007938
:10288000090201430B4321460120FEF7F3FA002819
:1028900000D108346D1CADB2AE42DED8FEF7D6FAD8
:1028A00007B0F0BD0075FF1FC075FF1F002002407C
:1028B0007047FEB50A2A26D8002A24D000236C4689
:1028C00005E09D006D18455DE5545B1CDBB293424D
:1028D000F7D300230425AD1A08E0D618B600761801
:1028E0009F007F18865D5B1CC655DBB29D42F4DC01
:1028F000002306E0EF18BF00E65C7F185B1CC6559E
:10290000DBB29342F6D3FEBD10B500F04FF8FEF7F0
:10291000BBFB10BD30B593B03C216846FDF73CFDD4
:10292000002501200F951095119540021295FEF794
:1029300013FC0224E0010390009440200A950590C6
:1029400008200B9080030C900894000204950D90D1
:10295000099400010E906846FEF76AFE002801D037
:1029600072B6FEE707200FA931C102210FA8129508
:10297000FEF758FD002801D072B6FEE713B030BD57
:1029800070470000064800E000BF401EFCD2BFF3C5
:102990004F8F05490348C860BFF34F8F00BFFDE765
:1029A000FFFF00000400FA0500ED00E030B510481C
:1029B000104A4188914201D2491C41800278012489
:1029C00000230D496402062A09D24588C82D05D97D
:1029D0004D6965404D614380521C027030BD428894
:1029E0007D25ED00AA42F9D98C614380037030BD8A
:1029F00060000020FFFF000000040050F8B504460E
:102A0000416E4034002915D0006881688068090152
:102A10004D0F0A4E400F3746315C083F385CC0000E
:102A2000FDF7BCFC6085785D715DC000FDF7B6FC0C
:102A30002085F8BD01206085FAE700000237000814
:102A400010B5018D090707D501684A680123DB032A
:102A50009A43836B1A434A60018DC90707D0016806
:102A60004A6801235B049A43C36A1A434A60018D92
:102A7000890707D501684A6801231B049A43036B41
:102A80001A434A60018D490707D501684A68012346
:102A90009B049A43436B1A434A60018DC90607D5CC
:102AA0000268916801231B039943C36B194391602A
:102AB000018D890607D501688A6801235B039A4363
:102AC000036C1A438A60018D490612D503685A685F
:102AD00001210905446C8A4322435A60426C8A42B0
:102AE00007D10268516803235B059943836C19433E
:102AF0005160018D090607D501684A680123DB048E
:102B0000C06C9A4302434A6010BD0000FEB5054602
:102B10000026803504462E61FEF7B0FA0190206849
:102B2000006820270007002817DA254800900022B7
:102B300039042046019B00F0F3FA00280DD0EFF392
:102B40001080012181F3108821680A6880239A434C
:102B50000A6080F31088AF6028E0206800684007B2
:102B600027D5174800900121002289052046019BA6
:102B700000F0D6FA00281CD0EFF31080012181F379
:102B8000108821680A68FF2321339A430A6080F382
:102B90001088EFF31080012181F3108821688A6882
:102BA000520852008A6080F31088EF602E71032073
:102BB000FEBDAF60EF60E66626672E710020FEBDA9
:102BC000FFFFFF0110B5806AFFF710F910BD70B567
:102BD000856A2C468034A068E668296889680906F9
:102BE00004D5212802D1284600F0DCF82868806846
:102BF000400604D5222E02D1284600F0A1F8206913
:102C00001021084320612846FFF7F0F870BD70B529
:102C100002461168806A0968890636D4EFF310818C
:102C2000012383F3108803681C68FF250135AC433A
:102C30001C6081F31088EFF31081012383F3108867
:102C400003689C68640864009C6081F31088EFF35B
:102C50001081012383F3108803689C684025AC43EE
:102C60009C6081F3108820238C210B50C16E0129B8
:102C70000BD1EFF31081012383F3108803681C68E4
:102C80001025AC431C6081F3108800210167C16EE0
:102C9000012902D0FFF712FB70BD116849688AB2A2
:102CA000014640318B8B934200D9CA83C98B591A94
:102CB00089B2FFF703F870BD10B50346806A0121A1
:102CC0000167C16E012902D0FFF7F9FA10BD014674
:102CD00040318A8B5408CC831B685B689BB29A4254
:102CE00000D3CB83C98B511A89B2FEF7E7FF10BD21
:102CF00010B501460968806A0968890618D4EFF39F
:102D00001081012282F31088026893688024A34313
:102D1000936081F31088EFF31081012282F3108811
:102D20000068026840231A43026081F3108810BDD6
:102D3000FFF71CFB10BD10B5806AFFF718FB10BD34
:102D400010B5EFF31081012282F310880268136836
:102D5000FF242134A343136081F31088EFF3108123
:102D6000012282F31088026893680D4C234093601F
:102D700081F31088C16E01290BD1EFF3108101227C
:102D800082F31088026813681024A343136081F350
:102D9000108820228C210A500021C166416710BD95
:102DA000FEFFFFEF10B5EFF31081012282F31088D0
:102DB00002681368C024A343136081F31088EFF303
:102DC0001081012282F31088026893680124E405CF
:102DD000A343936081F3108820218030816010BD6F
:102DE000F8B50446016880682569E7692843656984
:102DF00000263D432843904A904B0D68904F3D403C
:102E000005430D602168486803252D03A843E56844
:102E1000284348602168A069914203D0994201D0BB
:102E2000256A28438D68874F3D4005438D602068A3
:102E3000C16A656A090909012943C162824D216895
:102E40008248A9420AD140698007800F4ED00128EC
:102E50005DD002284AD0032847D15AE07C4DA942D0
:102E60000AD140690C25284040D004283ED00828CB
:102E70004BD00C2839D14CE0764DA9420AD140699B
:102E80003025284032D0102841D020283DD030288D
:102E90002BD13EE0704DA94214D0704DA94211D003
:102EA0006F4DA9420ED091420ED145690320800298
:102EB000054007D0012080022D1A28D02D1A24D0D9
:102EC000281A10E0002011E099420ED14069032534
:102ED0002D0228400AD0FF38401E18D0FF38401E6F
:102EE00013D0FF380138002813D010205D4D5E4FFD
:102EF000914201D0994240D100280CD0022814D030
:102F000004280BD0082837D10DE00220EEE704207A
:102F1000ECE70820EAE7FEF731FB01E0FEF742FBB1
:102F2000050002D17EE00125ED03606A4000395AB8
:102F300028460091FDF732FA6768790079188142D6
:102F40006BD83903814268D3002328461946009A7A
:102F5000FDF742F9020E090203027808114318181E
:102F6000002251413A460023FDF736F903210902B8
:102F70003E4A411A914253D94FE00121E269C90307
:102F80008A4228D1002806D002280DD0042805D076
:102F9000082842D107E0FEF7F1FA01E0FEF702FB54
:102FA000050001D13EE00D46606A4000395A2846CE
:102FB000FDF7F4F9616840004A088018FDF7EEF962
:102FC00001462B4A1039914227D8511C0140000775
:102FD000400F084324E0002806D002280DD0042822
:102FE00005D0082819D107E0FEF7C8FA01E0FEF77E
:102FF000D9FA050001D115E00D46606A4000395A42
:103000002846FDF7CBF961684A088018FDF7C6F934
:103010000146174A1039914201D9012602E080B2D7
:103020002168C8602046012140304185018500208B
:103030006067A0673046F8BD008000400084004013
:10304000F369FFCFFFF4FF11003801404010024048
:103050000044004000480040004C00400050004048
:10306000003C01400024F400E2360008FFFC0F00A1
:10307000EFFF000070B50446816540308283002078
:103080002546803528612221E9602968002919D068
:10309000204BCB622B68204919632B681F49596369
:1030A000296813468863A66D216832462431286852
:1030B000FDF732FE002805D0102028612020E860AE
:1030C000012070BD206900280CD0EFF31080012191
:1030D00081F3108821680A68FF2301331A430A60CC
:1030E00080F31088EFF31080012181F310882268AB
:1030F00093680B43936080F31088EFF3108081F3A3
:10310000108821688A6840231A438A6080F31088F7
:10311000002070BD0F2C0008B92C0008CF2B000830
:10312000FFB581B005460E46044680350A9F32E061
:10313000781C30D0FDF7A2FF0499401AB84218D885
:10314000002F16D020680168490724D5802E22D090
:10315000402E20D0C169C94309070CD40826066255
:103160002046FFF7EDFD2E6100202871012005B0FB
:10317000F0BD0320FBE7C069C04300050BD401206C
:103180002168C00208622046FFF7DAFD202028618E
:1031900000202871EDE72068C1693046884305D0DA
:1031A000002103988142C3D00020E0E70121F8E725
:1031B00010B5FDF731FB0248FEF71AFE10BD000006
:1031C0009C01002010B50349024649690248FFF7F7
:1031D00077F810BDF00300209C010020F3B54D4CA2
:1031E00087B000254D49E56061614B4810222061A0
:1031F0004B49FFF7E5FA4A49089A0798FDF7D8F9CD
:103200004748C27B017B12068918827B407B1204EF
:103210000002101808180103090CA060A180000723
:1032200001D0491CA180206910302061658069E0CF
:1032300001206169C00681426AD33A4A126892014C
:10324000930F06D0920F012A09D1374A126A9202CF
:1032500005D4344AC032128C9205120B04E0314A74
:10326000C032128C9205520BD20AD2021018884238
:103270004ED9FDF72FFE606941050ED10221019163
:103280001F21C9064018C00A03900120049002952E
:1032900005A9059501A8FDF797FD60882169000142
:1032A000401810221E49FFF78BFA1D49089A07980B
:1032B000FDF77EF91A48E060074625702E46203F4C
:1032C000E068227801689200B9500268A261436800
:1032D00023626662E3620830A262E06001206169F5
:1032E000FDF7C8FD002802D16069083060612078D0
:1032F000401CC0B220700228E2D3FDF7A7FD608811
:10330000401C60806088A188884291D3032060704F
:1033100009B0F0BD3000002000480008004000085F
:10332000300800200075FF1F0020024030B47446B2
:10333000641E2578641CAB4200D21D46635D5B00B1
:10334000E31830BC184700008307FF22DB0E9A40C9
:103350008907090E9940002808DB830809489B006B
:103360001B18186890430843186070470007000F47
:103370000838830804489B001B18D8699043084309
:10338000D861704700E400E000ED00E010B50529C9
:1033900014D34218121F537814781B0223435BBACC
:1033A0001C049378D2781B021C43091F144389B272
:1033B000FDF702FAA04201D1012010BD002010BD8E
:1033C000014600B500200B00FFF7B0FF0806050717
:1033D000090B0D0F1106072000BD062000BD0520BA
:1033E00000BD042000BD032000BD022000BD01205F
:1033F00000BD000070B572B601680C4A1140012290
:103400005207914210D144680068FCF7A9FE0020E1
:10341000074B084E411E8200D51829609219116091
:10342000401C0828F7DBA04770BD00000000FE2FFD
:1034300080E100E080E200E010B514480178002946
:103440000ED000218181417800290CD0104911480B
:10345000FFF7C4FE10484168090E082907D013E0A1
:103460008189491CEEE780890528F3D208E00B4CDE
:103470002178002901D1FFF7BDFF2078032803D070
:103480003220FDF78FFC10BDFFF77CFAF00300201F
:103490001000002000000020004000083100002043
:1034A00010B592B2FFF798F910BDFDF7F5FDFFF7E3
:1034B00031FAFFF7D1F8FFF7ABF8FFF74BF9FFF759
:1034C00023F9FEF757FFFFF7B7FFFCE7637C777B35
:1034D000F26B6FC53001672BFED7AB76CA82C97D10
:1034E000FA5947F0ADD4A2AF9CA472C0B7FD9326A1
:1034F000363FF7CC34A5E5F171D8311504C723C3A5
:103500001896059A071280E2EB27B27509832C1AE8
:103510001B6E5AA0523BD6B329E32F8453D100ED42
:1035200020FCB15B6ACBBE394A4C58CFD0EFAAFB26
:10353000434D338545F9027F503C9FA851A3408FEE
:10354000929D38F5BCB6DA2110FFF3D2CD0C13EC06
:103550005F974417C4A77E3D645D197360814FDC9B
:10356000222A908846EEB814DE5E0BDBE0323A0A7F
:103570004906245CC2D3AC629195E479E7C8376D03
:103580008DD54EA96C56F4EA657AAE08BA78252E28
:103590001CA6B4C6E8DD741F4BBD8B8A703EB566B1
:1035A0004803F60E613557B986C11D9EE1F89811A2
:1035B00069D98E949B1E87E9CE5528DF8CA1890D91
:1035C000BFE6426841992D0FB054BB1652096AD527
:1035D0003036A538BF40A39E81F3D7FB7CE3398208
:1035E0009B2FFF87348E4344C4DEE9CB547B943257
:1035F000A6C2233DEE4C950B42FAC34E082EA1669F
:1036000028D924B2765BA2496D8BD12572F8F66475
:1036100086689816D4A45CCC5D65B6926C704850F0
:10362000FDEDB9DA5E154657A78D9D8490D8AB00A5
:103630008CBCD30AF7E45805B8B34506D02C1E8FCE
:10364000CA3F0F02C1AFBD0301138A6B3A9111410A
:103650004F67DCEA97F2CFCEF0B4E67396AC7422F3
:10366000E7AD3585E2F937E81C75DF6E47F11A7171
:103670001D29C5896FB7620EAA18BE1BFC563E4BAA
:10368000C6D279209ADBC0FE78CD5AF41FDDA8336C
:103690008807C731B11210592780EC5F60517FA9AC
:1036A00019B54A0D2DE57A9F93C99CEFA0E03B4DDB
:1036B000AE2AF5B0C8EBBB3C83539961172B047E4F
:1036C000BA77D626E169146355210C7D01020408FE
:1036D000102040801B366CD8AB4D081C3044586C11
:1036E0008000010002000400060008000A000C002F
:1036F00010002000400080000001010101030701CB
:10370000000008040204080101010000000000009C
:1037100000000000000000000000000000000000A9
:103720000000000000000000000000000100000098
:10373000020000000300000004000000060000007A
:103740000700000008000000090000000000000061
:103750000000000000000000000000000100000068
:103760000200000003000000040000008C37000885
:103770000000002078000000000100080438000864
:1037800078000020781300001C010008323536391B
:1037900034373538696B6D67747264736E7379751D
:1037A00035333961396F656D73687A6A6E7379750F
:1037B00035333961396F656D73687A6A00000000CE
:1037C00000000000000000000000000000000000F9
:1037D00000000000000000000000000000000000E9
:1037E00000000000000000000000000000000000D9
:1037F00000000000010000000400000000000000C4
:043800000024F400AC
:04000005080000BD32
:00000001FF
