:020000040800F2
:10000000F0130020A1010008252C00080527000896
:1000100000000000000000000000000000000000E0
:10002000000000000000000000000000312D00086A
:100030000000000000000000272C00081D2E000812
:10004000B3010008B3010008B3010008B3010008C0
:10005000B3010008B3010008B3010008B3010008B0
:10006000B3010008A5090008B50900088D090008BA
:10007000B3010008B3010008B3010008B301000890
:10008000B3010008B3010008B3010008B301000880
:10009000B3010008B3010008B3010008B301000870
:1000A000B3010008B3010008B301000809360008D5
:1000B000B3010008B3010008B301000800F002F822
:1000C00000F03EF80CA030C8083824182D18A246BD
:1000D000671EAB4654465D46AC4201D100F030F895
:1000E0007E460F3E0FCCB6460126334200D0FB1AA7
:1000F000A246AB4633431847BC3A0000DC3A000046
:10010000103A02D378C878C1FAD8520701D330C860
:1001100030C101D504680C60704700000023002442
:1001200000250026103A01D378C1FBD8520700D32E
:1001300030C100D50B6070471FB51FBD10B510BD95
:1001400000F023FA1146FFF7F7FF03F0A1FB00F0E0
:100150003BFA03B4FFF7F2FF03BC00F041FA0000E2
:1001600080F308887047000070B505460C461646B7
:1001700002E00FCC0FC5103E102EFAD2082E02D38B
:1001800003CC03C5083E042E07D301CC01C5361F9E
:1001900003E021782970641C6D1C761EF9D270BDB5
:1001A0000748804707480047FEE7FEE7FEE7FEE70F
:1001B000FEE7FEE704480549054A064B7047000084
:1001C000292E0008BD000008F00D0020F0130020CB
:1001D000F00F0020F00F0020FEB5054610460C463B
:1001E000184373D0AE468C460020AD1A01469C41A0
:1001F00067D36646002701243D46B61A9D4102D3C7
:1002000013463A462124654676462F04360C3E4373
:100210002D0CB61A9D4104D3150C1B042B4312045C
:100220001034654676462F06360A3E432D0AB61A26
:100230009D4104D3150E1B022B4312020834654660
:1002400076462F0736093E432D09B61A9D4104D341
:10025000150F1B012B431201241D65467646AF077F
:10026000B6083E43AD08B61A9D4104D3950F9B00D6
:100270002B439200A41C65467646EF0776083E4362
:100280006D08B61A9D411AD392185B41641C16E0A2
:100290000018764665464941B71A9D410191009084
:1002A00009D36046B11A98418E4684460098019958
:1002B0000025401C6941DD0752082A435B08641E83
:1002C000E6D57246634603B0F0BDFFE70020014665
:1002D000C046C0462A462346F5E7F8B5042A2CD383
:1002E000830712D00B78491C0370401C521E8307F1
:1002F0000BD00B78491C0370401C521E830704D09E
:100300000B78491C0370401C521E8B079B0F05D0B5
:10031000C91ADF002023DE1B08C90AE0FFF724FF0B
:10032000F8BD1D4608C9FD401C46B4402C4310C012
:10033000121F042AF5D2F308C91A521EF0D40B7802
:10034000491C0370401C521EEAD40B78491C0370F0
:10035000401C012AE4D409780170F8BD01E004C012
:10036000091F0429FBD28B0701D50280801CC90715
:1003700000D00270704700290BD0C30702D0027072
:10038000401C491E022904D3830702D50280801C29
:10039000891EE3E70022EEE70022DFE700220309DF
:1003A0008B4273D3030A8B4258D3030B8B423CD34B
:1003B000030C8B4221D312E003460B437FD400226F
:1003C00043088B4274D303098B425FD3030A8B42E9
:1003D00044D3030B8B4228D3030C8B420DD3FF2253
:1003E000090212BA030C8B4202D31212090265D021
:1003F000030B8B4219D300E0090AC30B8B4201D3D4
:10040000CB03C01A5241830B8B4201D38B03C01A1A
:100410005241430B8B4201D34B03C01A5241030B91
:100420008B4201D30B03C01A5241C30A8B4201D342
:10043000CB02C01A5241830A8B4201D38B02C01AED
:100440005241430A8B4201D34B02C01A5241030A64
:100450008B4201D30B02C01A5241CDD2C3098B4249
:1004600001D3CB01C01A524183098B4201D38B01C6
:10047000C01A524143098B4201D34B01C01A524169
:1004800003098B4201D30B01C01A5241C3088B42AE
:1004900001D3CB00C01A524183088B4201D38B0099
:1004A000C01A524143088B4201D34B00C01A52413B
:1004B000411A00D201465241104670475DE0CA0F12
:1004C00000D04942031000D34042534000229C46D2
:1004D00003098B422DD3030A8B4212D3FC228901DC
:1004E00012BA030A8B420CD3890192118B4208D3B2
:1004F000890192118B4204D389013AD0921100E014
:100500008909C3098B4201D3CB01C01A5241830927
:100510008B4201D38B01C01A524143098B4201D354
:100520004B01C01A524103098B4201D30B01C01A7F
:100530005241C3088B4201D3CB00C01A52418308F9
:100540008B4201D38B00C01A5241D9D243088B424F
:1005500001D34B00C01A5241411A00D201466346F2
:1005600052415B10104601D34042002B00D5494256
:10057000704763465B1000D3404201B50020C0467F
:10058000C04602BD704770477047754600F024F8BA
:10059000AE46050069465346C008C000854618B0FF
:1005A00020B5FFF707FE60BC00274908B6460026C5
:1005B000C0C5C0C5C0C5C0C5C0C5C0C5C0C5C0C513
:1005C000403D49008D46704710B50446C046C046C0
:1005D0002046FFF7BEFD10BD00487047900D00207B
:1005E00001491820ABBEFEE726000200704710B498
:1005F000002A17DD401E491ED30705D043784C78EA
:1006000063404370401C491C52100BD043784C7817
:100610006340437083788C78891C63408370801CAE
:10062000521EF3D110BC7047002A76D0F7B584B0C3
:10063000049814460D46002803D010226846FFF7A0
:100640004CFE2146202422463448FFF746FE214630
:10065000324802F095F9102231492846FFF7C7FFCA
:1006600003220121284602F065FB0222114628469A
:1006700002F060FB01220321284602F05BFB1021FF
:10068000284600F0E9F8274F0D262449300141188B
:1006900010222846FFF7ABFF284600F071F803222E
:1006A0000121284602F046FB02221146284602F0AC
:1006B00041FB01220321284602F03CFB6C1E08206E
:1006C0006278401E110712091201090FD219515CFC
:1006D0006170A278110712091201090FD219515C39
:1006E000A170A41C0028EBD1761E3606360ECCD1A4
:1006F0000A4910222846FFF77AFF0498002809D0FB
:10070000014610222846FFF772FF1022694604981E
:10071000FFF7E3FD07B0F0BDFFE77047F0020020F0
:10072000D0030020163A0008002925D010B4CB07CA
:10073000124A401E002B08D043781C071B091B01DE
:10074000240F9B181B5D4370401C490812D044784D
:100750002307240924011B0FA418E35C437083784A
:100760001C071B091B01240F9B181B5D8370801C39
:10077000491EECD110BC70477047000016390008C4
:10078000F1B589B000240998A100091801910878F1
:1007900006904A7804928A780392C97802910E21D1
:1007A00000F04AF906460B21049800F045F946404E
:1007B0000D21039800F040F946400921029800F00D
:1007C0003BF946400921069800F036F905460E210E
:1007D000049800F031F945400B21039800F02CF902
:1007E00045400D21029800F027F945400D2106985B
:1007F00000F022F907460921049800F01DF947404E
:100800000E21039800F018F947400B21029800F0E0
:1008100013F9784007900B21069800F00DF9074670
:100820000D21049800F008F947400921039800F0D1
:1008300003F947400E21029800F0FEF80199474065
:100840000E704D700798641C8870E4B2CF70042C51
:1008500099D30AB0F0BD0000002925D010B4CB0711
:10086000124A401E002B08D043781C071B091B01AD
:10087000240F9B181B5D4370401C490812D044781C
:100880002307240924011B0FA418E35C4370837819
:100890001C071B091B01240F9B181B5D8370801C08
:1008A000491EECD110BC704770470000163A000892
:1008B00030B400220B46D243134C491E002B20DDDE
:1008C00001238B4307D00278104DD2431206920DBC
:1008D000A2586A40401CC91A10D4037853401B0622
:1008E0009B0DE358120A53404278801C5A4012066E
:1008F000920DA2581B0A5A40891EEED530BCD04337
:1009000070470023E7E7000010040020FFFFFF000E
:1009100010B5164CE069800704D5606A206A022190
:1009200008432062E069C0061ED5114801F070FB43
:10093000206A102108432062606A0E480E49007840
:1009400040580E4C0E49201A80B20880A04206D2B0
:10095000012149020B4800F02FFC01F029FF22463B
:100960000949034801F0ECFD10BD000000380140CA
:100970009C010020243B00080400024032040000D7
:1009800064000020000400504008002010B5034817
:1009900000F020F9024800F01DF910BDDC00002035
:1009A0003C01002010B5024800F014F910BD000011
:1009B0003002002010B5024800F00CF910BD000014
:1009C0009002002072B6FEE7F8B5044600F002FC83
:1009D000154E0546032730693F04384209D0601C94
:1009E00004D000F0F7FB401BA04216D23069384219
:1009F000F5D130690D4908400D49316103D00D49E9
:100A000048600120F8BD306940030BD5601C06D05A
:100A100000F0E0FB401BA04201D30320F8BD306989
:100A20004003F3D40020F8BD00200240FAC30000C8
:100A3000FBC30000740D002002460020CB0700D04D
:100A400010465300120601D51B2200E0002253403D
:100A5000DAB24B08D90700D050405100120601D538
:100A60001B2200E0002251405A08C9B2D30700D02F
:100A700048404B00090601D51B2100E000214B40F6
:100A8000D9B25208D30700D048404B00090601D51F
:100A90001B2100E000214B40D9B25208D30700D0FF
:100AA00048404B00090601D51B2100E000214B40C6
:100AB000D9B25208D30700D048404B00090601D5EF
:100AC0001B2100E000214B40D9B25208D30700D0CF
:100AD00048404B00090601D51B2100E000214B4096
:100AE0005208D9B2D20700D048407047002801D13F
:100AF0000120704770B4014620314A790024022A4F
:100B000005D00422C2630C7170BC012070470268DA
:100B100013685B085B001360026813680E25AB4323
:100B20001360826C1368FF250135AB431360436C7F
:100B30001C221340012216469E40036C5E60C36C6B
:100B4000066D5E60436D002B05D01E68AE431E60CF
:100B5000C36D806D43604A710C7170BC002070479A
:100B600070B50024014620314A79022A03D00421BD
:100B7000C16301242AE0026813685B085B0013600C
:100B8000026813680E25AB431360826C1368FF255F
:100B90000135AB431360436C1C22134001221646FF
:100BA0009E40036C5E60C36C066D5E60436D002BFF
:100BB00005D01E68AE431E60836DC56D5D604A71D1
:100BC00000220A71816B002900D08847204670BD41
:100BD000C06B7047F0B4016C0D6801680C68466C1E
:100BE0001C22042316401F46B7402F4211D067072E
:100BF0000FD50C68A40602D40C689C430C60416CB1
:100C000011408B40016C4B60016B002941D1F0BC5D
:100C100070470227B74003462F402033002F20D0D3
:100C2000A7071ED50C68A40605D40C680A25AC439A
:100C30000C6001215971184C0168A142446C04D91F
:100C400014400221A140154A03E014400221144A35
:100C5000A140516000211971C16A002919D1F0BC6D
:100C600070470827B7402F42F9D02407F7D50C6802
:100C70000E25AC430C60446C012114400A46A2408E
:100C8000046C6260C163597100211971416B0029C4
:100C9000E5D0F0BC0847000080000240000402409C
:100CA00000000240002801D101207047F8B53F4EF6
:100CB00007680446B74208D23D4814213818FFF7A8
:100CC0006DFB800060643B4807E03B481421381806
:100CD000FFF764FB800060643848206402202546EA
:100CE000203568713868364908403860E168A06886
:100CF00062690843216911430843A1690843E16916
:100D00000843216A084321680A6810430860206884
:100D1000616CB0420AD289082A4A89008918C0B297
:100D2000A16414210838FFF739FB0AE08908264A34
:100D300089008918C0B2A16414210838FFF72EFB7E
:100D4000C01D2249C206E1640121D20E084690402E
:100D50002065A2688B0300209A4200D1606022794E
:100D6000A36C5206520E1A60E26C236D53606268E7
:100D7000531E032B12D85206520E154E93009B1988
:100D8000144EA665521E9607B60F0A466365B2401A
:100D9000E2651860A26DE36D536002E06065A065D6
:100DA000E065E063697128710020F8BD0804024025
:100DB000F8FFFDBF00000240F8FBFDBF0004024049
:100DC0000F80FFFF000802401C080240800802401C
:100DD000FC08024040090240F0B404469C4620341E
:100DE00023790026012B0CD001252571637900277A
:100DF000012B09D08021C163277101263046F0BC48
:100E00007047F0BC0220704702236371C763036818
:100E10001C68640864001C60C46C076D63466760EE
:100E2000446D002C02D0846DC76D6760446C1C2734
:100E30003C402F46A740046C676004686360836889
:100E4000102B03680BD099600168CA60016B002900
:100E500001680A6807D00E231A430A600BE09A6003
:100E60000268D160F2E704239A430A6001680A68C5
:100E70000A231A430A60816C0A68D303074A02D521
:100E80000B6813430B60416D002902D00B681343BC
:100E90000B600068016829430160AFE700010000B2
:100EA00070B5044600F096F90546601C02D004486F
:100EB0000078241800F08EF9401BA042FAD370BDD0
:100EC00068000020F3B50546294881B00178012962
:100ED0000AD001210170002141607D20C000FFF790
:100EE00073FD002803D03EE0022003B0F0BD296866
:100EF000204E042912D000220299D2430A60AC6825
:100F0000E9686118A1422AD901277F0369687069DD
:100F1000194A104004290DD038430CE06868716903
:100F2000012212041043014371617D20C000FFF7CC
:100F30004BFD18E0B843E1000143104801437161E3
:100F40007D20C000FFF740FD002802D002990C6010
:100F500005E0EA68A968641C8918A142D6D87169BD
:100F6000022291437161024A0021117003B0F0BD69
:100F7000740D00200020024007E0FFFF0200010086
:100F800010B57D200124C000FFF71EFD0548416912
:100F90008204114341614069002800DA00242046A0
:100FA00010BD000000200240F0B51FB407462048E5
:100FB0000E460178144601290AD001210170002152
:100FC00041607D20C000FFF7FFFC002803D020E037
:100FD000022005B0F0BD174D012F1FD06869012117
:100FE000890408436861EFF3108172B6012004CCD4
:100FF000401C04C64028FADD28698003800FFBD11D
:1010000081F310887D20C000FFF7DEFC6969B943D9
:101010006961074A0021117005B0F0BD0398696944
:101020000122114369613460BFF36F8F7060E9E79B
:10103000740D002000200240064900204A69002A61
:1010400007DA054A8A60054A8A604969002900DA98
:10105000012070470020024023016745AB89EFCD96
:101060000B680022002B6FD0F0B401240B68944071
:1010700023406AD00D79AD07AD0F012D01D0022DAF
:1010800010D1856856000327B740BD43CF68B740ED
:101090002F4387604568A5430C79E406E40F94402C
:1010A0002C4344600C79E443A40708D0C66855007B
:1010B0000324AC40A6438C68AC403443C4600C7934
:1010C000A407A40F022C0CD1D408A40027183C6A52
:1010D0005507EE0E0F25B540AC430D69B5402543CD
:1010E0003D62046856000325B540AC430D79AD0759
:1010F000AD0FB540254305604C68A403A40F47D04D
:101100009508274CAD002F193C6E9507EE0E0F2564
:10111000B540AC4305252D07A84201D1002516E0B6
:10112000204DA84201D1012511E01F4DA84201D157
:1011300002250CE01D4DA84201D1032507E01C4DFE
:10114000A84203D1042502E029E021E00525B540AD
:101150002543134C3D6625684E689D43F60200D535
:101160001D43256065684E689D43B60200D51D434A
:101170006560104C65684E689D43B60300D51D43FD
:10118000656025684E689D43F60300D51D432560C4
:101190000B68521CD34000D067E7F0BC7047704723
:1011A000001802400004005000080050000C0050DD
:1011B0000010005080180240426913460B401B0487
:1011C00091430B4383617047002A01D081617047CE
:1011D0008162704701488068704700006800002005
:1011E0000248816802788918816070476800002091
:1011F00010B50848002401688215114301600220DF
:1012000000F00AF8002801D0012401E000F028F8DD
:10121000204610BD0020024070B50F4E00243178EA
:101220000546002915D07D20C000FFF7B7F801461C
:101230000A480068FFF7B2F800F022FE002808D143
:10124000042D06D200222946401E00F02FF87560BA
:1012500000E00124204670BD6800002074000020DA
:1012600008B50A4801680122114301600068104076
:1012700000900748C26B01040A43C263C06B084078
:101280000090C81400F0F2FD08BD000040100240BC
:1012900000100240002805DBC106C90E012088406D
:1012A000014908607047000000E100E08207D30EAA
:1012B000FF229A408907090E9940002808DB83081D
:1012C00009489B001818036893430B430360704759
:1012D0000007000F0838830804489B001B18D869D2
:1012E00090430843D861704700E400E000ED00E05F
:1012F00010B5104C21680322520291430143216032
:10130000C11FFF39FA3910D10B4806210068484344
:101310000A49FFF743F86169401C490505D50028D3
:1013200005D06169401E4905F9D4002010BD032095
:1013300010BD0000007000407400002040420F000B
:10134000F0B5044683B00020009020689B4D9C4E71
:1013500080035BD500200190F06BC00007D4F16BD7
:10136000A8050143F163F16B01400120019095480C
:101370000068FF210131084392490860FFF72AFF06
:10138000074690480068C00508D4FFF723FFC01B3C
:10139000022826D88B480068C005F6D5E8690321E5
:1013A000090208400FD0216C81420CD0E86903216A
:1013B0000902EA698843012109040A43EA61EA69EA
:1013C0008A43EA61E861C00711D0FFF703FF0746CF
:1013D000E86980070BD4FFF7FDFEC11B7A48814204
:1013E00002D90320009009E0E8698007F3D5E86995
:1013F000032109028843216C0843E8610198002811
:1014000004D0F16B012000078143F1632078C0070D
:1014100005D06869616880088000084368612078A9
:101420000C278007002804DA6869A168B8430843DC
:1014300068612078400705D5686930218843E168F4
:10144000084368612078C00606D5686903218902CF
:1014500088432169084368612088C00406D568690B
:101460000321090288436169084368612088800577
:1014700006D56869032189048843A16A0843686125
:101480002088400506D56869032109058843E16A7B
:10149000084368612078800606D56869032109033E
:1014A0008843A169084368612078400606D56869C9
:1014B000032189038843E169084368612088400467
:1014C0000ED56869216B800080080843686101219E
:1014D000206B8907884203D1F06889130843F060C4
:1014E0002068000305D5686940218843616B084383
:1014F00068612068810235480BD56A698110A36B49
:101500008A431A436A61A26B8A4202D1F16801439D
:10151000F160216849020AD56969E26B8143114390
:101520006961E16B814202D1F1680143F160218878
:1015300009050DD5A969226A890889001143A961A5
:10154000216A012904D1F168012212041143F160DA
:10155000218889040CD5A969626AB9431143A9613C
:10156000616A042904D1F168012212041143F16077
:101570002168C9010ED5A969032212039143626C47
:101580001143A9610122616C5203914202D1F168B9
:101590000143F160216889010DD5A9690322120276
:1015A0009143A26C1143A961A26CD11FF93902D1F8
:1015B000F1680143F160009803B0F0BD40100240B3
:1015C000001002400070004088130000000000017D
:1015D000002801D101207047F8B5054657480E464E
:1015E00000684007400FB04219D2544F3868C00815
:1015F000C00030433860FFF7EDFD0446386840070F
:10160000400FB0420BD04E4FFFF7E4FD001BB84235
:101610006FD84A4800684007400FB042F4D12868AC
:10162000484C81070DD5400704D5A0680721090360
:101630000843A060A0680F2109028843A9680843F5
:10164000A0602878C00739D0686801280BD002282C
:101650000DD000280FD03C49032810D0C969890754
:1016600010D40120F8BD21688903FAD50AE0216869
:101670008901F6D506E021684905F2D502E0096A3C
:101680008907EED5A168C908C9000143A160FFF729
:10169000A1FD0746A0686A6838210840D200904240
:1016A0000CD0FFF797FDC11B2548814221D8A068C7
:1016B000382108406968C9008842F2D11F48016892
:1016C0004907490FB1421CD900681C49C008C00035
:1016D00030430860FFF77EFD074618480068400762
:1016E000400FB0420DD0FFF775FDC11B1448814279
:1016F00001D90320F8BD114800684007400FB042EF
:10170000F1D12878400706D5A0680721090388434E
:10171000E9680843A06000F033F8A1683C22890919
:1017200011400A4A515CC906C90EC8400849086000
:1017300008480068FFF770FDF8BD00000020024077
:10174000881300000010024040100240543B000883
:10175000740000206C000020064807490068896872
:101760001C22890A1140054A515CC906C90EC840AD
:10177000704700007400002000100240943B0008F5
:1017800010B5204CA068204A8006400F16D0A068F3
:101790008006410F501001290FD0A1688906490F1A
:1017A000022912D0A0688006400F042823D0A06828
:1017B0008006400F032821D0002010BD20680121A1
:1017C0008004400F8140104612E0E1688B07E16819
:1017D0009B0F4906490F491C032B00D01046FEF70A
:1017E000DDFDE1684904490E4843E168490F491CA1
:1017F000FEF7D4FD10BD0120C00310BD7D20000206
:1018000010BD0000001002400024F400002801D1A7
:1018100001207047F8B5044600783827C007FB4D13
:1018200000284AD0A868E96838408907890F10283D
:1018300002D008280BD001E0032908D001206268FB
:10184000000482420AD129680143296015E0286812
:10185000800332D5606800287ED02EE00523012168
:101860001B0489049A422A6802D10A432A60EAE7E3
:1018700082432A60286888432860606800280ED068
:10188000FFF7A8FC06462868800316D4FFF7A2FCE1
:10189000801B64287ED828688003F7D50DE0FFF709
:1018A00099FC06462868800307D5FFF793FC801B48
:1018B00064286FD828688003F7D4207880076ED515
:1018C000A868E96838408A070721920FC9021028E2
:1018D00002D0002826D001E0022A23D0E0680028A8
:1018E00048D0286888432169084328602868FF2178
:1018F000013108432860FFF76DFC06462868400563
:1019000007D4FFF767FC801B022843D828684005EE
:10191000F7D569687F2000028143606900020143B6
:1019200069603CE02A68520502D5E268002A13D0BB
:101930006B687F22120293436269120213436B6049
:10194000002810D128688843216908432860286846
:101950008004400F012100E08AE08140AC48FEF79E
:101960001DFDAC490860AC480068FFF755FC002835
:101970007ED114E02968FF20013081432960FFF700
:1019800029FC06462868400509D5FFF723FC801B83
:10199000022800E06DE06CD828684005F5D4207876
:1019A0009E4E000733D5A8688006400F032815D047
:1019B000A069002819D0316A012001433162FFF784
:1019C00009FC0746306A800721D4FFF703FCC01BDF
:1019D00002284ED8306A8007F7D518E0306A8007B1
:1019E00015D5A069002843D011E0306A40084000B6
:1019F0003062FFF7EFFB0746306A800707D5FFF735
:101A0000E9FBC01B022834D8306A8007F7D420785D
:101A100040077AD500200090A8688006400F04286F
:101A200049D0E86BC00008D4E96B012000070143EE
:101A3000E963E96B01400120009079480168C9051C
:101A400015D40068FF210131084375490860FFF78C
:101A5000C1FB074672480068C00508D4FFF7BAFB0F
:101A6000C01B022805D86E480068C005F6D501E005
:101A7000A6E08EE0A068012824D004210528F069A2
:101A800025D040084000F061F0698843F061A0680B
:101A9000002822D0FFF79EFBF169074689072CD466
:101AA000604EFFF797FBC01BB04272D85B48C0691D
:101AB0008007F6D521E0F069800726D5A0680028C8
:101AC0007ED022E0F06901210843F061DFE708439E
:101AD000F061F06901210843D8E7FFF77BFBF1696A
:101AE0000746890709D54F4EFFF774FBC01BB0426C
:101AF0004FD84A48C0698007F6D40098002804D01F
:101B0000E86B012109078843E8632078800626D521
:101B10000121E06989050028286810D00843286061
:101B2000FFF758FB06462868000218D4FFF752FB5F
:101B3000801B02282DD828680002F7D50FE08843C3
:101B40002860FFF747FB06462868000207D5FFF725
:101B500041FB801B02281CD828680002F7D4206AA9
:101B6000002851D0A9688906490F022966D00127AB
:101B70003F06022828680ED0B8432860FFF72AFBEA
:101B800004462868800154D5FFF724FB001B022877
:101B90004CD90320F8BDB8432860FFF71BFB06466D
:101BA0002868800107D5FFF715FB801B0228F0D8B5
:101BB00028688001F7D4A16A606AE26A084300E0FD
:101BC00061E0216B120211430843616B0843A16B72
:101BD0000843E968144A11400843E860286838431C
:101BE0002860E868012109070843E860FFF7F2FA76
:101BF00004462868800148D4FFF7ECFA001B02284D
:101C0000C7D828688001F7D53FE0000000100240E7
:101C10000024F400740000206C00002040100240FA
:101C200000700040881300008C80C111286880017A
:101C3000AAD4E86816490840E86026E00128A9D03F
:101C4000E868626A8107890F91421CD17021A26AFB
:101C50000140914217D17F21E26A0902014012023C
:101C6000914210D11F214904226B014091420AD1B7
:101C700007214906626B0140914204D1400FA16BDC
:101C80004007884201D00120F8BD0020F8BD0000C7
:101C9000FCFFFEEE002801D101207047F8B5044694
:101CA000406A0025002808D0256165612646403637
:101CB000A562707F002806D009E06168C81FFD3862
:101CC000F4D0E561F2E73577204600F05BF80222B8
:101CD0007277206801684023994301600723E16817
:101CE0001B02994201D9002001E0012000030F27C7
:101CF0003F02B94202D0994200D0A562FF23616839
:101D0000053319402127A368BF023B4019432369CB
:101D10001340227D1943D207D20F11430123A26938
:101D20005B021A401143E26938231A401143226AC8
:101D300080231A401143A26A9B011A401143226872
:101D40001160A1690422090C1140626A10231A4033
:101D50001143626B08231A4011430F23E2681B02F0
:101D60001A401143012212031040014320684160D0
:101D70002068C16952109143C161256601207077C6
:101D80000020F8BDF0B587B0002406460094019409
:101D900002940394049400682C49884254D12C483E
:101DA000026881140A4302600068084005902948CF
:101DB000416B012211434163416B11400591416B1D
:101DC000022529434163406B694628400590D003B2
:101DD0000090052001950007FFF742F93820009098
:101DE000029403946946019504941B48FFF738F95F
:101DF0001B4D1A4828601027AF601120EC60686006
:101E00006C61AC61EC6180202C6228612846FEF791
:101E100049FF002801D0FEF7D5FD7565AE62124D71
:101E20001048AC606F60EC6028606C61AC61EC6184
:101E300080202C6228612846FEF734FF002801D05C
:101E4000FEF7C0FDB565AE6207B0F0BD00300140E1
:101E500040100240001002400004005058000240B0
:101E6000DC0000206C0002403C01002003490A68AD
:101E700003235B029A4302430A607047000001405B
:101E80000B4910B4401E884202D910BC0120704793
:101E90000849486108480722C3691B021B0A4C0411
:101EA0002343C361002088610A6110BC70470000B1
:101EB000FFFFFF0000E000E004ED00E0014680319C
:101EC0000A79012A01D10220704710B401220A7157
:101ED00024228A600268136814686408640014602D
:101EE00001225207934300224266006803602020CB
:101EF00088600A7110BC1046704770477047000038
:101F0000F8B50646044680363079012833D00120E2
:101F100030712422B26022681368009313688343EF
:101F200013602268936807256D06AB430B439360EB
:101F30002546616E403500291FD020688168806881
:101F400009014F0F0E49400F0E4A095C105CC0009A
:101F5000FEF724FA68850A48C15D0838C05DC000F4
:101F6000FEF71CFA28852168009808602020B060E0
:101F700000203071F8BD0220F8BD6885F2E700004E
:101F80004C3B0008443B0008F8B506460446803642
:101F90003079012832D0012030712422B2602268C9
:101FA0001368009313688343136022689368DB000F
:101FB000DB080B4393602546616E403500291FD036
:101FC00020688168806809014F0F0E49400F0E4A52
:101FD000095C105CC000FEF7E1F968850948C15D45
:101FE0000838C05DC000FEF7D9F92885216800983F
:101FF00008602020B06000203071F8BD0220F8BDDC
:102000006885F2E74C3B0008443B00087047704786
:10201000F8B5054604468035A868EF6821688A68E7
:1020200001261206002A30DA21282ED1EFF3108083
:1020300086F310888A6880239A438A6080F3108828
:10204000E06F002808D0FEF751FD002804D0E06FB3
:10205000FEF7BEFD202839D0EFF3108086F31088FC
:1020600021680A68C0239A430A6080F31088EFF35E
:10207000108086F3108821688A680123DB059A4363
:102080008A6080F310882020A86021688868400654
:102090001AD5222F18D1EFF3108086F310888A68A2
:1020A00040239A438A6080F310882868002808D06B
:1020B000FEF71CFD002804D02868FEF789FD2028C3
:1020C00004D0204601F074F80020F8BD10202861EB
:1020D0000320F8BD70470000F8B503680446D969CD
:1020E00018689A68B74D0E462E4025468035002E5A
:1020F00076D0B54EB54F1640074037436FD0CF0767
:1021000006D0C70504D501271F622B693B432B610D
:102110008B0708D5D30706D0276802233B622B69BB
:1021200004273B432B614B0708D5D30706D027680C
:1021300004233B622B6902273B432B610B0709D524
:1021400020230340334305D02668082333622E69D9
:102150001E432E610B0509D5430107D501232668CF
:10216000DB0233622B69202633432B612B69002B62
:1021700033D089060AD520210840C9050A401043FA
:1021800004D0616F002901D0204688472869216862
:102190008968490602D42821084232D0204601F03D
:1021A00007F821688868400627D5EFF310800122E0
:1021B00082F310888B68402293438B6080F31088F1
:1021C0002868002819D0824981632868FEF7C8FC76
:1021D000002802D02868816B8847F8BD00E016E02F
:1021E0008E0614D5012720263F07064017403E43A0
:1021F0000DD0616F002970D1F8BD2046FFF76AFF4E
:10220000F8BD2046FFF766FF00202861F8BDE66EA6
:10221000012E7DD1CE067BD5C60679D51020186259
:1022200020688168264649064036002956DA296822
:102230000B685A681204120C43D0B78B974240D9EE
:10224000F28309680968890631D4EFF3108201210D
:1022500081F3108803680F02BB43036082F3108888
:10226000EFF3108081F31088226893688B439360AA
:1022700080F31088EFF3108081F310882268936850
:102280004027BB43936080F310882020E860002043
:10229000E066EFF3108081F3108821680B6810224C
:1022A00093430B6080F310882868FEF71FFC022020
:1022B0002067B08BF18B401A81B22046FFF71DFEDC
:1022C000F8BDB18B9142FBD118688006F8D5022089
:1022D00020672046FFF711FEF8BD49E0B18BF28B75
:1022E000891AF28B89B2002AF6D00029F4D0EFF3D4
:1022F0001083012282F310880668FF272137BE432E
:10230000066083F31088EFF3108082F3108800E0FA
:1023100017E023689E682F4F3E409E6080F3108830
:102320002020E8600020E0666067EFF3108082F311
:1023300010882268156810239D43156080F310886B
:10234000C5E7CE0208D5560206D501200005186261
:102350002046FFF75CFEF8BD0E060CD5012780264F
:10236000FF0506403A40164305D0A16F0029F2D080
:1023700020468847F8BD4A0614D5420612D52046A5
:10238000EFF31081012282F310881C6840229443ED
:102390001C6081F310882021A9600021816700F072
:1023A000AFF9F8BD0A0205D5420003D52046FFF774
:1023B0002DFEF8BDC901FCD50028FADA2046FFF74A
:1023C0009DFDF8BD0F080000010000102001000471
:1023D00011300008FEFFFFEF002801D101207047F7
:1023E00070B5054604468035A868002803D12871D9
:1023F000204600F027F82420A860206801684908DA
:1024000049000160A06A002802D0204600F038FD93
:10241000204600F0FFFE012812D020684168092202
:10242000D20291434160206881682A2291438160F1
:1024300020680168012211430160204600F086FDFA
:1024400070BD0000F0B599B00024064613941494B2
:10245000159416944C2168461794FDF79DFF30495A
:10246000306888425AD10120009001946846FEF7F6
:1024700067FF002801D0FEF7A5FA2A48026801216B
:1024800089030A4302600068084018902648426B9E
:1024900002210A434263406B149108401890C02007
:1024A000139003201690159413A917941F48FEF754
:1024B000D7FD204D1E482860AC60EC606C61AC61BB
:1024C0008027EC612F6132202C6268602846FEF77D
:1024D000E9FB002801D0FEF775FA80208551AE6235
:1024E000164D1548286033206860EC606C61AC6163
:1024F000EC612F6110202C62A8602846FEF7D2FB09
:10250000002801D0FEF75EFAF567002211461B2075
:10251000AE62FEF7CBFE1B20FEF7BCFE19B0F0BD8D
:1025200000380140401002400010024000040050FA
:1025300008000240300200201C00024090020020EF
:10254000F8B505468035EB68202B01D00220F8BD98
:1025500000290BD0002A09D0012483682403A34258
:1025600006D10369002B03D1CB0701D00120F8BDB0
:102570000023C366304C03680126A34211D02F4CC0
:10258000A3420ED05C6824020BD5EFF31084A4465E
:1025900086F310881C68B7063C431C60644684F3CD
:1025A00010880446816540308283002713462F61DE
:1025B0002220E8602868002817D02149C1622968D4
:1025C0002048086329682048486328688763216891
:1025D000A26D24312868FEF7FFFB002805D01020EB
:1025E00028612020E8603046F8BD206900280BD023
:1025F000EFF3108086F3108821680A68FF23013307
:102600001A430A6080F31088EFF3108086F3108875
:1026100021688A6832438A6080F31088EFF3108063
:1026200086F3108821688A6840231A438A6080F301
:1026300010883846F8BD000000800040008400404B
:1026400089300008293100081B30000870477047A6
:1026500070B5054604468035A868202801D00220C0
:1026600070BD00290BD0002A09D00123A0681B03EC
:10267000984206D12069002803D1C80701D0012063
:1026800070BD2046403021658282C28200202861D0
:102690002121A960E16F00291AD0164BCB62E36FAC
:1026A00015491963E36F15495963E16F1346886350
:1026B0002068E66F024628323046216DFEF78CFB1B
:1026C000002805D0102028612020A860012070BDBE
:1026D000216840200862EFF31080012181F3108807
:1026E00021688A6880231A438A6080F3108800205A
:1026F00070BD000061310008A53100081B300008E2
:1027000070477047FEE7000070B501201C49400289
:10271000886200251B481C4C1C4E05702B46184631
:102720000422C10702D04108614000E04108C80707
:1027300002D04808604000E04808521EF1D19900DC
:102740005B1C7050FF2BEAD9114812490570457087
:102750008581016110494161104981611049C16160
:1027600010480168102211430160016840221143A2
:1027700001600D4A07490D48FFF7E2FE70BD0000F9
:1027800000040050310000202083B8ED1004002028
:10279000F003002040080020720C0020640000209C
:1027A0001D36000800380140320400009C01002062
:1027B000F8B5704C20690178A02959D1427821469A
:1027C000A02689690125012A53D0022A50D10A88FE
:1027D000052A7DD38118091F4B780F781B023B43D4
:1027E0005BBA1F048B78C9781B021F430F43121F6B
:1027F00091B2FEF75DF8B8426AD12169C8788A784B
:102800000002104340BA20815B4A80028018A2690E
:10281000091D1288083A92B200F006FA6069067043
:1028200061698220487020696169807888702069B8
:102830006169C078C8706069052105716069FEF73B
:1028400037F86269010E51716269010C9171626918
:10285000010AD17161690872E169092088476089BC
:102860002189401E814203D14449657002200870CD
:10287000F8BD424A15700A88052AF9D38118091F44
:102880004B780F781B023B435BBA1F048B78C978E7
:102890001B021F430F43121F91B2FEF709F8B84203
:1028A000E6D125702069C178827809021143027946
:1028B00049BA090412021143427911436160C17996
:1028C00082790802104340BA60816069067000E0B6
:1028D0002DE0616981204870206961698078887085
:1028E00020696169C078C8702069616900790871E0
:1028F00020696169407948712069616980798871CE
:1029000020696169C079C87108216069FDF7D0FF4D
:102910006269010E11726269010C51726269010AE9
:1029200091726169C872E1690C208847F8BD6069DD
:1029300006706169822048702069616980788870BA
:1029400020696169C078C870616902200871052139
:102950006069FDF7ADFF6269010E51716269010C9A
:1029600091716269010AD17161690872E169092096
:102970008847F8BDF003002000480008310000201F
:10298000F0B585B00C46064610291CD0182C1CD07A
:10299000202C6BD10E213019001F03786A4613706A
:1029A0004378537083789370C078D070A008224623
:1029B000103A0290D017400F8018C01000258900EF
:1029C00040000F1A50E00A21E5E70C21E3E7284612
:1029D0000299FDF7E3FC002902D004291DD022E072
:1029E0006A46039010785378137093785370D378B5
:1029F0009370D07004216846FDF796FE694608780A
:102A00001B4A0399515C48406946087048784870F1
:102A100088788870C878C87005E0202C03D104211C
:102A20006846FDF781FEA800811903900A78684680
:102A300002714A7842718A788271C978C171042220
:102A400001A9FDF7D4FD03980019811968460078A3
:102A50000870684640784870684680788870684694
:102A6000C0786D1CC870EDB2AF42B0DC05B0F0BDEF
:102A7000163B000808B51048816B012211438163A1
:102A8000806B10400022009011460920FEF70EFCDA
:102A90000920FEF7FFFB002211460A20FEF706FC84
:102AA0000A20FEF7F7FB002211460B20FEF7FEFB83
:102AB0000B20FEF7EFFB08BD00100240F0B587B019
:102AC0000024284800940194029403940494426BD7
:102AD00002210A434263426B0A400592416B012581
:102AE00029434163416B29400591426B04210A430C
:102AF0004263406B1C4F084005900022C9013846D4
:102B0000FEF762FB01221602052031460007FEF7A0
:102B10005BFB012240211548FEF756FB012231469E
:102B20003846FEF751FB03200002009002946946EC
:102B3000019503943846FEF793FA052002946946FE
:102B40000007009601950394FEF78AFA4020009052
:102B500002946946019503940448FEF781FA07B090
:102B6000F0BD0000001002400004005000080050BA
:102B700010B511480F490160FF2105314160002166
:102B80000322816012020161C2600122416192044C
:102B90008261016220224162C26181620722C262B7
:102BA000016308214163FFF775F8002801D0FDF7A4
:102BB00009FF10BD003001407800002010B5184812
:102BC00016490160E1214902416000218160C16034
:102BD00001618161C16101620C22416242618162D5
:102BE000FFF7FAFB002801D0FDF7ECFE00210C48AE
:102BF000FFF7CAF9002801D0FDF7E4FE00210848DC
:102C0000FFF77EF9002801D0FDF7DCFE0448FFF74E
:102C100055F9002801D0FDF7D5FE10BD0038014060
:102C20009C010020FEE77047F0B504460120C00279
:102C300087B00F461546824272D8000484426FD393
:102C4000384909688A013849930F06D0920F012A42
:102C500007D1364A126A920203D4098C8905090BFE
:102C600002E0098C8905490BC90AC9020818A0426B
:102C700056D9FEF7E1F96907490F0020082915D256
:102C80000A007A4412799218974410030507090B39
:102C90000D0F07200AE0062008E0052006E00420CA
:102CA00004E0032002E0022000E00120401986B287
:102CB00060050ED1022102911F21C9066118C90ABF
:102CC00004910121059103900090694602A8FEF746
:102CD000F9F80025F00821D0F608E800C01981783D
:102CE00003780A04C17809060A43417809021943A6
:102CF0000A4381790B04C17909060B4341790079B4
:102D0000090201430B4321460120FEF74DF900283B
:102D100000D108346D1CADB2AE42DED8FEF730F9FA
:102D200007B0F0BD0075FF1FC075FF1F00200240F7
:102D300070470000F0B584B00A2A6BD8002A69D029
:102D40004418A6460125D407ED07531E64199C4676
:102D50000394002B16DD73462F4C039D1B1F6C4400
:102D6000002D03D01D7965701B1D641C1E796546FE
:102D70006D1007D008331F7866701E79A770A41CE9
:102D80006D1EF7D16346002B04DB9C006418055DC3
:102D90006C46E55404239E1A9700002E18DD7B181C
:102DA0001C1873461B1F241FF50703D025791D71BE
:102DB0001B1D241D75102D062D0E09D026791E71A0
:102DC000267A1E72083308346D1E2D062D0EF5D19D
:102DD00063460C24002B17DDE41B64180E4B039D87
:102DE00024186B44002D03D05D7825715B1C241DD5
:102DF0005E7865466D1007D09F782671DE78277261
:102E00009B1C08346D1EF7D1521E03D46B469A5C8E
:102E10000C31425404B0F0BDFFFFFFFF10B500F0CD
:102E200005F8FEF7DDF910BD7047000030B4114819
:102E3000114A4188914201D2491C41800278012304
:102E400000210E4C5B02062A0AD24588C82D05D9FE
:102E500065695D4065614180521C027030BC7047FD
:102E600042887D25ED00AA42F8D9A3614180017016
:102E700030BC704760000020FFFF000000040050DD
:102E800010B4018D090707D501684A680123DB03E7
:102E90009A43836B1A434A60018DC90707D00168C2
:102EA0004A6801235B049A43C36A1A434A60018D4E
:102EB000890707D501684A6801231B049A43036BFD
:102EC0001A434A60018D490707D501684A68012302
:102ED0009B049A43436B1A434A60018DC90607D588
:102EE0000268916801231B039943C36B19439160E6
:102EF000018D890607D501688A6801235B039A431F
:102F0000036C1A438A60018D490612D503685A681A
:102F100001210905446C8A4322435A60426C8A426B
:102F200007D10268516803235B059943836C1943F9
:102F30005160018D090607D501684A680123DB0449
:102F4000C06C9A4302434A6010BC7047F0B5054616
:102F500083B00026803504462E61FEF73BF90190D0
:102F6000206800682027000700281ADA2748009008
:102F7000002239042046019B00F09CFA002810D062
:102F8000EFF31080012181F3108821680A68802303
:102F90009A430A6080F31088AF602E71032003B05B
:102FA000F0BD20680068400728D51848009001212E
:102FB000002289052046019B00F07CFA00281DD0E4
:102FC000EFF31080012181F3108821680A68FF2344
:102FD00021339A430A6080F31088EFF310800121B7
:102FE00081F3108821688A68520852008A6080F351
:102FF0001088EF602E71032003B0F0BDAF60EF606A
:10300000E66626672E71002003B0F0BDFFFFFF01CA
:1030100010B5806AFFF75EF810BDF8B5846A2046E7
:10302000803082680546C1682368986800061AD512
:10303000212A18D1EFF31080012282F310881E6834
:10304000C027BE431E6080F31088EFF3108082F328
:103050001088226893680126F605B343936080F3D5
:1030600010882020A86020688068400604D52229A6
:1030700002D1204600F09CF82869102108432861FD
:103080002046FFF727F8F8BD70B502461168806A40
:103090000968890631D4EFF31083012181F3108888
:1030A000046825680E02B543256083F31088EFF3AA
:1030B000108381F310880468A5688D43A56083F3AD
:1030C0001088EFF3108381F310880468A568402608
:1030D000B543A56083F3108820248C231C50C36E55
:1030E000012B0AD1EFF3108381F3108801680C687B
:1030F0001025AC430C6083F3108800210167C16E7A
:10310000012902D0FFF7A2FA70BD11684968024692
:103110004032938B89B28B4200D9D183D18B591A1B
:1031200089B2FEF7EAFE70BD10B50346806A012140
:103130000167C16E012902D0FFF789FA10BD01466F
:1031400040318A8B5408CC831B685B689BB29A42DF
:1031500000D3CB83C98B511A89B2FEF7CEFE10BDC6
:1031600070B501460968806A0968890617D4EFF3CB
:103170001081012282F3108803689C688025AC438B
:103180009C6081F31088EFF3108182F3108800684F
:10319000026840231A43026081F3108870BDFFF774
:1031A000AFFA70BD10B5806AFFF7ABFA10BD000032
:1031B00030B4EFF31082012181F3108803681C689A
:1031C000FF252135AC431C6082F31088EFF3108299
:1031D00081F3108803689C680D4D2C409C6082F33D
:1031E0001088C26E012A0AD1EFF3108281F3108891
:1031F00001680B681024A3430B6082F3108820221F
:103200008C210A500021C166416730BC7047000024
:10321000FEFFFFEFF8B50446016880682569E7699D
:103220002843656900263D432843934A934B0D6824
:10323000934F3D4005430D602168486803252D03E9
:10324000A843E568284348602168A069914203D0FB
:10325000994201D0256A28438D688A4F3D40054335
:103260008D602068C16A656A090909012943C16244
:10327000854D21688548A9420AD140698007800FA1
:103280004ED001285DD002284AD0032847D15AE009
:103290007F4DA9420AD140690C25284040D004281E
:1032A0003ED008284BD00C2839D14CE0794DA942AA
:1032B0000AD140693025284032D0102841D020283A
:1032C0003DD030282BD13EE0734DA94215D0734D2F
:1032D000A94212D0724DA9420FD091420FD1456937
:1032E00003208002054008D0012080022D1A28D03A
:1032F0002D1A24D0854212D125E0002010E09942F9
:103300000DD1406903252D02284009D0FF38401E09
:1033100017D0FF38401E12D0FF38012813D01020DC
:10332000604D614F914201D0994243D100280CD0A9
:10333000022814D004280BD0082874D10DE00220F4
:10334000EEE70420ECE70820EAE7FEF705FA01E0E3
:10335000FEF716FA050002D184E00125ED03606A4C
:103360004000395A28460091FDF718F8676879003F
:103370007918814271D8390381426ED300232846DF
:103380001946009AFCF728FF0246000E0902014385
:10339000130278081818002251413A460023FCF71E
:1033A0001BFF03210902414A411A914255D8216865
:1033B000C86057E00121E269C9038A422AD1002886
:1033C00006D002280DD0042805D0082845D107E0F2
:1033D000FEF7C2F901E0FEF7D3F9050001D141E0A3
:1033E0000D46606A4000395A2846FCF7D7FF6168ED
:1033F00040004A088018FCF7D1FF01462C4A1039DA
:1034000091422AD8511C01400007400F084321680F
:10341000C86027E0002807D002280ED0042806D074
:1034200008281AD108E018E0FEF796F901E0FEF747
:10343000A7F9050001D115E00D46606A4000395A30
:103440002846FCF7ABFF61684A088018FCF7A6FF26
:103450000146174A1039914201D9012602E021683C
:1034600080B2C8602046012140304185018500209E
:103470006067A0673046F8BD0080004000840040CF
:10348000F369FFCFFFF4FF11003801404010024004
:103490000044004000480040004C00400050004004
:1034A000003C01400024F4002C3B0008FFFC0F000E
:1034B000EFFF0000FFB50446006881B00E460A9F8A
:1034C000C1693046884339D00021039881427CD1BC
:1034D00025468035781C79D0FDF77CFE0499401A8A
:1034E000B8422DD8002F2BD02068016849077AD523
:1034F000802E78D0402E76D0C169C943090737D4D1
:1035000008270762EFF31080012181F310882268F9
:103510001368FF262136B343136080F31088EFF35E
:10352000108081F3108822689368364E3340936090
:1035300080F31088E06E012805D00FE00121C4E778
:10354000032005B0F0BDEFF3108081F310882168EF
:103550000A6810239A430A6080F310882020E860EC
:103560000020E06660672F612871012005B0F0BD82
:10357000C069C043000536D401212068C902016238
:10358000EFF31080012181F3108822681368FF2671
:103590002136B343136080F31088EFF3108081F37A
:1035A000108822689368174E3340936080F3108828
:1035B000E06E01280DD1EFF3108081F310882168AF
:1035C0000B68102293430B6001E016E00BE080F3E0
:1035D00010882021E9600020E06660672961287179
:1035E000032005B0F0BD2068C1693046884307D08C
:1035F00000200399884200D16CE7002005B0F0BD9F
:103600000120F6E7FEFFFFEF10B5FDF781F9024854
:10361000FEF762FD10BD00009C01002010B50349BB
:10362000024649690248FFF713F810BDF003002075
:103630009C010020F3B5524C85B00025514AE5604D
:1036400051482261514960610F2013780B70401E70
:10365000491C521C0028F8DA4C49069A0598FCF7D8
:10366000E3FF4A48C27B017B12068918827B437BB9
:1036700012041B02D21889180A03120CA160A2803E
:10368000090701D0521CA280216910312161110467
:103690006580090C70D001273D4EFF066069B84275
:1036A0006CD33C49096889018A0F06D0890F01292A
:1036B00008D13949096A890204D43849098C890535
:1036C000090B03E03549098C8905490BC90AC90270
:1036D000C919814252D9FDF7AFFCA08A40050FD12C
:1036E00002210091019062691F21C9065118C90A7F
:1036F000029101210391049004A96846FDF7E2FBC1
:10370000608821690001421820490F2013780B704E
:10371000401E491C521C0028F8DA1C49069A0598DC
:10372000FCF782FF19480025E0602570E0682278E8
:1037300001689200B1500268A26143682362656229
:10374000E3620830A262E06001206169FDF72CFCB1
:10375000002802D16069083060612078401CC0B246
:1037600020700228E2D3FDF70BFC6088401C80B279
:103770006080A188884291D30320607007B0F0BDBB
:1037800030000020004800080040000830080020F9
:10379000100800200075FF1F00200240C075FF1FA9
:1037A000F8B53048017800291CD00021818141788A
:1037B00000291AD02C492D48FFF73CFF2C484168BE
:1037C0002C4C090E2C4D082913D000BF00BF00BFA0
:1037D000641EFCD2BFF34F8F2848C560BFF34F8FE4
:1037E00000BFFDE78189491CE0E780890528E5D213
:1037F00027E0234F3978002920D172B60168214A89
:1038000011400122520791421BD146680068FCF723
:10381000A7FC00201C49C04308601C4A1060486097
:10382000506088609060C860D06008611061486135
:10383000506188619061C861D061B04738780328D1
:1038400003D03220FDF72CFBF8BD00BF00BF00BF46
:10385000641EFCD2BFF34F8F0848C560BFF34F8F83
:1038600000BFFDE7F0030020100000200000002052
:1038700000400008FCFF00000400FA0500ED00E035
:10388000310000200000FE2F80E100E080E200E037
:1038900094B0FDF7ADFC3C216846FCF77DFD0025AA
:1038A000012010951195129540021395FDF720FD0A
:1038B0000224E0010390009440200A95059008201E
:1038C0000B9080030C900894000204950D900994CD
:1038D00000010E906846FDF799FF002801D072B6EE
:1038E000FEE707201090129502211395119410A85D
:1038F000FDF76EFE002801D072B6FEE7FFF7DEF896
:10390000FFF7B8F8FFF75AF9FFF732F9FEF7FCFEB8
:10391000FFF746FFFCE7637C777BF26B6FC53001F6
:10392000672BFED7AB76CA82C97DFA5947F0ADD472
:10393000A2AF9CA472C0B7FD9326363FF7CC34A546
:10394000E5F171D8311504C723C31896059A0712FB
:1039500080E2EB27B27509832C1A1B6E5AA0523BEA
:10396000D6B329E32F8453D100ED20FCB15B6ACBA1
:10397000BE394A4C58CFD0EFAAFB434D338545F9A9
:10398000027F503C9FA851A3408F929D38F5BCB652
:10399000DA2110FFF3D2CD0C13EC5F974417C4A7C4
:1039A0007E3D645D197360814FDC222A908846EE6B
:1039B000B814DE5E0BDBE0323A0A4906245CC2D35F
:1039C000AC629195E479E7C8376D8DD54EA96C56F8
:1039D000F4EA657AAE08BA78252E1CA6B4C6E8DDEE
:1039E000741F4BBD8B8A703EB5664803F60E613579
:1039F00057B986C11D9EE1F8981169D98E949B1E16
:103A000087E9CE5528DF8CA1890DBFE64268419930
:103A10002D0FB054BB1652096AD53036A538BF40B9
:103A2000A39E81F3D7FB7CE339829B2FFF87348EE3
:103A30004344C4DEE9CB547B9432A6C2233DEE4C12
:103A4000950B42FAC34E082EA16628D924B2765BA4
:103A5000A2496D8BD12572F8F66486689816D4A4B5
:103A60005CCC5D65B6926C704850FDEDB9DA5E15C0
:103A70004657A78D9D8490D8AB008CBCD30AF7E441
:103A80005805B8B34506D02C1E8FCA3F0F02C1AFF0
:103A9000BD0301138A6B3A9111414F67DCEA97F23B
:103AA000CFCEF0B4E67396AC7422E7AD3585E2F97B
:103AB00037E81C75DF6E47F11A711D29C5896FB78C
:103AC000620EAA18BE1BFC563E4BC6D279209ADB6A
:103AD000C0FE78CD5AF41FDDA8338807C731B11274
:103AE00010592780EC5F60517FA919B54A0D2DE56B
:103AF0007A9F93C99CEFA0E03B4DAE2AF5B0C8EB8E
:103B0000BB3C83539961172B047EBA77D626E169B3
:103B1000146355210C7D01020408102040801B36DF
:103B20006CD8AB4D081C3044586C8000010002007A
:103B30000400060008000A000C00100020004000ED
:103B400080000001010101030701000008040204D4
:103B5000080101010000000000000000000000005A
:103B60000000000000000000000000000000000055
:103B7000000000000100000002000000030000003F
:103B8000040000000600000007000000080000001C
:103B9000090000000000000000000000000000001C
:103BA000000000000100000002000000030000000F
:103BB00004000000D43B0008000000207800000052
:103BC000000100084C3C0008780000207813000039
:103BD0001C0100083235363934373538696B6D676A
:103BE000747264736E73797535333961396F656DCD
:103BF00073687A6A6E73797535333961396F656DBB
:103C000073687A6A000000000000000000000000F5
:103C100000000000000000000000000000000000A4
:103C20000000000000000000000000000000000094
:103C30000000000000000000000000000100000083
:0C3C400004000000000000000024F4005C
:04000005080000BD32
:00000001FF
