:020000040800F2
:100000008809002099010008992F0008BD290008DF
:1000100000000000000000000000000000000000E0
:10002000000000000000000000000000CB2F0008CE
:100030000000000000000000C92F00081532000871
:10004000AB010008AB010008AB010008AB010008E0
:10005000AB010008AB010008AB010008AB010008D0
:10006000AB010008AB010008AB010008AB010008C0
:10007000AB010008AB010008AB010008C132000869
:10008000AB010008AB010008AB010008AB010008A0
:10009000AB010008AB010008AB010008AB01000890
:1000A000AB010008AB010008AB010008AB01000880
:1000B000AB010008AB010008AB01000800F002F83A
:1000C00000F03EF80CA030C8083824182D18A246BD
:1000D000671EAB4654465D46AC4201D100F030F895
:1000E0007E460F3E0FCCB6460126334200D0FB1AA7
:1000F000A246AB4633431847D0380000F038000022
:10010000103A02D378C878C1FAD8520701D330C860
:1001100030C101D504680C60704700000023002442
:1001200000250026103A01D378C1FBD8520700D32E
:1001300030C100D50B6070471FB51FBD10B510BD95
:1001400000F09CF91146FFF7F7FF03F05BFB00F0AE
:10015000B4F903B4FFF7F2FF03BC00F0BBF90000F1
:1001600070B505460C46164602E00FCC0FC5103E92
:10017000102EFAD2082E02D303CC03C5083E042E5B
:1001800007D301CC01C5361F03E021782970641C18
:100190006D1C761EF9D270BD07488047074800479E
:1001A000FEE7FEE7FEE7FEE7FEE7FEE70448054957
:1001B000054A064B704700008D320008BD0000085C
:1001C0008803002088090020880500208805002079
:1001D00010B5202A04DB0146203A9140002010BDD2
:1001E000914020239C1A0346E3401943904010BDE0
:1001F000034610B50B439B070FD1042A0DD308C843
:1002000010C9121FA342F8D018BA21BA884201D9E6
:10021000012010BD0020C04310BD002A03D0D30729
:1002200003D0521C07E0002010BD03780C78401C5E
:10023000491C1B1B07D103780C78401C491C1B1B55
:1002400001D1921EF1D1184610BDF8B5042A2CD365
:10025000830712D00B78491C0370401C521E830781
:100260000BD00B78491C0370401C521E830704D02E
:100270000B78491C0370401C521E8B079B0F05D046
:10028000C91ADF002023DE1B08C90AE0FFF768FF58
:10029000F8BD1D4608C9FD401C46B4402C4310C0A3
:1002A000121F042AF5D2F308C91A521EF0D40B7893
:1002B000491C0370401C521EEAD40B78491C037081
:1002C000401C012AE4D409780170F8BD01E004C0A3
:1002D000091F0429FBD28B0701D50280801CC907A6
:1002E00000D00270704700290BD0C30702D0027003
:1002F000401C491E022904D3830702D50280801CBA
:10030000891EE3E70022EEE70022DFE7020A087019
:100310004A70020C8A70020ECA70704700220309EC
:100320008B422CD3030A8B4211D300239C464EE010
:1003300003460B433CD4002243088B4231D30309CC
:100340008B421CD3030A8B4201D394463FE0C3097E
:100350008B4201D3CB01C01A524183098B4201D396
:100360008B01C01A524143098B4201D34B01C01A81
:10037000524103098B4201D30B01C01A5241C308F9
:100380008B4201D3CB00C01A524183088B4201D368
:100390008B00C01A524143088B4201D34B00C01A54
:1003A0005241411A00D201465241104670475DE069
:1003B000CA0F00D04942031000D3404253400022EC
:1003C0009C4603098B422DD3030A8B4212D3FC2295
:1003D000890112BA030A8B420CD3890192118B4214
:1003E00008D3890192118B4204D389013AD092112A
:1003F00000E08909C3098B4201D3CB01C01A5241E5
:1004000083098B4201D38B01C01A524143098B42AD
:1004100001D34B01C01A524103098B4201D30B0196
:10042000C01A5241C3088B4201D3CB00C01A5241BB
:1004300083088B4201D38B00C01A5241D9D24308A2
:100440008B4201D34B00C01A5241411A00D20146DF
:10045000634652415B10104601D34042002B00D549
:100460004942704763465B1000D3404201B500200B
:10047000C046C04602BD704770477047754600F0E1
:1004800025F8AE46050069465346C008C0008546BB
:1004900018B020B5FFF78AFE60BC00274908B646B1
:1004A0000026C0C5C0C5C0C5C0C5C0C5C0C5C0C583
:1004B000C0C5403D49008D46704710B50446C04652
:1004C000C0462046FFF745FE10BD000000487047BB
:1004D0002403002001491820ABBEFEE726000200DD
:1004E00070470000FEB51446024600291CD1042BBB
:1004F0001AD3A07821780704E078000607436078D3
:10050000000208430743384600F0B2F900280BD038
:10051000FF3A213A09D0022A11D0042A04D10C2B27
:1005200002D3201D00F0B8F9FEBD0C2BFCD36946A8
:10053000204600F043FB684602F0ACFCFEBD0C2BED
:10054000FCD3A078E178000409060843617822789A
:1005500009021143084300902179684601716279CC
:100560004271E079A37904021C436846C480504874
:10057000002605462035042A4ED006DC012A0BD081
:10058000022A15D0032A04D11FE00F2A5BD0102ABB
:1005900069D00223009652E005460484454800686D
:1005A000846300F071F9288C00230122009029E077
:1005B0000546448440480068446300F065F9002320
:1005C000688C02221146009039E0642C00D9642422
:1005D000002907D001290ED0FF2915D001230322BD
:1005E00000962CE02C7100F04FF9002328790322AB
:1005F0001946009023E06C7100F046F968790023F9
:100600000322009001211AE02C716C7100F03CF97A
:1006100000230322009411E02849642C01D26424B1
:1006200002E08C4200D90C46C4840485204602F0C6
:10063000EBFB00F029F9009400230422FF21384647
:1006400000F0A2FBFEBD0024194800F0E5F80028E8
:1006500004D01B4806701B48066000E004242346B3
:100660000F220096EAE70446008C00230090012246
:100670001946384600F088FB608C00900023022267
:100680000121384600F080FB2879002300900322E6
:100690001946384600F078FB687900900023032261
:1006A0000121384600F070FBE08C0090C4E70000A8
:1006B000300200203C010020D4010020204E000028
:1006C000180000202800002010B5084C6078002891
:1006D0000AD0074800F0A0F8002805D005490020FE
:1006E000087005490860607010BD0000100000200F
:1006F000300200201800002028000020094800785F
:1007000000280DD008480168491C02D00168491C26
:10071000016000680549884202D3054901204870FC
:1007200070470000180000202800002088130000F7
:100730001000002010B53C2100F0DEF810BD10B50F
:100740000446FFF7F7FFE16B814201D1012010BDA4
:10075000002010BD10B5044600F018F80A492068C2
:10076000884209D1A088012806D12046FFF7E7FF7B
:10077000002801D0012010BD204600F00FF82046CF
:1007800000F04AF8002010BD414A504110B5402207
:100790000149FFF7E5FC10BD00F80108F8B5044673
:1007A0004021FFF7B1FD184801252060A58000F029
:1007B000E1F921460C31A06002F0F0FB25752646D8
:1007C0000220163611A26075771C104603F050F80F
:1007D00030701A223A701223237622770C22627725
:1007E0001420A577208460842046322120300171B6
:1007F0004171C821E184218500218172C172216388
:1008000061630176F8BD0000414A50414170722099
:10081000203220323032360070B50446FFF78AFFAE
:10082000104EE063304600F081F80F4D68680028F4
:1008300011D140222146304600F0E0F8E868002857
:1008400009D1A868002806D1402221463046FFF78A
:10085000CFFC002801D0002070BD0449A0680860CA
:10086000012070BD00F801081800002008000020D9
:10087000002803D003490968884201D1012070474C
:10088000002070470800002002480121017000216B
:10089000016170471800002010B50122034614467C
:1008A0000021585C002808D00022202806D000240F
:1008B00020385E2802D9002010BD0024491CC9B28E
:1008C0000829EED322430B48002A07D001460C39F1
:1008D0008A680146104602F061FB03E008221946CF
:1008E000FFF7B3FC03480C38FFF796FF02F0EAFB72
:1008F000012010BD3C02002070B50022D24300242C
:10090000094D0DE0035D5A400023D60702D052087E
:100910006A4000E052085B1CDBB2082BF5D3641C74
:100920008C42EFD3D04370BD2083B8ED70B588B052
:100930000021019102910391049100912649042321
:100940000968264C8A012449950FC031098C890514
:10095000890D002D05D0950F012D04D1256AAD021A
:1009600001D48D0200E04D020126F606AE191F25C6
:10097000ED0686420DD80123DB03960F05D0920FBA
:10098000012A04D1226A920201D4890200E04902BC
:10099000401A13494019C00A0B60124908600390BD
:1009A000012002210490029301910F48206100F080
:1009B000B1FD694601A800F057FD0C4908600C49DB
:1009C0000098086020690B4908400B49086000F056
:1009D0008DFD08B070BD00000075FF1F00200240B3
:1009E0002C00002030000020FBC308001C00002069
:1009F00034000020FAC3000020000020F7B50025D5
:100A0000564982B0681E1746086055490860564826
:100A10005449016100F07EFD92E00024E443002689
:100A2000019419E0F200FF2000210092FFF7D0FBB3
:100A3000C343CA4301981C4002400192039800211D
:100A4000405D009AFFF7C4FB019A044311436D1CFB
:100A5000761C0191082E01D2BD42E3D300F02EFE98
:100A6000064616E000F02AFE811B7D20C000814270
:100A70000FD93A490320086039480168491C01D15F
:100A800002990160384800693849084038490860CF
:100A900059E0354800698003800FE3D1324E314878
:100AA00030617069012108437061EFF3108072B604
:100AB00002990C60BFF36F8F029A019980F310883E
:100AC000516000F0FBFD04461AE000F0F7FD011B49
:100AD0007D20C000814213D92049032008602048AE
:100AE0000168491C01D1029901601F4801691F4A30
:100AF00011401F4A1160416949084900416122E0E3
:100B000030698003800FE0D1706940084000706157
:100B1000316916480140164801600068002809D074
:100B20000E49012008600E480168491C0BD102994A
:100B3000016008E00949002008600298083002902E
:100B4000BD4200D269E708480169084801400848E9
:100B5000016000F0CBFC05B0F0BD000024000020D7
:100B600038000020FBC3080000200240FAC3000048
:100B700020000020054806C800684A404240100096
:100B800002D1012000060843704700009075FF1F46
:100B900010B50748074980680860074800F04EFC18
:100BA00000220121044800F0DDF902F063FA10BDD3
:100BB00030020020080000207400002010B5827868
:100BC000C37812041B061A43437804781B0223439C
:100BD0001A430A6002790A7142794A71827AC37AA9
:100BE00012041B061A43437A047A18022043024374
:100BF0008A6010BD00B59BB03BE06B4610AA402157
:100C00002D4800F087FA002839D11398030002F02C
:100C1000BBFD1027090B0D0F11131517191B1D1FF5
:100C20002123252701231CE002231AE0032318E0D7
:100C3000042316E0052314E0062312E0072310E046
:100C400008230EE00C230CE010230AE0142308E034
:100C5000182306E0202304E0302302E0402300E0D4
:100C600000231649012008706A4611991098FFF771
:100C700039FC4021104800F043FA0028BDD110484B
:100C80001099016011994160129981601399C160B6
:100C90001499016115994161169981611799C16192
:100CA0001899016219994162402269462830FFF77C
:100CB00057FA1BB000BD0000740000205400002053
:100CC0007002002010B58CB0002002F02BF8044612
:100CD000012002F027F819490A6869460A70130AC8
:100CE0004B70130C8B70120ECA700C71220A4A7171
:100CF000220C8A71220ECA710872020A4A72020C10
:100D00008A72000EC872242103A8FFF7FDFAFF20A3
:100D10002230039009210020069101210905049049
:100D200008910590490007900A9009910B906A4636
:100D300003A9034800F091F90CB010BD0800002091
:100D40007400002030B589B00C4605462421684661
:100D5000FFF7DAFA09210020039101210095090526
:100D60000190059102904900049007900691089027
:100D700022466946034800F070F9002800D001209F
:100D800009B030BD74000020FEB50026089D009615
:100D900001966C4602962070070A6770070CA770D0
:100DA000000EE07021716271A371E6712572280A4C
:100DB0006072FF200C2269462430FFF7C3FFFEBD9E
:100DC0000020704772B6FEE7002070470020704791
:100DD000002070470020704730B51A4C3523026858
:100DE00017491B01A24200D11749803201641468DF
:100DF0001F252D04AC43858E2D042C4314600A4618
:100E0000703242640268803214680F252D06AC43AC
:100E1000058F2D062C4314600A46B0328264D83206
:100E2000C264132252018A1802654F22D2008A1826
:100E300042650022C81800E004C18142FCD330BDE5
:100E400000B400400068004050B70040F0B58D6825
:100E50000C692C4360C90839002E16D00126B6074C
:100E600035432C438E69CD690F8C35434E693F065F
:100E70003E4335438E89406D3604354348267343DF
:100E8000C01830C000230B4F0EE0AD04E9E7D418C2
:100E9000E678D55C36063543A678647836042402B5
:100EA0002643354320C01B1DCC683C5D9C42EED8D8
:100EB000F0BD00007539000803494A6901231B048D
:100EC000184302434A6170470020024010B5084BA6
:100ED0005A69084C224001246403042801D02243AB
:100EE00000E0A243C800044910430843586110BD04
:100EF0000020024007E0FFFF02000100F8B50446B1
:100F000000F0DCFB032706463F04124D06E0601CA0
:100F100004D000F0D3FB801BA04213D228693842D2
:100F2000F5D128690C4908400C4929610CD00C49BD
:100F300048600120F8BD601C06D000F0BFFB801B9C
:100F4000A04201D30320F8BD28694003F3D4002058
:100F5000F8BD000000200240FAC30000FBC30800F7
:100F600008030020F7B55C22125CCB0582B0019328
:100F7000012A08D0022A06D0016E0222114301661E
:100F8000012005B0F0BD0668B26DCB0400930B04E0
:100F90009C460B024F078D068C039E46002F01D006
:100FA000D7071BD06F0F01D0970717D5019F7F0F71
:100FB00001D0570712D5009F3F0F01D017070DD55D
:100FC00063465F0F01D0D70608D5A70F01D097065B
:100FD00004D573469F0E05D0570603D4F76D012341
:100FE0001F43F7654B0701D0D3071BD16B0F01D00F
:100FF000930717D4019B5B0F01D0530712D4009BBA
:101000001B0F01D013070DD463465B0F01D0D3062D
:1010100008D4A30F01D0930604D473469B0E06D0C8
:10102000520604D50268D36D02242343D3650A0611
:1010300005D502688032D36D049C2343D365CA056D
:1010400005D502688032136E049C23431366006842
:10105000426D0A434265002093E770B50446403074
:10106000007F022802D0206E082107E0206880302F
:10107000436C9B0206D5206E01214902084320667D
:10108000012070BD406C8003850F2B462046FFF782
:10109000DDFE01202168A8408031C864A0650020E1
:1010A00070BD10B55C22125C012A07D0022A05D05F
:1010B000016E022211430166012010BD0A68002A58
:1010C0000ED00A7B0B6952071A430B7A4C694968A8
:1010D0009B07406C2343C90040180CC0002010BD82
:1010E0000B7A4A699B071A430B7B0C8ADB062404A4
:1010F00049682343006C1A43890040180260EDE7F9
:1011000000688030402903D080690007000F7047D5
:101110000069FAE7F0B59C465C231B5C0024022BB7
:1011200003D0016E0822114356E0FF250135036804
:1011300040293ED080339E6936074BD09D69ED0132
:1011400003D51D68ED0500D501249B699B059B0F08
:101150001D19C46C48236B43E41801262368B607A5
:101160003340536023683AD0DB00DB08136001266C
:10117000236876073340936023687612DB0FDB0722
:101180001361A3889BB2D36163681B031B0FD360F9
:1011900063683340536163687600334093616368EA
:1011A00000265B005B0E13626368DB0F083453623A
:1011B0001CE080331E6936070CD01D69ED0103D594
:1011C0001D68AD0500D501241B699B059B0F1D19EA
:1011D000846CBFE7016E294301660120F0BDDB008E
:1011E0005B0DC3E7A75D63469F55761C074FD36829
:1011F000FB5CB342F6D80068402903D08030C5615B
:101200000020F0BD80304561FAE700007539000824
:1012100000688030406C4007400F7047F8B504000C
:1012200005D025464035287F002802D006E0012061
:10123000F8BD00206877204600F0C2F82068816978
:1012400010229143816100F039FA0746012604E03B
:1012500000F034FAC01B0A2810D820688069000703
:10126000F6D4206881693143816100F027FA07468E
:101270000AE000F023FAC01B0A2805D9206E30438B
:10128000206603202877D2E720688069C007F0D065
:1012900020688169022211438161474821688142A7
:1012A00002D1464960680860207C402101282068FE
:1012B00082693AD00A438261607C01218903012856
:1012C0002068826933D08A438261A07C01210903AE
:1012D0000128206882692CD00A43826121688869CC
:1012E000032212029043A26810438861206881693A
:1012F000A4229143816121680A69102082430A6116
:10130000E168012917D000291DD02022022916D01A
:1013100021688B6980273B438B6121680B690343FC
:101320000B61E06803280AD00DE08A43C3E70A4353
:10133000CAE78A43D1E720688169042201E0206876
:10134000816911438161207E7F2140064906401852
:10135000E1690902FF3901390843216A491E08433E
:10136000A18A0A0401210904521A10432268D0619B
:101370000320A2680002824210D1E26AA06A12022F
:10138000FF3A401E013A1043226B1201103A1043FB
:10139000A28C1204511A08432168C860206880306A
:1013A000016CE26B114301642046FFF715FD00203C
:1013B000A06520662E77F8BD0064004000650040FF
:1013C00010B59AB00446142113A8FEF79DFF4C21D6
:1013D0006846FEF799FF17492068884228D1012006
:1013E0004006002400901294684600F0FBF90028A3
:1013F00001D0FFF7E7FC1048C26B81140A43C263B7
:10140000C26B0A401892416B012211434163406B49
:101410001594104018900320C002139002201490DD
:10142000032016901790052013A9000700F086F8F6
:101430001AB010BD00640040001002400146403167
:101440000A7F012A05D0016E0422114301660120A2
:10145000704702220A7701688A69520852008A613D
:101460000021016608467047F8B51E4E04463078E4
:101470000F4601280AD001203070002070607D20C6
:10148000C000FFF73BFD002802D028E00220F8BD95
:101490002168042904D00021C9433960A56814E0FB
:1014A0006068FFF709FD7D20C000FFF727FD16E00B
:1014B00029466068FFF70AFD7D20C000FFF71EFD8A
:1014C000002801D03D6005E06D1CE268A168891824
:1014D000A942EDD804494A6902239A434A6100218E
:1014E0003170F8BD080300200020024010B57D20B7
:1014F0000124C000FFF702FD054841698204114341
:1015000041614069002800DA0024204610BD000037
:1015100000200240064900204A69002A07DA054AED
:101520008A60054A8A604969002900DA012070470B
:101530000020024023016745AB89EFCDF0B50023C1
:1015400003249DE001259D402A4072D00E79B60704
:10155000B60F012E01D0022E16D186682746B4465A
:101560005E00B646B7406646BE43B446CF68764690
:10157000B7406646374387604668AE430D79ED064F
:10158000ED0F9D40354345600D79ED43AD0708D023
:10159000C5685F002646BE40B5438E68BE402E43F8
:1015A000C6600D79AD07AD0F022D0ED1DD08AD007F
:1015B0002D18AC462D6A5E07F60E0F27B740BD43C7
:1015C0000F69B7402F4365462F6205685F002646C6
:1015D000BE40B5430E79B607B60FBE402E43066037
:1015E0004D68AD03AD0F4AD09E08284DB600751961
:1015F000AC462D6E9E07F60E0F27B740BD4305275C
:101600003F07B84201D1002715E0214FB84201D170
:10161000012710E01F4FB84201D102270BE01E4FF7
:10162000B84201D1032706E01C4FB84202D104277B
:1016300001E024E00527B7402F43144D6646376686
:101640002D684E689543F60200D515430F4F3D6057
:101650007D684E689543B60200D515437D600B4EFC
:10166000803675684F689543BF0300D51543756094
:1016700035684F689543FF0300D5154335605B1C03
:101680000A681546DD4000D05CE7F0BD0018024056
:101690000004005000080050000C005000100050E2
:1016A000426913460B401B0491430B43836170470F
:1016B000002A01D0816170478162704701488068CB
:1016C0007047000064000020024881680278891891
:1016D000816070476400002010B50848002401684C
:1016E000821511430160022000F00AF8002801D0A1
:1016F000012401E000F028F8204610BD002002403F
:1017000070B50F4E002431780546002915D07D2094
:10171000C000FEF703FE01460A480068FEF7FEFD22
:1017200000F05CFD002808D1042D06D200222946D5
:10173000401E00F02DF8756000E00124204670BDC9
:10174000640000207000002008B50A4801680122EA
:101750001143016000681040009006484038C26B99
:1017600001040A43C263C06B08400090C81400F033
:101770002BFD08BD40100240002805DBC106C90E44
:1017800001208840014908607047000000E100E046
:1017900010B502F007F810BD10B50F4C21680322F8
:1017A0005202914301432160C11FFF39FA390ED122
:1017B0000A480621006848430949FEF7AFFD401C6E
:1017C00002E0002805D0401E61694905F9D40020D7
:1017D00010BD032010BD000000700040700000200C
:1017E00040420F00FEB5044600680027984D994E10
:1017F000800355D500200090F06BC00007D4F16B3A
:10180000A8050143F163F16B01400120009092486B
:101810000168821511430160FFF750FF019005E058
:10182000FFF74CFF0199401A022825D88A48006822
:10183000C005F5D5E8690321090208400FD0216CE5
:1018400081420CD0E86903210902EA698843012139
:1018500009040A43EA61EA698A43EA61E861C00768
:101860000FD0FFF72BFF019008E0FFF727FF01994A
:10187000411A7A48814201D9032709E0E8698007C3
:10188000F3D5E869032109028843216C0843E86124
:101890000098002804D0F16B012000078143F16318
:1018A0002078C00705D06869616880088000084317
:1018B00068612078800705D568690C218843A16894
:1018C000084368612078400705D56869302188435E
:1018D000E168084368612078C00606D5686903217D
:1018E000890288432169084368612088C00406D5BD
:1018F0006869032109028843616908436861208897
:10190000800506D56869032189048843A16A0843D4
:1019100068612088400506D5686903210905884368
:10192000E16A084368612078800606D5686903216A
:1019300009038843A169084368612078400606D5F9
:101940006869032189038843E16908436861208845
:1019500040040ED56869216B8000800808436861E7
:101960000121206B8907884203D1F068891308435D
:10197000F0602068000305D5686940218843616BE9
:10198000084368612068810235480BD56969821077
:10199000A36B914319436961A16B914202D1F16834
:1019A0000143F160216849020AD56969E26B81430C
:1019B00011436961E16B814202D1F1680143F16039
:1019C000218809050DD5A969226A89088900114372
:1019D000A961216A012904D1F1680122120411438D
:1019E000F160218889040DD5A9690C229143626AAE
:1019F0001143A961616A042904D1F168012212042A
:101A00001143F1602168C9010ED5A96903221203AF
:101A10009143626C1143A9610122616C52039142AE
:101A200002D1F1680143F160216889010DD5A969EE
:101A3000032212029143A26C1143A961A26CD11F2F
:101A4000F93902D1F1680143F1603846FEBD00006A
:101A50004010024000100240007000408813000057
:101A600000000001F8B50F46060043D04D4D286830
:101A70004007400FB84213D22868C008C00038435E
:101A80002860FFF71BFE044605E0FFF717FE011B69
:101A90004548814261D828684007400FB842F4D1D8
:101AA0003068424C81070DD5400704D5A068072156
:101AB00009030843A060A0680F2109028843B168A8
:101AC0000843A0603078C00732D0706801280AD07F
:101AD00002280BD000280FD03449403103280ED003
:101AE000C969890704E02168890301E02168890147
:101AF000002906DB0120F8BD21684905F8E7096ADD
:101B0000EFE7A168C908C9000143A160FFF7D6FD4E
:101B1000009006E0FFF7D2FD0099411A2248814269
:101B20001BD8A068382108407168C9008842F1D1EB
:101B300028684007400FB84217D91A480168C908F9
:101B4000C90039430160FFF7B9FD054607E0FFF71B
:101B5000B5FD411B1448814201D90320F8BD11484D
:101B600000684007400FB842F1D13078400706D5F1
:101B7000A068072109038843F1680843A06000F0CA
:101B80001DF8A1683C2289091140094A515CC90627
:101B9000C90EC8400749086007480068FFF7B0FD54
:101BA000F8BD000000200240881300000010024031
:101BB00088390008700000206800002010B5204C13
:101BC000A068204A8006400F16D0A0688006410F0A
:101BD000501001290FD0A1688906490F022912D09F
:101BE000A0688006400F042823D0A0688006400F1C
:101BF000032821D0002010BD206801218004400F5F
:101C00008140104612E0E1688B07E1689B0F4906AE
:101C1000490F491C032B00D01046FEF77FFBE168FB
:101C20004904490E4843E168490F491CFEF776FB19
:101C300010BD0120C00310BD7D20000210BD0000BA
:101C4000001002400024F400F8B504007ED0207893
:101C50003827C007FE4D002846D0A868E9683840FC
:101C60008907890F102802D008280BD001E003292A
:101C700008D001206268000482420AD12968014329
:101C8000296015E0286880032ED560680028DDD023
:101C90002AE0052301211B0489049A422A6802D103
:101CA0000A432A60EAE782432A602868884328605A
:101CB000606800280CD0FFF701FD064604E0FFF73E
:101CC000FDFC801B642873D828688003F7D50BE0DF
:101CD000FFF7F4FC064604E0FFF7F0FC801B6428E5
:101CE000F1D828688003F7D42078800769D5A868E0
:101CF000E96838408A070721920FC902102802D0EC
:101D0000002813D001E0022A10D0E068002846D055
:101D1000286888432169084328602868FF21013129
:101D200008432860FFF7CAFC06462CE02A685205E3
:101D300002D5E268002A89D06A687F231B029A4391
:101D400063691B021A436A60002800E08DE00ED12F
:101D50002868884321690843286028680121800495
:101D6000400F8140BB48FEF7D9FABB490860BB4829
:101D70000068FFF7C5FC002877D122E0FFF79EFC42
:101D8000801B02289FD828684005F7D568687F2106
:101D900009028843616909020843686011E0296803
:101DA000FF20013081432960FFF788FC064605E0EB
:101DB000B5E0FFF783FC801B022884D82868400523
:101DC000F7D42078A64E00072ED5A8688006400FCD
:101DD00003280AD0A0690028306A16D001210843E0
:101DE0003062FFF76BFC07460BE0306A80071BD5BB
:101DF000A06900289FD017E0FFF760FCC01B0228F5
:101E0000C0D8306A8007F7D50EE040084000306245
:101E1000FFF754FC074604E0FFF750FCC01B022804
:101E20007DD8306A8007F7D4207840076BD5A86842
:101E300000278006400F042818D0E86BC00008D4A3
:101E4000E96B012000070143E963E96B01400127C9
:101E5000009184480168C90519D4016882151143AD
:101E60000160FFF72BFC00900DE083E0F069800734
:101E700049D5A06800287DD045E0FFF71FFC0099F8
:101E8000401A02284BD877480068C005F5D5A168EC
:101E9000012910D004200529F16911D04908490011
:101EA000F161F1698143F161A068002816D0FFF764
:101EB00005FC00900EE0F06901210843F061F3E7B2
:101EC0000143F161F7E7FFF7F9FB0099411A664812
:101ED000814224D8F0698007F5D50DE0FFF7EEFBCD
:101EE000009006E0FFF7EAFB0099411A5E48814244
:101EF0007FD8F0698007F5D4002F04D0E96B01206A
:101F000000078143E9632078800624D50120E16938
:101F100080050029296810D00143296000E068E0AD
:101F2000FFF7CCFB064604E0FFF7C8FB801B022846
:101F30005FD828680002F7D50DE081432960FFF7DC
:101F4000BDFB064604E0FFF7B9FB801B022850D812
:101F500028680002F7D4206A002844D0A9688906BE
:101F6000490F02294FD0012636060228286807D0DB
:101F7000B04300E07FE02860FFF7A0FB04463AE0B2
:101F8000B0432860FFF79AFB074604E0FFF796FB93
:101F9000C01B02282DD828688001F7D4A16A606A86
:101FA000E26A0843216B120211430843616B084344
:101FB000A16B0843E9682D4A11400843E86028688E
:101FC00030432860E868012109070843E860FFF70B
:101FD00075FB044604E0FFF771FB001B022808D8DC
:101FE00028688001F7D548E0FFF768FB001B02284E
:101FF00001D90320F8BD28688001F5D4E8681C49A0
:102000000840E86039E00128F4D0E868626A810796
:10201000890F91422FD17021A26A014091422AD1A9
:102020007F21E26A090201401202914223D11F215D
:102030004904226B014091421DD107214906626B80
:102040000140914217D1400FA16B4007884211E037
:10205000001002400024F4007000002068000020FE
:102060004010024000700040881300008C80C111B5
:10207000FCFFFEEE01D00120F8BD0020F8BDF8B550
:1020800004000CD0606A002500280AD02561656133
:1020900026464036A562707F002808D00BE001205C
:1020A000F8BD6168C81FFD38F2D0E561F0E735770B
:1020B000204600F05BF80222727720680168402316
:1020C000994301600723E1681B02994201D900206E
:1020D00001E0012000030F273F02B94202D09942DC
:1020E00000D0A562FF236168053319402127A3684A
:1020F000BF023B40194323691340227D1943D20795
:10210000D20F11430123A2695B021A401143E26915
:1021100038231A401143226A80231A401143A26ACD
:102120009B011A40114322681160A1690422090C25
:102130001140626A10231A401143626B08231A404F
:1021400011430F23E2681B021A40114301221203BC
:1021500010400143206841602068C16952109143DA
:10216000C1612566012070770020F8BD10B586B0EA
:10217000044614216846FEF7C7F8104920688842D3
:102180001AD10F48C26BC9130A43C263C26B0A401B
:102190000592426B02210A434263406B0191084061
:1021A00005903820009000200290039009200490B0
:1021B00069460448FFF7C2F906B010BD003C004074
:1021C000001002400004005003490A6803235B0228
:1021D0009A4302430A60704700000140094910B564
:1021E000401E884201D9012010BD074C60610321C7
:1021F000081F01F0D7FA0020A0610720206100200D
:1022000010BD0000FFFFFF0000E000E070477047D6
:102210007047000030B5034620331A7F012A49D0A9
:1022200001221A770325CA682D02AA438D68006827
:102230002A430125AD02AA434D6800242A43012503
:10224000ED02AA430D682A4301252D03AA430D6917
:102250002A4301256D03AA434D692A430125AD0395
:10226000AA430D6B2A430F252D04AA430D8B2D0481
:102270002A4301252D07AA43CD692A430E4DA842C2
:1022800014D10F252D05AA430D8D2D052A430125B7
:102290002D06AA430D6A2A4301256D06AA434D6AFD
:1022A000C96A2A4301256D07AA430A4342641C7781
:1022B000002030BD022030BD002C0140F0B50346A7
:1022C00020331A7F012A2DD001221A7702225A7751
:1022D00005686A68AC68144EB54204D10F273F0503
:1022E000BA434F683A437027BA430F6817436F6089
:1022F0000068B0420CD001229207904208D00B4AED
:10230000904205D00A4A904202D00A4A904204D133
:1023100080228968944321438160012058770020FE
:102320001877F0BD0220F0BD002C014000040040F1
:10233000000800400040014070B5040005D025466B
:102340002035687F002802D006E0012070BD002003
:102350002877204600F016F802206877211D2068B3
:1023600001F000F8012240342272AA77EA77227045
:102370006270A270E27022716271A271E2716A777A
:10238000002070BD08B500680121890788420FD17F
:102390000848C16B01221143C163C06B1040002289
:1023A000009011460F20FFF7F3F90F20FFF7E4F933
:1023B00008BD000000100240014620314A7F012A7A
:1023C00001D00120704702224A770168CB680122C0
:1023D0001343CB6000680E4988420BD091078842B6
:1023E00008D00C49884205D00B49884202D00B49DD
:1023F000884207D181680A4B1940062905D0DB1FA6
:10240000994202D00168114301600020704700002A
:10241000002C014000040040000800400040014042
:10242000070001000168CA6852085200CA600168CA
:102430000A6A084B1A4207D10A6A9B101A4203D152
:102440000A68520852000A600121203041770020BA
:102450007047000011110000F8B50546044620350C
:10246000287F0026012817D001272F7702206877C0
:10247000226890682F4B1840FF231B0298439060FE
:102480000868502838D00EDC20284FD006DC002801
:102490004CD010281ED149E00220F8BD302845D08C
:1024A000402817D13AE060282ED0702818D0012299
:1024B0001203801A0FD090420CD1CB684A68896809
:1024C000206800F0B6FF2068816801229203114362
:1024D000816000E001266F77002028773046F8BD44
:1024E000CB684A688968206800F0A3FF2168886883
:1024F000772210438860EEE7CA684968206801F0D7
:102500001FF95021206806E0CA684968206801F078
:1025100028F96021206800F097FFDCE7CA68496865
:10252000206801F00DF940212068F4E72268014697
:102530001046F0E788FFCEFF70470000F8B504466C
:102540000068C66805690027A907002913DAB107E2
:1025500011D5F91E0161012020772068806980076C
:10256000204602D0FFF7E8FF04E000F0C5F820465F
:1025700000F0B0F92777680716D5700714D5042046
:102580002168C043086102202077206880698005A7
:10259000800F204602D0FFF7CFFF04E000F0ACF838
:1025A000204600F097F92777280715D5300713D56F
:1025B00008202168C0430861042020772068C06992
:1025C0008007204602D0FFF7B7FF04E000F094F840
:1025D000204600F07FF92777E80616D5F00614D5D7
:1025E00010202168C0430861082020772068C06956
:1025F0008005800F204602D0FFF79EFF04E000F028
:102600007BF8204600F066F92777E80708D0F00746
:1026100006D001202168C0430861204600F0CCF9B3
:10262000280601D4A80407D5300605D5216813482B
:1026300008612046FFF7EBFDE80507D5300605D514
:1026400021680F4808612046FFF7E0FD680608D5BD
:10265000700606D540202168C0430861204600F07E
:10266000ACF9A80608D5B00606D520202168C043DD
:1026700008612046FFF7CCFDF8BD00007FDFFFFFBB
:10268000FFFEFFFF30B587B0044614216846FDF712
:102690003BFE2468144D0022144801230221AC4261
:1026A0000ED1446B1C434463406B6C46184005904C
:1026B000080207C4049105200392694600070FE051
:1026C0000B4DAC420ED1456B042425434563406B52
:1026D0002040059040206C4607C40CC4694605485C
:1026E000FEF72CFF07B030BD002C01400010024067
:1026F00000040040000800507047F8B50446002070
:10270000264620360090307F0D4601280CD001204F
:10271000082730770C2A48D008DC002A10D0042A79
:102720001ED0082A06D130E00220F8BD102A52D06F
:10273000142A60D001200090002030770098F8BD66
:10274000206800F08BFE2068816939438161206830
:102750008169042291438161206881692A6911E0BD
:10276000206800F0C1FE206881690122D202114375
:10277000816120688169521091438161206881697B
:102780002A69120211438161D6E7206800F0F0FE49
:102790002068C1693943C1612068C169042291433D
:1027A000C1612068C1692A6912E0206800F024FF35
:1027B0002068C1690122D2021143C1612068C26947
:1027C000012189028A43C2612068C1692A69120213
:1027D0001143C161B0E7206800F048FF2068416DF7
:1027E000394341652068426D04218A43426520686F
:1027F000416D2A6912E0206800F06CFF2068416D8D
:102800000122D202114341652068426D01218902F3
:102810008A4342652068416D2A691202114341656D
:102820008AE770B5040005D025462035687F00286A
:1028300002D006E0012070BD00202877204600F07D
:1028400017F802206877211D206800F08BFD012217
:1028500040342272AA77EA7722706270A270E27026
:1028600022716271A271E2716A77002070BD00006E
:1028700010B594B004464C216846FDF745FD124959
:102880002068884212D101204005009000200E905F
:102890006846FEF7A7FF002801D0FEF793FA0B4821
:1028A0000268C1140A430260006809E008498842CE
:1028B00008D106484038C26B02210A43C263C06B8C
:1028C0000840139014B010BD002C0140401002408D
:1028D000000400407047000030B504460223203059
:1028E00000290ED0042911D020464030082912D0EA
:1028F0000C2915D0102918D0C278012A1AD001202D
:1029000030BD827F012AFAD1837714E0C27F012A89
:10291000F5D1C3770FE00278012AF0D103700AE005
:102920004278012AEBD1437005E08278012AE6D192
:10293000837000E0C3700122206800F06DFD174A2B
:1029400020681749904207D0884205D0154B98421D
:1029500002D0154B984204D1436C0125ED032B4363
:1029600043642068012390420AD09A07904207D01E
:102970000E4A904204D00E4A904201D0884207D1BC
:1029800081680C4A1140062905D0D21F914202D01D
:10299000016819430160002030BD0000002C014097
:1029A0000040014000440140004801400004004054
:1029B000000800400700010070477047FEE7000074
:1029C000FF2110B50131054B002801D0012200E0A4
:1029D00000221846FEF76CFE10BD000000040050F7
:1029E00030B51D491D4887B0002412C003210902DB
:1029F0004460016001250572447284720421C16043
:102A0000016119214161062181610221C161032116
:102A100001620463C5620C22446342628162083829
:102A2000FEF7FCFB002801D0FEF7CCF900940C481F
:102A30000590019402946946039504940748FEF7B3
:102A400030FB0648FEF7FAFC002201210348FEF79E
:102A500089FA07B030BD0000006400407400002017
:102A6000FF070000F0B587B014216846FDF74CFC65
:102A70001B48416B012529434163416B2940059166
:102A8000426B02210A434263426B0A400592426B49
:102A900004210A434263406B052708403F07059025
:102AA0000022CF213846FEF703FEFF26C43600225F
:102AB00031460C48FEF7FCFDCF2000240090029424
:102AC0006946019503943846FEF738FD029469463D
:102AD0000448009601950394FEF730FD07B0F0BD61
:102AE000001002400004005010B511480F49016069
:102AF000FF21053141600021032281601202016142
:102B0000C2604161C161012201625202416282617F
:102B100081620722C262016308214163FFF7AFFAB5
:102B2000002801D0FEF74EF910BD0000003C004027
:102B3000D800002010B598B00024149415941C21DE
:102B40000DA81694FDF7E0FB34216846FDF7DCFB89
:102B50002648254901600F21846041600461642199
:102B60004461C16080218161FFF75BFE002801D0D4
:102B7000FEF728F91494159414A91C481694FFF72D
:102B80009DFB002801D0FEF71DF9602012940E94E1
:102B90000D900F941094119404220DA913941348CE
:102BA000FFF7ABFD002801D0FEF70CF901200094DF
:102BB0004003059001940294049400030394069446
:102BC0000794099008940A940B9469460C9407485A
:102BD000FFF720FB002801D0FEF7F4F80348FFF7C9
:102BE00051FD18B010BD0000002C01403C01002038
:102BF00010B588B000240094019401211648029475
:102C00000394049405948907069401603F2184602D
:102C1000416012490461C16080218161FFF78CFB32
:102C2000002801D0FEF7CEF801200003009069468D
:102C30000948FFF711FC002801D0FEF7C3F80494FF
:102C400004A905480694FFF739FB002801D0FEF7D8
:102C5000B9F808B010BD000088010020CF070000BF
:102C600010B58AB00024079408941C216846099482
:102C7000FDF74AFB1748164901600F218460416047
:102C800064210461C16080218161FFF7CAFD0028D1
:102C900001D0FEF797F8079407A90E480994FFF7AB
:102CA0000DFB002801D0FEF78DF860200090019404
:102CB00002940022694604940648FFF71EFD00288E
:102CC00001D0FEF77FF80348FFF7DCFC0AB010BD27
:102CD00000040040D401002070B5002801D0012478
:102CE00000E0002405252D07224604212846FEF792
:102CF000DFFC084E224601213046FEF7D9FC224671
:102D000008212846FEF7D4FC224602213046FEF771
:102D1000CFFC70BD000400500148C068704700003F
:102D20003C000020012801D9002070470249C00062
:102D300008584008704700002002002070B5194C68
:102D4000E08C00F061F805252D07002201212846BE
:102D5000FEF7AEFC002240212846FEF7A9FC002029
:102D600000F088F8002000F08DF80F49208C0968E9
:102D7000886304210C48FFF7AFFD0C49608C09689B
:102D8000486300210948FFF7A7FD0120FFF7A4FFD2
:102D9000074900200860087148718860087348730B
:102DA00070BD0000300200203C010020D401002052
:102DB000200200200020704704480178002903D039
:102DC0000021017001207047002070473C00002066
:102DD00004484179002902D1407B002800D001201D
:102DE000704700002002002000207047002070473C
:102DF00010B5044C0020E060FEF760FCA0600120EC
:102E0000607010BD3C00002010B5642801D2642021
:102E100003E01349884200D9084601461148FDF7EE
:102E20007DFA41081048491E016010480268136A83
:102E30000F4C234207D1136AA410234203D1136815
:102E40005B085B0013600268D162C1600268002108
:102E500051620068016801221143016010BD000049
:102E6000204E000040420F000C000020880100208E
:102E700011110000024610B5052002210007FEF7DF
:102E800017FC10BD024610B5052080210007FEF793
:102E90000FFC10BD70B50446007901282AD8A0683F
:102EA000002827D00020FFF73DFF002822D1012075
:102EB000FFF738FF00281DD160792179002800D064
:102EC0000120104ACB00A4689D1828716400D450DA
:102ED00001226A7100290ED0002800D00120FFF7DE
:102EE000D1FFFFF785FF08490020096848620648BE
:102EF000FFF762FA70BD002800D00120FFF7BAFF8B
:102F0000EFE700002002002088010020F8B500252E
:102F10001F4F2C461F48E10008184079002801D0B7
:102F2000012600E00026385D00280FD0002E13D1C6
:102F300017490120891C0855FEF7C0FB144AA1005F
:102F40000D32FA305050385D002805D1002E03D0E4
:102F50000F490020891C08553E55641C3543E4B2D6
:102F6000012CD7D90A4CE41EA07800280DD0002DE2
:102F70000BD16078002806D0FEF7A0FBA168401AAC
:102F8000E0600020607001202070A570F8BD000096
:102F90003F00002020020020FEE7000070B5094B32
:102FA0000022D5000446EC40E4B225095E5D5500E0
:102FB0004E552407240F6D181C5D521C6C70042A9A
:102FC000EFDB70BD643900087047704770B5114D74
:102FD0002C78FDF7FDFE002801D001200443FDF709
:102FE000F9FE002801D002200443FDF7EDFE002881
:102FF00001D004200443FDF7E3FE002801D008209F
:103000000443FDF7E3FE002801D0102004432C7098
:10301000204670BD1600002010B50024FFF7E4FE26
:10302000002803D1FFF7E2FE002800D00124104859
:103030000078002801D00220044300F097F800280F
:1030400001D00420044300F08DF8002801D00820AE
:10305000044300F089F8002801D010200443FFF752
:10306000A9FE002801D020200443204610BD000006
:103070001700002010B50F4C122020700E48611C64
:103080000068FDF743F90821601DFDF73BF90622B2
:103090000AA1601DFDF7D9F8012060731120A0730B
:1030A0000C21E1731822227419226274A174E07455
:1030B00010BD0000D802002008000020522F474217
:1030C000000000000349012008707D200249C00073
:1030D00008807047550000201200002070B51F4C7A
:1030E0001F4D607F611C401C6077287E2070A8689F
:1030F000FDF70CF9294608220C31601DFDF7A5F8F3
:10310000287D6073687DA073A87DE073E87D2074DE
:10311000287F6074687FA074A87FE074FFF77CFF4D
:103120002075FFF753FF6075284620300079A075A1
:10313000288E2146C875000A0876A88E4876000AAF
:103140008876288CE076688C2077E98C2046817719
:10315000090AC17700212030C17370BDD802002058
:103160003002002000207047002070470020704788
:1031700070B58AB0FFF72CFEFFF71EFE1F480168EE
:1031800000251F4E1F4C002902D18068002808D05E
:103190002088FA2802D3FDF795FD258035700AB006
:1031A00070BD3078002820881FD07D21C90088425A
:1031B000F5D32580FFF792FF134800900E2003906F
:1031C00001200005059001954000029506900495A8
:1031D000079508950D48FEF71BF80028DFD00C4A2C
:1031E00069460A48FDF739FFD9E7FA28D7D3FDF732
:1031F00069FD258001203070D1E700002002002009
:10320000550000201200002003020000740000207E
:10321000D802002010B500F03BF8FEF755FA10BDBB
:1032200030B593B03C216846FDF76EF800250120CB
:103230000F951095119540021295FEF7ADFA0224F4
:10324000E0010390009440200A95059008200B901F
:1032500080030C900894000204950D9009940001DD
:103260000E906846FEF7F0FC002801D072B6FEE72B
:1032700007200FA931C102210FA81295FEF7F2FB1A
:10328000002801D072B6FEE713B030BD70470000D1
:1032900000B5FDF733FA0848428808498A4202D24D
:1032A0004288521C428082888A4202D28188491C0C
:1032B00081800121017000BD10000020FFFF00008F
:1032C00010B500F007F80248FFF738F910BD00000C
:1032D0008801002070B5214800680169C9073BD00A
:1032E0000121C94301611E4C60790526002536077E
:1032F00000280DD0206800280AD001213046FEF7B2
:10330000CFF92068401E20602068002800D1657138
:10331000607B00280DD0A06800280AD040213046EC
:10332000FEF7BEF9A068401EA060A068002800D18A
:103330006573607900280FD1607B00280CD10748A5
:10334000FFF770F8002201213046FEF7B1F90022A4
:1033500040213046FEF7ACF970BD00008801002026
:1033600020020020F0B50268244B0124A407244D5C
:10337000244E984205D0A04203D0A84201D0B042CA
:1033800004D11746702297434A683A431E4F984229
:1033900010D0A0420ED0A8420CD0B0420AD01B4C94
:1033A000A04207D0B84205D0194CA04202D0194C17
:1033B000A04204D103242402A243CC6822438024E7
:1033C000A2434C69224302608A68C2620A68826230
:1033D000984207D0B84205D00D4A904202D00D4A1B
:1033E000904201D109690163012141610169C90765
:1033F00003D00169490849000161F0BD002C01407A
:10340000000400400008004000400140002000404F
:10341000004401400048014010B5CB06DB0E0121FD
:10342000046A99408C430462016A9A401143016224
:1034300010BD30B58468FF252D021B021343AC4339
:103440000B432343836030BD8268034B1A400A4319
:1034500007210A43826070478FFFCFFFF0B5056AEE
:10346000026A52085200026243688269194C1B4E7C
:10347000224092080C6892001443022295438A6805
:103480002A43154DA84207D0B04205D0144FB84288
:1034900002D0144FB84206D10827BA43CF68174369
:1034A000042297433A46A84207D0B04205D00C4DBB
:1034B000A84202D00B4DA84206D103252D02AB43F2
:1034C0004D691D438B692B434360846149684163A7
:1034D0000262F0BD8FFFFEFF002C01400040014062
:1034E000004401400048014070B5046A026A10239C
:1034F0009A43026243688269184D2A4003252D02CF
:10350000AA430D682D021543202294438A681201B4
:103510002243134CA04208D11446CA688026B44303
:10352000120122434024A24308E00E4CA04205D0E1
:103530000D4CA04202D00D4CA04208D10324A4029D
:10354000A3434C69A4001C438B699B002343436045
:10355000856149688163026270BD0000FF8FFFFED4
:10356000002C01400040014000440140004801405F
:1035700070B5046A026AFF2301339A43026243680A
:10358000C269184D2A4092080D6892001543012225
:10359000520294438A6812022243134CA04208D17B
:1035A0001446CA68C614B443120222430415A24347
:1035B00008E00E4CA04205D00D4CA04202D00D4CAC
:1035C000A04208D103242403A3434C6924011C43D3
:1035D0008B691B0123434360C5614968C163026273
:1035E00070BD00008FFFFEFF002C01400040014035
:1035F000004401400048014030B5046A026A0123DA
:103600001B039A4302624368C269134D2A40032593
:103610002D02AA430D682D02154301225203944343
:103620008A68120322430D4CA04208D00C4CA042E1
:1036300005D00C4CA04202D00B4CA04205D1012475
:10364000A403A3434C69A40123434360C5614968B3
:103650000164026230BD0000FF8FFFFE002C0140BC
:10366000004001400044014000480140F0B5046AB8
:10367000026A01263604B24302624268436D104D6D
:103680002B400D681D4373009C430B891F040D4B99
:103690002743984208D00C4B984205D00B4B9842D8
:1036A00002D00B4B984204D113464A69B34312022D
:1036B0001A4342604565496881650762F0BD0000B4
:1036C0008FFFFEFF002C01400040014000440140FC
:1036D0000048014030B5036A026A01242405A24370
:1036E00002624268456D114C25400C6824022C434F
:1036F00001256D05AB430D892D051D430C4B9842EB
:1037000008D00C4B984205D00B4B984202D00B4B83
:10371000984205D101239B049A434B699B021A43AB
:10372000426044654968C165056230BDFF8FFFFE98
:10373000002C01400040014000440140004801408D
:1037400030B5036A046A6408640004628469F02581
:10375000AC43120122430A24A3430B438261036258
:1037600030BD30B5046A036A1025AB430362836938
:103770000F252D031203AB431A43A0239C430901D9
:1037800021438261016230BD30B47446641E2578E5
:10379000641CAB4200D21D46635D5B00E31830BC85
:1037A000184700008307FF22DB0E9A408907090EA5
:1037B0009940002808DB830809489B001B181868FB
:1037C00090430843186070470007000F08388308CB
:1037D00004489B001B18D86990430843D861704780
:1037E00000E400E000ED00E010B504490A68821A28
:1037F000322A02D30860FDF7FDF910BD5800002001
:1038000070470000184D00206860FDF765FFFFF766
:1038100007FDFFF727F9FFF7E3F8FFF765F9FFF773
:10382000E7F9FFF787F9FFF71BFA1048FCF792FF5B
:10383000FFF784FAFDF7ACF9FDF740FF0446FFF708
:10384000D3FF204600F080F8204600F059F8FFF73B
:103850005DFBFFF78DFCFFF75FFA2860FCF734FF94
:103860002046FFF7CDFFE7E70000002030020020F0
:1038700001784A2914D046291DD04D291DD041294F
:1038800024D04D291CD04A290DD0412921D05329BB
:103890002ED04F292ED04E292ED044292ED01BE0D9
:1038A0004178612905D080786E281BD06C281BD008
:1038B00012E001207047022070478178722903D0FE
:1038C000807879280CD007E0032070474178702970
:1038D00004D04078752809D0002070470420704734
:1038E0000520704706207047072070470820704762
:1038F000092070470A2070470B2070470C20704742
:1039000070B5084C05462078002806D00120FFF746
:1039100057F80548056000202070284600F006F89A
:1039200070BD00005C0000206000002010B505495B
:103930000A68821AC82A03D308600020FFF740F8FB
:1039400010BD00006000002004480178002904D068
:103950000178034A11700021017070475400002063
:103960005C0000203031323334353637383941424B
:1039700043444546000001020304050607080C10F5
:10398000141820304000000000000000000000007B
:103990000000000000000000000000000000000027
:1039A0000000000000000000010000000200000014
:1039B00003000000040000000600000007000000F3
:1039C0000800000009000000E8390008000000209D
:1039D00074000000000100085C3A00087400002038
:1039E000140900001C010008000000000000000095
:1039F00000000000000000000000000000000000C7
:103A000000000000FFFFFFFFFFFFFFFFFFFFFFFFC2
:103A100000000000FFFFFFFFFFFFFFFFFFFFFFFFB2
:103A2000FFFFFFFF0000000000000000000000009A
:103A30000000000000000000000000000000000086
:103A40000000000000000000000000000100000075
:0C3A500004000000000000000024F4004E
:04000005080000BD32
:00000001FF
