:020000040800F2
:10000000D8D30020710300084D450008E9410008DD
:1000100049450008F90700083D4900088903000820
:100020000000000000000000000000002D47000854
:10003000FD07000800000000514500083147000896
:100040009303000893030008930300089303000838
:100050009303000893030008930300089303000828
:100060009303000893030008930300089303000818
:100070009303000893030008930300089303000808
:1000800093030008930300089303000893030008F8
:1000900093030008930300089303000893030008E8
:1000A00093030008930300089303000893030008D8
:1000B00093030008930300089303000893030008C8
:1000C00093030008930300089303000893030008B8
:1000D0000000000093030008930300089303000846
:1000E0009303000893030008930300089303000898
:1000F0009303000893030008930300089303000888
:100100009303000893030008930300089303000877
:100110009303000893030008930300089303000867
:100120009303000893030008930300089303000857
:100130009303000893030008930300089303000847
:100140009303000893030008930300089303000837
:100150009303000893030008930300089303000827
:100160009303000893030008930300089303000817
:100170009303000893030008930300089303000807
:1001800093030008930300089303000893030008F7
:1001900093030008930300089303000893030008E7
:1001A00093030008930300089303000893030008D7
:1001B00093030008930300089303000893030008C7
:1001C00093030008930300089303000893030008B7
:1001D00093030008930300089303000893030008A7
:1001E0009303000893030008010800089303000824
:1001F0009303000893030008930300089303000887
:100200009303000893030008930300080000000014
:1002100000000000930300080000000093030008A2
:100220009303000893030008930300089303000856
:100230009303000893030008930300089303000846
:1002400093030008930300089303000800F002F8EA
:1002500000F064F814A696E8000CB244B344DA4502
:1002600001D100F05BF8BAE80F000FA696E8300065
:10027000A5EB040504EB0607AAEB0704A7F10107A9
:100280004FEA15154FEA3414A4F10104AC4201D32E
:1002900000F044F813F0010F18BFFB1A43F00103FC
:1002A00000F001F8DBE71847F8D3000018D400008D
:1002B0000A4410F8014B14F00F0508BF10F8015B59
:1002C000240908BF10F8014B6D1E05D010F8013B42
:1002D0006D1E01F8013BF9D1641E03D0641E01F8C4
:1002E000015BFBD19142E4D37047000070470000EE
:1002F0000023002400250026103A28BF78C1FBD82F
:10030000520728BF30C148BF0B6070471FB50DF0C2
:10031000F9F800F05AF81FBD10B510BDDFF80CD089
:10032000FFF7F4FF07F0E8FF00F066F9D8D30020EC
:1003300003B4FFF7F1FF03BC00F068F90B49D1F8F3
:1003400000C04A685CF8043B1068184442F8040B8B
:100350008C4528BFA1F1DC0C8A4228BFA1F1DC0248
:10036000C1F800C04A6020F000407047B419002076
:10037000084880F30A880848804708480047FEE795
:10038000FEE7FEE7FEE7FEE7FEE7FEE7FEE7FEE745
:10039000FEE7FEE7D8CF0020014800084D02000824
:1003A0000B4910B5A1F17C020A4CC2E93712372182
:1003B00006E000EB104342F82130074B00FB0340FE
:1003C0000B1EA1F10101F4DC10BD0120E8E70000E3
:1003D00054190020E119D666CD0D010040EA010351
:1003E00010B59B070FD1042A0DD310C808C9121FDE
:1003F0009C42F8D020BA19BA884201D9012010BD18
:100400004FF0FF3010BD1AB1D30703D0521C07E0E4
:10041000002010BD10F8013B11F8014B1B1B07D148
:1004200010F8013B11F8014B1B1B01D1921EF1D1B9
:10043000184610BD10B5431C02E010F8011B71B145
:100440008107FAD14FF0013202C88C1A8C4314EAAA
:10045000C211F9D0C01A0A0603D0C01E10BDC01ABE
:1004600010BD0A0401D0801E10BD0902FCD0401E40
:1004700010BD032A40F2308010F0030C00F015800C
:1004800011F8013BBCF1020F624498BF11F801CB97
:1004900000F8013B38BF11F8013BA2F1040298BFFC
:1004A00000F801CB38BF00F8013B11F0030300F066
:1004B0007180083AC0F0088051F8043B083A51F8BE
:1004C00004CBA0E80810F5E7121D5CBF51F8043B0F
:1004D00040F8043BAFF30080D20724BF11F8013B82
:1004E00011F801CB48BF11F8012B24BF00F8013BE4
:1004F00000F801CB48BF00F8012B70474FF0000215
:100500000429C0F0128010F0030C00F01B80CCF125
:10051000040CBCF1020F18BF00F8012BA8BF20F893
:10052000022BA1EB0C0100F00DB85FEAC17C24BFE7
:1005300000F8012B00F8012B48BF00F8012B704791
:100540004FF0000200B5134694469646203922BF6C
:10055000A0E80C50A0E80C50B1F12001BFF4F7AFB7
:10056000090728BFA0E80C5048BF0CC05DF804EB99
:10057000890028BF40F8042B08BF704748BF20F807
:10058000022B11F0804F18BF00F8012B7047704705
:100590007047704710B5203AC0F00B80B1E8185092
:1005A000A0E81850B1E81850A0E81850203ABFF45D
:1005B000F5AF5FEA027C24BFB1E81850A0E81850FC
:1005C00044BF18C918C0BDE810405FEA827C24BF50
:1005D00051F8043B40F8043B08BF7047D20728BFDE
:1005E00031F8023B48BF11F8012B28BF20F8023B2D
:1005F00048BF00F8012B704710B50446AFF30080E8
:100600002046BDE81040FFF793BE7047014918200F
:10061000ABBEFEE726000200844600294FF0010031
:1006200008BF7047002A18BF002B01D1704700BFD8
:10063000F0B583B00020BCF1000F009058D0DCF87A
:100640000000002854D00F46DCF8041015461C4664
:100650006B460122664600F0DBFF18B103B0BDE82F
:10066000F04070473068002842D071686B46012224
:1006700000F0CEFF0028F1D10098C0F38000387060
:1006800040B9022028702070002003B0BDE8F0407F
:10069000704700BF30680022019248B3716801AB17
:1006A0001F2200F0B5FF0028D8D10198022100F0E8
:1006B0000C00082808BF0121043818BF084628701C
:1006C00030680021029198B1716802AB1F2200F0DE
:1006D0009FFF0028C2D1029800F01C0004381728A0
:1006E0000CD84DF21E518008C0F60001085CCAE724
:1006F000012003B0BDE8F040704700BF0220C2E710
:1007000010B582B004460020CDE90000002C4FF067
:10071000010018BF002901D102B010BDC4E90012C8
:1007200001AB08461146022200F072FF0028F3D107
:100730002068A0B161686B46032200F069FF0028C1
:10074000EAD101984FF6FF71884205D008B90098A8
:1007500028B1002002B010BD00988842F9D10120D4
:1007600002B010BD70B582B0044600200190DCB329
:1007700040F60045C4F2022528464FF4807100225D
:1007800001F062FB022000F071FB28464FF48071FB
:10079000012201F059FB022000F068FB206818B329
:1007A000616800224FF4004301F0ECF810B102B090
:1007B00070BD00BF01F04EFB054601AE206898B148
:1007C00061680022334600F023FF0028EFD19DF836
:1007D000050000060CD501F03DFB401B6428EDD35D
:1007E000032002B070BD00BF012002B070BD00BF89
:1007F000002002B070BD0000FEE70000704700005E
:1008000041F62450C2F2000000F05ABB2DE9F04F2F
:1008100083B0D0F828A000F1180C5CF82A408F684B
:10082000E368002B04D400F12C0E5EF82A301BB1D3
:10083000022003B0BDE8F08F0E680CEB8A035FEA7C
:1008400046784FEAC6690193029203D4B9F1000FCA
:1008500030D533E0E2684FF6FF734D6A9A432A437E
:10086000E260E268330742F48032E26005682A6E93
:1008700042F480122A6617D5A268D1E90B3692B2EB
:1008800042EA0342A260E26842F40032E260E268B7
:1008900022F440223243E2606A6E42F480126A66B9
:1008A0002A6D42F080622A65B9F1000F06D4B8F1D2
:1008B000000F0ED401220092564623E0A26843F6B0
:1008C000FF738D699A432A43A260E26842F0806216
:1008D000E260E2680AF1010642F08042E260BFF3A2
:1008E0005F8FE268032E42F00042E26088BFAAF107
:1008F00003065CF82640E268B2F1FF3F40F328812E
:100900000222009297E80C0143F6FF752260A2686C
:100910004FF6FF79AA431343B8F1000FCCF2000958
:10092000A36009D0D8E900356360A36803EA09032E
:1009300043EA054506E000BF00236360A368B846AC
:1009400003EA0905A5600F68E56840F2000BFB06A5
:10095000CFF6FC7B00F1A08047F6FF724B6825EADA
:1009600002021A43FB07E26040F0FE80BA0600F183
:1009700004817A0705D5A2688B6A22F440421A43A3
:10098000A260E26842F00052E260E26822F0804237
:10099000E260BFF35F8FE26842F00042E2600A78F3
:1009A000920705D5E268CB6822F060721A43E260D4
:1009B000D8F80850002D00F0C98000271FE000BFC4
:1009C0000025CA69CFF6FC752B401A43E260E26845
:1009D0004FF6FF7942F48023CCF20009E360BFF3C5
:1009E0005F8FE268013F42F00042E260E26822F07D
:1009F0008042E260DBF80850002D00F0C980E26818
:100A0000334622F080520136E260032E88BFDE1E9C
:100A10005CF82640E26822F00052E260E268002AB8
:100A20004ED45EF82620002A4AD195E80C0843F6F9
:100A3000FF782260A268BBF1000F22EA080242EAB6
:100A40000302A26008D0DBE900236260A26802EA28
:100A5000090242EA034905E000226260A268AB464F
:100A600009EA0209C4F808900D68E368EA06A7D409
:100A7000D1F8048047F6FF7293434FF6FF7943EABB
:100A80000802EB07CCF20009E260A8D0E2684B69EB
:100A900022F440321343A1E7D1E9073225F4F005EF
:100AA00045EAC242E260E26802EA0B021A43E260EF
:100AB000E26842F48023E3607A073FF55CAF60E7C9
:100AC0000098B8423FF4B4AEC01B810800F00300A8
:100AD00000F08080890000BF5CF82A20BFF35F8FA0
:100AE000D36823F00043D3600AF10102032A88BFD0
:100AF000AAF103025CF82230BFF35F8FDF6827F0B2
:100B00000047DF60531C032B88BFD31E5CF82320F3
:100B1000BFF35F8FD76827F00047D7605A1C032ABE
:100B200088BFDA1E5CF82230BFF35F8FDF6802F106
:100B3000010ABAF1030F88BFA2F1030A27F00042AD
:100B40000439DA60C8D10CEB8A0144E0012121E0CC
:100B500001980068BFF35F8FC16821F00041C16058
:100B6000022003B0BDE8F08FE2684B6922F4403206
:100B70001A43E260BA067FF5FCAEE2680B6922F028
:100B800040621343E3607A073FF5F5AEF9E600BF34
:100B9000C7F10101A268029B22F00042002B18BF9E
:100BA00002F10042A260E26842F08052E260C26B51
:100BB00086624EF82620EFF31083012282F310881C
:100BC000026C1144016483F31088002003B0BDE877
:100BD000F08F00BF019900283FF42AAE0968BFF3E7
:100BE0005F8FCA68012822F00042CA603FF420AE3D
:100BF0000AF10101032988BFAAF103015CF8212051
:100C0000BFF35F8FD368022823F00043D3603FF423
:100C10000FAE481C032888BFC81E5CF8200099E767
:100C200070B5D1F808C00B680A7943EA0C0343EAAF
:100C3000C2620B7B42EAC3524B7B42EA83528B7BFC
:100C400042EA435CCB7B0A7C4CEA0353002A4A7C91
:100C500008BF43F40023002A08BF43F40033D1E95E
:100C6000052E91F812C01A4342EA0C420E7F42EA66
:100C70000E024B7F42EA06328C7FCD7F42EAC322CE
:100C800091F820604B6A002C91F8284008BF42F48C
:100C9000806242EA45220068CD6A1A430368002E4A
:100CA00008BF42F480722A4348F28306C0F2040669
:100CB00042EA041233401A43026091F83820CB6BA9
:100CC000120642EA436291F8303091F8316042EA0C
:100CD00083424B6B42EA464291F83250446848F2F4
:100CE0000006CCF2F8061A432640002D08BF42F455
:100CF00080323243426091F840204B6C40F20F1634
:100D000043EA0222C368B3431A43C26091F85420F5
:100D10000B6D91F84C6043EA42028B6C002E08BFC9
:100D200042F0800242EA0342036F4FF60D763340F1
:100D30001A43026791F8552091F85630D0F8906028
:100D400043EA420226F003031A43C0F89020D0F889
:100D5000002D8B6D22F072021A43C0F8002D91F81D
:100D60006020CB6D002A91F8612008BF43F040035A
:100D700091F8621043EA0212D0F8303D42EAC10114
:100D800023F07B021143C0F8301D70BD72B600BF66
:100D9000FEE7000070470000704700007047000049
:100DA000002804BF0120704710B590F8241011BB33
:100DB00040F69D51C0F6000140F69952816040F620
:100DC0003561C0F60002C0F60001C0E9032140F61B
:100DD0003962C0F60002C169426140F69552C0F620
:100DE0000002826121B940F63D61C0F60001C16197
:100DF00004468847204600210122816280F8242091
:100E0000D0E90023146824F000442343136053689E
:100E100013F0090F04D00221BDE8104008467047C6
:100E20008162106840F001001060BDE81040084683
:100E3000704700007047000070470000006841F2F2
:100E40000041C4F20301884218BF704781B040F6E8
:100E50008840C4F20240016841F0804101600068AE
:100E600000F080400090009801B07047B0B5044693
:100E700000F0F0FF054641F6C000C2F20000007825
:100E8000611C18BF044400BF00F0E4FF401BA042F7
:100E9000FAD3B0BD7047000010B5044600F00CF85E
:100EA000C00458BF10BD204600F0ECFC2046BDE851
:100EB000104000F01DBC0000D0F88C00704700000E
:100EC0002DE9F04381B0016841F2341204468818DC
:100ED00042F22C08D1F8B070C56AC4F202488E58AC
:100EE000D8F80090690608D516F0400105D048F200
:100EF0004001C162204600F0D1FBE80718BF16F0A0
:100F0000010003D168040CD433E000BF20684FF423
:100F10008B5148F201024250204600F02FFD680438
:100F200027D516F4804024D02068D4F88810EA042D
:100F300041F00801C4F8881041F234110844C16A34
:100F400008D401F4CD41C4F88C104FF4CD41C162F6
:100F50000CE000BF41F202121140C4F88C1001688D
:100F600021F440410160E020C4F884002046FFF7EE
:100F700093FF17F4C04F13D02068D4F8881041F0C5
:100F80001001C4F88810D0F8B800C4F89000E02030
:100F9000C4F884002046FFF77FFF0020C4F89000CB
:100FA000F8060CD52068D0F8C00000F06000C4F846
:100FB0009400204600F038FA0020C4F89400B806E7
:100FC0000CD52068D0F8D00000F00F00C4F89800CD
:100FD0002046FFF75FFF0020C4F898005FEA494011
:100FE0005CBF01B0BDE8F0834FF480412046C8F8F3
:100FF000001001B0BDE8F04300F0C2BC002804BFFF
:1010000001207047F0B599B00446D0F8840028B9A3
:101010002020C4F88400204600F084F940F6A8405F
:10102000C4F20240016841F002010160006800F072
:10103000020000900098207A002818BF0120C00507
:1010400002F03AFF40F20050C4F20040006820680D
:101050004FF48056815941F00101815100F0FAFEB0
:10106000054600BF20688159C9070FD000F0F2FE85
:10107000401BB0F5FA7FF5D90120E0210425C4F822
:101080008850C4F8841019B0F0BD00BFD0F8000239
:1010900020F4706502F040FB40F6BF61C0F21621FB
:1010A000884203D845F4007524E000BF48F2FF6190
:1010B000C0F29331884203D845F440751AE000BF6E
:1010C0004EF20011C0F2F551884213D34DF27F1158
:1010D000C0F6F001884203D845F480750AE000BFED
:1010E0004BF27F21C0F6E66188428CBF45F4A065D3
:1010F00045F480652068C0F8005202F00DFB4DF603
:101100008361C4F21B31A0FB01014FF0FF3000EB03
:10111000914021680125C1F8DC0040F20111ADF8D1
:101120000E104FF4005106914FF4C3610D91202130
:1011300017914FF04051002000914FF480410990E9
:101140008DF81F008DF828008DF838000F90ADF84D
:1011500061008DF80C000290ADF81C001490129004
:101160000B908DF840008DF8560005918DF80D001C
:101170000227ADF85400ADF83000119069462046C2
:101180008DF804508DF832508DF86050ADF8115044
:101190008DF81E508DF8205016978DF810508DF850
:1011A0004C50FFF73DFD21684FF480500B5847F637
:1011B0000206B34301F580520B5050684DF2010313
:1011C000984341F2010318435060D2F800014CF2F9
:1011D0000003CFF6FE73184000F50670C2F8000158
:1011E000D2F804014EF6EF73CFF6C073184000F545
:1011F0000010C2F80401D2F808014FF6FF73C7F6D9
:10120000C073184000F50010C2F80801D2F80001C0
:1012100067F39440C2F800016069830708D0E021B9
:101220000120C4F88850C4F8841019B0F0BD00BF84
:10123000D2F8083147F6FE77BB4343EA4000002569
:10124000C2F80801E76800203B4638607860B86063
:10125000F860A76143F8180FF86138627862E361BB
:101260003B4643F8300F7863B863F86323623B462C
:1012700043F8480FF86438657865C4E909300323FA
:10128000C2F82C31C2F81471C2F8207126693746B1
:1012900030607060B060F060C6E90400A66447F892
:1012A000180FF06130627062C6E90A00E7643746E1
:1012B00047F8300F7063B063F063C6E9100027652C
:1012C000374647F8480FF06430657065C6E9160088
:1012D000C4E91700C4E91A00C4E91570C2F8303136
:1012E000C2F81C61C2F8287162689388C1F80033A3
:1012F00012686023C1F80423D1F80C27C0F602431A
:101300001A43C1F80C27D1F8102742F0406242F48A
:101310000312C1F810271021C4F88850C4F88410B3
:1013200019B0F0BD2DE9F04186B0006848F2000127
:10133000C4F20201002688420596CDE903660296B2
:10134000019603D006B0BDE8F08100BF40F68840AA
:10135000C4F202400168002441F4002101600168E8
:10136000C4F2022401F4002100910099016801AD4A
:1013700041F4801101600168022701F4801100919D
:10138000009901684FF00B0841F4001101600168F9
:1013900001F4001100910099416841F0040141609D
:1013A000416801F0040100910099416841F0010198
:1013B0004160416801F0010100910099416841F0EC
:1013C000020141604068294600F002000090009848
:1013D0003220019004F50060CDE902760497CDF843
:1013E000148000F06DFCA620CDE9010703A880E879
:1013F000C0012046294600F063FC4FF41040CDE9BF
:10140000010703A880E8C00104F58060294600F0C8
:1014100057FC6A200021002200F05AFE6A2000F0EA
:1014200045FE06B0BDE8F081704700002DE9F04FA1
:1014300085B0002983467DD0DBF88400402840F049
:10144000E380DBF85C500BF1480858F825908A4699
:101450004846DBF86C2050F80C1F00294FF00001C3
:1014600001916FD4C2F10401CDF800A003910BF1FA
:101470007C040BF180014FF0000A0026029122E06B
:101480004FF0010A6FF3DF335F1AD9F81020BBB2B7
:101490000299204600F004F9DBE9180101303944D3
:1014A000CBE918010020C9F81000691C032988BF86
:1014B000E91E58F821900136484650F80C2F0D4689
:1014C000B2F1FF3F45DD03998E4241D2BAF1000FE0
:1014D0003ED10168890001D4216839B301688900CF
:1014E00046BF0021CBE91811DBF8641003680268DD
:1014F000D20003D44FF0000AC4E700BF0068CBF865
:101500007000D9F804004004BAD5681C032888BFCD
:10151000E81E58F82000C2685200B1D54268CBF8E6
:1015200078200068CBF87400AAE700BF4FF0000AEB
:10153000BBE700BFDBF8880040F00100CBF8880073
:1015400062E000BF0026B618CBF86C6010D14CE00A
:101550002946AAF10100DBF86C20B0FA80F0DDF832
:1015600000A040090D460190B618CBF86C603CD045
:10157000DBF8687000200DF11009049011E000BF45
:101580002060DBF8580000284FF0414008BF4FF0C2
:101590000140E060781C032888BFF81E013E074622
:1015A0000CD058F8274020690028E9D1484600F0BF
:1015B0005FF8049818B12061E2E700BF0026DBF86D
:1015C0006C00B04211D0781E00F00300BFF35F8FB3
:1015D000DBF8101000EB4000DBF8002001EBC0004E
:1015E00041F228115050CBE91A760198CBF85C50A3
:1015F00050B1DBF87C00CAF800000020CBF87C007A
:1016000005B0BDE8F08F00BF012005B0BDE8F08F48
:1016100070B5054600681C46D0F80032DB071CBFD9
:10162000012070BDD0F8003249054FF6F276CFF6B2
:10163000004641EA024103EA060211430D31C0F8B7
:10164000001200F007FC06462868D0F80012C9070F
:1016500008D000F0FFFB801BB0F57A7F84BF01202B
:1016600070BDF1E7D0F8040280B22060002070BDA8
:1016700041F6004CC2F2000CDCF8002040F2000100
:1016800002EB4203C2F2000101EB43210160501C56
:1016900000F00300CCF80000704700007047000025
:1016A0002DE9F041144688460646002019464FF4BD
:1016B000C1721F4607F0E8FB002808BFBDE8F081B3
:1016C0000546406821463A46FEF7D3FE306848B1E9
:1016D000D8F80000294607F0BDFCC8F80050BDE866
:1016E000F08100BF3560C8F80050BDE8F08100000F
:1016F0002DE9F04182B00446D0F8840010284FF064
:10170000010040F0BC802021C4F88410A0650420B2
:10171000A56EE06604F1480858F825700021386984
:10172000019130B901A8FFF7A3FF0198002859D013
:1017300038613860A06D4FF0414600284FF04140BD
:1017400008BF4FF00140F8606F1C032F88BFEF1EE9
:1017500058F82750286930B901A8FFF789FF019888
:10176000002845D028612860A06D002808BF4FF0F0
:101770000146EE607D1C032D88BFFD1E58F82570C4
:10178000386928B901A8FFF773FF0198B0B3386131
:101790003860A06D4FF0414600284FF0414008BF2F
:1017A0004FF00140F8606F1C032F88BFEF1E58F800
:1017B0002750286928B901A8FFF75AFF019818B3E4
:1017C00028612860A06D002808BF4FF00146EE6038
:1017D0007D1C0020032D88BFFD1EE16E814211D0CB
:1017E00017E000BF0420E16E81420BD011E000BF82
:1017F00003203D46E16E814204D00AE00220E16E02
:10180000814206D1216814E001203D46E16E81420B
:10181000F8D0691E01F00301BFF35F8F226901EB6D
:101820004103216802EBC30241F22813CA50C4E904
:101830001A5041F204100A580B1842F001020A50E3
:10184000586840F001005860D86D40F48170D86548
:10185000D1F8000D40F00100C1F8000D086840F01B
:1018600002000860086840F001000860186B4DF243
:10187000C101084318634020C4F88400002002B06E
:10188000BDE8F081D0F8841040291CBF01207047CA
:1018900080B52021C0F88410016841F2041C01EBDE
:1018A0000C03D3F830E04DF2C1022EEA02021A63B3
:1018B00051F80C2022F0010241F80C205A6822F065
:1018C00001025A600A6822F001020A60D1F8002D74
:1018D00042F00102C1F8002D0A6822F002020A60FB
:1018E000816CCA6822F08042CA60C16CCA6822F06A
:1018F0008042CA60016DCA6822F08042CA60416DB0
:10190000CA6822F08042CA60002110228165C0F8B6
:101910008420BDE88040084670470000A1B1D0F89F
:101920008420402A16D110B54A6B0446C2630122B6
:10193000FEF76CFF80B1D4F8880040F00200C4F8D4
:101940008800012010BD00BFD0F8881041F00101CF
:10195000C0F8881001207047BFF34F8FA06A21683C
:10196000421C032A88BFC21E04EB8200A262806967
:101970004FF489528850002010BD000070470000CD
:1019800070470000B0B504460068D0F80052ED077B
:1019900023D1D0F8000249054FF6F275CFF6004585
:1019A00041EA02412840084399B248F2002205303A
:1019B000C4F202025160106000F04CFA054600BF0C
:1019C0002068D0F80002C00704BF0020B0BD00F0BE
:1019D00041FA401BB0F57A7FF2D90120B0BD00007A
:1019E000002804BF0120704770B5044690F85C00E1
:1019F00028B9002084F85D00204600F013F9206823
:101A0000816921F01001816100F024FA054600BFD0
:101A100020688169090705D500F01CFA401B0B28D6
:101A2000F6D310E0816941F00101816100F012FA02
:101A3000054600BF20688169C9070DD100F00AFA88
:101A4000401B0B28F6D3206E032140F001002066D6
:101A5000012084F85C1070BD82694AF2004CC4F227
:101A6000000C42F002026045826102D16268CCF84B
:101A70000021227C8369012A23F0400318BF4033F0
:101A80008361627C8369012A23F4804308BF03F5E4
:101A900080438361A27C8369012A23F4805318BFA9
:101AA00003F5805383618569D4E9022325F44075E9
:101AB00015438561856925F0A4058561056925F0D3
:101AC00010050561A3B1012B0ED0022B09D0856949
:101AD000032B45F080058561056945F0100505611A
:101AE00006D1202301E000BF042385692B438361D5
:101AF000D4E90515D4E907366FF0FF0E0EEB03238A
:101B0000013D43EA45630025CFF6FF75013E05EB35
:101B1000014133431943B2F5407FC1610FD104F154
:101B200024064ECE0EEB0323013A1A436FF00F0347
:101B300003EB061305EB01411A431143C160D4E9DD
:101B40000D13E26BD0F8C0603243C0F8C0200CF532
:101B500080660CF50062B04208BF0CF53562226465
:101B6000D0F8806026F4F81646EA0141C0F88010EB
:101B700002F170016164D0F8801021F0706141EAD7
:101B80000361C0F8801002F1B000A06402F5C470D7
:101B9000E06402F51870206502F51E70606502F5BC
:101BA00054700021C2E90011C2E90211C2E9041116
:101BB000C2E90611C2E90811C2E90A11C2E90C1111
:101BC000C2E90E11C2E91011C2E91211C2E91411E1
:101BD000C2E91611C2E91811C2E91A11C2E91C11B1
:101BE000C2E91E11C2E92011C2E92211C2E9241181
:101BF000C2E92611C2E92811C2E92A11C2E92C1151
:101C0000C2E92E11C2E93011C2E93211C2F8D01076
:101C1000D4328242C6D300200121A065206684F818
:101C20005C1070BD70B5CAB0044602A8002508302B
:101C30004FF480714995CDE94755CDE945554FF4AD
:101C40008076FEF77DFC20684AF20041C4F2000174
:101C5000884201D04AB070BD0420CDE9025002A8EC
:101C6000319600F0E9FB002818BFFFF78FF840F627
:101C70008C40C4F20240416941F400714161416904
:101C800001F4007101910199016841F008010160BE
:101C9000006845A900F008000190019803204590D4
:101CA000022046900020CDE947000920499040F6E7
:101CB0000040C4F2022000F003F84AB070BD0000FA
:101CC0000A68002A08BF70472DE9F04F83B000F181
:101CD0002003019347F67F73C0F22F0303EA90239A
:101CE0004FF0000A4FF0010B00274FF0000C0025C9
:101CF00000930BE00A68013532FA05F30CF1040C8D
:101D000007F102070AF1080A00F09A800BFA05F9B8
:101D100012EA0902EED0D1F80480029248F01006CF
:101D2000122E1BD16FF0030202EA5506DDF804B053
:101D30000CF01C025BF80640D1F810800F2303FA68
:101D400002FE08F00F0324EA0E0403FA02F2224313
:101D50004BF80620D1F804804FF0010B02680323F2
:101D6000BB4008F0030EDC439A430EFA07F31A4314
:101D7000B8F1120F02605BD80BFA08F212F0061FDE
:101D800056D08368D1E902262340BE4033438360A6
:101D900043684FEA181623EA0903AE403343436011
:101DA000C368BA4023401A43C260029C5FEAC8027B
:101DB000A0D542F2000E25F00302C4F2024E724496
:101DC000D2F860800AF018060F23B34028EA03080F
:101DD000009B03FA06F648EA06031366DEF8008065
:101DE0004B6848EA0406DA0258BF28EA0406CEF82F
:101DF0000060DEF804809A0248EA040658BF28EA28
:101E00000406CEF80460DEF884809A0348EA0406EB
:101E100058BF28EA0406CEF88460DEF88020DB0391
:101E200042EA040658BF22EA0406CEF8806061E761
:101E30008A68BEF1030F08BF012AB1D1B5E700BF20
:101E400003B0BDE8F04F70471823002A08BF2823CD
:101E5000C15070474CF6D470C2F200000068704761
:101E600040F20041C4F20301086840F00102002082
:101E70000A60704740F20042C4F203021368DB07B5
:101E80001CD1203252F820301B0417D470B5D1E990
:101E90000236D1E900EC5D4205EA5E542D04E4B25D
:101EA00044EA432305EA5C15096933432B4319438C
:101EB00041F4004142F82010002070BD012070471D
:101EC00041F6C0004CF6D471C2F20000C2F200012B
:101ED00000780A68104408607047000080B503204D
:101EE00000F022F901F030FC40F62041C4F202413A
:101EF00009684DF2245201F00F01C0F60002515C56
:101F0000C84041F6D001C2F200010860042001F08F
:101F1000DDFF0F2000F008F800281CBF012080BD65
:101F200000F0C2F8002080BDB0B541F6C005C2F295
:101F300000052978E1B304464EF21000CEF200000D
:101F40000068400710D402F00FF8022824D00128BE
:101F50001AD078BB41F6D000C2F2000000682978A0
:101F60004FF4FA5207E000BF41F6D000C2F2000081
:101F700000684FF47A72B2FBF1F1B0FBF1F001F0BE
:101F8000E1FFA8B91BE000BF28784FF47A71B1FBDC
:101F9000F0F04FF4FA4106E028784FF47A71B1FB83
:101FA000F0F04FF40041B1FBF0F001F0CBFF30B1A5
:101FB0000120B0BD002001F0C5FF0028F8D14FF08E
:101FC000FF302146002200F083F800206C60B0BD95
:101FD000BFF35F8F4EF6C0510278CEF200016FF072
:101FE0001F03043103EBC20390F801C0042A3CBF75
:101FF0004EF6C051CEF20001086838BFD300FF2270
:102000009A4090430CFA03F21043086070470000B6
:10201000BFF35F8F41784EF6A053CEF2000390F8E5
:1020200000C043F8081C196821F0010119604168DB
:10203000C27B21F01F0141EAC201427B41EA420119
:10204000827B114343F8041C8168007B21F01F014F
:1020500041EA400040EA0C00186070474EF62450F8
:10206000BFF35F8FCEF20000016821F48031016080
:10207000016F21F001010167BFF34F8FBFF36F8F35
:10208000704700004EF6245140F00100CEF20001EE
:10209000BFF35F8F0867086840F480300860BFF3C3
:1020A0004F8FBFF36F8F704770470000002848BF05
:1020B000704700F01F010122C0F34A1002FA01F13B
:1020C0004EF20012CEF2000242F8201070470000DB
:1020D00010B54EF60C5CCEF2000CDCF80030C3F309
:1020E000022E8EF00704042C28BF0424BEF1030343
:1020F0004FF0FF3E38BF00230EFA04F4A14399408D
:102100000EFA03F39A43114300F00F0200F160430B
:102110000901043A03F564436244002848BF02F110
:102120000C03197010BD00004EF60C51CEF20001E8
:102130000A684FF6FF031A4060F30A2242F08060FB
:1021400040F0FD700860704701220168C0F8D82295
:10215000002280F8CC22486D40F001004865486DAF
:1021600040F0020200204A6570470000002804BFCA
:1021700001207047F0B581B0044690F8950228B967
:10218000002084F89402204600F01CF9032084F813
:102190009502206802F0B6FB94E80F00267C0096BA
:1021A00002F088FB002840F0F4802068002102F053
:1021B000B3FB002840F0ED8094F804E0BEF1000F7E
:1021C00000F0E0800EF0030CBEF1040F4FF00002AF
:1021D00038D30EF0FC03A4F1A0000321012500BFB9
:1021E000CE1E80F8B4608E1E80F8DC604E1E80F833
:1021F000046180F82C110E1D013180F8B55080F873
:10220000B720C0E93122C0F8CC2080F8DD5080F83A
:10221000DF20C0E93B22C0F8F42080F8055180F8A7
:102220000721C0E94522C0F81C2180F82D5180F813
:102230002F21C0E94F22C0F84421A03099423146F5
:10224000CED1F21EBCF1000F2ED002EB820104F1C0
:10225000140000EBC105012300F831200021BCF17E
:10226000010F6B70E970C5E90411A9611CD0551C00
:1022700005EB8506BCF1020F00EBC60700F83650EF
:102280007B70F970C7E90411B9610DD0911C01EBA5
:102290008102012500EBC20300F8321000205D70BE
:1022A000D870C3E904009861BEF1000F6AD0BEF196
:1022B000040F4FF0000235D30EF0FC00032123463B
:1022C000CF1E83F854718F1E83F87C714F1E83F8E4
:1022D000CC110D1D013183F8552183F85721C3E935
:1022E0005922C3F86C2183F87D2183F87F21C3E94B
:1022F0006322C3F8942183F8A52183F8A47183F89D
:10230000A721C3E96D22C3F8BC2183F8CD2183F84E
:10231000CF21C3E97722C3F8E421A03381422946C3
:10232000CED1EA1EBCF1000F2CD002EB820304F5E3
:10233000AA7000EBC3070021BCF1010F797000F80F
:102340003320F970C7E90411B9611BD0531C03EBAA
:102350008307BCF1020F00EBC70600F8373071703D
:10236000F170C6E90411B1610CD0911C01EB81023E
:10237000002700EBC20300F832105F70DF70C3E982
:1023800004779F6194E80F00277C009702F0AAFA77
:1023900030B1022084F89502012001B0F0BD00BFE9
:1023A00000206074012084F89502207B012804BF7E
:1023B0002046FFF7C9FE206802F08CFA002001B029
:1023C000F0BD000010B5C4B0044602A808304FF4B8
:1023D0008071FEF7B5F8206846F20001C4F20101F1
:1023E000884201D044B010BD10200390002002901C
:1023F0003020429002A800F01FF8002818BFFEF716
:10240000C5FC00F00FF840F6A440C4F20240016899
:1024100041F080710160006800F0807001900198C7
:1024200044B010BD40F63800C4F20240016841F0EB
:1024300000710160704700002DE9F0470446006814
:1024400040F62848C101C4F2024807D5D8F8C010A8
:10245000A26D21F040411143C8F8C010C00712D04E
:10246000E06D052800F24684DFE810F006008807DA
:102470009C03060006000600D8F8B01021F0070102
:102480000843C8F8B00000252078800702D4284609
:102490001BE000BF206E4FEAF001052900F22E84F8
:1024A0002846DFE811F007007707890307000700D7
:1024B000070000BF064648B9D8F8B000216E20F0EA
:1024C00038000843C8F8B00000202E46217849079C
:1024D00019D5616E4FEAB111052900F21784DFE8C2
:1024E00011F007005F07710307000700070000BF36
:1024F000054648B9D8F8B000616E20F4E070084392
:10250000C8F8B000002035462178090719D5A16E1A
:102510004FEA7121052900F20184DFE811F007007C
:102520004707590307000700070000BF064648B9E0
:10253000D8F8B000A16E20F460600843C8F8B0007D
:1025400000202E462178C90619D5E16E4FEA3131B7
:10255000052900F2EB83DFE811F007002F074103A4
:1025600007000700070000BF054648B9D8F8B000CB
:10257000E16E20F4E0400843C8F8B0000020354682
:102580002178890619D5216F4FEAF131052900F22A
:10259000D583DFE811F007001707290307000700BC
:1025A000070000BF064648B9D8F8B000216F20F4F4
:1025B00060300843C8F8B00000202E462178490654
:1025C00019D5616F4FEAB141052900F2BF83DFE8F9
:1025D00011F00700FF06110307000700070000BF06
:1025E000054648B9D8F8B000616F20F4E010084300
:1025F000C8F8B000002035462178090619D5A16F2A
:102600004FEA7151052900F2A983DFE811F00700B4
:10261000E706F90207000700070000BF064648B9B1
:10262000D8F8B000A16F20F460000843C8F8B000EB
:1026300000202E466178C90719D0E16F4FEA316159
:10264000052900F29383DFE811F00700CF06E102CD
:1026500007000700070000BF054648B9D8F8B000DA
:10266000E16F20F0E0600843C8F8B0000020354674
:10267000617889071AD5D4F880104FEAF1610529ED
:1026800000F27C83DFE811F00600B606C8020600FF
:1026900006000600064650B9D8F8B000D4F88010FD
:1026A00020F060500843C8F8B00000202E46617842
:1026B000490719D5D4F88410052900F26783DFE8AB
:1026C00011F007009F06B10207000700070000BFD6
:1026D000054650B9D8F8B400D4F8841020F00700AB
:1026E0000843C8F8B40000203546617809071BD5B7
:1026F000D4F888104FEA3111052900F24F83DFE842
:1027000011F007008506970207000700070000BFC9
:10271000064650B9D8F8B400D4F8881020F07000FC
:102720000843C8F8B40000202E466178C9061BD5BE
:10273000D4F88C104FEA3161052900F23783DFE8C5
:1027400011F007006B067D0207000700070000BFBD
:10275000054650B9D8F8B800D4F88C1020F0E060E5
:102760000843C8F8B80000203546617889061CD5B2
:10277000D4F890106FF0010202EB3142022A08D324
:102780004FEA314129B1012932D104F1300001F081
:1027900057FF064650B9D8F8BC00D4F8901020F482
:1027A00040300843C8F8BC0000202E466178490636
:1027B00023D5D4F894106FF0010202EBB142022A43
:1027C00008D34FEAB14129B1012939D104F13000D0
:1027D00001F036FF054688B9D8F8BC00D4F894104B
:1027E00020F440200843C8F8BC00002005E000BFEA
:1027F0000120012661784906DBD435466178090657
:1028000023D5D4F898106FF0010202EB3152022A5E
:1028100008D34FEA315129B1012939D104F13000EF
:1028200001F00EFF064688B9D8F8BC00D4F898101D
:1028300020F440100843C8F8BC00002005E000BFA9
:102840000120012561780906DBD42E46617949070C
:1028500023D5D4F89C106FF0010202EBB152022A8A
:1028600008D34FEAB15129B101293BD104F130001D
:1028700001F0E6FE074688B9D8F8BC00D4F89C10F1
:1028800020F440000843C8F8BC00002005E000BF69
:102890000120012661794907DBD43746A178C907B1
:1028A00025D0D4F8A010002918BFB1F1007F0DD1B8
:1028B0000546E8B9D8F8BC00D4F8A01020F0407064
:1028C0000843C8F8BC00002011E000BFB1F1807FD0
:1028D00040F04C8104F1300001F0B2FE054638B9F9
:1028E000E8E700BF01200127A178C907D9D13D46FB
:1028F000D4E9001240F61C49C4F2024912050CD575
:10290000D9F8002022F40042C9F80020D4F80421AC
:10291000D9F800301A43C9F8002089031AD5D4F831
:10292000A4104FEA3121052900F24882DFE811F0B6
:1029300006007A058C01060006000600064650B91E
:10294000D8F8B400D4F8A41020F4E0600843C8F824
:10295000B40000202E46A17849071BD5D4F8A81052
:102960004FEA3131052900F23182DFE811F007002A
:102970006105730107000700070000BF054650B955
:10298000D8F8B400D4F8A81020F4E0400843C8F800
:10299000B40000203546217989061BD5D4F8AC1047
:1029A0004FEA3141052900F21982DFE811F00700F2
:1029B0004705590107000700070000BF064650B948
:1029C000D8F8B400D4F8AC1020F4E0200843C8F8DC
:1029D000B40000202E46217949061BD5D4F8B0104A
:1029E0004FEA3151052900F20182DFE811F00700BA
:1029F0002D053F0107000700070000BF054650B93D
:102A0000D8F8B400D4F8B01020F4E0000843C8F8B7
:102A1000B40000203546217909061BD5D4F8B4103E
:102A20004FEA3161052900F2E981DFE811F0070082
:102A30001305250107000700070000BF064650B92F
:102A4000D8F8B400D4F8B41020F0E0600843C8F817
:102A5000B40000202E466179C9071BD0D4F8B81005
:102A60004FEA3171052900F2D181DFE811F007004A
:102A7000F9040B0107000700070000BF054650B925
:102A8000D8F8B400D4F8B81020F0E0400843C8F8F3
:102A9000B40000203546A178090725D5D4F8C01028
:102AA0004FEA3141042900F27580DFE801F0036349
:102AB0000D111100D8F8001041F40031C8F80010D1
:102AC000064690B906E000BF04F1300001F0B8FD01
:102AD000064650B9D8F8C000D4F8C01020F4E02061
:102AE0000843C8F8C00000202E46A178C90625D5A5
:102AF000D4F8C4104FEAF14104294FD8DFE801F0BF
:102B000004420E12120000BFD8F8001041F4003148
:102B1000C8F80010054690B906E000BF04F1300087
:102B200001F08EFD054650B9D8F8C000D4F8C410A5
:102B300020F460100843C8F8C00000203546A17892
:102B4000890640F1B780D4F8D410052900F26681D7
:102B5000022900F09D800028024600F0A180D4E9FF
:102B600000139B0500F1AC805FE100BF012001254F
:102B7000BEE600BF04F1080001F0ECFC00280646A8
:102B8000B3D1A7E704F1080001F0E4FC00280546F2
:102B9000D5D1C9E701200126A7E700BF0120012503
:102BA000CDE700BF04F1300001F04AFD05460028E2
:102BB0007FF46AAC00F0EABB04F1300001F040FDA4
:102BC000FFF778BC04F1300001F03AFDFFF790BC4C
:102BD00004F1300001F034FDFFF7A8BC04F130002F
:102BE00001F02EFDFFF7C0BC04F1300001F028FD1C
:102BF000FFF7D8BC04F1300001F022FDFFF7F0BC74
:102C000004F1300001F01CFD08E500BF04F13000C4
:102C100001F016FD20E500BF04F1300001F010FDC9
:102C200038E500BF04F1300001F00AFD50E500BFB7
:102C300004F1300001F004FD6AE500BF04F130004A
:102C400001F0FEFC84E500BF04F1300001F0F8FC67
:102C500074E600BF04F1300001F0F2FC8EE600BF24
:102C600004F1300001F0ECFCA8E600BF04F13000F4
:102C700001F0E6FCC2E600BF04F1300001F0E0FC28
:102C8000DCE600BF04F1300001F0DAFCF6E600BF3C
:102C900004F1080001F05EFC002802467FF45FAFFB
:102CA000D8F8C000D4F8D41020F007000843C8F8C2
:102CB000C00000202A46D4E900139B0540F1B580EE
:102CC000D4F8D83043F00807082F0BD1824660B9FA
:102CD000D8F8C00020F008001843C8F8C000002051
:102CE000A3E000BF01204FF0010A890100F1A0809C
:102CF000FEE000BF0125FFF7C7BB00BF0120012692
:102D0000217849073FF5E5ABFFF7FDBB0120012521
:102D1000217809073FF5FBABFFF713BC0120012623
:102D20002178C9063FF511ACFFF729BC0120012528
:102D3000217889063FF527ACFFF73FBC012001262B
:102D4000217849063FF53DACFFF755BC0120012530
:102D5000217809063FF553ACFFF76BBC0120012633
:102D60006178C9077FF469ACFFF781BC01200125B8
:102D7000617889073FF57FACFFF798BC01200126F9
:102D8000617849073FF596ACFFF7AEBC01200125FD
:102D9000617809073FF5ACACFFF7C6BC01200126FE
:102DA0006178C9063FF5C4ACDEE400BF012001250F
:102DB000617889063FF5DCACF7E400BF012001260D
:102DC000A17849073FF5CAADE4E500BF0120012520
:102DD000217989063FF5E2ADFCE500BF012001261F
:102DE000217949063FF5FAAD14E600BF012001251F
:102DF000217909063FF512AE2CE600BF012001261D
:102E00006179C9077FF42AAE44E600BF012001259D
:102E1000A17809073FF542AE66E600BF0120012216
:102E2000D4E900139B053FF54BAF924689015FD56E
:102E30004FF60846CFF6FF76074659F8060040F0F1
:102E4000010049F80600FFF705F8054659F80600A5
:102E5000C00707D1FEF7FEFF401B0228F6D903206A
:102E6000032146E03846002F394642D1D8F8C80041
:102E700010F440701AD0D4F8F81001F44071884270
:102E800011D0D8F8C800D8F8C81020F4407041F428
:102E90008031C8F8C810D8F8C81021F48031C8F8BB
:102EA000C810C8F8C800C00740F0F282D4F8F80093
:102EB000D9F800104FF6CF7300F4407221F47C5122
:102EC000C0F2FF0303EA1013B2F5407F08BF1943B5
:102ED000C9F80010D8F8C8106FF31F3021F4407102
:102EE000C8F8C810D8F8C8100843C8F8C8000020AF
:102EF0005146226853011CD5D4F8C8306FF0010741
:102F000007EB3317022F0AD34FEA33173FB1012FD4
:102F100018D1D8F8007047F40037C8F8007006469A
:102F200040B9D8F8C00020F030001843C8F8C000FD
:102F300000200E46510209D43546A178090615D560
:102F400031E000BF012001265102F5D5D4F8CC10A4
:102F5000402911D011BBD8F8001041F40031C8F855
:102F60000010054678B1A17809061CD42E46E178F8
:102F7000090728D466E000BF04F1080001F0EAFA6E
:102F800000280546EFD1D8F8BC00D4F8CC1020F0CA
:102F900040000843C8F8BC000020CDE7012001250F
:102FA000A1780906E2D5D4F8D010802922D099BBA7
:102FB000D8F8001041F40031C8F80010064600B3FC
:102FC000E17809073ED5D4F8E010042900F2A08189
:102FD000DFE811F00600800128002C002C0000BF63
:102FE000D8F8001041F40031C8F80010054650BB75
:102FF0001EE000BF04F1080001F0ACFA002806460C
:10300000DED1D8F8BC00D4F8D01020F080000843FE
:10301000C8F8BC000020A9E701200126E1780907D3
:10302000D1D40FE004F1300001F00AFB054650B99D
:10303000D8F8B800D4F8E01020F007000843C8F82A
:10304000B80000203546E178C90627D5D4F8E41049
:103050004FEAF101042900F25F81DFE811F0050079
:1030600045010F0013001300D8F8001041F400319F
:10307000C8F80010064690B906E000BF04F1300021
:1030800001F0DEFA064650B9D8F8B800D4F8E410DA
:1030900020F038000843C8F8B80000202E46E17838
:1030A000890627D5D4F8E8104FEAB111042900F2B7
:1030B0003781DFE811F0050023010F001300130032
:1030C000D8F8001041F40031C8F80010054690B956
:1030D00006E000BF04F1300001F0B2FA054650B935
:1030E000D8F8B800D4F8E81020F4E0700843C8F825
:1030F000B80000203546E17849061BD5D4F8EC101D
:103100004FEA7121052900F22181DFE811F0070063
:10311000AF010D0107000700070000BF064650B9C8
:10312000D8F8B800D4F8EC1020F460600843C8F870
:10313000B80000202E46E17809061BD5D4F8F0101F
:103140004FEA3131052900F20981DFE811F007006B
:103150009501F30007000700070000BF054650B9BE
:10316000D8F8B800D4F8F01020F4E0400843C8F8CC
:10317000B800002035462179C9071BD0D4F8F410D7
:103180004FEAF131052900F2F180DFE811F0070084
:103190007B01D90007000700070000BF064650B9B1
:1031A000D8F8B800D4F8F41020F460300843C8F818
:1031B000B80000202E46217989071BD5D4F8DC10F1
:1031C000032900F28380DFE801F00903770900BFDB
:1031D000D8F8001041F40031C8F80010054650B985
:1031E000D8F8BC00D4F8DC1020F003000843C8F87D
:1031F000BC00002035462179490721D5D4F8BC1000
:1032000059B1B1F5007F0BD0B1F5807F3CD1D8F832
:10321000001041F40031C8F80010064688B905E0F6
:1032200004F1080001F096F9064650B9D8F8C0003C
:10323000D4F8BC1020F440700843C8F8C000002047
:103240002E462179C90624D5D4F80011302909D099
:10325000202909D010292DD1D8F8001041F40031CF
:10326000C8F80010B0B904E004F1300001F0E8F94A
:1032700080B9D8F8BC00D4F8001120F03000084321
:10328000C8F8BC0005E000BF012601202179C9066D
:10329000DAD430462179090758BFBDE8F087D8F85D
:1032A000C010D4F8FC2021F0C0011143C8F8C010B0
:1032B000BDE8F0870120EDE704F1080001F04AF9CC
:1032C000002805467FF497AF8AE700BF012501205B
:1032D00091E700BF04F1080001F03CF90028054621
:1032E0007FF4B1AEA4E600BF04F1080001F032F9AA
:1032F000002806467FF4D3AEC6E600BF04F10800FE
:1033000001F028F9002805467FF4F5AEE8E600BF95
:103310000120012597E600BF01200126BFE600BF7E
:1033200001200125E7E600BF04F1300001F088F933
:10333000F4E600BF04F1300001F082F90EE700BFAF
:1033400004F1300001F07CF928E700BF01200126DC
:10335000E17809063FF5F2AE0CE700BF0125012038
:103360002179C9077FF40AAF24E700BF01260120B5
:10337000217989073FF522AF3CE700BF04F108003F
:1033800001F0E8F8054600287FF47EA8E06DFFF71D
:1033900073B800BF04F1080001F0DCF8FFF78AB849
:1033A00004F1080001F0D6F8FFF7A2B804F1080014
:1033B00001F0D0F8FFF7BAB804F1080001F0CAF83C
:1033C000FFF7D2B804F1080001F0C4F8FFF7EAB83B
:1033D00004F1080001F0BEF8FFF702B904F108009B
:1033E00001F0B8F8FFF71AB904F1080001F0B2F8DB
:1033F000FFF732B904F1080001F0ACF8FFF74AB961
:1034000004F1080001F0A6F8FFF762B904F1080022
:1034100001F0A0F8FFF77CB904F1080001F09AF878
:10342000FFF796B904F1080001F094F8FFF786BAA7
:1034300004F1080001F08EF8FFF7A0BA04F10800CB
:1034400001F088F8FFF7BABA04F1080001F082F839
:10345000FFF7D4BA04F1080001F07CF8FFF7EEBAE8
:1034600004F1080001F076F8FFF708BB04F108004A
:1034700001F070F852E600BF04F1080001F06AF8AC
:103480006CE600BF04F1080001F064F886E600BFB6
:10349000FEF7E0FC054641F2883600BFD8F8C800C8
:1034A00080073FF503ADFEF7D5FC411B0320B14279
:1034B0004FF00301F2D91CE52DE9F04381B000285B
:1034C00000F0D08042F20008C4F202080446D8F8A6
:1034D00000000D4600F00F0088420DD2D8F8000021
:1034E00020F00F002843C8F80000D8F8000000F0D2
:1034F0000F00A84240F0B680206840F62047C10681
:10350000C4F202470CD561693A68702303EA1222BB
:10351000914205D93A6822F4E04242EA0121396039
:1035200001070CD521693A68702303EA121291420F
:1035300005D93A6822F4E06242EA01113960410794
:103540000AD5E1683A6802F07002914204D93A68FB
:1035500022F070021143396081070AD5A1683A68E8
:1035600002F00F02914204D93A6822F00F0211438F
:103570003960C00768D1206881070AD5A1683A6818
:1035800002F00F02914204D23A6822F00F02114376
:103590003960D8F8001001F00F01A9420CD9D8F811
:1035A000001021F00F012943C8F80010D8F80010CE
:1035B00001F00F01A94255D141070AD5E1683A68E7
:1035C00002F07002914204D23A6822F07002114374
:1035D000396001070CD521693A68702303EA121299
:1035E000914205D23A6822F4E06242EA0111396060
:1035F000C0060CD560693968702202EA1121884240
:1036000005D2396821F4E04141EA0020386000F039
:103610009BF839684DF2245201F00F01C0F6000208
:10362000525C41F6C401C2F20001096841F6D003C0
:1036300020FA02F2C2F2000308461A6001B0BDE8A7
:10364000F043FEF771BC00BF606857F8201C0128EA
:103650000CD0022804D003285AD1890102D507E0F2
:10366000890305D4012001B0BDE8F0838905F9D5AF
:1036700057F8041C21F00301084347F8040CFEF737
:10368000E9FB61680646032941F2883939D00229ED
:1036900029D0012910D100BF57F8040C00F0180000
:1036A00008283FF468AFFEF7D5FB801B48454FF074
:1036B0000300F1D90DE000BF57F8040C10F0180F0B
:1036C0003FF459AFFEF7C6FB801B48454FF003009F
:1036D000F2D901B0BDE8F083FEF7BCFB801B484582
:1036E0004FF00300F5D857F8040C00F0180010282C
:1036F000F2D140E7FEF7AEFB801B48454FF00300D8
:10370000E7D857F8040C00F018001828F2D132E777
:103710008907A7D5ACE7000080B500F015F840F6A2
:103720002041C4F2024109684DF2245201F00F0118
:10373000C0F60002515C01F01F01C84041F6D00103
:10374000C2F20001086080BD80B540F60041C4F2BD
:103750000241C86900F01800082802BF40F60010B6
:10376000C0F23D0080BDC86910F0180F34D0C869A0
:1037700000F01800102802BF47F64000C0F27D108C
:1037800080BDC86900F01800182849F20000C0F296
:10379000D03066D1D1F828E08A6AC2F3052C8A6A53
:1037A0008B6BBCF1000F04BF002080BDDB08D2068C
:1037B00003EAE2726FF35F3200EE102A0EF00302AA
:1037C000B8EE400A032A15D0012A17D10A689206DA
:1037D00018D49FED251A1DE00868800649F2000004
:1037E000C0F2D03058BF80BD0968C1F3C101C840E4
:1037F00080BD00BF9FED1B1A0CE000BF9FED1B1AA0
:1038000008E000BF0A68C2F3C102D04001EE100A0E
:10381000B8EE411A02EE10CA486BB8EE422A6FF3B6
:103820005F2081EE021A02EE100A9FED113AB8EE07
:10383000422A20EE030A486B30EE020AB7EE002A55
:10384000C0F3462030EE020A013021EE000A01EEFC
:10385000100AB8EE411A80EE010ABCEEC00A10EE62
:10386000100A80BD20BCBE4B0024744C0024744A56
:1038700000000039002804BF012070472DE9F04303
:1038800081B040F6004740F6F0490446C4F20247D2
:10389000C4F20249F86959F8C81C227800F01808E7
:1038A000D00601F003062AD5B8F1080F1CD0B8F1F4
:1038B000180F08BF022E17D0E1693868002900F000
:1038C0006D8140F480703860FEF7C4FA054600BF91
:1038D000386880050CD4FEF7BDFA401B02284FF073
:1038E0000300F5D958E200BFE069002800F0E48049
:1038F000B869216A20F47C1040EA0140B861207860
:10390000C00719D0B8F1100F12D0B8F1180F08BFC6
:10391000032E0DD061683868B1F5A02F60DA002958
:1039200000F0B081B1F5803F00F0CE819EE100BF94
:103930006068002800F0C0802078800777D5B8F153
:10394000000F21D0E068B8F1180F08BF012E55D044
:103950003968002800F06681206921F018010843C9
:103960003860386840F001003860FEF773FA0546A9
:103970003868800754D4FEF76DFA401B02284FF0D8
:103980000300F5D908E200BFE068002800F0948049
:103990003968206901F01801814231D0396821F07D
:1039A000180108433860FFF7CFFE396A4DF2245200
:1039B00001F00F01C0F60002515C41F6D00201F0A7
:1039C0001F0120FA01F141F6C400C2F200000068B4
:1039D000C2F200021160FEF7A7FA00286CD10FE0D6
:1039E00000F06A81B1F5A81F40F0408140F48020CA
:1039F0003860386840F4801064E100BF00285BD074
:103A0000FEF728FA054600BF3868800708D4FEF79D
:103A100021FA401B0228F7D9032001B0BDE8F0834A
:103A20003869616920F4FE0040EA0140386120787D
:103A3000000745D4207840075CD42078800600F148
:103A40007F80A56AA5B3B8F1180F40F0C98059F876
:103A5000C81C59F8BC0C012D2ED0E26A01F00303FA
:103A6000934229D1C1F30521226B914224D1626B8B
:103A700001466FF35F21013A91421DD1A16BC0F362
:103A8000462201398A4217D1E16BC0F3064201395F
:103A90008A4211D1216CC0F30660013988420BD1F2
:103AA00059F8B80CE16CC0F3CC00884240F0E881D2
:103AB000002001B0BDE8F083012001B0BDE8F08333
:103AC000A169D9F80000002952D040F08060C9F8FF
:103AD0000000FEF7BFF90546D9F800000001A9D49F
:103AE000FEF7B8F9401B0228F6D9032001B0BDE863
:103AF000F08300BF4FF62446CFF6FF76B859C007D3
:103B000012D1B85940F00100B851FEF7A3F90546AB
:103B1000B859C00708D1FEF79DF9401B02284FF0A5
:103B20000300F5D938E100BFA168D9F800000429E5
:103B300046DC002900F0EA80012900F01781D5E079
:103B4000616A3868002900F07F8040F48050386056
:103B5000FEF780F9054600BF386880043FF571AF75
:103B6000FEF778F9401B02284FF00300F4D913E167
:103B700020F08060C9F80000FEF76CF9054600BF30
:103B8000D9F8000000017FF555AFFEF763F9401B3F
:103B900002284FF00300F3D9FEE000BF20F480704C
:103BA0003860FEF757F90546386880057FF5A7AEFF
:103BB000FEF750F9401B02284FF00300F4D9EBE068
:103BC000052900F0C780852940F0908040F004006E
:103BD000C9F80000D9F8000040F08000C2E000BF42
:103BE000386820F080703860FEF734F9022D054601
:103BF0000CD100BF3868800140F1D280FEF72AF96D
:103C0000401B02284FF00300F4D9C5E0386880015A
:103C100040F12881FEF71EF9401B02284FF00300F7
:103C2000F4D9B9E021F001003860FEF713F9054638
:103C3000386880077FF5FBAEFEF70CF9401B0228C1
:103C40004FF00300F4D9A7E020F480503860FEF76D
:103C500001F90546386880047FF5F3AEFEF7FAF8FF
:103C6000401B02284FF00300F4D995E020F4803087
:103C70003860386820F480203860386820F480107C
:103C800024E000BF20F480303860386820F48010D1
:103C90003860386820F480203860FEF7DBF805468D
:103CA000386880037FF548AEFEF7D4F8401B6428DF
:103CB0004FF00300F4D96FE040F48020386038689A
:103CC00020F480103860386840F480303860FEF7A7
:103CD000C1F80546386880033FF52EAEFEF7BAF806
:103CE000401B64284FF00300F4D955E020F0010098
:103CF000C9F80000D9F8000020F00400C9F800005D
:103D0000D9F8000020F0800032E000BF20F0010070
:103D1000C9F80000D9F8000020F08000C9F80000C0
:103D2000D9F8000020F00400C9F80000FEF792F86E
:103D3000054641F2883600BFD9F8000080077FF5BC
:103D40007CAEFEF787F8401BB0424FF00300F3D97A
:103D500022E000BF40F00400C9F80000D9F80000DC
:103D600020F08000C9F80000D9F8000040F0010000
:103D7000C9F80000FEF76EF8054641F2883600BF2C
:103D8000D9F8000080073FF558AEFEF763F8401BF6
:103D9000B0424FF00300F3D901B0BDE8F08300BF9B
:103DA00059F8C80C43F6037104F12C0388430ECB79
:103DB000084340EA0220A16B49F8C80C4FF47E4248
:103DC00002EB4121E26B581E4FF4FE0389B203EB74
:103DD00002426FF35F20084402F4FE01226C4FF0B0
:103DE000FE4303EB0262084402F0FE41084449F836
:103DF000BC0C59F8C80C20F0100049F8C80CE06C55
:103E0000C00049F8B80C59F8C80C40F0100049F847
:103E1000C80C59F8C80C616C20F00C00084349F834
:103E2000C80C59F8C80CA16C20F02000084349F8D0
:103E3000C80C59F8C80C40F4803049F8C80C3868F0
:103E400040F080703860FEF705F80446386880015D
:103E50003FF52EAEFDF7FEFF001B02284FF00300DA
:103E6000F4D999E759F8C80C4FF6FC71CFF6F87100
:103E7000084049F8C80C002001B0BDE8F08300BF3D
:103E800059F8C80C20F0100049F8C80CFDF7E2FF03
:103E90000546FDF7DFFFA842FBD0E06CC00049F803
:103EA000B80C59F8C80C40F0100049F8C80C0020B4
:103EB00001B0BDE8F083000040F20051C4F20041BF
:103EC0000A6822F46002104308607047042888BF23
:103ED0007047DFE800F0031B13352D004EF2100091
:103EE000CEF20000016821F00401016040F6E440D8
:103EF000C4F20240016821F00C0120E04EF21000F3
:103F0000CEF200000168022206E000BF4EF210006F
:103F1000CEF200000168012221F00401016040F6A8
:103F2000E440C4F20240016862F3830107E000BF8D
:103F30004EF21000CEF20000016841F00401016071
:103F400070470000411E0020B0EB116F1CBF012024
:103F500070474EF21002CEF200025160906011687C
:103F600041F00301116070474EF21000CEF20000E4
:103F70000068400744BF0420704740F6E440C4F2A4
:103F80000240006800F00C01081FB0FA80F0400900
:103F9000082908BF0220704770B50446FDF75AFF94
:103FA000002C04BF012070BD054600206065216D16
:103FB000002918BF70BD204600F082F841F2883019
:103FC000A0652068D4E903C3666981684CF2FC02ED
:103FD000CFF6E0020A4042EA0C026FF0FF0EE16900
:103FE00042EA03420EEB06231143194341F2004318
:103FF00040F08052C5F200739A42816005D1816819
:10400000626B21F0080111438160C168236A21F4C9
:10401000E0211943D4F804C0266BA26BC16001698A
:1040200021F4F81141EA06410161426101680EEB99
:104030000C2221F4F85111430160016A89060AD566
:1040400041F28836FDF706FF401BB04230D82068A9
:10405000016A8906F6D4C168D4E9096521F0FF0137
:104060003143A268A369C1600168022B21F04001BD
:1040700041EA02010160D0F80811E26A21F0A04192
:1040800041EA050141EA0201C0F80811016841F066
:104090000101016003D1816841F002018160E068A3
:1040A000B0F1806F14BF022001202065002070BD98
:1040B00002202065606D40F001006065032070BD46
:1040C0002DE9F04FC9B0044602A8002508304FF48E
:1040D00080714895CDE94655CDE94455FCF730FA55
:1040E000206841F20041C4F20071884202D049B018
:1040F000BDE8F08F4FF0020802A8CDE90258FEF7A4
:104100009BF9002818BFFCF741FE40F68C40C4F232
:104110000240816840F2004641F48011816081686C
:10412000C4F2022601F4801101910199016806F59B
:10413000406441F010010160016844AD01F01001DC
:104140000191019901684FF0000941F001010160FE
:104150000168032701F001010191019901684FF005
:10416000090B41F0020101600068294600F00200DD
:10417000019001980420CDE944082046CDF818911B
:104180004797CDF820B1FDF79BFD402044A981E879
:1041900001034FF0060AA6F5806029464797CDF83F
:1041A00020A1FDF78DFD44A880E880033046294614
:1041B000CDE9477AFDF784FD042044A981E8010395
:1041C00030462946CDE9477BFDF77AFD4FF4006084
:1041D00044A981E8010320462946CDE9477AFDF745
:1041E0006FFD49B0BDE8F08FFEE7000070B586B006
:1041F00041F61025C2F200050024C5E90044AC6078
:10420000AC8104F069F847F2F520C0F6000005948F
:10421000CDE90344CDE9004005F1100447F2F51C57
:1042200005A904AA03AB2046C0F6000CCDF808C0CF
:1042300004F06EFC204604F095FD48F60961C0F6D6
:104240000001204604F0BAFD204604F0BBFD2046E4
:1042500004F08EFD012620466E7301F093FE2E734E
:1042600006B070BDB0B541F61025C2F2000505F1EB
:104270001004204603F098F805F08EF905F11402B9
:1042800007CA85E80700204601F0FCFE10B10220B5
:1042900028730BE0287B012808D1A86B30B1807906
:1042A0000B2838BFB0BD0320F2E700BFB0BD00004F
:1042B00080B541F6F84041F20041C2F20000C4F27C
:1042C00003010022C0E90012FCF76AFD002808BFC4
:1042D00080BDBDE88040FCF759BD000010B541F637
:1042E000D01448F20000C2F20004C0F2E1002060E5
:1042F00041F624500021C2F2000048F20002A180E1
:104300000121C4F20202017241F6A03141F64033AC
:10431000C0E90024C2F2000140F2F452C2F20003EC
:10432000C0E903134261FCF769FE002818BFFCF7DF
:104330002DFD04F10C003421FCF702F92120A060CE
:104340004FF44030E06110BD80B541F6D4504AF2E0
:104350000041C2F20000C4F200010022C0E90012D4
:1043600010210123C0E90222C0F80F20C0E9051383
:10437000C0E90733C0E90933C0E90B33C0E90D22B6
:10438000C263FDF72DFB002808BF80BDBDE880405B
:10439000FCF7FCBC2DE9F04F87B0002440F68C40C0
:1043A0000694CDE90444CDE90244C4F20240016818
:1043B00040F6000841F0100101600168C4F20228D3
:1043C00001F0100101910199016808F5006641F0C2
:1043D000040101600168002201F0040101910199CA
:1043E0000168082741F001010160016801F0010145
:1043F00001910199016841F002010160016801F039
:10440000020101910199016841F008010160006811
:10441000082100F00800019001983046FDF714FDD6
:1044200008F5806528464FF4807101224FF4807AA8
:104430004FF00109FDF708FD40464FF4805100227E
:104440004FF4805BFDF700FDCDE9027902AF304605
:104450003946CDE90444FDF733FC1120CDE90304CE
:1044600028463946CDF808A00594FDF729FC4046BA
:104470003946CDE902B9CDE90444FDF721FC07B086
:10448000BDE8F08F80B586B04FF0C04100200291AA
:104490000121CDE9031001A901900590FDF7EAFC87
:1044A000002818BFFCF772FCFDF7DAFC002818BFE3
:1044B000FCF76CFC06B080BD80B542F21C1041F2E6
:1044C00000430121C2F20000C4F200730022C0E9DF
:1044D000003100F108034FF0807C4FF0140E83E8A8
:1044E0000450C0E9051213210823C261C0E9082164
:1044F000C0E90A22C0E90C238263FFF74DFD0028C2
:1045000008BF80BDBDE88040FCF740BC80B541F6E7
:10451000386046F20001C2F20000C4F201010160FD
:10452000082101710221C17141720021C0F80A10F5
:10453000C0F80D10FDF71AFE002808BF80BDBDE8C9
:104540008040FCF723BC0000FEE70000FEE700000F
:104550007047000070B540F62C46C4F2024656F88B
:104560002C1C044621F0806046F82C0CFDF772FCF0
:10457000054600BF56F82C0C000105D5FDF76AFC76
:10458000401B0228F6D958E0306843F6037188438F
:1045900094E80E00084340EA0220E16830604FF4DE
:1045A0007E4202EB41212269581E4FF4FE0389B27C
:1045B00003EB02426FF35F20084402F4FE016269DC
:1045C0004FF0FE4303EB0262084402F0FE41084450
:1045D00030613068A16920F00C0008433060306819
:1045E000E16920F0200008433060606A31680843C8
:1045F000306030684FF6F87120F01000306070695C
:10460000226A884340EAC2007061306840F01000BE
:10461000306056F82C0C40F0806046F82C0CFDF70A
:1046200019FC044656F82C0C000144BF002070BD54
:10463000FDF710FC001B0328F4D3032070BD00001D
:1046400070B540F63046C4F2024656F8301C0446B7
:1046500021F0805046F8300CFDF7FCFB054600BF0A
:1046600056F8300C800005D5FDF7F4FB401B0228FE
:10467000F6D958E0306843F60371884394E80E0099
:10468000084340EA0220E16830604FF47E4202EBCA
:1046900041212269581E4FF4FE0389B203EB024206
:1046A0006FF35F20084402F4FE0162694FF0FE439D
:1046B00003EB0262084402F0FE4108447061306876
:1046C000A16920F00C00084330603068E16920F0F7
:1046D000200008433060606A316808433060306809
:1046E0004FF6F87120F010003060B069226A8843FC
:1046F00040EAC200B061306840F01000306056F807
:10470000300C40F0805046F8300CFDF7A3FB044617
:1047100056F8300C800044BF002070BDFDF79AFBB6
:10472000001B0328F4D3032070BD00007047000075
:10473000FDF7C6BB10B59CB040F6140408A8502184
:10474000C4F20244FBF7FCFE0020CDE90600CDE9EF
:104750000400CDE9020054F8040C40F0300044F8A5
:10476000040C54F8040C00F030000190019820680B
:10477000000709D4206800075CBF20685FEA00706A
:1047800002D420680007F2D5302008904FF4805002
:1047900011904FF480700F90202001211090022082
:1047A00014917D21CDE91200CDE91510CDE9170056
:1047B00008201990002408A8CDE91A44FFF75AF8F8
:1047C00010B172B6FEE700BF1F2002900320CDE9B2
:1047D000030402A80521CDE905440794FEF76CFE09
:1047E00010B172B6FEE700BF42F20000C4F2020050
:1047F0000168022262F3051101601CB010BD0000C7
:104800004EF6885CCEF2000CDCF800104EF6FB2071
:1048100041F47001CCF8001040F60041C4F20241AE
:104820000A68CEF6E22002F0180201320A60002285
:10483000CA610A620B681840086040F28020C0F22A
:1048400001108A62CA620A6348638A63C8630A64A1
:1048500048648A64086820F4802008600A654FF084
:10486000006042F21C01C4F202014CF8800C51F8C5
:10487000040C420F062A05D800F06040B0F1404F0A
:1048800018BF70470868C0070BD042F63B20C0F63F
:10489000190041F8100C46F67F60C4F65D4041F8FF
:1048A000100C086840F002000860086840F0010041
:1048B00008607047002804BF01207047016C21F098
:1048C00000410164016C41F0010101640021416477
:1048D000002070470146806D20F4004200208A6568
:1048E00070470000014601200864086C002220F097
:1048F00001000864086C20F00040086400204A644D
:10490000704700000146006C4BF6807220EA0202FC
:1049100000200A6470470000012909D000291CBF4B
:1049200001207047016C21F00041016400207047B4
:10493000016C41F00041016400207047FEE7000077
:10494000002808BF70472DE9F04182B0856A002D2C
:1049500000F095806A79082A40F091800968EA6938
:10496000914240F08C8007460C20A5F805000020FD
:10497000288136204FF49A714FF4207204F084FAA3
:10498000002875D0A97941F6E8280446C2F200084B
:1049900011B1D8F8081004E0FBF7D0FC0146C8F8C4
:1049A000080066682960B01C4FF49971FBF7A6FDFA
:1049B00040F20110308097F838102868B17003F089
:1049C00087FC79687060F16097F83200307797F86B
:1049D0003300707797F83400B07797F83500F077A8
:1049E00097F8360086F8200097F8370086F82100FF
:1049F00048F26320C6F25330C6F8EC0040F235109E
:104A0000A6F8F000042086F8F200666840F2324012
:104A1000A6F8F300E86903F05BFC010E86F8F510D8
:104A2000010C86F8F610010A86F8F800FF2086F8D7
:104A3000F71086F8F90006F1FA003A21FBF75EFD5F
:104A400020464FF49A7104F017FDD8F804004DF297
:104A500044524DF24056C0F600022146C0F6000610
:104A60004323CDE9007608F05BFC204604F076FC99
:104A7000A879FF281CBF0130A8711420288102B03A
:104A8000BDE8F04170470000002871D0816A00291C
:104A900008BF704710B582B08B6A4FF0000CA1F8C8
:104AA00012C048F6890C5A1CC8F6880C0ED003F1C7
:104AB0001E0EAEFB0C235A094FF6FF74A24238BFFC
:104AC0005C09BEF13C0F38BF01248C82CB6A5A1CB2
:104AD0000FD003F11E02A2FB0C344FEA541E4FF616
:104AE000FF739E4538BF63093C2A38BF01234B81C1
:104AF000CB810B6B5A1C0FD01E33A3FB0C244FEA47
:104B0000541C4FF6FF72944538BF62093C2B38BFE6
:104B100001228A810A8200E08A89013A4B8992B295
:104B20009A423CBF00224A81CA790AB10A6A0CE063
:104B300091F91C20002A01D4FF2206E0D2B2C02A3B
:104B400034BF4FF6FF726FF07F4201924A794B6A91
:104B50000A2A009304D00A22A1F8052000220A8123
:104B60001C3101AA6B4604F077F802B0BDE8104092
:104B70007047000010B5846A6179082904D00821C3
:104B8000A4F805100021218104F11C01002202F08B
:104B900075F8A079FF281CBF0130A0710120208189
:104BA00010BD00002DE9F04F83B041F69820C2F20D
:104BB00000000468002C00F06581012540F22249C4
:104BC00040F2324A0DF10A0B0AE000BF204600F025
:104BD000CFFE204601F0D6F92468002C00F0528167
:104BE000A76A002FF8D078790028F5D0B98A29B1C2
:104BF0007A8A013293B27A828B42E7D0398A19B12C
:104C000001390A04398219D0F9890029E4D001391F
:104C10000A04F981E0D10A28DED805FA00F010EA8A
:104C2000090FD9D0204600F073FFB889798A401A5D
:104C30000228D1DB80B24008F881CDE70A28CBD822
:104C400005FA00F111EA0A0FC6D0042804D00420A6
:104C5000A7F80500002038812046394603225B462C
:104C600000F014F9002800F0E680BDF80AB006460E
:104C7000D0F804A00BF1010080B20AF1F00939214B
:104C8000022209F80B1009F800200BF10201208E16
:104C900089B2020A0BF1030309F8012099B20BF162
:104CA000040209F8010090B20BF10501372209F85E
:104CB000002088B20BF10601032209F8002088B217
:104CC0000BF1070109F8005088B20BF1080189B215
:104CD00009F800201C2009F80100E56A0BF1090819
:104CE000002DADF80A8071D02846FBF7A3FB002801
:104CF0006CD01FFA88F20C23C2F14101884238BF00
:104D000001460BF10A0080B2412A09F8023009F885
:104D100000100FD14FF04308FF20ADF80A808AF849
:104D20003301012540F2224940F2324A0DF10A0BCB
:104D30006AE000BF0BF10B0811F00302A1F1010CB6
:104D400023D02B4613F801EB1FFA88F00BF10C0867
:104D5000012A09F800E003D11D46614615E000BFB5
:104D600068781FFA88F30BF10D08022A09F803008E
:104D700002D10239023508E0A8781FFA88F2033917
:104D800003350BF10E0809F80200BCF1030F1DD327
:104D9000281F00BF10F8042F1FFA88F308F101053F
:104DA00009F803204278ABB208F1020509F80320A4
:104DB0008278ABB208F1030509F80320C278ABB2E0
:104DC000043908F1040809F80320E3D108F10100CF
:104DD00080B21FFA88F143284FF0FF024FF001051F
:104DE0000DF10A0BADF80A8009F8012008D8C8F1C6
:104DF000420189B248440131FBF780FB4FF0430880
:104E000040F2224940F2324A08F1F10081B23046C4
:104E100004F032FB41F6E820C2F2000040684DF297
:104E200044523146C0F600024323009408F04AFA87
:104E3000304604F093FAB879C0B2411CCAB28A4233
:104E400002D0142013E000BF4FF47A7302FB03F288
:104E5000B97102F2F31292B209284FEA920142F2BA
:104E6000C5024FF0140001FB02F138BF080DB98AEA
:104E70007A8A3881891A0229FFF6AEAE88B24008D4
:104E80003882A9E603B0BDE8F08F00002DE9F043B9
:104E900081B0064600284FF000001CBF0F460029D5
:104EA00002D101B0BDE8F083154636204FF49A7167
:104EB0004FF42072994603F0E7FF68B1032D02D149
:104EC0007979032917D1B97951B141F6E821C2F2B4
:104ED000000189680EE000BF002001B0BDE8F0834A
:104EE0000446FBF72BFA41F6E82201462046C2F2BF
:104EF00000029160396044688046A01C4FF49971AB
:104F0000FBF7FCFA40F20110208096F83810386860
:104F1000A17003F0DDF9E91F0229606008D3042DB8
:104F200006D0032D06D1787900F0FE00042801D1C7
:104F30007068E06096F83200B9F1000F207796F8BB
:104F40003300607796F83400A07796F83500E07764
:104F500096F8360084F8200096F8370084F8F2506E
:104F600084F8210048F26320C6F25330C4F8EC0004
:104F700040F23510A4F8F0001CBF0320A9F800008F
:104F8000404601B0BDE8F0832DE9F04182B0866A69
:104F90000446717900200629F06103D00621A6F8A5
:104FA0000510308136204FF49A714FF4207203F0CF
:104FB0006BFF002872D0B17941F6E8280546C2F2AD
:104FC000000819B1D8F8081005E000BFFBF7B6F9E2
:104FD0000146C8F808006F683160B81C4FF4997139
:104FE000FBF78CFA40F20110388094F838103068E2
:104FF000B97003F06DF9786094F8320040F239210D
:10500000387794F83300787794F83400B87794F8C8
:105010003500F87794F8360087F8200094F83700C8
:1050200087F8210048F26320C6F25330C7F8EC003D
:1050300040F23510A7F8F000012087F8F200686808
:10504000A0F8F310218E0A0A80F8F61040F23731EA
:10505000A0F8F71040F20131CFF61C7180F8F5206E
:10506000C0F8F910FD303721FBF748FA28464FF415
:105070009A7104F001FAD8F804004DF244524DF24E
:105080004057C0F600022946C0F600074323CDE989
:10509000004708F045F9284604F060F9B079C1B23C
:1050A0004A1CD3B293424FF0780010D14FF47A7774
:1050B00007FA03F39BB2B27103F2F31241F26F23CA
:1050C000C0F28303A2FB0323052938BF18463081B1
:1050D00002B0BDE8F0810000F0B581B041F6982043
:1050E000C2F200000468002C4ED00025012604E026
:1050F000013838812468002C46D0A76A002FF9D0E7
:1051000038890228F4D20128F4D178793D81013818
:105110000B28EFD8DFE800F00C0614060608061C82
:1051200006060608E6E700BF2046FFF72DFFE1E789
:10513000B87905281CD8204600F0D8FDDAE700BF72
:10514000B8790128F0D8204600F0A2F8D2E700BFD5
:10515000B879012814D807F11C012046002201F07B
:105160008DFDB879FF281CBF0130B8713E81C1E7C1
:10517000204600F0FDFB204600F004FFBAE700BF28
:105180002046FFF781FCB5E701B0F0BDB0B541F6B0
:10519000E825C2F20005EA7C04460020C4E90800C4
:1051A000002A1CBF686AA062287D28B1A86A6A7DAF
:1051B000E0623AB1E86A09E0A06A40086A7DE0620C
:1051C000002AF7D1A06AC0EBC000C0082063A87D08
:1051D0000969E16130B1286B03F07AF8206201209F
:1051E00001E000BF0020E071E87D002808BFB0BDED
:1051F000686B03F06DF86062B0BD000010B5816AA5
:1052000004464A790C2A04D00C22A1F80520002279
:105210000A814DF24051C0F6000120460A460B4675
:1052200003F01AFD2046BDE81040FFF7ADBE0000B8
:1052300041F6E822C2F20002937C002B08BF7047BF
:1052400070B50C46116A866A00230546084633810C
:1052500003F03EF82169B0612846F161BDE8704075
:1052600000F044BD816A69B14A79D31E032B04D38F
:10527000002A08BF70470A2A06D100228A7100F06E
:1052800007B800BF704700BF00228A71FFF77CBEDD
:105290002DE9F04F83B0846A80466079032804D0FA
:1052A0000320A4F80500002020810DF10A034046E8
:1052B000214603224FF0030AFFF7E8FD002800F023
:1052C000DA80BDF80A70D0F804B08146781C0BF182
:1052D000F005392180B2E955B91C02222A5488B25E
:1052E000F91C2A54381D89B2402280B26A54791DB3
:1052F00032222A5488B204212954E069BE1DADF837
:105300000A6002F0E5FFB1B2020EFB1D6A549AB2C8
:10531000010C07F10803A9549AB2010A07F1090325
:10532000A95499B207F10A02685490B207F10B012F
:1053300037222A5488B207F10C0105F800A088B280
:1053400007F10D0101222A5488B207F10E0105F878
:1053500000A088B21C212954D8F82CA007F10F0610
:10536000BAF1000FADF80A605CD05046FBF762F866
:10537000002857D0B2B20C23C2F14101884238BF95
:10538000014607F1100080B2412AAB54295407D1DD
:105390004326FF20ADF80A608BF8330153E000BFCD
:1053A00007F1110611F00302A1F1010C21D05346BF
:1053B00013F801EBB0B207F11206012A05F800E07C
:1053C00002D19A46614614E09AF80100B3B207F19F
:1053D0001306022AE85403D102390AF1020A08E04E
:1053E0009AF80200B2B203390AF1030A07F114066F
:1053F000A854BCF1030F15D3AAF1040010F8042F30
:10540000B3B2771CEA544278BBB2B71CEA54827834
:10541000BBB2F71CEA54C278BBB2043906F10406E9
:10542000EA54EBD1701C80B2B1B2FF224328ADF830
:105430000A606A5407D8C6F1420189B22844013192
:10544000FBF75CF8432606F1F10081B2484604F010
:1054500013F841F6E820C2F2000040684DF24452D1
:10546000C0F6000249464323CDF8008007F02AFF2A
:10547000484603F073FFA079C1B24A1CD3B29342ED
:105480004FF0140010D14FF47A7703FB07F3A271A9
:1054900003F2F3139BB209294FEA930242F2C503C8
:1054A00002FB03F238BF100D208103B0BDE8F08F7E
:1054B0002DE9F04F85B042F27810C2F20000446846
:1054C0001046A56A002D00F0F3812979002900F02B
:1054D000EF8141892C29C0F0EB8141680A78022ACA
:1054E00040F0E68194F8382042B194F832300F7FD2
:1054F000BB4240F0DD81012A40F0B281496803904F
:10550000084602F0E5FE2A6801460398914240F001
:10551000CF8141F6E821C2F200010022C1E9042254
:1055200041892C29C0F0C481B0F80880F0214FF6E1
:10553000FD7901920092064673898AB29A4227D376
:105540003668002E00F0B481C91A72898FB2A8EBB8
:10555000030897421CD33668002E00F0A981891AEF
:1055600073898FB2A8EB02089F4211D33668002ED0
:1055700000F09E81C91A72898FB2A8EB0308974286
:1055800006D33668891A002EA8EB0208D4D18FE121
:105590001FFA88F28BB2934280F0468172680292C1
:1055A00006E000BF1FFA88F28BB2934280F022819E
:1055B0001FFA81FB029A12F80B20FF2A00F01A81D1
:1055C000CB4500F27581B6F80AC00BF101076745BB
:1055D00006D2029B1F4497F800E03B2A0DD9FFE05A
:1055E00037682FB17F6897F800E03B2A05D9F7E0CC
:1055F0004FF0000E3B2A00F2F380DFE812F03D008E
:105600005D00F1004300F100F100F100F100F10054
:10561000F100F100F100F100F100F100F100F10002
:10562000F100F100F100F100F100F100F100F100F2
:10563000F100F100F100F100F100F100F100F100E2
:10564000F100F100F100F100F100F100F100F100D2
:10565000F100F100F100F100F100F100F100F100C2
:10566000F100F1007D00870051006700F100F100BA
:10567000F1007100970000BF01318AB26245FFF46A
:1056800091AF9EE0BEF1030F40F212810EEB0B07CB
:105690004F4500F20D814FF0070A4FF0040954E026
:1056A000BEF1010F40F004814FF6FD724FF0010989
:1056B0004FF0010A44E000BFBEF1040F40F0F88053
:1056C0004FF6FD724FF0060A38E000BFBEF1040F3E
:1056D00040F0EE804FF6FD724FF0020A2EE000BF60
:1056E000BEF1040F40F0E4804FF6FD724FF0040964
:1056F0004FF0040A24E000BFBEF1040F40F0D88050
:105700004FF6FD724FF0030A18E000BFBEF1010230
:1057100018BF0122019F3A43D20740F0C9804FF6DB
:10572000FD724FF0000A4FF0010909E0BEF1040FCD
:1057300040F0BE804FF6FD724FF0050A4FF00409AD
:105740000EEB0B07974200F2B38041F6E822C2F25B
:10575000000202EB0A0B9BF81020002A4FF0000217
:10576000049227D1881C83B2304604A94A4603F02C
:10577000BDFD01460398494540F09A80B9F1010FFB
:105780000AD0B9F1040F40F09380049802F0A0FD14
:105790000146039802E000BF9DF8101001228BF82B
:1057A000102041F6E822C2F2000202EB8A02B6F8AB
:1057B0000AC09161B91C4FF6FD798AB26245FFF4C7
:1057C000F1AEA1EB0C01A8EB0C088AB21FFA88F32A
:1057D0009A426DD23668002E6AD072680292E1E673
:1057E0000EEB0B01494563D802318AB26245FFF4E2
:1057F000D9AEE6E741F6E821C2F20001097C99B191
:1058000041F6E821C2F200018A6900230B740121EC
:105810004FF0EC080191012A4FF06C013FF48BAE80
:10582000022A0FD0032A15D0009A01214FF06C08EC
:1058300001912C21002A4FF0000200927FF47BAEF0
:105840003CE000BF0021009101214FF06C08019164
:105850002C2170E6012101916C2101226AE600BF32
:1058600094F833304F7FBB4222D1022A3FF446AE38
:1058700094F834308F7FBB421AD1032A3FF43EAEF6
:1058800094F83530CF7FBB4212D1042A3FF436AEB4
:1058900094F8363091F82070BB4209D1052A3FF4C4
:1058A0002DAE94F8372091F821309A423FF426AE7D
:1058B00003F054FD05B0BDE8F08F00BF41F6E821CC
:1058C000C2F20001497C0029F2D041F6E821C2F27F
:1058D00000010A7F4168022A28D0062A12D00398C4
:1058E000052AE5D16879C21E032A2DD2A06AFFF7E6
:1058F0004DFC2046FFF7C8F8039803F02FFD05B0D4
:10590000BDE8F08F697903980529D1D8012202FA00
:1059100001F111F03A0FCBD02046FFF76FFC03984E
:1059200003F01CFD05B0BDE8F08F00BF68790628C4
:105930000398BDD12046FFF77BFC039803F00EFDD2
:1059400005B0BDE8F08F00BF01280398B0D1A06A70
:10595000FFF71CFC94F839000007CAD52046FFF772
:1059600009F9039803F0FAFC05B0BDE8F08F0000D8
:105970002DE9F04782B0876AB7B37979A1B3D7F838
:1059800018A041F6E82800220A29C2F20008CDF842
:1059900004A0C7F81220C7F80E20C7E90622C7E9FD
:1059A0000822C7E90A223A6318D8012303FA01F151
:1059B00011F4866F12D081460020A7F805003881C7
:1059C00036204FF49A714FF4207203F05DFA0028EC
:1059D00079D0B97961B1D8F8081010E0A7F805209E
:1059E0003A81387900287AD102B0BDE8F08700BF4B
:1059F0000446FAF7A3FC01462046C8F8081045689B
:105A00003960A91C064608464FF49971FAF776FDED
:105A100040F20110288099F8381038684C46A97077
:105A200002F056FCD9F804106860E96099F8320079
:105A3000287799F83300687799F83400A87799F8AF
:105A40003500E87799F8360085F8200099F8370096
:105A500085F8210048F26320C6F25330C5F8EC0007
:105A600040F23510A5F8F000072085F8F2007568BF
:105A700040F23640A5F8F300504602F029FC010E32
:105A800085F8F510010C85F8F610010A85F8F80084
:105A9000FF2085F8F71085F8F90005F1FA003A21A2
:105AA000FAF72CFD30464FF49A7103F0E5FCD8F874
:105AB000040001AA31464323CDF8009007F002FC10
:105AC000304603F04BFC4DF24051C0F60001484611
:105AD0000A460B4603F0C0F83879002884D098F8BD
