:020000040800F2
:10000000B8C200208D030008C55A0008A551000899
:10001000B15500086909000891610008A5030008AE
:10002000000000000000000000000000895D0008E2
:10003000310B000800000000C95A00088D5D00085F
:10004000AF030008AF030008AF030008AF030008C8
:10005000AF030008AF030008AF030008AF030008B8
:10006000AF030008AF030008AF030008AF030008A8
:10007000AF030008AF030008AF030008AF03000898
:10008000AF030008AF030008AF030008AF03000888
:10009000AF030008AF030008AF030008AF03000878
:1000A000AF030008AF030008AF030008AF03000868
:1000B000AF030008AF030008AF030008AF03000858
:1000C000AF030008AF030008AF030008AF03000848
:1000D00000000000AF030008AF030008051500088A
:1000E000AF030008AF030008AF030008AF03000828
:1000F000AF030008AF030008AF030008AF03000818
:10010000AF030008AF030008AF030008AF03000807
:10011000AF030008AF030008AF030008AF030008F7
:10012000AF030008AF030008AF030008AF030008E7
:10013000AF030008AF030008AF030008AF030008D7
:10014000AF030008AF030008AF030008AF030008C7
:10015000AF030008AF030008AF030008AF030008B7
:10016000AF030008AF030008AF030008AF030008A7
:10017000AF030008AF030008AF030008AF03000897
:10018000AF030008AF030008AF030008AF03000887
:10019000AF030008AF030008AF030008AF03000877
:1001A000AF030008AF030008AF030008AF03000867
:1001B000AF030008AF030008AF030008AF03000857
:1001C000AF030008AF030008AF030008AF03000847
:1001D000AF030008AF030008AF030008AF03000837
:1001E000AF030008AF030008C90D0008AF03000803
:1001F000AF030008AF030008AF030008AF03000817
:10020000AF030008AF030008AF03000800000000C0
:1002100000000000AF03000800000000AF0300086A
:10022000AF030008AF030008AF030008AF030008E6
:10023000AF030008AF030008AF030008AF030008D6
:10024000AF030008AF030008AF03000800F002F896
:1002500000F072F814A696E8000CB244B344DA45F4
:1002600001D100F069F8BAE80F000FA696E8300057
:10027000A5EB040504EB0607AAEB0704A7F10107A9
:100280004FEA15154FEA3414A4F10104AC4201D32E
:1002900000F052F813F0010F18BFFB1A43F00103EE
:1002A00000F001F8DBE7184794FF0000C4FF0000EE
:1002B0000A4410F8014B14F00F0508BF10F8015B59
:1002C000240908BF10F8014B6D1E05D010F8013B42
:1002D0006D1E01F8013BF9D1641E03D0641E01F8C4
:1002E000015BFBD19142E4D370470000103A24BF78
:1002F00078C878C1FAD8520724BF30C830C144BF8B
:1003000004680C6070470000704700000023002460
:1003100000250026103A28BF78C1FBD8520728BF15
:1003200030C148BF0B6070471FB50FF0A2FE00F050
:100330005AF81FBD10B510BDDFF80CD0FFF7F4FF61
:1003400009F024FE00F010FAB8C2002003B4FFF751
:10035000F1FF03BC00F012FA0B49D1F800C04A6863
:100360005CF8043B1068184442F8040B8C4528BF25
:10037000A1F1DC0C8A4228BFA1F1DC02C1F800C067
:100380004A6020F000407047F4000020084880F3E5
:100390000A880848804708480047FEE7FEE7FEE76E
:1003A000FEE7FEE7FEE7FEE7FEE7FEE7FEE7FEE725
:1003B000B8BE0020C55E00084D0200080B4910B50C
:1003C000A1F17C020A4CC2E93712372106E000EBAA
:1003D000104342F82130074B00FB03400B1EA1F1F4
:1003E0000101F4DC10BD0120E8E7000094000020CA
:1003F000E119D666CD0D010040EA010310B59B0757
:100400000FD1042A0DD310C808C9121F9C42F8D07E
:1004100020BA19BA884201D9012010BD4FF0FF302F
:1004200010BD1AB1D30703D0521C07E0002010BD45
:1004300010F8013B11F8014B1B1B07D110F8013BD1
:1004400011F8014B1B1B01D1921EF1D1184610BDB2
:1004500010B5431C02E010F8011B71B18107FAD1FD
:100460004FF0013202C88C1A8C4314EAC211F9D041
:10047000C01A0A0603D0C01E10BDC01A10BD0A045F
:1004800001D0801E10BD0902FCD0401E10BD032A01
:1004900040F2308010F0030C00F0158011F8013BA1
:1004A000BCF1020F624498BF11F801CB00F8013B88
:1004B00038BF11F8013BA2F1040298BF00F801CB4C
:1004C00038BF00F8013B11F0030300F0DE80083A6A
:1004D000C0F0088051F8043B083A51F804CBA0E87A
:1004E0000810F5E7121D5CBF51F8043B40F8043BCF
:1004F000AFF30080D20724BF11F8013B11F801CB04
:1005000048BF11F8012B24BF00F8013B00F801CBD4
:1005100048BF00F8012B7047431A28BF9A427FF664
:10052000B6AF10441144032A40F2268010F0030FA6
:100530001EBF11F8013D521E00F8013D10F0030FDF
:100540007FF4F6AF11F0030300F0E480083AC0F046
:100550000B8051F8043D083A51F804CD40F8043DB1
:1005600040F804CDFFF7F3BF121D5CBF51F8043D06
:1005700040F8043DAFF30080D20724BF11F8013DDD
:1005800011F801CD48BF11F8012C24BF00F8013D3E
:1005900000F801CD48BF00F8012C70474FF0000271
:1005A0000429C0F0128010F0030C00F01B80CCF185
:1005B000040CBCF1020F18BF00F8012BA8BF20F8F3
:1005C000022BA1EB0C0100F00DB85FEAC17C24BF47
:1005D00000F8012B00F8012B48BF00F8012B7047F1
:1005E0004FF0000200B5134694469646203922BFCC
:1005F000A0E80C50A0E80C50B1F12001BFF4F7AF17
:10060000090728BFA0E80C5048BF0CC05DF804EBF8
:10061000890028BF40F8042B08BF704748BF20F866
:10062000022B11F0804F18BF00F8012B704710B556
:10063000044610F0030F08BF11F0030F40F01580BF
:100640004FF0013E121FC0F20E8051F8043BA3EBA5
:100650000E0C2CEA030C1CEACE1C08BF40F8043B2D
:10066000F0D0A1F1040102F10402521E08DB11F8DE
:10067000013B00F8013B002BF7D11146FFF78EFF3D
:10068000204610BD70477047704710B5203AC0F043
:100690000B80B1E81850A0E81850B1E81850A0E855
:1006A0001850203ABFF4F5AF5FEA027C24BFB1E8EE
:1006B0001850A0E8185044BF18C918C0BDE8104031
:1006C0005FEA827C24BF51F8043B40F8043B08BF3A
:1006D0007047D20728BF31F8023B48BF11F8012B01
:1006E00028BF20F8023B48BF00F8012B7047431A8F
:1006F00028BF9A427FF6C9AF1044114410F0030F8F
:100700001EBF11F8013D521E00F8013D10F0030F0D
:100710007FF4F6AF103AC0F00A8010B531E91850F6
:1007200020E91850103ABFF4F9AFBDE81040530764
:1007300024BF31E9081020E9081044BF51F8043DF6
:1007400040F8043D12F0030F08BF7047D20728BFDE
:1007500031F8023D48BF11F8012C28BF20F8023DB6
:1007600048BF00F8012C704710B50446AFF3008075
:100770002046BDE81040FFF7E9BD70470149182049
:10078000ABBEFEE726000200844600294FF00100C0
:1007900008BF7047002A18BF002B01D1704700BF67
:1007A000F0B583B00020BCF1000F009058D0DCF809
:1007B0000000002854D00F46DCF8041015461C46F3
:1007C0006B460122664601F0E1FA18B103B0BDE8BC
:1007D000F04070473068002842D071686B460122B3
:1007E00001F0D4FA0028F1D10098C0F380003870ED
:1007F00040B9022028702070002003B0BDE8F0400E
:10080000704700BF30680022019248B3716801ABA5
:100810001F2201F0BBFA0028D8D10198022100F074
:100820000C00082808BF0121043818BF08462870AA
:1008300030680021029198B1716802AB1F2201F06B
:10084000A5FA0028C2D1029800F01C00043817282D
:100850000CD840F28C018008C0F60101085CCAE7A0
:10086000012003B0BDE8F040704700BF0220C2E79E
:1008700010B582B004460020CDE90000002C4FF0F6
:10088000010018BF002901D102B010BDC4E9001257
:1008900001AB08461146022201F078FA0028F3D194
:1008A0002068A0B161686B46032201F06FFA00284E
:1008B000EAD101984FF6FF71884205D008B9009837
:1008C00028B1002002B010BD00988842F9D1012063
:1008D00002B010BD70B582B0044600200190DCB3B8
:1008E00040F60045C4F2022528464FF480710022EC
:1008F00002F07CFA022000F077FE28464FF4807167
:10090000012202F073FA022000F06EFE206818B394
:10091000616800224FF4004301F064FC10B102B0A2
:1009200070BD00BF02F068FA054601AE206898B1BC
:1009300061680022334601F029FA0028EFD19DF8C2
:10094000050000060CD502F057FA401B6428EDD3D1
:10095000032002B070BD00BF012002B070BD00BF17
:10096000002002B070BD0000FEE700002DE9F0415C
:100970009AB0154601AF0E468046402A28BF402552
:10098000C5F14001781914463F2A88BF0021FFF7BE
:1009900005FE384631462A46FFF779FD0020082C2F
:1009A000CDF844801290139002D8280418E000BFBC
:1009B0000D2C01D2092013E0112C01D20A200FE0E6
:1009C000152C01D20B200BE0192C01D20C2007E0D2
:1009D000212C01D20D2003E00F20312C38BF0E2036
:1009E0004FF4801140F6FC241490002016914FF42F
:1009F0000011C2F200041590CDE91710199000BF44
:100A0000204601F0DDFD0028FAD040F6FC2011A9B7
:100A1000C2F2000001AA01F099FC1AB0BDE8F08111
:100A20002DE9F04F99B00746050A060C4FEA106A07
:100A3000684689460C3034211C4690464FEA132BF9
:100A4000FFF7CEFD00204FF49171CDE91010092180
:100A50008DF80640CDE913104FF4801140F6FC24C8
:100A600015914FF40011C2F200048DF800708DF85A
:100A700001508DF802608DF803A08DF804908DF878
:100A800005808DF807B002901290CDE916101890ED
:100A9000204601F095FD0028FAD040F6FC2010A970
:100AA000C2F200006A4601F051FC19B0BDE8F08FB7
:100AB0002DE9F04399B00446050E060C070A684676
:100AC000D1F80080D1F8049010303021FFF788FD74
:100AD00000204FF49271CDE910100A218DF80340E7
:100AE000CDE913104FF4801140F6FC2415914FF41A
:100AF0000011C2F200048DF800508DF801608DF8ED
:100B00000270CDE9018903901290CDE9161018907A
:100B1000204601F055FD0028FAD040F6FC2010A92F
:100B2000C2F200006A4601F011FC19B0BDE8F08382
:100B3000704700002DE9F04790B0054668460C4626
:100B400008303821FFF74CFD40F2A510ADF8000049
:100B500001208DF80200280A8DF8040040F21630BA
:100B60000F2C8DF80350ADF805008DF807404DD8D7
:100B700004EB440040F21C71C2F2000102018A5CE5
:100B8000002A43D001EB00100DF11408817800F128
:100B900008058DF8081026CD4369CDF81110018B9A
:100BA000CDF81520827ECDF80D30CDF80950ADF886
:100BB000191090F82410D0E90AEC8DF81B20026A75
:100BC000C38CDDE903498DF8201000218DF8211038
:100BD0000792ADF822309DE82C0040F2C840CDE9E4
:100BE00009EC98E8C201C2F20000DDF82CA080E810
:100BF0002C00C0E9034900F114020CACC2C21ECCA7
:100C0000C0E9088EC0E90ACA30301EC068464021DB
:100C100000F034FB10B0BDE8F0870000B0B54BF633
:100C20006464C2F200040546601D3B21FFF7B6FC78
:100C300040F2A5102080280A20710220A07140F205
:100C40001C70C2F2000002780121002A40F21B72DF
:100C5000C2F200021278E570A170E27100F0AC807F
:100C6000827861720A21227290F8302032B190F8B5
:100C7000322063186254023101225A7090F86020C9
:100C800032B190F8622063186254023101225A7026
:100C900090F8902032B190F892206318625402319B
:100CA00001225A7090F8C02032B190F8C220631827
:100CB0006254023101225A7090F8F02032B190F85B
:100CC000F22063186254023101225A7090F82021F8
:100CD0003AB190F82221CBB2E518E2540231012258
:100CE0006A7090F850213AB190F85221CBB2E518D1
:100CF000E254023101226A7090F880213AB190F8F2
:100D00008221CBB2E518E254023101226A7090F8D8
:100D1000B0213AB190F8B221CBB2E518E2540231D9
:100D200001226A7090F8E0213AB190F8E221CBB24A
:100D3000E518E254023101226A7090F810223AB1AB
:100D400090F81222CBB2E518E254023101226A7007
:100D500090F840223AB190F84222CBB2E518E25422
:100D6000023101226A7090F870223AB190F8722232
:100D7000CBB2E518E254023101226A7090F8A02249
:100D80003AB190F8A222CBB2E518E2540231012226
:100D90006A7090F8D0223AB190F8D202CAB2A31881
:100DA000A0540231012058708A1F204640216271F0
:100DB000BDE8B04000F062BA082190F83020002A67
:100DC0007FF455AF5AE7000040F64C20C2F2000015
:100DD00000F034BC2DE9F04F83B0D0F828A000F12A
:100DE000180C5CF82A408F68E368002B04D400F1EB
:100DF0002C0E5EF82A301BB1022003B0BDE8F08F44
:100E00000E680CEB8A035FEA46784FEAC6690193E5
:100E1000029203D4B9F1000F30D533E0E2684FF607
:100E2000FF734D6A9A432A43E260E268330742F453
:100E30008032E26005682A6E42F480122A6617D575
:100E4000A268D1E90B3692B242EA0342A260E2689C
:100E500042F40032E260E26822F440223243E2606F
:100E60006A6E42F480126A662A6D42F080622A65D8
:100E7000B9F1000F06D4B8F1000F0ED40122009290
:100E8000564623E0A26843F6FF738D699A432A43CE
:100E9000A260E26842F08062E260E2680AF1010664
:100EA00042F08042E260BFF35F8FE268032E42F0BF
:100EB0000042E26088BFAAF103065CF82640E268BF
:100EC000B2F1FF3F40F328810222009297E80C0123
:100ED00043F6FF752260A2684FF6FF79AA431343D9
:100EE000B8F1000FCCF20009A36009D0D8E90035B1
:100EF0006360A36803EA090343EA054506E000BF0F
:100F000000236360A368B84603EA0905A5600F687B
:100F1000E56840F2000BFB06CFF6FC7B00F1A080F9
:100F200047F6FF724B6825EA02021A43FB07E260AC
:100F300040F0FE80BA0600F104817A0705D5A26868
:100F40008B6A22F440421A43A260E26842F00052E7
:100F5000E260E26822F08042E260BFF35F8FE26805
:100F600042F00042E2600A78920705D5E268CB6859
:100F700022F060721A43E260D8F80850002D00F0A9
:100F8000C98000271FE000BF0025CA69CFF6FC75A5
:100F90002B401A43E260E2684FF6FF7942F4802367
:100FA000CCF20009E360BFF35F8FE268013F42F0DB
:100FB0000042E260E26822F08042E260DBF8085022
:100FC000002D00F0C980E268334622F080520136DD
:100FD000E260032E88BFDE1E5CF82640E26822F045
:100FE0000052E260E268002A4ED45EF82620002A11
:100FF0004AD195E80C0843F6FF782260A268BBF15D
:10100000000F22EA080242EA0302A26008D0DBE9EC
:1010100000236260A26802EA090242EA034905E08D
:1010200000226260A268AB4609EA0209C4F808908F
:101030000D68E368EA06A7D4D1F8048047F6FF728A
:1010400093434FF6FF7943EA0802EB07CCF200091D
:10105000E260A8D0E2684B6922F440321343A1E772
:10106000D1E9073225F4F00545EAC242E260E268C0
:1010700002EA0B021A43E260E26842F48023E36072
:101080007A073FF55CAF60E70098B8423FF4B4AE32
:10109000C01B810800F0030000F08080890000BFC1
:1010A0005CF82A20BFF35F8FD36823F00043D3603E
:1010B0000AF10102032A88BFAAF103025CF8223078
:1010C000BFF35F8FDF6827F00047DF60531C032BFF
:1010D00088BFD31E5CF82320BFF35F8FD76827F04B
:1010E0000047D7605A1C032A88BFDA1E5CF82230FA
:1010F000BFF35F8FDF6802F1010ABAF1030F88BF07
:10110000A2F1030A27F000420439DA60C8D10CEBDF
:101110008A0144E0012121E001980068BFF35F8F5C
:10112000C16821F00041C160022003B0BDE8F08F2A
:10113000E2684B6922F440321A43E260BA067FF556
:10114000FCAEE2680B6922F040621343E3607A0769
:101150003FF5F5AEF9E600BFC7F10101A268029BB9
:1011600022F00042002B18BF02F10042A260E268A8
:1011700042F08052E260C26B86624EF82620EFF3A6
:101180001083012282F31088026C1144016483F3FE
:101190001088002003B0BDE8F08F00BF019900283F
:1011A0003FF42AAE0968BFF35F8FCA68012822F0B6
:1011B0000042CA603FF420AE0AF10101032988BF52
:1011C000AAF103015CF82120BFF35F8FD3680228E6
:1011D00023F00043D3603FF40FAE481C032888BFC0
:1011E000C81E5CF8200099E72DE9F04190B0E84670
:1011F0000F46054608F114002C211C461646FFF741
:10120000EFF940F61C20C2F2000001888DF808506A
:101210004A1C028040F2A510ADF8000001208DF8B4
:101220000200080A8DF8040048F20E50ADF80500DF
:1012300000208DF803108DF80700290AADF80E0084
:10124000200A8DF80910290C8DF81100200C8DF85A
:101250000A10290E8DF81200200E8DF80B108DF853
:101260001300404640218DF80C708DF80D608DF80C
:10127000104000F003F810B0BDE8F081402984BFB1
:101280000020704770B540F2EC2572B6C2F200053E
:101290002A78082A06D362B6A8880130A8800020E0
:1012A00070BD00BF6A7840F2085602EB8212C2F2AB
:1012B0000006324403460C46104619462246FFF704
:1012C000E6F8687800EB8010304480F84040687899
:1012D000013000F00700687028780130287062B68D
:1012E000012070BDB0B54BF66465C2F2000504463E
:1012F00005F112002E21FFF751F940F2A5102880C8
:101300000120A870200A287140F20810C0F60110D0
:10131000C5F8050041F60420C0F21A40C5F80900DE
:101320000920687340F20010C2F200000268EC70FD
:1013300028464021C5F80E20BDE8B040FFF79EBF0B
:1013400070B5D1F808C00B680A7943EA0C0343EA88
:10135000C2620B7B42EAC3524B7B42EA83528B7BD5
:1013600042EA435CCB7B0A7C4CEA0353002A4A7C6A
:1013700008BF43F40023002A08BF43F40033D1E937
:10138000052E91F812C01A4342EA0C420E7F42EA3F
:101390000E024B7F42EA06328C7FCD7F42EAC322A7
:1013A00091F820604B6A002C91F8284008BF42F465
:1013B000806242EA45220068CD6A1A430368002E23
:1013C00008BF42F480722A4348F28306C0F2040642
:1013D00042EA041233401A43026091F83820CB6B82
:1013E000120642EA436291F8303091F8316042EAE5
:1013F00083424B6B42EA464291F83250446848F2CD
:101400000006CCF2F8061A432640002D08BF42F42D
:1014100080323243426091F840204B6C40F20F160C
:1014200043EA0222C368B3431A43C26091F85420CE
:101430000B6D91F84C6043EA42028B6C002E08BFA2
:1014400042F0800242EA0342036F4FF60D763340CA
:101450001A43026791F8552091F85630D0F8906001
:1014600043EA420226F003031A43C0F89020D0F862
:10147000002D8B6D22F072021A43C0F8002D91F8F6
:101480006020CB6D002A91F8612008BF43F0400333
:1014900091F8621043EA0212D0F8303D42EAC101ED
:1014A00023F07B021143C0F8301D70BDB0B504F0CD
:1014B0008BFD08B340F2EC24C2F200042078D8B1CE
:1014C00040F20855C2F20005A07800EB80102844D5
:1014D00090F8401004F082FD002808BFB0BD72B63D
:1014E000A078013000F00700A0702078013820704B
:1014F00062B620780028E7D1B0BD000072B600BF08
:10150000FEE7000040F6FC20C2F2000001F060B8E7
:10151000704700007047000070470000002804BFBB
:101520000120704710B590F8241011BB41F21951F9
:10153000C0F6000141F21552816041F2B151C0F68E
:101540000002C0F60001C0E9032141F2B552C0F625
:101550000002C169426141F21152C0F6000282618B
:1015600021B941F2B951C0F60001C1610446884772
:10157000204600210122816280F82420D0E9002346
:10158000146824F0004423431360536813F0090FD8
:1015900004D00221BDE810400846704781621068FF
:1015A00040F001001060BDE81040084670470000A0
:1015B0007047000070470000006841F20041C4F22B
:1015C0000301884218BF704781B040F68840C4F2DA
:1015D0000240016841F080410160006800F08040F5
:1015E0000090009801B07047B0B5044601F004FCCB
:1015F000054640F20000C2F200000078611C18BFEE
:10160000044400BF01F0F8FB401BA042FAD3B0BD78
:101610007047000010B5044600F00CF8C00458BF35
:1016200010BD204600F0ECFC2046BDE8104000F064
:101630001DBC0000D0F88C00704700002DE9F0437D
:1016400081B0016841F234120446881842F22C0835
:10165000D1F8B070C56AC4F202488E58D8F800902C
:10166000690608D516F0400105D048F24001C16274
:10167000204600F0D1FBE80718BF16F0010003D1A7
:1016800068040CD433E000BF20684FF48B5148F25B
:1016900001024250204600F0A1FD680427D516F44F
:1016A000804024D02068D4F88810EA0441F0080172
:1016B000C4F8881041F234110844C16A08D401F416
:1016C000CD41C4F88C104FF4CD41C1620CE000BF95
:1016D00041F202121140C4F88C10016821F440411B
:1016E0000160E020C4F884002046FFF793FF17F460
:1016F000C04F13D02068D4F8881041F01001C4F80E
:101700008810D0F8B800C4F89000E020C4F8840035
:101710002046FFF77FFF0020C4F89000F8060CD5A4
:101720002068D0F8C00000F06000C4F894002046A3
:1017300000F038FA0020C4F89400B8060CD52068F0
:10174000D0F8D00000F00F00C4F898002046FFF752
:101750005FFF0020C4F898005FEA49405CBF01B019
:10176000BDE8F0834FF480412046C8F8001001B076
:10177000BDE8F04300F034BD002804BF01207047ED
:10178000F0B599B00446D0F8840028B92020C4F8F8
:101790008400204600F084F940F6A840C4F20240DC
:1017A000016841F002010160006800F00200009051
:1017B0000098207A002818BF0120C00503F05AFBCA
:1017C00040F20050C4F20040006820684FF4805698
:1017D000815941F00101815101F00EFB054600BF26
:1017E00020688159C9070FD001F006FB401BB0F5F6
:1017F000FA7FF5D90120E0210425C4F88850C4F807
:10180000841019B0F0BD00BFD0F8000220F470655C
:1018100002F060FF40F6BF61C0F21621884203D893
:1018200045F4007524E000BF48F2FF61C0F2933137
:10183000884203D845F440751AE000BF4EF200110B
:10184000C0F2F551884213D34DF27F11C0F6F0017A
:10185000884203D845F480750AE000BF4BF27F212F
:10186000C0F6E66188428CBF45F4A06545F480650A
:101870002068C0F8005202F02DFF4DF68361C4F2DB
:101880001B31A0FB01014FF0FF3000EB91402168BC
:101890000125C1F8DC0040F20111ADF80E104FF443
:1018A000005106914FF4C3610D91202117914FF023
:1018B0004051002000914FF4804109908DF81F00A5
:1018C0008DF828008DF838000F90ADF861008DF884
:1018D0000C000290ADF81C00149012900B908DF843
:1018E00040008DF8560005918DF80D000227ADF8E7
:1018F0005400ADF830001190694620468DF8045030
:101900008DF832508DF86050ADF811508DF81E50A2
:101910008DF8205016978DF810508DF84C50FFF729
:101920000FFD21684FF480500B5847F60206B34371
:1019300001F580520B5050684DF20103984341F27B
:10194000010318435060D2F800014CF20003CFF6B7
:10195000FE73184000F50670C2F80001D2F80401C9
:101960004EF6EF73CFF6C073184000F50010C2F8C2
:101970000401D2F808014FF6FF73C7F6C073184090
:1019800000F50010C2F80801D2F8000167F3944096
:10199000C2F800016069830708D0E0210120C4F883
:1019A0008850C4F8841019B0F0BD00BFD2F80831D7
:1019B00047F6FE77BB4343EA40000025C2F8080122
:1019C000E76800203B4638607860B860F860A7613F
:1019D00043F8180FF86138627862E3613B4643F8D8
:1019E000300F7863B863F86323623B4643F8480FCF
:1019F000F86438657865C4E909300323C2F82C31EE
:101A0000C2F81471C2F820712669374630607060E0
:101A1000B060F060C6E90400A66447F8180FF061F2
:101A200030627062C6E90A00E764374647F8300F53
:101A30007063B063F063C6E910002765374647F866
:101A4000480FF06430657065C6E91600C4E91700F8
:101A5000C4E91A00C4E91570C2F83031C2F81C613B
:101A6000C2F8287162689388C1F800331268602355
:101A7000C1F80423D1F80C27C0F602431A43C1F879
:101A80000C27D1F8102742F0406242F40312C1F84B
:101A900010271021C4F88850C4F8841019B0F0BD84
:101AA0002DE9F04186B0006848F20001C4F202015D
:101AB000002688420596CDE903660296019603D07A
:101AC00006B0BDE8F08100BF40F68840C4F2024095
:101AD0000168002441F4002101600168C4F202247D
:101AE00001F4002100910099016801AD41F48011D9
:101AF00001600168022701F48011009100990168DA
:101B00004FF00B0841F400110160016801F400116D
:101B100000910099416841F004014160416801F081
:101B2000040100910099416841F001014160416860
:101B300001F0010100910099416841F0020141600A
:101B40004068294600F00200009000983220019081
:101B500004F50060CDE902760497CDF8148001F019
:101B600081F8A620CDE9010703A880E8C00120463E
:101B7000294601F077F84FF41040CDE9010703A89A
:101B800080E8C00104F58060294601F06BF86A2006
:101B90000021002201F07AFA6A2001F065FA06B00D
:101BA000BDE8F081704700002DE9F04F85B00029B5
:101BB00083467DD0DBF88400402840F0E380DBF8EA
:101BC0005C500BF1480858F825908A464846DBF8E7
:101BD0006C2050F80C1F00294FF0000101916FD4C8
:101BE000C2F10401CDF800A003910BF17C040BF1CC
:101BF00080014FF0000A0026029122E04FF0010A16
:101C00006FF3DF335F1AD9F81020BBB20299204678
:101C100000F004F9DBE9180101303944CBE918017F
:101C20000020C9F81000691C032988BFE91E58F874
:101C300021900136484650F80C2F0D46B2F1FF3F77
:101C400045DD03998E4241D2BAF1000F3ED10168C1
:101C5000890001D4216839B30168890046BF002199
:101C6000CBE91811DBF8641003680268D20003D4D2
:101C70004FF0000AC4E700BF0068CBF87000D9F845
:101C800004004004BAD5681C032888BFE81E58F831
:101C90002000C2685200B1D54268CBF878200068B5
:101CA000CBF87400AAE700BF4FF0000ABBE700BF03
:101CB000DBF8880040F00100CBF8880062E000BF4C
:101CC0000026B618CBF86C6010D14CE02946AAF17A
:101CD0000100DBF86C20B0FA80F0DDF800A04009CC
:101CE0000D460190B618CBF86C603CD0DBF86870FC
:101CF00000200DF11009049011E000BF2060DBF816
:101D0000580000284FF0414008BF4FF00140E0600C
:101D1000781C032888BFF81E013E07460CD058F8EF
:101D2000274020690028E9D1484600F05FF8049870
:101D300018B12061E2E700BF0026DBF86C00B0427A
:101D400011D0781E00F00300BFF35F8FDBF8101096
:101D500000EB4000DBF8002001EBC00041F228114D
:101D60005050CBE91A760198CBF85C5050B1DBF8B3
:101D70007C00CAF800000020CBF87C0005B0BDE86C
:101D8000F08F00BF012005B0BDE8F08F70B50546AB
:101D900000681C46D0F80032DB071CBF012070BD74
:101DA000D0F8003249054FF6F276CFF6004641EA08
:101DB000024103EA060211430D31C0F8001201F09E
:101DC0001BF806462868D0F80012C90708D001F0B1
:101DD00013F8801BB0F57A7F84BF012070BDF1E756
:101DE000D0F8040280B22060002070BD40F2D43CE4
:101DF000C2F2000CDCF8002040F2000102EB4203CA
:101E0000C2F2050101EB43210160501C00F0030008
:101E1000CCF8000070470000704700002DE9F04149
:101E2000144688460646002019464FF4C1721F46E4
:101E300008F0C2FE002808BFBDE8F08105464068F2
:101E400021463A46FEF723FB306848B1D8F8000037
:101E5000294608F097FFC8F80050BDE8F08100BFA0
:101E60003560C8F80050BDE8F08100002DE9F04170
:101E700082B00446D0F8840010284FF0010040F0F2
:101E8000BC802021C4F88410A0650420A56EE06603
:101E900004F1480858F8257000213869019130B9DB
:101EA00001A8FFF7A3FF0198002859D038613860D6
:101EB000A06D4FF0414600284FF0414008BF4FF061
:101EC0000140F8606F1C032F88BFEF1E58F82750A1
:101ED000286930B901A8FFF789FF0198002845D08B
:101EE00028612860A06D002808BF4FF00146EE6011
:101EF0007D1C032D88BFFD1E58F82570386928B950
:101F000001A8FFF773FF0198B0B338613860A06D86
:101F10004FF0414600284FF0414008BF4FF00140CC
:101F2000F8606F1C032F88BFEF1E58F827502869F0
:101F300028B901A8FFF75AFF019818B32861286053
:101F4000A06D002808BF4FF00146EE607D1C002008
:101F5000032D88BFFD1EE16E814211D017E000BF46
:101F60000420E16E81420BD011E000BF03203D460A
:101F7000E16E814204D00AE00220E16E814206D186
:101F8000216814E001203D46E16E8142F8D0691ECF
:101F900001F00301BFF35F8F226901EB4103216868
:101FA00002EBC30241F22813CA50C4E91A5041F2AD
:101FB00004100A580B1842F001020A50586840F009
:101FC00001005860D86D40F48170D865D1F8000DDB
:101FD00040F00100C1F8000D086840F00200086000
:101FE000086840F001000860186B4DF2C101084319
:101FF00018634020C4F88400002002B0BDE8F081DE
:10200000D0F8841040291CBF0120704780B52021E2
:10201000C0F88410016841F2041C01EB0C03D3F8F2
:1020200030E04DF2C1022EEA02021A6351F80C2090
:1020300022F0010241F80C205A6822F001025A6095
:102040000A6822F001020A60D1F8002D42F0010274
:10205000C1F8002D0A6822F002020A60816CCA6889
:1020600022F08042CA60C16CCA6822F08042CA6015
:10207000016DCA6822F08042CA60416DCA6822F0D0
:102080008042CA60002110228165C0F88420BDE82A
:1020900080400846704700002DE9F0410446A9B190
:1020A000D4F8840040281CBF0120BDE8F081174609
:1020B00020460022FEF78EFE90B1D4F8880040F052
:1020C0000200C4F888000120BDE8F081D4F888003F
:1020D00040F00100C4F888000120BDE8F08100BF95
:1020E000BFF34F8FA16A04F118004B1C226850F80F
:1020F0002160032B88BFCB1EA36250F823004FF44E
:102100008951505000F078FEF168B1F1FF3F03DDD6
:102110000020BDE8F08100BF791C17D00546384685
:10212000C7BB20684FF48B514158C90448D400F014
:1021300063FED4F8880040F00400C4F888004FF033
:102140004050F0600120BDE8F08100BF206800F53C
:102150008B510868C00435D4F068B0F1FF3FD7DC7C
:102160000868C0042ED4F068B0F1FF3FD0DC0868E6
:10217000C00427D4F068B0F1FF3FC9DC0868C00490
:1021800020D4F068B0F1FF3F4FF00000E1DDBDE882
:10219000F08100BF4FF48B58206850F80810C90434
:1021A0000ED400F029FE401BB8423946C1D8F06871
:1021B00000284FF0000058BFBDE8F081ECE700BFF9
:1021C00000F58B51D4F8880040F00800C4F888006E
:1021D0000868C4F88C000120BDE8F0817047000059
:1021E00070470000B0B504460068D0F80052ED0713
:1021F00023D1D0F8000249054FF6F275CFF600451D
:1022000041EA02412840084399B248F200220530D1
:10221000C4F202025160106000F0EEFD054600BFFE
:102220002068D0F80002C00704BF0020B0BD00F055
:10223000E3FD401BB0F57A7FF2D90120B0BD00006C
:1022400010B590F85C30013B012B69D800685FEA5B
:10225000417ED0F858C00CF0010300D01BB311F040
:10226000380F02D01CF002041DD011F4E07F02D020
:102270001CF0040417D011F4F05F02D01CF0080425
:1022800011D011F4604F02D01CF010040BD011F4E7
:10229000403F02D01CF0200405D011F47C0F06D082
:1022A0001CF0400403D1C46D44F00104C465BEF1C8
:1022B000000F18BF002B3BD111F0380F18BF1CF0D6
:1022C000020335D111F4E07F18BF1CF004032FD1B5
:1022D00011F4F05F18BF1CF0080329D111F4604F0E
:1022E00018BF1CF0100323D111F4403F18BF1CF09D
:1022F00020031DD111F47C0F18BF1CF0400317D12F
:102300000B061BD4CB0504D5D0F8E0301A43C0F837
:10231000E02000F15402002013681943116010BD41
:1023200000F160020120022113681943116010BD01
:10233000C36D43F00203C3650B06E3D5D0F8DC3070
:102340001343C0F8DC30CB05DED4E2E790F85C3014
:10235000022B17D1F0B50668D6F8C4309B0217D40B
:10236000D6F8C430D1F808E0C3F3014CD1E90053EA
:102370000C699BB144EA050343EA0E0343F0804E27
:1023800010E000BF016E41F00801016601207047B6
:10239000016E41F4007101660120F0BD44EA8543FD
:1023A0004EEA030ED1E90745D1E9053744EA056451
:1023B000CD683C432343446D0CEBCC0743EA054511
:1023C00004EBC70344F837E05D60CF687FB140F2AB
:1023D000A205083303320024C0F60105171957F887
:1023E000037C1F51CF680434EF5DBC42F6D301215A
:1023F00001FA0CF1C6F8CC1081650020F0BD000098
:1024000090F85C20013A012A14D880B50A68BAB164
:1024100001F1040ED1E904319EE80450406C43EA16
:102420004E7E41EA8C7100EBC20340F832E0596005
:10243000002080BD016E41F002010166012070475D
:10244000D1E901C3D1E9032E4969D20642EA837278
:10245000006C42EA0E42114340F82C10002080BD6F
:1024600070470000704700002DE9F04390F85C7061
:10247000022F0FD104684029A44613D15CF8907F45
:102480003F071BD0DCF800704FF0480EFF0113D55A
:1024900009251CE0016E41F0080101660120BDE83C
:1024A000F08300BF5CF8987F3F0707D0DCF800702E
:1024B0004FF04C0EFF0109D400240DE0016E41F4F1
:1024C000807101660120BDE8F08300BF0825D4F8C3
:1024D0008040EC4004F00104DCF80070C7F30127F1
:1024E00007EB040C50F80E700CEBCC0657F8365086
:1024F00007EBC60E15F08045556057F8365025F0AD
:10250000604408BFC5F38A44146057F8365005F09C
:102510000055956057F8364004F000441461BEF849
:102520000440D461BEF8064014F00F04D460DEF815
:10253000044004F480145461DEF8044004F40014F0
:1025400094619EF8074004F07F041462DEF80440B2
:102550004FEAD474546228D040F2A2080024C0F696
:10256000010800BF0EEB0406377A651C1F55D768BB
:1025700018F80770BD4218D2757A1F197D70D5689A
:1025800018F80590A51C4D450FD2B57ABD70D568D9
:1025900018F80590E51C4D4507D2F57A0434FD7016
:1025A000D56818F80550AC42DCD3006840290CBF50
:1025B000C0F894C0C0F89CC00020BDE8F0830000C3
:1025C0000068D0F8C40000F00700704770470000B2
:1025D0002DE9F04F85B004460068016D426DD0F8DA
:1025E00050B0456D076D466D036D01EA0208049316
:1025F000436D0393036D0293436D0193D0F854A090
:10260000D0F850905FEA496307D51AF0400104D032
:10261000402101652046FFF7D9FF0BEA050B5FEA71
:10262000C95008F4E0550ED51AF480700BD020681C
:10263000D0F8D810D0F8E02011404FF48072026535
:10264000204600F007FB37400BF007062DB120684D
:1026500029460565204600F001FB07F038052EB13C
:10266000206831460665204600F0E8F92DB1206863
:1026700029460565204600F0D1FA5FEA895009D560
:102680001AF4007006D020684FF4007101652046EE
:1026900000F0E6FA5FEA09600DD51AF080000AD072
:1026A0002068D0F8D410D0F8DC20114080220265D8
:1026B000204600F0D1FA5FEA894009D51AF40050AB
:1026C00006D020684FF400510165204600F0C0FAA2
:1026D0005FEA0940DDE9011000EA010509D51AF4B5
:1026E000004006D020684FF400410165204600F00C
:1026F000ADFADDE9031008405FEA494105F46021C5
:102700000AD51AF4804207D022684FF4804313653B
:10271000226E42F08002226600F4710521B1206829
:1027200001652046FFF79EFE25B120680565206EF5
:1027300028432066206E002804BF05B0BDE8F08F56
:10274000204605B0BDE8F04FFFF78ABE002804BF61
:102750000120704770B5044690F85C0028B900204D
:1027600084F85D00204600F013F92068816921F0AB
:102770001001816100F040FB054600BF20688169BF
:10278000090705D500F038FB401B0B28F6D310E0F5
:10279000816941F00101816100F02EFB054600BF17
:1027A00020688169C9070DD100F026FB401B0B286A
:1027B000F6D3206E032140F001002066012084F84A
:1027C0005C1070BD82694AF2004CC4F2000C42F009
:1027D00002026045826102D16268CCF80021227C4D
:1027E0008369012A23F0400318BF40338361627C70
:1027F0008369012A23F4804308BF03F58043836182
:10280000A27C8369012A23F4805318BF03F5805307
:1028100083618569D4E9022325F4407515438561F8
:10282000856925F0A4058561056925F01005056118
:10283000A3B1012B0ED0022B09D08569032B45F0E3
:1028400080058561056945F01005056106D12023E5
:1028500001E000BF042385692B438361D4E905159A
:10286000D4E907366FF0FF0E0EEB0323013D43EA78
:1028700045630025CFF6FF75013E05EB014133436B
:102880001943B2F5407FC1610FD104F124064ECE49
:102890000EEB0323013A1A436FF00F0303EB061309
:1028A00005EB01411A431143C160D4E90D13E26BFA
:1028B000D0F8C0603243C0F8C0200CF580660CF53B
:1028C0000062B04208BF0CF535622264D0F8806027
:1028D00026F4F81646EA0141C0F8801002F17001B2
:1028E0006164D0F8801021F0706141EA0361C0F8A2
:1028F000801002F1B000A06402F5C470E06402F53B
:102900001870206502F51E70606502F55470002194
:10291000C2E90011C2E90211C2E90411C2E90611BB
:10292000C2E90811C2E90A11C2E90C11C2E90E118B
:10293000C2E91011C2E91211C2E91411C2E916115B
:10294000C2E91811C2E91A11C2E91C11C2E91E112B
:10295000C2E92011C2E92211C2E92411C2E92611FB
:10296000C2E92811C2E92A11C2E92C11C2E92E11CB
:10297000C2E93011C2E93211C2F8D010D432824219
:10298000C6D300200121A065206684F85C1070BDCC
:1029900070B5CAB0044602A8002508304FF4807113
:1029A0004995CDE94755CDE945554FF48076FDF77A
:1029B00017FE20684AF20041C4F20001884201D0AB
:1029C0004AB070BD0420CDE9025002A8319600F053
:1029D00011FD002818BFFEF791FD40F68C40C4F2AF
:1029E0000240416941F400714161416901F40071A3
:1029F00001910199016841F008010160006845A951
:102A000000F00800019001980320459002204690B4
:102A10000020CDE947000920499040F60040C4F26B
:102A2000022000F01FF927200321002200F02EFBD6
:102A3000272000F019FB4AB070BD0000C90700F064
:102A4000EB8001684AF20042C4F20002914218BFD2
:102A500070472DE9F0419AB040F28024C2F20004A0
:102A600004F12C036A464021FFF7FEFC002840F0E9
:102A7000D0800198002840F0CC800099039840F263
:102A80000322914238D10E2836D394F82C0004F852
:102A9000040FD4F8290004F1040CD4F82D10D4F854
:102AA00031208CE8070000202074D4F83B00B4F8F3
:102AB0003510C4F81700D4F83F00A4F8111094F8AA
:102AC0004310E06194F8440084F8201094F8451015
:102AD00084F82100B4F84600D4F8373084F8221086
:102AE00094F85710A0842046C4F8133084F82610B8
:102AF00002F006FF8DE000BF40F22112914255D155
:102B0000092853D3D4E90B65676B304606F00AFAFF
:102B1000002809D400EB400040F21C71C2F2000111
:102B200001EB0010C0E90A570DF1280808F1140064
:102B30002C21FDF755FD20888DF82D60411C8DF866
:102B40002B00000A8DF82C00300A8DF82E00300C76
:102B50008DF82F00300E8DF830000020ADF83100D8
:102B60008DF83300280A8DF83500280C8DF83600D2
:102B7000280E8DF83700380A218041F2A5018DF822
:102B80003900380CADF8281001218DF83A00380EC4
:102B90008DF82A108DF83B00404640218DF83450C6
:102BA0008DF83870FEF76AFB33E000BF40F2231265
:102BB00091422ED109282CD3E56A94F8306094F81C
:102BC0003170646B284606F0ADF900281BD4791EDD
:102BD000032918D800EB400040F21C73C2F2000336
:102BE00003EB0010DFE801F0020C060A002E08BF1C
:102BF000048408E080F8244005E000BFC48402E0BB
:102C0000012E08BF4484284631463A462346FEF743
:102C1000EBFA1AB0BDE8F0417047000070470000C1
:102C200090F85C1001290BD1022180F85C1001683A
:102C30008A6922F001028A61002101660020704742
:102C4000016E41F0040101660120704770470000E9
:102C50007047000070470000704700007047000098
:102C6000704700000A68002A08BF70472DE9F04F3E
:102C700083B000F12003019347F67F73C0F22F0366
:102C800003EA90234FF0000A4FF0010B00274FF0AA
:102C9000000C002500930BE00A68013532FA05F3B9
:102CA0000CF1040C07F102070AF1080A00F09A80FF
:102CB0000BFA05F912EA0902EED0D1F8048002926B
:102CC00048F01006122E1BD16FF0030202EA5506DF
:102CD000DDF804B00CF01C025BF80640D1F810805F
:102CE0000F2303FA02FE08F00F0324EA0E0403FA8E
:102CF00002F222434BF80620D1F804804FF0010B7A
:102D000002680323BB4008F0030EDC439A430EFA2B
:102D100007F31A43B8F1120F02605BD80BFA08F2FE
:102D200012F0061F56D08368D1E902262340BE4028
:102D30003343836043684FEA181623EA0903AE4021
:102D400033434360C368BA4023401A43C260029CC5
:102D50005FEAC802A0D542F2000E25F00302C4F2D9
:102D6000024E7244D2F860800AF018060F23B34076
:102D700028EA0308009B03FA06F648EA06031366EE
:102D8000DEF800804B6848EA0406DA0258BF28EAF9
:102D90000406CEF80060DEF804809A0248EA0406D1
:102DA00058BF28EA0406CEF80460DEF884809A034F
:102DB00048EA040658BF28EA0406CEF88460DEF824
:102DC0008020DB0342EA040658BF22EA0406CEF85C
:102DD000806061E78A68BEF1030F08BF012AB1D1A4
:102DE000B5E700BF03B0BDE8F04F70471823002AD5
:102DF00008BF2823C15070474BF6B460C2F20000F0
:102E0000006870474FF60000C0F6FF00006870478A
:102E10004FF60800C0F6FF000068704740F200411E
:102E2000C4F20301086840F0010200200A60704704
:102E300040F20042C4F203021368DB071CD12032C7
:102E400052F820301B0417D470B5D1E90236D1E90D
:102E500000EC5D4205EA5E542D04E4B244EA4323EB
:102E600005EA5C15096933432B43194341F40041DA
:102E700042F82010002070BD0120704740F2000091
:102E80004BF6B461C2F20000C2F2000100780A6899
:102E9000104408607047000080B5032000F022F95C
:102EA00001F030FC40F62041C4F20241096840F2D2
:102EB000920201F00F01C0F60102515CC84040F2DD
:102EC0001001C2F200010860042001F0DDFF0F20B4
:102ED00000F008F800281CBF012080BD00F0C2F8F7
:102EE000002080BDB0B540F20005C2F2000529788F
:102EF000E1B304464EF21000CEF200000068400735
:102F000010D402F00FF8022824D001281AD078BB80
:102F100040F21000C2F20000006829784FF4FA5223
:102F200007E000BF40F21000C2F2000000684FF45A
:102F30007A72B2FBF1F1B0FBF1F001F0E1FFA8B958
:102F40001BE000BF28784FF47A71B1FBF0F04FF42A
:102F5000FA4106E028784FF47A71B1FBF0F04FF4B3
:102F60000041B1FBF0F001F0CBFF30B10120B0BD6A
:102F7000002001F0C5FF0028F8D14FF0FF302146B6
:102F8000002200F083F800206C60B0BDBFF35F8FBB
:102F90004EF6C0510278CEF200016FF01F030431EB
:102FA00003EBC20390F801C0042A3CBF4EF6C051A7
:102FB000CEF20001086838BFD300FF229A40904348
:102FC0000CFA03F21043086070470000BFF35F8FF4
:102FD00041784EF6A053CEF2000390F800C043F8BB
:102FE000081C196821F0010119604168C27B21F0B9
:102FF0001F0141EAC201427B41EA4201827B114347
:1030000043F8041C8168007B21F01F0141EA400065
:1030100040EA0C00186070474EF62450BFF35F8FF3
:10302000CEF20000016821F480310160016F21F0CF
:1030300001010167BFF34F8FBFF36F8F704700002F
:103040004EF6245140F00100CEF20001BFF35F8F35
:103050000867086840F480300860BFF34F8FBFF303
:103060006F8F704770470000002848BF704700F01E
:103070001F010122C0F34A1002FA01F14EF20012C0
:10308000CEF2000242F820107047000010B54EF654
:103090000C5CCEF2000CDCF80030C3F3022E8EF094
:1030A0000704042C28BF0424BEF103034FF0FF3EA5
:1030B00038BF00230EFA04F4A14399400EFA03F33B
:1030C0009A43114300F00F0200F160430901043AF2
:1030D00003F564436244002848BF02F10C031970F1
:1030E00010BD00004EF60C51CEF200010A684FF6FA
:1030F000FF031A4060F30A2242F0806040F0FD7046
:103100000860704701220168C0F8D822002280F8C8
:10311000CC22486D40F001004865486D40F0020245
:1031200000204A6570470000002804BF0120704756
:10313000F0B581B0044690F8950228B9002084F8D3
:103140009402204600F01CF9032084F895022068C0
:1031500003F002F894E80F00267C009602F0D4FFFA
:10316000002840F0F4802068002102F0FFFF0028D2
:1031700040F0ED8094F804E0BEF1000F00F0E08034
:103180000EF0030CBEF1040F4FF0000238D30EF026
:10319000FC03A4F1A0000321012500BFCE1E80F88E
:1031A000B4608E1E80F8DC604E1E80F8046180F8EA
:1031B0002C110E1D013180F8B55080F8B720C0E900
:1031C0003122C0F8CC2080F8DD5080F8DF20C0E943
:1031D0003B22C0F8F42080F8055180F80721C0E9AF
:1031E0004522C0F81C2180F82D5180F82F21C0E91C
:1031F0004F22C0F84421A03099423146CED1F21E70
:10320000BCF1000F2ED002EB820104F1140000EBA0
:10321000C105012300F831200021BCF1010F6B70C2
:10322000E970C5E90411A9611CD0551C05EB8506A0
:10323000BCF1020F00EBC60700F836507B70F97046
:10324000C7E90411B9610DD0911C01EB8102012580
:1032500000EBC20300F8321000205D70D870C3E9A3
:1032600004009861BEF1000F6AD0BEF1040F4FF068
:10327000000235D30EF0FC0003212346CF1E83F855
:1032800054718F1E83F87C714F1E83F8CC110D1D75
:10329000013183F8552183F85721C3E95922C3F836
:1032A0006C2183F87D2183F87F21C3E96322C3F871
:1032B000942183F8A52183F8A47183F8A721C3E999
:1032C0006D22C3F8BC2183F8CD2183F8CF21C3E957
:1032D0007722C3F8E421A03381422946CED1EA1EE9
:1032E000BCF1000F2CD002EB820304F5AA7000EBB6
:1032F000C3070021BCF1010F797000F83320F97089
:10330000C7E90411B9611BD0531C03EB8307BCF15F
:10331000020F00EBC70600F837307170F170C6E994
:103320000411B1610CD0911C01EB8102002700EB6C
:10333000C20300F832105F70DF70C3E904779F6149
:1033400094E80F00277C009702F0F6FE30B10220CF
:1033500084F89502012001B0F0BD00BF0020607428
:10336000012084F89502207B012804BF2046FFF746
:10337000C9FE206802F0D8FE002001B0F0BD0000B8
:1033800010B5C4B0044602A808304FF48071FDF7B0
:1033900027F9206846F20001C4F20101884201D0F9
:1033A00044B010BD102003900020029030204290C5
:1033B00002A800F01FF8002818BFFEF79FF800F0E1
:1033C0000FF840F6A440C4F20240016841F0807159
:1033D0000160006800F080700190019844B010BD59
:1033E00040F63800C4F20240016841F0007101600B
:1033F000704700002DE9F0470446006840F6284871
:10340000C101C4F2024807D5D8F8C010A26D21F05E
:1034100040411143C8F8C010C00712D0E06D052824
:1034200000F24684DFE810F0060088079C030600DF
:1034300006000600D8F8B01021F007010843C8F8CC
:10344000B00000252078800702D428461BE000BF8A
:10345000206E4FEAF001052900F22E842846DFE8AD
:1034600011F007007707890307000700070000BF76
:10347000064648B9D8F8B000216E20F0380008435D
:10348000C8F8B00000202E462178490719D5616E92
:103490004FEAB111052900F21784DFE811F00700A7
:1034A0005F07710307000700070000BF054648B922
:1034B000D8F8B000616E20F4E0700843C8F8B0009E
:1034C000002035462178090719D5A16E4FEA7121F0
:1034D000052900F20184DFE811F0070047075903CE
:1034E00007000700070000BF064648B9D8F8B0003B
:1034F000A16E20F460600843C8F8B00000202E469A
:103500002178C90619D5E16E4FEA3131052900F25B
:10351000EB83DFE811F007002F07410307000700E6
:10352000070000BF054648B9D8F8B000E16E20F4A6
:10353000E0400843C8F8B0000020354621788906ED
:1035400019D5216F4FEAF131052900F2D583DFE863
:1035500011F007001707290307000700070000BF45
:10356000064648B9D8F8B000216F20F4603008430F
:10357000C8F8B00000202E462178490619D5616FA1
:103580004FEAB141052900F2BF83DFE811F00700DF
:10359000FF06110307000700070000BF054648B9F2
:1035A000D8F8B000616F20F4E0100843C8F8B0000C
:1035B000002035462178090619D5A16F4FEA7151CF
:1035C000052900F2A983DFE811F00700E706F902F8
:1035D00007000700070000BF064648B9D8F8B0004A
:1035E000A16F20F460000843C8F8B00000202E4608
:1035F0006178C90719D0E16F4FEA3161052900F2FE
:103600009383DFE811F00700CF06E102070007000F
:10361000070000BF054648B9D8F8B000E16F20F0B8
:10362000E0600843C8F8B00000203546617889079B
:103630001AD5D4F880104FEAF161052900F27C8395
:10364000DFE811F00600B606C80206000600060014
:10365000064650B9D8F8B000D4F8801020F0605079
:103660000843C8F8B00000202E466178490719D5F4
:10367000D4F88410052900F26783DFE811F0070011
:103680009F06B10207000700070000BF054650B9BA
:10369000D8F8B400D4F8841020F007000843C8F824
:1036A000B40000203546617809071BD5D4F888108E
:1036B0004FEA3111052900F24F83DFE811F00700CE
:1036C0008506970207000700070000BF064650B9AD
:1036D000D8F8B400D4F8881020F070000843C8F877
:1036E000B40000202E466178C9061BD5D4F88C1092
:1036F0004FEA3161052900F23783DFE811F0070056
:103700006B067D0207000700070000BF054650B9A1
:10371000D8F8B800D4F88C1020F0E0600843C8F85E
:10372000B80000203546617889061CD5D4F8901081
:103730006FF0010202EB3142022A08D34FEA314115
:1037400029B1012932D104F1300002F0A7FA06466E
:1037500050B9D8F8BC00D4F8901020F44030084399
:10376000C8F8BC0000202E466178490623D5D4F85D
:1037700094106FF0010202EBB142022A08D34FEA23
:10378000B14129B1012939D104F1300002F086FAA2
:10379000054688B9D8F8BC00D4F8941020F440202D
:1037A0000843C8F8BC00002005E000BF0120012646
:1037B00061784906DBD435466178090623D5D4F80B
:1037C00098106FF0010202EB3152022A08D34FEA3F
:1037D000315129B1012939D104F1300002F05EFAEA
:1037E000064688B9D8F8BC00D4F8981020F44010E8
:1037F0000843C8F8BC00002005E000BF01200125F7
:1038000061780906DBD42E466179490723D5D4F8BF
:103810009C106FF0010202EBB152022A08D34FEA6A
:10382000B15129B101293BD104F1300002F036FA3F
:10383000074688B9D8F8BC00D4F89C1020F44000A2
:103840000843C8F8BC00002005E000BF01200126A5
:1038500061794907DBD43746A178C90725D0D4F868
:10386000A010002918BFB1F1007F0DD10546E8B9BD
:10387000D8F8BC00D4F8A01020F040700843C8F875
:10388000BC00002011E000BFB1F1807F40F04C810E
:1038900004F1300002F002FA054638B9E8E700BF4B
:1038A00001200127A178C907D9D13D46D4E90012EA
:1038B00040F61C49C4F2024912050CD5D9F8002083
:1038C00022F40042C9F80020D4F80421D9F80030CD
:1038D0001A43C9F8002089031AD5D4F8A4104FEA76
:1038E0003121052900F24882DFE811F006007A054F
:1038F0008C01060006000600064650B9D8F8B40050
:10390000D4F8A41020F4E0600843C8F8B400002004
:103910002E46A17849071BD5D4F8A8104FEA3131BB
:10392000052900F23182DFE811F00700610573011B
:1039300007000700070000BF054650B9D8F8B400DB
:10394000D4F8A81020F4E0400843C8F8B4000020E0
:103950003546217989061BD5D4F8AC104FEA3141A0
:10396000052900F21982DFE811F007004705590127
:1039700007000700070000BF064650B9D8F8B4009A
:10398000D4F8AC1020F4E0200843C8F8B4000020BC
:103990002E46217949061BD5D4F8B0104FEA315193
:1039A000052900F20182DFE811F007002D053F0133
:1039B00007000700070000BF054650B9D8F8B4005B
:1039C000D4F8B01020F4E0000843C8F8B400002098
:1039D0003546217909061BD5D4F8B4104FEA316178
:1039E000052900F2E981DFE811F007001305250140
:1039F00007000700070000BF064650B9D8F8B4001A
:103A0000D4F8B41020F0E0600843C8F8B4000020F7
:103A10002E466179C9071BD0D4F8B8104FEA31712E
:103A2000052900F2D181DFE811F00700F9040B014C
:103A300007000700070000BF054650B9D8F8B400DA
:103A4000D4F8B81020F0E0400843C8F8B4000020D3
:103A50003546A178090725D5D4F8C0104FEA314181
:103A6000042900F27580DFE801F003630D111100F5
:103A7000D8F8001041F40031C8F80010064690B99B
:103A800006E000BF04F1300002F008F9064650B924
:103A9000D8F8C000D4F8C01020F4E0200843C8F8DB
:103AA000C00000202E46A178C90625D5D4F8C41040
:103AB0004FEAF14104294FD8DFE801F004420E1229
:103AC000120000BFD8F8001041F40031C8F800100F
:103AD000054690B906E000BF04F1300002F0DEF8C0
:103AE000054650B9D8F8C000D4F8C41020F46010CE
:103AF0000843C8F8C00000203546A178890640F187
:103B0000B780D4F8D410052900F26681022900F0AC
:103B10009D800028024600F0A180D4E900139B0597
:103B200000F1AC805FE100BF01200125BEE600BFCF
:103B300004F1080002F03CF800280646B3D1A7E7DC
:103B400004F1080002F034F800280546D5D1C9E791
:103B500001200126A7E700BF01200125CDE700BF16
:103B600004F1300002F09AF8054600287FF46AACB0
:103B700000F0EABB04F1300002F090F8FFF778BCE7
:103B800004F1300002F08AF8FFF790BC04F1300035
:103B900002F084F8FFF7A8BC04F1300002F07EF8D0
:103BA000FFF7C0BC04F1300002F078F8FFF7D8BC92
:103BB00004F1300002F072F8FFF7F0BC04F13000BD
:103BC00002F06CF808E500BF04F1300002F066F87E
:103BD00020E500BF04F1300002F060F838E500BFD6
:103BE00004F1300002F05AF850E500BF04F1300053
:103BF00002F054F86AE500BF04F1300002F04EF81C
:103C000084E500BF04F1300002F048F874E600BF1C
:103C100004F1300002F042F88EE600BF04F13000FB
:103C200002F03CF8A8E600BF04F1300002F036F8DC
:103C3000C2E600BF04F1300002F030F8DCE600BF5D
:103C400004F1300002F02AF8F6E600BF04F10800A3
:103C500001F0AEFF002802467FF45FAFD8F8C00045
:103C6000D4F8D41020F007000843C8F8C0000020A2
:103C70002A46D4E900139B0540F1B580D4F8D8302A
:103C800043F00807082F0BD1824660B9D8F8C0006E
:103C900020F008001843C8F8C0000020A3E000BFCF
:103CA00001204FF0010A890100F1A080FEE000BF71
:103CB0000125FFF7C7BB00BF012001262178490776
:103CC0003FF5E5ABFFF7FDBB012001252178090792
:103CD0003FF5FBABFFF713BC012001262178C90695
:103CE0003FF511ACFFF729BC012001252178890699
:103CF0003FF527ACFFF73FBC01200126217849069C
:103D00003FF53DACFFF755BC0120012521780906A0
:103D10003FF553ACFFF76BBC012001266178C90762
:103D20007FF469ACFFF781BC012001256178890728
:103D30003FF57FACFFF798BC012001266178490769
:103D40003FF596ACFFF7AEBC01200125617809076D
:103D50003FF5ACACFFF7C6BC012001266178C9066F
:103D60003FF5C4ACDEE400BF01200125617889067F
:103D70003FF5DCACF7E400BF01200126A17849073C
:103D80003FF5CAADE4E500BF012001252179890690
:103D90003FF5E2ADFCE500BF01200126217949068F
:103DA0003FF5FAAD14E600BF01200125217909068F
:103DB0003FF512AE2CE600BF012001266179C9074C
:103DC0007FF42AAE44E600BF01200125A17809074F
:103DD0003FF542AE66E600BF01200122D4E90013A0
:103DE0009B053FF54BAF924689015FD54FF60846DC
:103DF000CFF6FF76074659F8060040F0010049F873
:103E00000600FEF7F9FF054659F80600C00707D17E
:103E1000FEF7F2FF401B0228F6D90320032146E0FB
:103E20003846002F394642D1D8F8C80010F4407007
:103E30001AD0D4F8F81001F44071884211D0D8F8A3
:103E4000C800D8F8C81020F4407041F48031C8F898
:103E5000C810D8F8C81021F48031C8F8C810C8F8C4
:103E6000C800C00740F0F282D4F8F800D9F800107A
:103E70004FF6CF7300F4407221F47C51C0F2FF037F
:103E800003EA1013B2F5407F08BF1943C9F80010C8
:103E9000D8F8C8106FF31F3021F44071C8F8C8106B
:103EA000D8F8C8100843C8F8C80000205146226856
:103EB00053011CD5D4F8C8306FF0010707EB331756
:103EC000022F0AD34FEA33173FB1012F18D1D8F888
:103ED000007047F40037C8F80070064640B9D8F8BB
:103EE000C00020F030001843C8F8C00000200E4683
:103EF000510209D43546A178090615D531E000BF35
:103F0000012001265102F5D5D4F8CC10402911D05A
:103F100011BBD8F8001041F40031C8F80010054674
:103F200078B1A17809061CD42E46E178090728D477
:103F300066E000BF04F1080001F03AFE00280546E3
:103F4000EFD1D8F8BC00D4F8CC1020F040000843E2
:103F5000C8F8BC000020CDE701200125A1780906A2
:103F6000E2D5D4F8D010802922D099BBD8F800101F
:103F700041F40031C8F80010064600B3E1780907A3
:103F80003ED5D4F8E010042900F2A081DFE811F05A
:103F90000600800128002C002C0000BFD8F800107B
:103FA00041F40031C8F80010054650BB1EE000BFC8
:103FB00004F1080001F0FCFD00280646DED1D8F827
:103FC000BC00D4F8D01020F080000843C8F8BC0032
:103FD0000020A9E701200126E1780907D1D40FE0EC
:103FE00004F1300001F05AFE054650B9D8F8B80087
:103FF000D4F8E01020F007000843C8F8B80000200B
:104000003546E178C90627D5D4F8E4104FEAF10126
:10401000042900F25F81DFE811F0050045010F007F
:1040200013001300D8F8001041F40031C8F8001054
:10403000064690B906E000BF04F1300001F02EFE04
:10404000064650B9D8F8B800D4F8E41020F038008B
:104050000843C8F8B80000202E46E178890627D525
:10406000D4F8E8104FEAB111042900F23781DFE8F3
:1040700011F0050023010F0013001300D8F8001001
:1040800041F40031C8F80010054690B906E000BFC1
:1040900004F1300001F002FE054650B9D8F8B8002E
:1040A000D4F8E81020F4E0700843C8F8B800002005
:1040B0003546E17849061BD5D4F8EC104FEA71215A
:1040C000052900F22181DFE811F00700AF010D01A1
:1040D00007000700070000BF064650B9D8F8B8002F
:1040E000D4F8EC1020F460600843C8F8B800002051
:1040F0002E46E17809061BD5D4F8F0104FEA31318D
:10410000052900F20981DFE811F007009501F300AD
:1041100007000700070000BF054650B9D8F8B800EF
:10412000D4F8F01020F4E0400843C8F8B8000020AC
:1041300035462179C9071BD0D4F8F4104FEAF13184
:10414000052900F2F180DFE811F007007B01D900BA
:1041500007000700070000BF064650B9D8F8B800AE
:10416000D4F8F41020F460300843C8F8B8000020F8
:104170002E46217989071BD5D4F8DC10032900F2DB
:104180008380DFE801F00903770900BFD8F8001049
:1041900041F40031C8F80010054650B9D8F8BC0009
:1041A000D4F8DC1020F003000843C8F8BC0000205D
:1041B00035462179490721D5D4F8BC1059B1B1F55C
:1041C000007F0BD0B1F5807F3CD1D8F8001041F4CE
:1041D0000031C8F80010064688B905E004F108006F
:1041E00001F0E6FC064650B9D8F8C000D4F8BC107F
:1041F00020F440700843C8F8C00000202E46217902
:10420000C90624D5D4F80011302909D0202909D0B5
:1042100010292DD1D8F8001041F40031C8F8001051
:10422000B0B904E004F1300001F038FD80B9D8F8ED
:10423000BC00D4F8001120F030000843C8F8BC00DE
:1042400005E000BF012601202179C906DAD43046F5
:104250002179090758BFBDE8F087D8F8C010D4F815
:10426000FC2021F0C0011143C8F8C010BDE8F08760
:104270000120EDE704F1080001F09AFC0028054652
:104280007FF497AF8AE700BF0125012091E700BFC7
:1042900004F1080001F08CFC002805467FF4B1AE63
:1042A000A4E600BF04F1080001F082FC00280646E5
:1042B0007FF4D3AEC6E600BF04F1080001F078FC3D
:1042C000002805467FF4F5AEE8E600BF0120012591
:1042D00097E600BF01200126BFE600BF01200125AF
:1042E000E7E600BF04F1300001F0D8FCF4E600BFBF
:1042F00004F1300001F0D2FC0EE700BF04F1300001
:1043000001F0CCFC28E700BF01200126E178090676
:104310003FF5F2AE0CE700BF012501202179C90766
:104320007FF40AAF24E700BF012601202179890725
:104330003FF522AF3CE700BF04F1080001F038FC74
:10434000054600287FF47EA8E06DFFF773B800BF34
:1043500004F1080001F02CFCFFF78AB804F1080012
:1043600001F026FCFFF7A2B804F1080001F020FCE0
:10437000FFF7BAB804F1080001F01AFCFFF7D2B851
:1043800004F1080001F014FCFFF7EAB804F108009A
:1043900001F00EFCFFF702B904F1080001F008FC7F
:1043A000FFF71AB904F1080001F002FCFFF732B977
:1043B00004F1080001F0FCFBFFF74AB904F1080022
:1043C00001F0F6FBFFF762B904F1080001F0F0FB21
:1043D000FFF77CB904F1080001F0EAFBFFF796B99A
:1043E00004F1080001F0E4FBFFF786BA04F10800CD
:1043F00001F0DEFBFFF7A0BA04F1080001F0D8FBE2
:10440000FFF7BABA04F1080001F0D2FBFFF7D4BA03
:1044100004F1080001F0CCFBFFF7EEBA04F108004C
:1044200001F0C6FBFFF708BB04F1080001F0C0FB78
:1044300052E600BF04F1080001F0BAFB6CE600BFD1
:1044400004F1080001F0B4FB86E600BFFEF7D4FCDF
:10445000054641F2883600BFD8F8C80080073FF50E
:1044600003ADFEF7C9FC411B0320B1424FF003012D
:10447000F2D91CE52DE9F04381B0002800F0D0808E
:1044800042F20008C4F202080446D8F800000D46C3
:1044900000F00F0088420DD2D8F8000020F00F0085
:1044A0002843C8F80000D8F8000000F00F00A84228
:1044B00040F0B680206840F62047C106C4F20247AB
:1044C0000CD561693A68702303EA1222914205D93A
:1044D0003A6822F4E04242EA0121396001070CD532
:1044E00021693A68702303EA1212914205D93A68A9
:1044F00022F4E06242EA0111396041070AD5E1681D
:104500003A6802F07002914204D93A6822F07002CF
:104510001143396081070AD5A1683A6802F00F0299
:10452000914204D93A6822F00F0211433960C00762
:1045300068D1206881070AD5A1683A6802F00F02A5
:10454000914204D23A6822F00F0211433960D8F840
:10455000001001F00F01A9420CD9D8F8001021F089
:104560000F012943C8F80010D8F8001001F00F011E
:10457000A94255D141070AD5E1683A6802F07002B4
:10458000914204D23A6822F0700211433960010767
:104590000CD521693A68702303EA1212914205D2C0
:1045A0003A6822F4E06242EA01113960C0060CD593
:1045B00060693968702202EA1121884205D239689F
:1045C00021F4E04141EA0020386000F09BF83968AE
:1045D00040F2920201F00F01C0F60102525C40F27B
:1045E0000401C2F20001096840F2100320FA02F24D
:1045F000C2F2000308461A6001B0BDE8F043FEF7BE
:1046000071BC00BF606857F8201C01280CD002283C
:1046100004D003285AD1890102D507E0890305D4C3
:10462000012001B0BDE8F0838905F9D557F8041CD5
:1046300021F00301084347F8040CFEF7DDFB616835
:104640000646032941F2883939D0022929D00129A7
:1046500010D100BF57F8040C00F0180008283FF4F0
:1046600068AFFEF7C9FB801B48454FF00300F1D946
:104670000DE000BF57F8040C10F0180F3FF459AFCD
:10468000FEF7BAFB801B48454FF00300F2D901B09A
:10469000BDE8F083FEF7B0FB801B48454FF00300F8
:1046A000F5D857F8040C00F018001028F2D140E7B4
:1046B000FEF7A2FB801B48454FF00300E7D857F8F0
:1046C000040C00F018001828F2D132E78907A7D5AA
:1046D000ACE7000080B500F015F840F62041C4F2C8
:1046E0000241096840F2920201F00F01C0F6010296
:1046F000515C01F01F01C84040F21001C2F20001FC
:10470000086080BD80B540F60041C4F20241C8692E
:1047100000F01800082802BF40F60010C0F23D006B
:1047200080BDC86910F0180F34D0C86900F01800B7
:10473000102802BF47F64000C0F27D1080BDC86956
:1047400000F01800182849F20000C0F2D03066D1FD
:10475000D1F828E08A6AC2F3052C8A6A8B6BBCF117
:10476000000F04BF002080BDDB08D20603EAE2721E
:104770006FF35F3200EE102A0EF00302B8EE400A2B
:10478000032A15D0012A17D10A68920618D49FED82
:10479000251A1DE00868800649F20000C0F2D030FA
:1047A00058BF80BD0968C1F3C101C84080BD00BFCA
:1047B0009FED1B1A0CE000BF9FED1B1A08E000BF25
:1047C0000A68C2F3C102D04001EE100AB8EE411AE5
:1047D00002EE10CA486BB8EE422A6FF35F2081EEFA
:1047E000021A02EE100A9FED113AB8EE422A20EEAC
:1047F000030A486B30EE020AB7EE002AC0F34620E7
:1048000030EE020A013021EE000A01EE100AB8EE85
:10481000411A80EE010ABCEEC00A10EE100A80BDFB
:1048200020BCBE4B0024744C0024744A00000039A4
:10483000002804BF012070472DE9F04381B040F605
:10484000004740F6F0490446C4F20247C4F2024968
:10485000F86959F8C81C227800F01808D00601F051
:1048600003062AD5B8F1080F1CD0B8F1180F08BFFD
:10487000022E17D0E1693868002900F06D8140F4FC
:1048800080703860FEF7B8FA054600BF38688005CA
:104890000CD4FEF7B1FA401B02284FF00300F5D903
:1048A00058E200BFE069002800F0E480B869216A9E
:1048B00020F47C1040EA0140B8612078C00719D08C
:1048C000B8F1100F12D0B8F1180F08BF032E0DD099
:1048D00061683868B1F5A02F60DA002900F0B08176
:1048E000B1F5803F00F0CE819EE100BF60680028F6
:1048F00000F0C0802078800777D5B8F1000F21D074
:10490000E068B8F1180F08BF012E55D039680028AB
:1049100000F06681206921F018010843386038688A
:1049200040F001003860FEF767FA054638688007F6
:1049300054D4FEF761FA401B02284FF00300F5D96A
:1049400008E200BFE068002800F094803968206920
:1049500001F01801814231D0396821F01801084373
:104960003860FFF7CFFE396A40F2920201F00F0182
:10497000C0F60102515C40F2100201F01F0120FA62
:1049800001F140F20400C2F200000068C2F200022D
:104990001160FEF7A7FA00286CD10FE000F06A81E1
:1049A000B1F5A81F40F0408140F48020386038689D
:1049B00040F4801064E100BF00285BD0FEF71CFAD1
:1049C000054600BF3868800708D4FEF715FA401B7B
:1049D0000228F7D9032001B0BDE8F0833869616986
:1049E00020F4FE0040EA014038612078000745D4F9
:1049F000207840075CD42078800600F17F80A56A8B
:104A0000A5B3B8F1180F40F0C98059F8C81C59F87F
:104A1000BC0C012D2ED0E26A01F00303934229D190
:104A2000C1F30521226B914224D1626B01466FF3E1
:104A30005F21013A91421DD1A16BC0F34622013999
:104A40008A4217D1E16BC0F3064201398A4211D183
:104A5000216CC0F30660013988420BD159F8B80CBB
:104A6000E16CC0F3CC00884240F0E881002001B046
:104A7000BDE8F083012001B0BDE8F083A169D9F859
:104A80000000002952D040F08060C9F80000FEF715
:104A9000B3F90546D9F800000001A9D4FEF7ACF936
:104AA000401B0228F6D9032001B0BDE8F08300BF07
:104AB0004FF62446CFF6FF76B859C00712D1B85941
:104AC00040F00100B851FEF797F90546B859C00704
:104AD00008D1FEF791F9401B02284FF00300F5D9E9
:104AE00038E100BFA168D9F80000042946DC00299C
:104AF00000F0EA80012900F01781D5E0616A38688A
:104B0000002900F07F8040F480503860FEF774F98F
:104B1000054600BF386880043FF571AFFEF76CF9B9
:104B2000401B02284FF00300F4D913E120F080600D
:104B3000C9F80000FEF760F9054600BFD9F800008B
:104B400000017FF555AFFEF757F9401B02284FF0E3
:104B50000300F3D9FEE000BF20F480703860FEF758
:104B60004BF90546386880057FF5A7AEFEF744F996
:104B7000401B02284FF00300F4D9EBE0052900F0B8
:104B8000C780852940F0908040F00400C9F80000FB
:104B9000D9F8000040F08000C2E000BF386820F083
:104BA00080703860FEF728F9022D05460CD100BF51
:104BB0003868800140F1D280FEF71EF9401B0228C0
:104BC0004FF00300F4D9C5E03868800140F1288136
:104BD000FEF712F9401B02284FF00300F4D9B9E0A8
:104BE00021F001003860FEF707F9054638688007B4
:104BF0007FF5FBAEFEF700F9401B02284FF00300E3
:104C0000F4D9A7E020F480503860FEF7F5F80546A7
:104C1000386880047FF5F3AEFEF7EEF8401B0228FB
:104C20004FF00300F4D995E020F480303860386804
:104C300020F480203860386820F4801024E000BF21
:104C400020F480303860386820F48010386038688C
:104C500020F480203860FEF7CFF8054638688003DE
:104C60007FF548AEFEF7C8F8401B64284FF00300FC
:104C7000F4D96FE040F480203860386820F4801068
:104C80003860386840F480303860FEF7B5F8054683
:104C9000386880033FF52EAEFEF7AEF8401B64285F
:104CA0004FF00300F4D955E020F00100C9F80000EE
:104CB000D9F8000020F00400C9F80000D9F800007D
:104CC00020F0800032E000BF20F00100C9F80000B1
:104CD000D9F8000020F08000C9F80000D9F80000E1
:104CE00020F00400C9F80000FEF786F8054641F2FE
:104CF000883600BFD9F8000080077FF57CAEFEF74C
:104D00007BF8401BB0424FF00300F3D922E000BF14
:104D100040F00400C9F80000D9F8000020F080003D
:104D2000C9F80000D9F8000040F00100C9F80000FF
:104D3000FEF762F8054641F2883600BFD9F8000058
:104D400080073FF558AEFEF757F8401BB0424FF0D2
:104D50000300F3D901B0BDE8F08300BF59F8C80CD7
:104D600043F6037104F12C0388430ECB084340EA59
:104D70000220A16B49F8C80C4FF47E4202EB41219E
:104D8000E26B581E4FF4FE0389B203EB02426FF34D
:104D90005F20084402F4FE01226C4FF0FE4303EB57
:104DA0000262084402F0FE41084449F8BC0C59F87C
:104DB000C80C20F0100049F8C80CE06CC00049F89D
:104DC000B80C59F8C80C40F0100049F8C80C59F854
:104DD000C80C616C20F00C00084349F8C80C59F865
:104DE000C80CA16C20F02000084349F8C80C59F801
:104DF000C80C40F4803049F8C80C386840F0807026
:104E00003860FDF7F9FF0446386880013FF52EAEA3
:104E1000FDF7F2FF001B02284FF00300F4D999E7D9
:104E200059F8C80C4FF6FC71CFF6F871084049F8F4
:104E3000C80C002001B0BDE8F08300BF59F8C80CD1
:104E400020F0100049F8C80CFDF7D6FF0546FDF725
:104E5000D3FFA842FBD0E06CC00049F8B80C59F869
:104E6000C80C40F0100049F8C80C002001B0BDE8A3
:104E7000F083000040F20051C4F200410A6822F4BD
:104E80006002104308607047042888BF7047DFE85D
:104E900000F0031B13352D004EF21000CEF200007F
:104EA000016821F00401016040F6E440C4F20240D0
:104EB000016821F00C0120E04EF21000CEF200005B
:104EC0000168022206E000BF4EF21000CEF20000A0
:104ED0000168012221F00401016040F6E440C4F2BF
:104EE0000240016862F3830107E000BF4EF2100048
:104EF000CEF20000016841F004010160704700003B
:104F0000411E0020B0EB116F1CBF012070474EF214
:104F10001002CEF2000251609060116841F003016E
:104F2000116070474EF21000CEF20000006840079A
:104F300044BF0420704740F6E440C4F202400068D9
:104F400000F00C01081FB0FA80F04009082908BFE2
:104F50000220704770B50446FDF74EFF002C04BFD9
:104F6000012070BD054600206065216D002918BF35
:104F700070BD204600F082F841F28830A0652068BC
:104F8000D4E903C3666981684CF2FC02CFF6E00203
:104F90000A4042EA0C026FF0FF0EE16942EA034266
:104FA0000EEB06231143194341F2004340F08052B7
:104FB000C5F200739A42816005D18168626B21F06D
:104FC000080111438160C168236A21F4E02119437B
:104FD000D4F804C0266BA26BC160016921F4F811FA
:104FE00041EA06410161426101680EEB0C2221F4A5
:104FF000F85111430160016A89060AD541F28836E9
:10500000FDF7FAFE401BB04230D82068016A8906DD
:10501000F6D4C168D4E9096521F0FF013143A268E3
:10502000A369C1600168022B21F0400141EA02013D
:105030000160D0F80811E26A21F0A04141EA0501BF
:1050400041EA0201C0F80811016841F00101016064
:1050500003D1816841F002018160E068B0F1806FA6
:1050600014BF022001202065002070BD02202065B1
:10507000606D40F001006065032070BD2DE9F04FC8
:10508000C9B0044602A8002508304FF48071489545
:10509000CDE94655CDE94455FBF7A2FA206841F227
:1050A0000041C4F20071884202D049B0BDE8F08FDF
:1050B0004FF0020802A8CDE90258FEF79BF900283C
:1050C00018BFFCF71BFA40F68C40C4F2024081681E
:1050D00040F2004641F4801181608168C4F20226EA
:1050E00001F4801101910199016806F5406441F0D5
:1050F00010010160016844AD01F0100101910199B6
:1051000001684FF0000941F00101016001680327C7
:1051100001F001010191019901684FF0090B41F083
:10512000020101600068294600F002000190019828
:105130000420CDE944082046CDF818914797CDF8D2
:1051400020B1FDF78FFD402044A981E801034FF015
:10515000060AA6F5806029464797CDF820A1FDF7FD
:1051600081FD44A880E8800330462946CDE9477A8E
:10517000FDF778FD042044A981E801033046294663
:10518000CDE9477BFDF76EFD4FF4006044A981E84F
:10519000010320462946CDE9477AFDF763FD49B072
:1051A000BDE8F08FFEE7000070B586B040F2541500
:1051B000C2F200050024C5E902442C61C5F8134081
:1051C00004F0D4FE48F6D150C0F600000594CDE9B5
:1051D0000344CDE9004005F1180448F6D14C05A977
:1051E00004AA03AB2046C0F6000CCDF808C005F0B9
:1051F00023FB204605F04AFC4AF63931C0F600018F
:10520000204605F073FC204605F074FC204605F0AE
:1052100043FC01262046AE7502F0BCFC2E7506B09C
:1052200070BD0000B0B540F25415C2F2000505F1A2
:105230001804204603F04CFE06F0B4F8FDF7DCFD40
:105240006A68E969821A44F620639A4209D3686061
:1052500031B105F11C01204603F00AFCE96900E0C8
:105260000021D5E90802C5E9021020462A6102F0B2
:1052700011FD18B14FF4817006E000BF204601F027
:10528000C3F808B34FF40170A882002029780029E0
:1052900008BF00280CD0287D012818BFB0BD286C9D
:1052A00020B18079052824BF03202875B0BD00BF38
:1052B00040F60000C4F202204FF480510122012484
:1052C000FDF794FD2C70B0BD687DB0FA80F0400908
:1052D000DCE7000080B540F6202041F20041C2F238
:1052E0000000C4F203010022C0E90012FCF716F925
:1052F000002808BF80BDBDE88040FCF7FFB8000073
:1053000070B540F64C2448F20000C2F20004C4F22A
:10531000020040F214162060C2F200064FF4004072
:105320003080E120B070FDF76DFD0546FDF770FDA2
:105330006840000CF070FDF765FD0546FDF768FD5F
:105340006840000A3071FDF75DFD0546FDF760FD20
:10535000684070710120207240F2743040F21432C3
:10536000C2F20000C2F2000240F2F451C4E90302AA
:10537000204666606161FCF7FFF9002818BFFCF762
:10538000BDF806F10C003421FBF72AF92120B060AA
:105390004FF44030F06170BD70B540F6FC204AF229
:1053A0000042C2F200000021C4F200024FF4407338
:1053B0004FF0040CC0E90021C0E9023101220A23A8
:1053C0004FF0270E0524C0F818C000F1200C02820F
:1053D0008174032513264361C0F81CE08CE8780033
:1053E000C0E90C42C0E90E11FDF7B0F9002808BF72
:1053F00070BDBDE87040FCF781B800002DE9F04FAA
:1054000087B0002440F68C400694CDE90444CDE9F1
:105410000244C4F20240016840F6000841F0100165
:1054200001600168C4F2022801F0100101910199A4
:10543000016808F5006641F004010160016800227E
:1054400001F00401019101990168082741F001016F
:105450000160016801F0010101910199016841F0C9
:1054600002010160016801F00201019101990168E6
:1054700041F0080101600068082100F00800019077
:1054800001983046FDF7B2FC08F5806528464FF4D8
:10549000807101224FF4807A4FF00109FDF7A6FCDC
:1054A00040464FF4805100224FF4805BFDF79EFC94
:1054B000CDE9027902AF30463946CDE90444FDF723
:1054C000D1FB1120CDE9030428463946CDF808A0C8
:1054D0000594FDF7C7FB40463946CDE902B9CDE951
:1054E0000444FDF7BFFB07B0BDE8F08F80B586B080
:1054F0004FF0C041002002910121CDE9031001A924
:1055000001900590FDF794FC002818BFFBF7F6FF0B
:10551000FDF784FC002818BFFBF7F0FF06B080BD44
:1055200080B540F6446041F200430121C2F2000020
:10553000C4F200730022C0E9003100F108034FF00B
:10554000807C4FF0140E83E80450C0E9051213214B
:105550000823C261C0E90821C0E90A22C0E90C237E
:105560008263FFF7F7FC002808BF80BDBDE88040DC
:10557000FBF7C4BF80B540F6603046F20001C2F2CE
:105580000000C4F201010160082101710221C17112
:1055900041720021C0F80A10C0F80D10FDF7C4FDDB
:1055A000002808BF80BDBDE88040FBF7A7BF000012
:1055B000FEE700002DE9F04F89B0FDF71DFC40F239
:1055C0001C75C2F200052978044679B1E86941F2F8
:1055D0008931201A88420FD340F21C70C2F20000B9
:1055E0003021FAF7FDFF0120002107E0002008909C
:1055F00095F8301031B911E000200121089195F89B
:10560000301059B1E96C41F28932611A91420BD3E1
:1056100005F130003021FAF7E3FF01200021079166
:1056200095F8601029B910E00121079195F86010F4
:1056300059B1E96F41F28932611A91420CD305F1F7
:1056400060003021FAF7CCFF01200021069195F887
:10565000901031B912E000BF0121069195F8901029
:1056600061B1D5F8AC1041F28932611A91420BD385
:1056700005F190003021FAF7B3FF012000210591D8
:1056800095F8C01029B911E00121059195F8C010D5
:1056900061B1D5F8DC1041F28932611A91420BD325
:1056A00005F1C0003021FAF79BFF01200021049191
:1056B00095F8F01029B911E00121049195F8F01046
:1056C00061B1D5F80C1141F28932611A91420BD3C4
:1056D00005F1F0003021FAF783FF0120002103914A
:1056E00095F8201129B911E00121039195F82011B5
:1056F00061B1D5F83C1141F28932611A91420BD364
:1057000005F590703021FAF76BFF0120002102911E
:1057100095F8501129B911E00121029195F8501125
:1057200061B1D5F86C1141F28932611A91420BD303
:1057300005F5A8703021FAF753FF012000210191EF
:1057400095F8801129B911E00121019195F8801196
:1057500061B1D5F89C1141F28932611A91420BD3A3
:1057600005F5C0703021FAF73BFF012000210091C0
:1057700095F8B01129B911E00121009195F8B01107
:1057800061B1D5F8CC1141F28932611A91420BD343
:1057900005F5D8703021FAF723FF01204FF0000BF8
:1057A00095F8E01129B911E04FF0010B95F8E011DF
:1057B00061B1D5F8FC1141F28932611A91420BD3E3
:1057C00005F5F0703021FAF70BFF0120002695F85F
:1057D000101229B911E000BF012695F8101261B12D
:1057E000D5F82C1241F28932611A91420AD305F59B
:1057F00004703021FAF7F4FE0120002795F84012DA
:1058000021B910E0012795F8401261B1D5F85C127A
:1058100041F28932611A91420CD305F510703021A2
:10582000FAF7DEFE01204FF0000895F8701231B94A
:1058300012E000BF4FF0010895F8701261B1D5F881
:105840008C1241F28932611A91420BD305F51C701A
:105850003021FAF7C5FE01204FF0000995F8A0129B
:1058600029B911E04FF0010995F8A01261B1D5F8FE
:10587000BC1241F28932611A914209D305F52870B0
:105880003021FAF7ADFE01204FF0000A02E000BF20
:105890004FF0010A95F8D012002918BF01210DD050
:1058A000D5F8EC2241F28933A21A9A4206D305F5C3
:1058B00034703021FAF794FE002100E0E0B1DDE918
:1058C00007201044069A1044059A1044049A104484
:1058D000039A1044029A1044019A1044009A10440A
:1058E000584430443844404448445044084440F20A
:1058F0001B71C2F20001087009B0BDE8F08F000012
:10590000F0B581B045680446284603F00BFB40F231
:105910001C76B0F1FF3FC2F2000640F3838000EB3B
:105920004001227806EB01177870BA70C7E901557B
:10593000D4E902020D01C7E90402D4F81100627D26
:10594000F8603A76E08AA7F81900A07EB4F91C1036
:1059500087F82400B962B4F91E0094F82010F862A8
:10596000398494F82100A18C7884F984FDF744FAF5
:10597000F86101207055307896F8301096F8602064
:1059800096F89030002818BF0120002918BF013078
:10599000002A18BF013096F8C010002B18BF013044
:1059A000002996F8F01018BF0130002996F8201150
:1059B00018BF0130002996F8501118BF0130002996
:1059C00096F8801118BF0130002996F8B01118BF61
:1059D0000130002996F8E01118BF0130002996F82F
:1059E000101218BF0130002996F8401218BF01307C
:1059F000002996F8701218BF0130002996F8A012FD
:105A000018BF0130002996F8D01218BF01300029C4
:105A100018BF013040F21B71C2F20001087001B0E2
:105A2000F0BD00BF307878B396F8300070B396F8C8
:105A3000600068B396F8900060B396F8C00058B361
:105A400096F8F00050B396F8200148B396F850014C
:105A500040B396F8800138B396F8B00130B396F8A9
:105A6000E00128B396F8100220B396F8400218B36C
:105A700096F8700210B396F8A00208B396F8D00218
:105A80000028CCD10F204AE7002048E7012046E754
:105A9000022044E7032042E7042040E705203EE7D8
:105AA00006203CE707203AE7082038E7092036E7D8
:105AB0000A2034E70B2032E70C2030E70D202EE7D8
:105AC0000E202CE7FEE7000070470000062942D3B5
:105AD0000178A5293FD1417801391F293BD8DFE85A
