:020000040800F2
:100000003008002099010008051C0008311B000879
:1000100000000000000000000000000000000000E0
:100020000000000000000000000000000B1C0008A1
:100030000000000000000000091C0008631C00080C
:10004000AB010008AB010008AB010008AB010008E0
:10005000AB010008AB010008AB010008AB010008D0
:10006000AB010008AB010008AB010008AB010008C0
:10007000AB010008AB010008AB010008AB010008B0
:10008000AB010008AB010008AB010008AB010008A0
:10009000AB010008AB010008AB010008AB01000890
:1000A000AB010008AB010008AB010008AB01000880
:1000B000AB010008AB010008AB01000800F002F83A
:1000C00000F03EF80CA030C8083824182D18A246BD
:1000D000671EAB4654465D46AC4201D100F030F895
:1000E0007E460F3E0FCCB6460126334200D0FB1AA7
:1000F000A246AB46334318473C2300005C23000074
:10010000103A02D378C878C1FAD8520701D330C860
:1001100030C101D504680C60704700000023002442
:1001200000250026103A01D378C1FBD8520700D32E
:1001300030C100D50B6070471FB51FBD10B510BD95
:1001400000F057F91146FFF7F7FF02F025F800F02D
:100150006FF903B4FFF7F2FF03BC00F075F900007C
:1001600070B505460C46164602E00FCC0FC5103E92
:10017000102EFAD2082E02D303CC03C5083E042E5B
:1001800007D301CC01C5361F03E021782970641C18
:100190006D1C761EF9D270BD07488047074800479E
:1001A000FEE7FEE7FEE7FEE7FEE7FEE70448054957
:1001B000054A064B70470000DB1C0008BD00000824
:1001C00030020020300800203004002030040020DD
:1001D000F8B5042A2CD3830712D00B78491C03707E
:1001E000401C521E83070BD00B78491C0370401C27
:1001F000521E830704D00B78491C0370401C521E0A
:100200008B079B0F05D0C91ADF002023DE1B08C90E
:100210000AE0FFF7A5FFF8BD1D4608C9FD401C46D2
:10022000B4402C4310C0121F042AF5D2F308C91A97
:10023000521EF0D40B78491C0370401C521EEAD4A5
:100240000B78491C0370401C012AE4D40978017022
:10025000F8BD01E004C0091F0429FBD28B0701D5BA
:100260000280801CC90700D00270704700290BD0A3
:10027000C30702D00270401C491E022904D3830721
:1002800002D50280801C891EE3E70022EEE70022EF
:10029000DFE7002203098B422CD3030A8B4211D3E0
:1002A00000239C464EE003460B433CD40022430807
:1002B0008B4231D303098B421CD3030A8B4201D3F7
:1002C00094463FE0C3098B4201D3CB01C01A52418F
:1002D00083098B4201D38B01C01A524143098B42DF
:1002E00001D34B01C01A524103098B4201D30B01C8
:1002F000C01A5241C3088B4201D3CB00C01A5241ED
:1003000083088B4201D38B00C01A524143088B42B1
:1003100001D34B00C01A5241411A00D2014652414A
:10032000104670475DE0CA0F00D04942031000D369
:100330004042534000229C4603098B422DD3030ABE
:100340008B4212D3FC22890112BA030A8B420CD3CE
:10035000890192118B4208D3890192118B4204D3F7
:1003600089013AD0921100E08909C3098B4201D377
:10037000CB01C01A524183098B4201D38B01C01AB1
:10038000524143098B4201D34B01C01A5241030928
:100390008B4201D30B01C01A5241C3088B4201D3D7
:1003A000CB00C01A524183088B4201D38B00C01A84
:1003B0005241D9D243088B4201D34B00C01A52415B
:1003C000411A00D20146634652415B10104601D3E8
:1003D0004042002B00D54942704763465B1000D372
:1003E000404201B50020C046C04602BD704770477C
:1003F0007047754600F024F8AE460500694653463E
:10040000C008C000854618B020B5FFF7CFFE60BC1D
:1004100000274908B6460026C0C5C0C5C0C5C0C52E
:10042000C0C5C0C5C0C5C0C5403D49008D46704768
:1004300010B50446C046C0462046FFF78AFE10BDF0
:1004400000487047D001002001491820ABBEFEE7EC
:1004500026000200704710B505E00B780478634071
:100460000370401C491C521EF7D210BDF0B585B078
:10047000140005460E463DD0002D03D010226846DC
:10048000FFF7A6FE2021204600F038F810221A4976
:100490003046FFF7E0FF304600F0C9F81021304643
:1004A00000F0D6F8144F0D24E03F2001C1191022AE
:1004B0003046FFF7D0FF304600F040F8304600F0FD
:1004C000B6F81021304600F0C3F8641E2406240E4E
:1004D000EBD1394610223046FFF7BDFF002D09D081
:1004E000102229463046FFF7B6FF102269462846FB
:1004F000FFF76EFE05B0F0BD3001002010B50C46D0
:100500000A4601460348FFF763FE2146014801F011
:1005100011FB10BD5000002030B50022064C08E051
:10052000835C1D092D011B072D191B0FEB5C8354E8
:10053000521C8A42F4D330BDD4210008FEB50746D0
:100540000024A000C519042229466846FFF740FE92
:10055000684600780E2100F08DFA0646684640781D
:100560000B2100F087FA4640684680780D2100F0A4
:1005700081FA46406846C078092100F07BFA46407F
:10058000684606710078092100F074FA064668464C
:1005900040780E2100F06EFA4640684680780B21C4
:1005A00000F068FA46406846C0780D2100F062FA13
:1005B00046406846467100780D2100F05BFA064619
:1005C00068464078092100F055FA46406846807830
:1005D0000E2100F04FFA46406846C0780B2100F02B
:1005E00049FA46406846867100780B2100F042FACD
:1005F0000646684640780D2100F03CFA46406846C1
:100600008078092100F036FA46406846C0780E210D
:1006100000F030FA46406846C6712846042201A917
:10062000FFF7D6FD641CE4B2042C8AD3FEBD10B5DE
:1006300004460322012101F0E9FA02221146204674
:1006400001F0E4FA01220321204601F0DFFA10BD97
:1006500030B50022064C08E0835C1D092D011B0704
:100660002D191B0FEB5C8354521C8A42F4D330BD0E
:10067000D422000825489AB000240470446024491C
:100680008460244A0B68934204D18968C1600121C7
:10069000417003E00021C943C160447001F0EEFBEA
:1006A000002801D000BFFDE740211B4800F05DFAA3
:1006B0000028F9D06B4610AA4021174800F060FAD4
:1006C0000028F1D11398000C082801D8C2B217E015
:1006D0000938030001F002FB070507090B0D0F1194
:1006E00013000C220CE010220AE0142208E0182269
:1006F00006E0202204E0302202E0402200E0224610
:100700006946109801F0F8FBCEE7000030000020A9
:1007100000F80108414A504150010020564B9AB060
:100720000FCB03936B4607C31022544912A8FFF75F
:100730004FFD534A694612A8FFF798FE684601F03C
:1007400033FD064601A801F02FFD054602A801F081
:100750002BFD03A801F028FD04464A48864244D1F7
:100760004948854241D10C21684601F0F5FAA04282
:100770003BD1414B10330FCB0F930CAB07C310226F
:100780003E4908A8FFF724FD3D4A0CA908A8FFF739
:100790006DFE0FA801F008FD040026D00D20000317
:1007A000844222D8344B20330FCB0F930CAB07C3BA
:1007B000334A0CA908A8FFF759FE0CA801F0F4FC75
:1007C00006460DA801F0F0FC0546304886420CD1E3
:1007D0000B990A9807910690099F089E2A4608A936
:1007E000204601F093FC002801D0294841E00698FA
:1007F0000A90284807990997089620180B91C70A6C
:10080000062600F0E3FBF01F18900220049004205D
:1008100005AAC1C218A904A800F052FB002802D002
:1008200000F090FB10E000F08DFB20460F30000937
:1008300008A901F0ABFA002806D12146144C204645
:1008400001F08AFAA84201D001F078FA1F2620258B
:1008500000F0BCFB0020C04306900220169004204C
:1008600017AA61C206A916A800F02AFB00F06AFBCD
:10087000204601F0C9FA0000000001080000002035
:1008800010000020574654474D4F540043544F4DDD
:1008900000300008FF07000030B51A4C352302680D
:1008A00017491B01A24200D1174980320164146824
:1008B0001F252D04AC43858E2D042C4314600A465D
:1008C000703242640268803214680F252D06AC43F2
:1008D000058F2D062C4314600A46B0328264D8324C
:1008E000C264132252018A1802654F22D2008A186C
:1008F00042650022C81800E004C18142FCD330BD2B
:1009000000B400400068004050B70040F0B58D686A
:100910000C692C4360C90839002E16D00126B60791
:1009200035432C438E69CD690F8C35434E693F06A4
:100930003E4335438E89406D360435434826734324
:10094000C01830C000230B4F0EE0AD04E9E7D41807
:10095000E678D55C36063543A678647836042402FA
:100960002643354320C01B1DCC683C5D9C42EED81D
:10097000F0BD0000E223000803494A6901231B047B
:10098000184302434A6170470020024010B5084BEB
:100990005A69084C224001246403042801D02243F0
:1009A00000E0A243C800044910430843586110BD49
:1009B0000020024007E0FFFF0200010030B50549BA
:1009C0004C6901252C434C610260BFF36F8F43607B
:1009D00030BD00000020024030B50B4C002362699E
:1009E0000125AD042A436261EFF3108272B620C97B
:1009F0005B1C20C0DBB2402BF9D320698003800F41
:100A0000FBD182F3108830BD00200240F8B50446C7
:100A100000F0A2FB032706463F04124D06E0601CCF
:100A200004D000F099FB801BA04213D22869384201
:100A3000F5D128690C4908400C4929610CD00C49B2
:100A400048600120F8BD601C06D000F085FB801BCB
:100A5000A04201D30320F8BD28694003F3D400204D
:100A6000F8BD000000200240FAC30000FBC30800EC
:100A7000B401002010B500221346CC0700D042403C
:100A80004400000601D51B2000E0002044405B1C10
:100A90004908DBB2E0B2082BEFD3104610BD0000CE
:100AA00070B5044600F058FB0546601C02D00448AF
:100AB0000078241800F050FB401BA042FAD370BD10
:100AC0004000002070B504464030007F022802D06C
:100AD000206E082107E020688030436C9B0206D519
:100AE000206E0121490208432066012070BD406C40
:100AF0008003850F2B462046FFF708FF0120216861
:100B0000A8408031C864A065002070BD10B55C228B
:100B1000125C012A07D0022A05D0016E022211437D
:100B20000166012010BD0A68002A0ED00A7B0B69FD
:100B300052071A430B7A4C6949689B07406C234360
:100B4000C90040180CC0002010BD0B7A4A699B07F1
:100B50001A430B7B0C8ADB06240449682343006C90
:100B60001A43890040180260EDE700688030402990
:100B700003D080690007000F70470069FAE70000A2
:100B8000F0B59C465C231B5C0024022B03D0016E55
:100B90000822114356E0FF250135036840293ED065
:100BA00080339E6936074BD09D69ED0103D51D68E2
:100BB000ED0500D501249B699B059B0F1D19C46C95
:100BC00048236B43E41801262368B607334053607B
:100BD00023683AD0DB00DB08136001262368760720
:100BE0003340936023687612DB0FDB071361A38821
:100BF0009BB2D36163681B031B0FD36063683340F0
:100C000053616368760033409361636800265B003C
:100C10005B0E13626368DB0F083453621CE08033A1
:100C20001E6936070CD01D69ED0103D51D68AD05A1
:100C300000D501241B699B059B0F1D19846CBFE720
:100C4000016E294301660120F0BDDB005B0DC3E7A7
:100C5000A75D63469F55761C074FD368FB5CB34284
:100C6000F6D80068402903D08030C5610020F0BD6F
:100C700080304561FAE70000E2230008F8B504007F
:100C800005D025464035287F002802D006E0012007
:100C9000F8BD00206877204600F0C2F8206881691E
:100CA00010229143816100F057FA0746012604E0C3
:100CB00000F052FAC01B0A2810D82068806900078B
:100CC000F6D4206881693143816100F045FA074616
:100CD0000AE000F041FAC01B0A2805D9206E304313
:100CE000206603202877D2E720688069C007F0D00B
:100CF000206881690222114381614748216881424D
:100D000002D1464960680860207C402101282068A3
:100D100082693AD00A438261607C012189030128FB
:100D20002068826933D08A438261A07C0121090353
:100D30000128206882692CD00A4382612168886971
:100D4000032212029043A2681043886120688169DF
:100D5000A4229143816121680A69102082430A61BB
:100D6000E168012917D000291DD02022022916D0C0
:100D700021688B6980273B438B6121680B690343A2
:100D80000B61E06803280AD00DE08A43C3E70A43F9
:100D9000CAE78A43D1E720688169042201E020681C
:100DA000816911438161207E7F21400649064018F8
:100DB000E1690902FF3901390843216A491E0843E4
:100DC000A18A0A0401210904521A10432268D06141
:100DD0000320A2680002824210D1E26AA06A1202D5
:100DE000FF3A401E013A1043226B1201103A1043A1
:100DF000A28C1204511A08432168C8602068803010
:100E0000016CE26B114301642046FFF745FD0020B1
:100E1000A06520662E77F8BD0064004000650040A4
:100E200010B59AB00446142113A8FFF730FA4C21EC
:100E30006846FFF72CFA15492068884224D1012022
:100E40004006002400901294684600F00BFA104807
:100E5000C26B81140A43C263C26B0A401892416B91
:100E6000012211434163406B1594104018900320F8
:100E7000C0021390022014900320169017900520B2
:100E800013A9000700F0B6F81AB010BD00640040C6
:100E900000100240014640310A7F012A05D0016E50
:100EA0000422114301660120704702220A7701687B
:100EB0008A69520852008A6100210166084670471B
:100EC000F8B51E4E044630780F4601280AD001209E
:100ED0003070002070607D20C000FFF797FD002873
:100EE00002D028E00220F8BD2168042904D00021A6
:100EF000C9433960A56814E06068FFF73DFD7D20B7
:100F0000C000FFF783FD16E029466068FFF73EFD4D
:100F10007D20C000FFF77AFD002801D03D6005E08C
:100F20006D1CE268A1688918A942EDD804494A6994
:100F300002239A434A6100213170F8BDB4010020B8
:100F40000020024010B57D200124C000FFF75EFDA7
:100F5000054841698204114341614069002800DA73
:100F60000024204610BD000000200240F0B51FB450
:100F7000144C06462078154601280AD0012020701E
:100F800000277D20C0006760FFF740FD002803D0E8
:100F900010E0022005B0F0BD012E0DD029460198C9
:100FA000FFF71AFD7D20C000FFF730FD06494A69B2
:100FB000B2434A612770EDE72A46039B0198FFF789
:100FC000FDFCEFE7B40100200020024006490020AC
:100FD0004A69002A07DA054A8A60054A8A6049692F
:100FE000002900DA012070470020024023016745F4
:100FF000AB89EFCDF0B5002303249DE001259D4092
:101000002A4072D00E79B607B60F012E01D0022EFB
:1010100016D186682746B4465E00B646B740664697
:10102000BE43B446CF687646B740664637438760CE
:101030004668AE430D79ED06ED0F9D4035434560A2
:101040000D79ED43AD0708D0C5685F002646BE4068
:10105000B5438E68BE402E43C6600D79AD07AD0F17
:10106000022D0ED1DD08AD002D18AC462D6A5E07AD
:10107000F60E0F27B740BD430F69B7402F436546B3
:101080002F6205685F002646BE40B5430E79B6075D
:10109000B60FBE402E4306604D68AD03AD0F4AD07B
:1010A0009E08284DB6007519AC462D6E9E07F60EAB
:1010B0000F27B740BD4305273F07B84201D100279E
:1010C00015E0214FB84201D1012710E01F4FB8426F
:1010D00001D102270BE01E4FB84201D1032706E0E1
:1010E0001C4FB84202D1042701E024E00527B74095
:1010F0002F43144D664637662D684E689543F602B9
:1011000000D515430F4F3D607D684E689543B6028C
:1011100000D515437D600B4E803675684F6895434A
:10112000BF0300D51543756035684F689543FF03CD
:1011300000D5154335605B1C0A681546DD4000D0BC
:101140005CE7F0BD001802400004005000080050A9
:10115000000C0050001000500148806870470000EB
:101160004000002002488168027889188160704739
:101170004000002010B50848002401688215114382
:101180000160022000F00AF8002801D0012401E0EB
:1011900000F028F8204610BD0020024070B50F4E28
:1011A000002431780546002915D07D20C000FFF7C6
:1011B00070F801460A480068FFF76BF800F0A0FCE1
:1011C000002808D1042D06D200222946401E00F036
:1011D0001FF8756000E00124204670BD400000202B
:1011E0004C00002008B50948016801221143016044
:1011F00000681040009005484038C26B01040A4363
:10120000C263C06B0840009008BD0000401002405F
:1012100010B500F071FD10BD10B50F4C2168032210
:101220005202914301432160C11FFF39FA390ED1A7
:101230000A480621006848430949FFF72AF8401C7C
:1012400002E0002805D0401E61694905F9D400205C
:1012500010BD032010BD0000007000404C000020B5
:1012600040420F00FEB5044600680027984D994E95
:10127000800355D500200090F06BC00007D4F16BBF
:10128000A8050143F163F16B0140012000909248F1
:101290000168821511430160FFF75EFF019005E0D0
:1012A000FFF75AFF0199401A022825D88A4800689A
:1012B000C005F5D5E8690321090208400FD0216C6B
:1012C00081420CD0E86903210902EA6988430121BF
:1012D00009040A43EA61EA698A43EA61E861C007EE
:1012E0000FD0FFF739FF019008E0FFF735FF0199B4
:1012F000411A7A48814201D9032709E0E869800749
:10130000F3D5E869032109028843216C0843E861A9
:101310000098002804D0F16B012000078143F1639D
:101320002078C00705D0686961688008800008439C
:1013300068612078800705D568690C218843A16819
:10134000084368612078400705D5686930218843E3
:10135000E168084368612078C00606D56869032102
:10136000890288432169084368612088C00406D542
:10137000686903210902884361690843686120881C
:10138000800506D56869032189048843A16A08435A
:1013900068612088400506D56869032109058843EE
:1013A000E16A084368612078800606D568690321F0
:1013B00009038843A169084368612078400606D57F
:1013C0006869032189038843E169084368612088CB
:1013D00040040ED56869216B80008008084368616D
:1013E0000121206B8907884203D1F06889130843E3
:1013F000F0602068000305D5686940218843616B6F
:10140000084368612068810235480BD569698210FC
:10141000A36B914319436961A16B914202D1F168B9
:101420000143F160216849020AD56969E26B814391
:1014300011436961E16B814202D1F1680143F160BE
:10144000218809050DD5A969226A890889001143F7
:10145000A961216A012904D1F16801221204114312
:10146000F160218889040DD5A9690C229143626A33
:101470001143A961616A042904D1F16801221204AF
:101480001143F1602168C9010ED5A9690322120335
:101490009143626C1143A9610122616C5203914234
:1014A00002D1F1680143F160216889010DD5A96974
:1014B000032212029143A26C1143A961A26CD11FB5
:1014C000F93902D1F1680143F1603846FEBD0000F0
:1014D00040100240001002400070004088130000DD
:1014E00000000001F8B50F46060043D04D4D2868B6
:1014F0004007400FB84213D22868C008C0003843E4
:101500002860FFF729FE044605E0FFF725FE011BD2
:101510004548814261D828684007400FB842F4D15D
:101520003068424C81070DD5400704D5A0680721DB
:1015300009030843A060A0680F2109028843B1682D
:101540000843A0603078C00732D0706801280AD004
:1015500002280BD000280FD03449403103280ED088
:10156000C969890704E02168890301E021688901CC
:10157000002906DB0120F8BD21684905F8E7096A62
:10158000EFE7A168C908C9000143A160FFF7E4FDC6
:10159000009006E0FFF7E0FD0099411A22488142E1
:1015A0001BD8A068382108407168C9008842F1D171
:1015B00028684007400FB84217D91A480168C9087F
:1015C000C90039430160FFF7C7FD054607E0FFF793
:1015D000C3FD411B1448814201D90320F8BD1148C5
:1015E00000684007400FB842F1D13078400706D577
:1015F000A068072109038843F1680843A06000F050
:101600001DF8A1683C2289091140094A515CC906AC
:10161000C90EC8400749086007480068FFF7BEFDCB
:10162000F8BD0000002002408813000000100240B6
:10163000F42300084C0000204400002010B5204C8A
:10164000A068204A8006400F16D0A0688006410F8F
:10165000501001290FD0A1688906490F022912D024
:10166000A0688006400F042823D0A0688006400FA1
:10167000032821D0002010BD206801218004400FE4
:101680008140104612E0E1688B07E1689B0F490634
:10169000490F491C032B00D01046FEF7FAFDE16804
:1016A0004904490E4843E168490F491CFEF7F1FD22
:1016B00010BD0120C00310BD7D20000210BD000040
:1016C000001002400024F400F8B504007ED0207819
:1016D0003827C007FE4D002846D0A868E968384082
:1016E0008907890F102802D008280BD001E00329B0
:1016F00008D001206268000482420AD129680143AF
:10170000296015E0286880032ED560680028DDD0A8
:101710002AE0052301211B0489049A422A6802D188
:101720000A432A60EAE782432A60286888432860DF
:10173000606800280CD0FFF70FFD064604E0FFF7B5
:101740000BFD801B642873D828688003F7D50BE055
:10175000FFF702FD064604E0FFF7FEFC801B64284D
:10176000F1D828688003F7D42078800769D5A86865
:10177000E96838408A070721920FC902102802D071
:10178000002813D001E0022A10D0E068002846D0DB
:10179000286888432169084328602868FF210131AF
:1017A00008432860FFF7D8FC06462CE02A6852055B
:1017B00002D5E268002A89D06A687F231B029A4317
:1017C00063691B021A436A60002800E08DE00ED1B5
:1017D000286888432169084328602868012180041B
:1017E000400F8140BB48FEF754FDBB490860BB4831
:1017F0000068FFF7D3FC002877D122E0FFF7ACFCAC
:10180000801B02289FD828684005F7D568687F218B
:1018100009028843616909020843686011E0296888
:10182000FF20013081432960FFF796FC064605E062
:10183000B5E0FFF791FC801B022884D8286840059A
:10184000F7D42078A64E00072ED5A8688006400F52
:1018500003280AD0A0690028306A16D00121084365
:101860003062FFF779FC07460BE0306A80071BD532
:10187000A06900289FD017E0FFF76EFCC01B02286C
:10188000C0D8306A8007F7D50EE0400840003062CB
:10189000FFF762FC074604E0FFF75EFCC01B02286E
:1018A0007DD8306A8007F7D4207840076BD5A868C8
:1018B00000278006400F042818D0E86BC00008D429
:1018C000E96B012000070143E963E96B014001274F
:1018D000009184480168C90519D401688215114333
:1018E0000160FFF739FC00900DE083E0F0698007AC
:1018F00049D5A06800287DD045E0FFF72DFC009970
:10190000401A02284BD877480068C005F5D5A16871
:10191000012910D004200529F16911D04908490096
:10192000F161F1698143F161A068002816D0FFF7E9
:1019300013FC00900EE0F06901210843F061F3E729
:101940000143F161F7E7FFF707FC0099411A664888
:10195000814224D8F0698007F5D50DE0FFF7FCFB44
:10196000009006E0FFF7F8FB0099411A5E488142BB
:101970007FD8F0698007F5D4002F04D0E96B0120EF
:1019800000078143E9632078800624D50120E169BE
:1019900080050029296810D00143296000E068E033
:1019A000FFF7DAFB064604E0FFF7D6FB801B0228B0
:1019B0005FD828680002F7D50DE081432960FFF762
:1019C000CBFB064604E0FFF7C7FB801B022850D87C
:1019D00028680002F7D4206A002844D0A968890644
:1019E000490F02294FD0012636060228286807D061
:1019F000B04300E07FE02860FFF7AEFB04463AE02A
:101A0000B0432860FFF7A8FB074604E0FFF7A4FBFC
:101A1000C01B02282DD828688001F7D4A16A606A0B
:101A2000E26A0843216B120211430843616B0843C9
:101A3000A16B0843E9682D4A11400843E860286813
:101A400030432860E868012109070843E860FFF790
:101A500083FB044604E0FFF77FFB001B022808D845
:101A600028688001F7D548E0FFF776FB001B0228C5
:101A700001D90320F8BD28688001F5D4E8681C4925
:101A80000840E86039E00128F4D0E868626A81071C
:101A9000890F91422FD17021A26A014091422AD12F
:101AA0007F21E26A090201401202914223D11F21E3
:101AB0004904226B014091421DD107214906626B06
:101AC0000140914217D1400FA16B4007884211E0BD
:101AD000001002400024F4004C00002044000020CC
:101AE0004010024000700040881300008C80C1113B
:101AF000FCFFFEEE01D00120F8BD0020F8BD000083
:101B0000094910B5401E884201D9012010BD074C7B
:101B100060610321081F00F0EFF80020A06107209A
:101B20002061002010BD0000FFFFFF0000E000E08A
:101B300000BFFDE7F0B589B00C460746102917D065
:101B4000182C17D0202C59D10E263919042204A89C
:101B5000091FFEF73DFBA008019020461038C21770
:101B6000520F1018C0100025B10040000E1A43E0BB
:101B70000A26EAE70C26E8E728460199FEF789FBE2
:101B8000002902D004291CD021E004A90691079065
:101B90006946087C0699029008460322491CFEF714
:101BA00017FB69460298C87404210698FEF7B4FC36
:101BB00069460A7C12490798085C694642400A74E3
:101BC00005E0202C03D1042104A8FEF7A5FCA80001
:101BD000C1190290042205A8FEF7FAFA042205A909
:101BE00004A8FEF738FC029804220019C01904A9C1
:101BF000FEF7EEFA6D1CEDB2AE42BDDC09B0F0BDF1
:101C0000D423000800BFFDE770477047FEB50A2ADD
:101C100026D8002A24D000236C4605E09D006D18CC
:101C2000455DE5545B1CDBB29342F7D300230425EA
:101C3000AD1A08E0D618B60076189F007F18865DAA
:101C40005B1CC655DBB29D42F4DC002306E0EF18B6
:101C5000BF00E65C7F185B1CC655DBB29342F6D32F
:101C6000FEBD10B5FFF77EFA10BD30B593B03C2134
:101C70006846FEF70CFB002501200F951095119585
:101C800040021295FFF7C8FA0224E0010390009485
:101C900040200A95059008200B9080030C90089432
:101CA000000204950D90099400010E906846FFF71C
:101CB0000BFD002802D072B600BFFDE707200FA978
:101CC00031C102210FA81295FFF70CFC002802D0A9
:101CD00072B600BFFDE713B030BD704730B4744634
:101CE000641E2578641CAB4200D21D46635D5B0018
:101CF000E31830BC184700008307FF22DB0E9A4030
:101D00008907090E9940002808DB830809489B00D1
:101D10001B18186890430843186070470007000FAD
:101D20000838830804489B001B18D869904308436F
:101D3000D861704700E400E000ED00E0BFF34F8F92
:101D400004490348C860BFF34F8F00BFFDE70000A0
:101D50000400FA0500ED00E030B50022D2430A4C41
:101D60000DE003785A400023401CD50702D05208EA
:101D7000624000E052085B1CDBB2082BF5D3491E21
:101D8000EFD2D04330BD00002083B8EDF3B5074655
:101D90008DB01B480026194C0A90FFF717F9002553
:101DA00025E0102204A80A99FEF712FA154A04A9A0
:101DB0000E98FEF75BFB0698059B07990191009032
:101DC000049A21460120FFF7D1F8002808D12146C6
:101DD00008310120019B009AFFF7C8F8002801D0C4
:101DE000012606E00A98103410306D1C0A90BD429E
:101DF000D7D3FFF7A7F830460FB0F0BD003000088A
:101E00003000010810000020046805464668200DD7
:101E1000C11FFF39FA3907D17008124940008842C2
:101E200002D31149884201D3FEF724FC7D20000132
:101E3000FEF736FE72B600200C49086148618861E1
:101E40000B49401E08600B4908600B488560BFF3D2
:101E50004F8FBFF36F8F84F3088862B6B04700BF1F
:101E6000FDE70000003000080000010800E000E08D
:101E700080E100E080E200E000ED00E030B51B49C9
:101E80001B4887B0002412C003210902446001608E
:101E900001250572447284720421C1600161192117
:101EA0004161062181610221C16103210162046354
:101EB000C5620C224463426281620838FEF7DEFE8E
:101EC00000280CD100940B480590019402946946B7
:101ED000039504940648FEF719FE002802D001205D
:101EE00007B030BD0248FEF7D5FFF9E700640040B7
:101EF00050010020FF070000F0B54D4C0746607808
:101F000087B015460E46002807D0042D05D3084695
:101F100000F055F9E16888426CD103200002381ABC
:101F200037460837002807D0012839D0022861D168
:101F30002078012837D15FE0182D01D2002140E040
:101F4000301D00F03CF905463A494038884201D33B
:101F500000213CE00020C0430190022003900420B7
:101F60000490202005901F200690FFF72FF801A96C
:101F700003A8FEF7A5FF0646FEF7E4FF002E01D0FA
:101F800000212FE010223946002000F097F80028A9
:101F9000F6D101202070102065600146A06026E087
:101FA0002078012802D00021062021E00C2D25D325
:101FB000301D00F004F9A168083D884203D00520D7
:101FC00016E0072014E0636842199A4201D9022002
:101FD0000EE06A07F5D12A46394600F06FF800286E
:101FE00002D0A168032003E0A0684119A16000208D
:101FF00000F026F807B0F0BD082D01D2A168E0E797
:10200000301D00F0DCF8A1688842E0D1626890429F
:10201000DDD1002000F014F81420FEF741FDBFF3DD
:102020004F8F06490448C860BFF34F8F00BFFDE7DC
:1020300030000020C1F700000400FA0500ED00E0C8
:1020400030B58DB00C460546242103A8FEF71FF9D4
:1020500017484178002901D0C16801E00021C94337
:102060006A461170080A5070080C9070080ED07003
:102070001571002050719071D0711472210A517243
:10208000210C9172210ED1720A4903910921069106
:1020900001210905049008910590490007900A90D4
:1020A00009910B9003A90448FEF70CFD0DB030BD5B
:1020B000300000200503000050010020F7B5124950
:1020C0000026471882B01546500702D0012005B0FF
:1020D000F0BDFEF77BFF002410E0039808220119F1
:1020E0006846FEF775F839190120019B009AFEF742
:1020F0003DFF002801D0012602E00834AC42ECD3B9
:10210000FEF720FF3046E2E700000108F7B5014680
:102110000F310909002486B0E4431C4F0546002610
:10212000049126E0102239466846FEF751F8184A15
:1021300069460798FEF79AF9102D02D31022002164
:1021400002E02A4600210FE06846405C444000203F
:10215000E30703D00F4B64085C4000E06408401CB8
:10216000C0B20828F4D3491C9142EDD3AD1A761CB5
:10217000103704988642D5D30899E043884202D0AC
:10218000012009B0F0BD0020FBE70000300001088D
:10219000100000202083B8EDFEF7ECFFFFF765FD8F
:1021A000FEF7BCFA00BFFDE78178C2780904120689
:1021B000114342780378100218430843704781782E
:1021C000C2780904120611434278037810021843BA
:1021D00008437047637C777BF26B6FC53001672BD8
:1021E000FED7AB76CA82C97DFA5947F0ADD4A2AF0B
:1021F0009CA472C0B7FD9326363FF7CC34A5E5F119
:1022000071D8311504C723C31896059A071280E2C6
:10221000EB27B27509832C1A1B6E5AA0523BD6B31A
:1022200029E32F8453D100ED20FCB15B6ACBBE398A
:102230004A4C58CFD0EFAAFB434D338545F9027F76
:10224000503C9FA851A3408F929D38F5BCB6DA212F
:1022500010FFF3D2CD0C13EC5F974417C4A77E3D5B
:10226000645D197360814FDC222A908846EEB814B1
:10227000DE5E0BDBE0323A0A4906245CC2D3AC6274
:102280009195E479E7C8376D8DD54EA96C56F4EA7F
:10229000657AAE08BA78252E1CA6B4C6E8DD741F90
:1022A0004BBD8B8A703EB5664803F60E613557B953
:1022B00086C11D9EE1F8981169D98E949B1E87E90D
:1022C000CE5528DF8CA1890DBFE6426841992D0FBC
:1022D000B054BB1652096AD53036A538BF40A39E0C
:1022E00081F3D7FB7CE339829B2FFF87348E4344F5
:1022F000C4DEE9CB547B9432A6C2233DEE4C950B51
:1023000042FAC34E082EA16628D924B2765BA249B0
:102310006D8BD12572F8F66486689816D4A45CCCCF
:102320005D65B6926C704850FDEDB9DA5E154657A2
:10233000A78D9D8490D8AB008CBCD30AF7E45805D8
:10234000B8B34506D02C1E8FCA3F0F02C1AFBD03E4
:1023500001138A6B3A9111414F67DCEA97F2CFCEB5
:10236000F0B4E67396AC7422E7AD3585E2F937E850
:102370001C75DF6E47F11A711D29C5896FB7620E92
:10238000AA18BE1BFC563E4BC6D279209ADBC0FE73
:1023900078CD5AF41FDDA8338807C731B112105920
:1023A0002780EC5F60517FA919B54A0D2DE57A9F12
:1023B00093C99CEFA0E03B4DAE2AF5B0C8EBBB3C07
:1023C00083539961172B047EBA77D626E16914638B
:1023D00055210C7D01020408102040801B366CD86A
:1023E000AB4D0001020304050607080C1014182069
:1023F000304000000000000000000000000000006D
:1024000000000000000000000000000000000000CC
:1024100000000000010000000200000003000000B6
:102420000400000006000000070000000800000093
:1024300009000000542400080000002050000000A3
:1024400000010008A424000850000020E00700005C
:102450001C010008CD11C5E4F8FBA2DC3983D84C7F
:102460000F78ACE4D1160BF7B6BAA63D8B965F4554
:102470006224ECBA1C80820094A96649077152BF9D
:1024800033DCE22E0000000000000000000000002D
:102490000000000001000000040000000000000037
:0424A0000024F40020
:04000005080000BD32
:00000001FF
