:020000040800F2
:20000000D005002019030008B1400008313F0008AD4000089514000819440008310300080F
:20002000000000000000000000000000914200089914000800000000B54000089542000854
:200040003B0300083B0300083B0300083B0300083B0300083B0300083B0300083B03000870
:200060003B0300083B0300083B0300083B0300083B0300083B0300083B0300083B03000850
:200080003B0300083B0300083B0300083B0300083B0300083B0300083B0300083B03000830
:2000A0003B0300083B0300083B0300083B0300083B0300083B0300083B0300083B03000810
:2000C0003B0300083B0300083B0300083B030008000000003B0300083B0300083B03000836
:2000E0003B0300083B0300083B0300083B0300083B0300083B0300083B0300083B030008D0
:200100003B0300083B0300083B0300083B0300083B0300083B0300083B0300083B030008AF
:200120003B0300083B0300083B0300083B0300083B0300083B0300083B0300083B0300088F
:200140003B0300083B0300083B0300083B0300083B0300083B0300083B0300083B0300086F
:200160003B0300083B0300083B0300083B0300083B0300083B0300083B0300083B0300084F
:200180003B0300083B0300083B0300083B0300083B0300083B0300083B0300083B0300082F
:2001A0003B0300083B0300083B0300083B0300083B0300083B0300083B0300083B0300080F
:2001C0003B0300083B0300083B0300083B0300083B0300083B0300083B0300083B030008EF
:2001E0003B0300083B0300083B0300083B0300083B0300083B0300083B0300083B030008CF
:200200003B0300083B0300083B03000800000000000000003B030008000000003B03000880
:200220003B0300083B0300083B0300083B0300083B0300083B0300083B0300083B0300088E
:200240003B0300083B0300083B03000800F002F800F052F814A696E8000CB244B344DA4558
:2002600001D100F049F8BAE80F000FA696E83000A5EB040504EB0607AAEB0704A7F1010792
:200280004FEA15154FEA3414A4F10104AC4201D300F032F813F0010F18BFFB1A43F00103CE
:2002A00000F001F8DBE7184784480000A4480000103A24BF78C878C1FAD8520724BF30C8D0
:2002C00030C144BF04680C6070470000704700000023002400250026103A28BF78C1FBD815
:2002E000520728BF30C148BF0B6070471FB504F000FB1FBD10B510BDDFF80CD0FFF7F6FFD5
:2003000004F0A8FA00F0C1F8D005002003B4FFF7F1FF03BC00F0C4F8084880F30A880848FC
:20032000804708480047FEE7FEE7FEE7FEE7FEE7FEE7FEE7FEE7FEE7FEE7FEE7D001002097
:20034000654300084D020008032A40F2308010F0030C00F0158011F8013BBCF1020F62444A
:2003600098BF11F801CB00F8013B38BF11F8013BA2F1040298BF00F801CB38BF00F8013B02
:2003800011F0030300F04F80083AC0F0088051F8043B083A51F804CBA0E80810F5E7121D90
:2003A0005CBF51F8043B40F8043BAFF30080D20724BF11F8013B11F801CB48BF11F8012BEF
:2003C00024BF00F8013B00F801CB48BF00F8012B70474FF0000200B5134694469646203902
:2003E00022BFA0E80C50A0E80C50B1F12001BFF4F7AF090728BFA0E80C5048BF0CC05DF835
:2004000004EB890028BF40F8042B08BF704748BF20F8022B11F0804F18BF00F8012B7047CA
:2004200070477047704710B5203AC0F00B80B1E81850A0E81850B1E81850A0E81850203A01
:20044000BFF4F5AF5FEA027C24BFB1E81850A0E8185044BF18C918C0BDE810405FEA827CB2
:2004600024BF51F8043B40F8043B08BF7047D20728BF31F8023B48BF11F8012B28BF20F8BB
:20048000023B48BF00F8012B704710B50446AFF300802046BDE81040FFF738BF704700000D
:2004A00001491820ABBEFEE726000200002A08BF70472DE9F04385B00D46804630B1EB68D1
:2004C0002868049301AB6968AF6883C31046202100F0A0F940F26C09C2F2000999F8E00026
:2004E00029786A784840287099F8E100A9785040687099F8E200EA784840A87099F8E30075
:2005000029795040E87099F8E400AA7B4840287199F8E500697995F801C04840687199F8FE
:20052000E600A9796F794840A87199F8E700E979EC7B4840E87199F8E800297A48402872CA
:2005400099F8E900697A4840687299F8EA00A97A6B7A4840A87299F8EB00E97A4840E872F6
:2005600099F8EC00297B4840287399F8ED00697B4840687399F8EE105140A97399F8EF2096
:200580006870A8786B73AB7AA872E8786F72AF79AB70A971E979EB7A6240E873284685F8F9
:2005A00005C0AF73E970EB71EA7200F0F5FA002709EB070090F8D0102A786B78514029702B
:2005C00090F8D110AA785940697090F8D210EB785140A97090F8D3102A795940E97090F81F
:2005E000D4105140297190F8D5106A795140697190F8D610AA795140A97190F8D710EA7923
:200600005140E97190F8D8102A7A5140297290F8D9106A7A5140697290F8DA10AA7A5140C7
:20062000A97290F8DB10EA7A5140E97290F8DC102A7B5140297390F8DD106A7B51406973CF
:2006400090F8DE10AA7B5140A97390F8DF00E97B4840E873284600F0FDF96878A9786B796B
:200660006E7A6871A8796B72AB7AA972E9796C7B6E73AE7BA873E87AEA78E970E97BE87133
:2006800028466C70AB70AE71E972EA7300F084FA103F17F1D0008BD199F8000029786A7819
:2006A0004840287099F80100A9785040687099F80200EA784840A87099F8030029795040A4
:2006C000E87099F80400B8F1000F80EA0100287199F80500697980EA0100687199F806001E
:2006E000A97980EA0100A87199F80700E97980EA0100E87199F80800297A80EA0100287255
:2007000099F80900697A80EA0100687299F80A00A97A80EA0100A87299F80B00E97A80EA6B
:200720000100E87299F80C00297B80EA0100287399F80D00697B80EA0100687399F80E00B0
:20074000A97B80EA0100A87399F80F00E97B80EA0100E8735AD098F8000029786A78484060
:20076000287098F80100A9785040687098F80200EA784840A87098F8030029795040E87016
:2007800098F8040001AB4840287198F805006979049A4840687198F80600A9794840A87129
:2007A00098F80700E9794840E87198F80800297A4840287298F80900697A4840687298F894
:2007C0000A00A97A4840A87298F80B00E97A4840E87298F80C00297B4840287398F80D006A
:2007E000697B4840687398F80E00A97B4840A87398F80F00E97B4840E8730BCBC8F80C20A5
:20080000C8F80830C8F80410C8F8000005B0BDE8F04370472DE9F04F83B040F26C058B460C
:20082000C2F20005014628465A46FFF78DFDBBF1100F0BD0BBF1200F06D0BBF1180F40F0D0
:200840000581302003E000BF382000E0282005EB0B0151F8047CABF110016FF0010202EAE0
:20086000910144F62A2A401A019002A84FEA9B0801302B1D0025C0F6000A0297009044E03C
:20088000009A1188ADF8081091789DF808208DF80A109DF8096002F00F0402F0F002524486
:2008A00012F804C006F00F0206F0F0065644B65C01F00F0201F0F001514444F61C148A5C02
:2008C00007F00F0107F0F007C0F600045744245C785C84EA0C071968023586EA112682EA2E
:2008E000114280EA11604F408DF808708DF809608DF80A208DF80B00029F019843F80B7021
:20090000A84203F1080300F0A180B5FBF8F000FB18543CB33E0A3A0CBBF1200F4FEA1760D6
:2009200008BF042C49D14FF0F00909EA172109EA174C07F00F0E07F0F00409EA176706F087
:200940000F06514454448E5D02F00F010AEB0C0214F80E40525C00F00F000AEB0701085CFD
:2009600027462AE000990A88ADF808208A789DF808408DF80A209DF8096004F00F0E06F075
:200980000F0106F0F00604F0F00456445444765C02F00F0102F0F00214F80EE0524444F6BF
:2009A0001C14525C07F00F0107F0F007C0F600045744245C785C84EA0E0753F8041C80EA63
:2009C00011604F4086EA112682EA1142691C8DF80B00B1FBF8F08DF808708DF809608DF898
:2009E0000A2000FB1814029F03EB0B02002C42F8047C3FF445AF3E0A3A0CBBF1200F4FEA5B
:200A0000176008BF042C7FF466AFF02107F0F00401EA17290AEB040E01EA174407F00F0C5A
:200A200001EA176706F00F060AEB09018E5D02F00F010AEB04021EF80CC0525C00F00F00CC
:200A40000AEB0701085C674645E700BF03B0BDE8F08F00002DE9F04F84B0033804224FF09D
:200A60001B0800BF10F904EF039210F9017C90F9012008EAD7137D0083EA470A6BB24FEA66
:200A80004A0508EAD3136DB283EA4A0908EAD51308EADE1583EA490385EA4E0B029308EA89
:200AA000D213550083EA42066BB275004FFA85FC90F9021008EADC1408EAD313009482EA96
:200AC000070483EA460508EAD1134C4084EA0B0483EA410C84EA06038EEA070484EA01074A
:200AE000774082EA0E064E4086EA0A0686EA0B06019386EA090387EA0C0686EA090787EAAC
:200B000005094FEA4E07009E7FB2490062404FEA4B0449B286EA45066B4008EAD71764B2A0
:200B20004FEA4C0582EA0A0208EAD1116DB287EA4B0708EAD41482EA0C0E019A81EA4C014A
:200B400008EAD51584EA47047A4087EA0E0785EA41054A4087EA010C02994A40624072408A
:200B60004B4089EA010781EA0C016A406340674061400270039A7340774071406B406F40DE
:200B80006940013A00F8013C477081707FF46AAF04B0BDE8F08F0000017801F00F0201F0C4
:200BA000F00344F62A11C0F600010B449A5C4378027003F00F0203F0F0030B449A5C83787A
:200BC000427003F00F0203F0F0030B449A5CC378827003F00F0203F0F0030B449A5C03795C
:200BE000C27003F00F0203F0F0030B449A5C4379027103F00F0203F0F0030B449A5C83793A
:200C0000427103F00F0203F0F0030B449A5CC379827103F00F0203F0F0030B449A5C037A17
:200C2000C27103F00F0203F0F0030B449A5C437A027203F00F0203F0F0030B449A5C837AF5
:200C4000427203F00F0203F0F0030B449A5CC37A827203F00F0203F0F0030B449A5C037BD3
:200C6000C27203F00F0203F0F0030B449A5C437B027303F00F0203F0F0030B449A5C837BB1
:200C8000427303F00F0203F0F0030B449A5CC37B827303F00F0203F0F0031944895CC173DD
:200CA0007047000090B048F200050CA900201022CFF6F07500F0A6FBE0B148F20007C0F6B4
:200CC00000073E68A5F500407C683040B0F1005F0AD1A4F10160A84280F0E88000BF00BF28
:200CE00000BF00BFFAE700BF00BF00BF00BF00BFFAE700BF40F20806C2F20006F26830684E
:200D0000079204AA7168B3680BC20CAC40F2180204A8C2F200022146FFF7C8FB0C9844F26B
:200D20005761C4F25471884240F0A480DDE90D014AF6BB32CFF6B772104440F25802C2F2DF
:200D40000002B0FA80F012684FF29E034009CAF2C3538A1A99420146B2FA82F218BF5109E9
:200D60000840012866D1DDF83CC048F22032A11E4FF0FF37CEF6B8520C2300BF11F8024F24
:200D8000674082EA5704F80708BF7C0882EA5400E70708BF600882EA5007C40708BF47081A
:200DA00082EA5700FC0708BF780882EA5007C40708BF470882EA5700FC0708BF780882EA09
:200DC0005007C40708BF4708FC0782EA57004C7808BF7808604082EA5007C40708BF4708C6
:200DE00082EA5700FC0708BF780882EA5007C40708BF470882EA5700FC0708BF780882EAC9
:200E00005007C40708BF470882EA5700FC0708BF780882EA5004C70708BF440882EA540725
:200E2000E00708BF6708023BA8D187EA0C00013000F0FC8048F200060020C0F6000600F0B9
:200E40007FF93768A5F5004074683840B0F1005F0AD1A4F10160A84280F0A88000BF00BF7C
:200E600000BF00BFFAE700BF00BF00BF00BF00BFFAE700BF48F20007C0F600073E68A5F57A
:200E800000407C683040B0F1005F09D1A4F10160A8424BD200BF00BF00BF00BFFAE700BF4B
:200EA00000BF00BF00BF00BFFAE700BF4EF2100072B6CEF2000000210160416081604FF01B
:200EC000FF31C0F87011C0F87012C0F87411C0F87412C0F87811C0F87812C0F87C11C0F874
:200EE0007C12C0F88011C0F88012C0F88411C0F88412C0F88811C0F88812C0F88C11C0F886
:200F00008C1200F099FD4EF60850CEF200000760BFF34F8FBFF36F8F86F3088862B6A047A2
:200F200000BF00BF00BF00BFFAE700BF4EF2100072B6CEF2000000210160416081604FF09A
:200F4000FF31C0F87011C0F87012C0F87411C0F87412C0F87811C0F87812C0F87C11C0F8F3
:200F60007C12C0F88011C0F88012C0F88411C0F88412C0F88811C0F88812C0F88C11C0F805
:200F80008C1200F059FD4EF60850CEF200000760BFF34F8FBFF36F8F86F3088862B6A04762
:200FA00000BF00BF00BF00BFFAE700BF4EF2100072B6CEF2000000210160416081604FF01A
:200FC000FF31C0F87011C0F87012C0F87411C0F87412C0F87811C0F87812C0F87C11C0F873
:200FE0007C12C0F88011C0F88012C0F88411C0F88412C0F88811C0F88812C0F88C11C0F885
:201000008C1200F019FD4EF60850CEF200000660BFF34F8FBFF36F8F87F3088862B6A04721
:2010200000BF00BF00BF00BFFAE700BF08A91020102200F0E7F900285ED048F2000600207B
:20104000C0F6000600F07CF83768A5F5004074683840B0F1005F09D1A4F10160A8420BD20C
:2010600000BF00BF00BF00BFFAE700BF00BF00BF00BF00BFFAE700BF4EF2100072B6CEF200
:20108000000000210160416081604FF0FF31C0F87011C0F87012C0F87411C0F87412C0F837
:2010A0007811C0F87812C0F87C11C0F87C12C0F88011C0F88012C0F88411C0F88412C0F8F4
:2010C0008811C0F88812C0F88C11C0F88C1200F0B3FC4EF60850CEF200000660BFF34F8F89
:2010E000BFF36F8F87F3088862B6A04700BF00BF00BF00BFFAE700BFF2683068716803923B
:2011000040F21802B3688DE80B00684608A9C2F20002FFF7CBF90B9C6FF478202044A84229
:2011200009D3204603F0C2FA28B904F10F000009694603F08BFA002000F002F803F0FEFAB4
:20114000F0B5ADB00021B1EB505F03D0032420462DB0F0BD19AD064628465021FFF739F91E
:2011600006201B9040F26C100124C2F20000294641F288321C9402F09FFB0028E7D14FF25E
:201180000000C0F21F006D4606EA000728465021FFF71FF92020CDE902044FF48070079021
:2011A0004FF40050089040F26C100026C2F20000294641F28832CDE905670B96119602F0C4
:2011C0007BFB0028C3D119AD28465021FFF701F905201B9001244FF08070CDE9270440F211
:2011E0006C10C2F20000294641F288321C94249602F062FB0028AAD10020CDE91404169073
:201200004FF4800017901020189040F26C10C2F2000014A94FF4FA7202F0B4FA002818BF1F
:201220000120440020462DB0F0BD000070B596B002AC20465021FFF7CCF89F20049001203B
:2012400005904FF0807010900320119040F26C100025C2F20000214641F288320D9502F0F7
:201260002BFBE8BB40F26C10C2F200000DF1020141F288328DF80450ADF8025002F0EAFCAD
:2012800070BB9DF803109DF8020009029DF8042041EA004044F215011044C0F2EF018842A9
:2012A0001EBF042016B070BD002002AC8DF807008DF8060020465021FFF78BF8052004904C
:2012C00001204FF080710590CDE9101040F26C10C2F20000214641F2883202F0EDFA18B1FA
:2012E000012016B070BD00BF40F26C10C2F200000DF1070141F2883202F0ACFC00284FF0C5
:20130000010001D016B070BD02AC204650210125FFF75FF83520CDE904054FF08070CDE917
:20132000100540F26C10C2F20000214641F2883202F0C2FA0028D3D140F26C10C2F2000006
:201340000DF1060141F2883202F084FC0028C7D19DF80600810742BF002016B070BD40F002
:20136000020002AC8DF8060020465021FFF731F8062004900120059040F26C10C2F200006A
:20138000214641F2883202F097FA014601200029B8D102AD284650210126FFF71AF800207F
:2013A0000D904FF0807010900220119040F26C10C2F20000294641F28832049601240596E6
:2013C00002F07AFAD0B99DF807009DF806108DF8020040F26C108DF80310C2F200000DF158
:2013E000020141F2883202F0F7FC18B10124204616B070BD322003F043FA0446204616B0D9
:2014000070BD00002DE9F04194B000294FF003041CBF1646002A03D1204614B0BDE8F08130
:2014200007463044B0F5001FF6D86D46884628465021FEF7CEFF03204FF48071029000202E
:2014400007914FF40051CDE9050708910B904FF08071129040F26C100124CDE90E16C2F237
:201460000000294641F28832039402F025FA0028D2D140F26C10C2F20000414641F28832C7
:2014800002F0E8FB0446002818BF0124204614B0BDE8F081FEE700007047000072B600BF46
:2014A000FEE7000070B542F220060446C4F2020600F0AAFA316811F00B0F20D0B4B30546D6
:2014C000601C11D1306810F00B0F18D0306810F00B0F14D0306810F00B0F10D0306810F054
:2014E0000B0FEFD10BE000BF00F08EFA401BA04284BF032070BD306810F00B0FF4D1306811
:2015000010F47E000AD040F23C01C2F200014A6802434A603061012070BD00BF3068C003B1
:2015200044BF4FF480303061002070BD00F06CFA032070BD2DE9F04F81B040F23C05C2F284
:2015400000052A78012A02BF022001B0BDE8F08F0446012028704FF000084FF47A708A46BA
:20156000C5F80480FFF79EFF20B185F8008001B0BDE8F08F206848F2080220F0004142F2A3
:20158000280B9142C4F2020BA86007D1606800F00301032912D148F2200020E04FF6D779E8
:2015A000C7F6FF7909F13101884231D1DBF8180040F00800CBF8180016E000BFC1074FF63E
:2015C000D771C7F6FF7106D0DBF800200A4042F02802CBF80020800706D501F15100DBF8CC
:2015E00000100843CBF800004FF47A70FFF75AFF21684FF00042DBF8003062EA010119409D
:20160000CBF8001085F8008001B0BDE8F08F00BF4FF0FF30CAF80000D4E90260514630440C
:20162000864229D2B70100BF60684EF23F0110F00100DBF80000C7F6FF7108BF6FF4FE51AE
:2016400000EA0100CBF80000DBF800004FF0240240EA070008BF09F14D021043CBF800004D
:201660004FF47A70FFF71EFF40B9D4E902010136403708448642D7D30020B9E7CAF8006023
:20168000B6E7000042F22800C4F20200016841F0010101600068012121EA00007047000050
:2016A0002DE9F04381B040F23C098046C2F20009002042F2200416460D46C4F20204C9F812
:2016C000040000F0A1F9216811F00B0F0AD0074600F09AF9C01BB0F57A7F11D8206810F044
:2016E0000B0FF5D1206810F47E000DD0D9F804100143C9F804102061012001B0BDE8F083BA
:20170000032001B0BDE8F08320680227C00344BF4FF48030206128F000400228C1F20007B6
:20172000C9F8088018D1A06840F00200A060EFF3108072B63168296071686960B168A960BD
:20174000F168E96080F3108800F05EF9216811F00B0F43D14EE000BF28F00401B9421FD1E8
:20176000A06840F00200A060D9F80800216A00F0040008432062EFF3108072B6316829604E
:2017800071686960B168A960F168E96080F3108800F03AF9216811F00B0F1FD12AE000BF58
:2017A000A1680222C6F2000241F002019042A1600CD00221C4F2000188423088288000F06B
:2017C00023F9216811F00B0F08D113E03068286000F01AF9216811F00B0F0BD0054600BFD1
:2017E00000F012F9401BB0F57A7F0FD8206810F00B0FF5D1206810F47E0109D0D9F80400ED
:201800000843C9F80400012009E000BF032007E02068C0034FF0000002D54FF4803121610E
:201820000421CBF20001A26861EA080111403A1D9045A16003D1216A21F00401216201B040
:20184000BDE8F08342F20400C4F20200416AC90704BF0020704740F22311C4F26751016036
:2018600048F6AB11CCF6EF510160406A00F00100704700000A68002A08BF70472DE9F04F4A
:2018800083B000F12003019347F67F73C0F22F0303EA90234FF0000A4FF0010B00274FF0C0
:2018A000000C002500930BE00A68013532FA05F30CF1040C07F102070AF1080A00F09A8088
:2018C0000BFA05F912EA0902EED0D1F80480029248F01006122E1BD16FF0030202EA55063A
:2018E000DDF804B00CF01C025BF80640D1F810800F2303FA02FE08F00F0324EA0E0403FAFD
:2019000002F222434BF80620D1F804804FF0010B02680323BB4008F0030EDC439A430EFAD5
:2019200007F31A43B8F1120F02605BD80BFA08F212F0061F56D08368D1E902262340BE4077
:201940003343836043684FEA181623EA0903AE4033434360C368BA4023401A43C260029C57
:201960005FEAC802A0D542F2000E25F00302C4F2024E7244D2F860800AF018060F23B340E0
:2019800028EA0308009B03FA06F648EA06031366DEF800804B6848EA0406DA0258BF28EA98
:2019A0000406CEF80060DEF804809A0248EA040658BF28EA0406CEF80460DEF884809A03F1
:2019C00048EA040658BF28EA0406CEF88460DEF88020DB0342EA040658BF22EA0406CEF871
:2019E000806061E78A68BEF1030F08BF012AB1D1B5E700BF03B0BDE8F04F70471823002A8A
:201A000008BF2823C150704740F2C810C2F20000006870474FF60000C0F6FF0000687047F6
:201A20004FF60400C0F6FF00006870474FF60800C0F6FF0000687047B0B540F20045C4F2D6
:201A400003050220E860286820F001002860FFF7DBFF2968C90701D10020B0BD044607E02A
:201A60002868C0071CBF0320B0BD2868C007F3D0FFF7CAFF001B0228F2D2F6E740F2004172
:201A8000C4F20301086840F0010200200A60704740F20042C4F203021368DB071CD12032DD
:201AA00052F820301B0417D470B5D1E90236D1E900EC5D4205EA5E542D04E4B244EA43232A
:201AC00005EA5C15096933432B43194341F4004142F82010002070BD0120704740F20000BD
:201AE00040F2C811C2F20000C2F2000100780A68104408607047000080B5032000F0A4F831
:201B000001F022FA40F62041C4F20241096844F60C1201F00F01C0F60002515CC84040F2BF
:201B20003801C2F200010860042001F0C5FD0F2000F008F800281CBF012080BD00F056F8BA
:201B4000002080BDB0B540F20005C2F200052978E1B304464EF21000CEF200000068400795
:201B600010D401F0F7FD022824D001281AD078BB40F23800C2F20000006829784FF4FA5282
:201B800007E000BF40F23800C2F2000000684FF47A72B2FBF1F1B0FBF1F001F0C9FDA8B9B7
:201BA0001BE000BF28784FF47A71B1FBF0F04FF4FA4106E028784FF47A71B1FBF0F04FF410
:201BC0000041B1FBF0F001F0B3FD30B10120B0BD002001F0ADFD0028F8D14FF0FF302146A7
:201BE000002200F005F800206C60B0BD7047000010B54EF60C5CCEF2000CDCF80030C3F3CF
:201C0000022E8EF00704042C28BF0424BEF103034FF0FF3E38BF00230EFA04F4A1439940C4
:201C20000EFA03F39A43114300F00F0200F160430901043A03F564436244002848BF02F131
:201C40000C03197010BD00004EF60C51CEF200010A684FF6FF031A4060F30A2242F0806019
:201C600040F0FD70086070472DE9F0470446006840F62848C101C4F2024807D5D8F8C010C5
:201C8000A26D21F040411143C8F8C010C00712D0E06D052800F24684DFE810F00600880784
:201CA0009C03060006000600D8F8B01021F007010843C8F8B00000252078800702D4284687
:201CC0001BE000BF206E4FEAF001052900F22E842846DFE811F0070077078903070007006B
:201CE000070000BF064648B9D8F8B000216E20F038000843C8F8B00000202E462178490742
:201D000019D5616E4FEAB111052900F21784DFE811F007005F07710307000700070000BFD3
:201D2000054648B9D8F8B000616E20F4E0700843C8F8B000002035462178090719D5A16EA8
:201D40004FEA7121052900F20184DFE811F007004707590307000700070000BF064648B979
:201D6000D8F8B000A16E20F460600843C8F8B00000202E462178C90619D5E16E4FEA313171
:201D8000052900F2EB83DFE811F007002F07410307000700070000BF054648B9D8F8B000CC
:201DA000E16E20F4E0400843C8F8B000002035462178890619D5216F4FEAF131052900F229
:201DC000D583DFE811F007001707290307000700070000BF064648B9D8F8B000216F20F44D
:201DE00060300843C8F8B00000202E462178490619D5616F4FEAB141052900F2BF83DFE80A
:201E000011F00700FF06110307000700070000BF054648B9D8F8B000616F20F4E0100843E2
:201E2000C8F8B000002035462178090619D5A16F4FEA7151052900F2A983DFE811F00700DB
:201E4000E706F90207000700070000BF064648B9D8F8B000A16F20F460000843C8F8B000BA
:201E600000202E466178C90719D0E16F4FEA3161052900F29383DFE811F00700CF06E10264
:201E800007000700070000BF054648B9D8F8B000E16F20F0E0600843C8F8B00000203546AC
:201EA000617889071AD5D4F880104FEAF161052900F27C83DFE811F00600B606C80206006A
:201EC00006000600064650B9D8F8B000D4F8801020F060500843C8F8B00000202E466178DD
:201EE000490719D5D4F88410052900F26783DFE811F007009F06B10207000700070000BF3F
:201F0000054650B9D8F8B400D4F8841020F007000843C8F8B40000203546617809071BD53F
:201F2000D4F888104FEA3111052900F24F83DFE811F007008506970207000700070000BF09
:201F4000064650B9D8F8B400D4F8881020F070000843C8F8B40000202E466178C9061BD5D9
:201F6000D4F88C104FEA3161052900F23783DFE811F007006B067D0207000700070000BFC1
:201F8000054650B9D8F8B800D4F88C1020F0E0600843C8F8B80000203546617889061CD5F6
:201FA000D4F890106FF0010202EB3142022A08D34FEA314129B1012932D104F1300002F023
:201FC000F1F8064650B9D8F8BC00D4F8901020F440300843C8F8BC0000202E4661784906C4
:201FE00023D5D4F894106FF0010202EBB142022A08D34FEAB14129B1012939D104F13000D2
:2020000002F0D0F8054688B9D8F8BC00D4F8941020F440200843C8F8BC00002005E000BF7F
:202020000120012661784906DBD435466178090623D5D4F898106FF0010202EB3152022AB4
:2020400008D34FEA315129B1012939D104F1300002F0A8F8064688B9D8F8BC00D4F8981098
:2020600020F440100843C8F8BC00002005E000BF0120012561780906DBD42E4661794907F5
:2020800023D5D4F89C106FF0010202EBB152022A08D34FEAB15129B101293BD104F1300007
:2020A00002F080F8074688B9D8F8BC00D4F89C1020F440000843C8F8BC00002005E000BF45
:2020C0000120012661794907DBD43746A178C90725D0D4F8A010002918BFB1F1007F0DD109
:2020E0000546E8B9D8F8BC00D4F8A01020F040700843C8F8BC00002011E000BFB1F1807FF4
:2021000040F04C8104F1300002F04CF8054638B9E8E700BF01200127A178C907D9D13D463E
:20212000D4E9001240F61C49C4F2024912050CD5D9F8002022F40042C9F80020D4F8042121
:20214000D9F800301A43C9F8002089031AD5D4F8A4104FEA3121052900F24882DFE811F008
:2021600006007A058C01060006000600064650B9D8F8B400D4F8A41020F4E0600843C8F883
:20218000B40000202E46A17849071BD5D4F8A8104FEA3131052900F23182DFE811F00700DD
:2021A0006105730107000700070000BF054650B9D8F8B400D4F8A81020F4E0400843C8F8D6
:2021C000B40000203546217989061BD5D4F8AC104FEA3141052900F21982DFE811F00700DA
:2021E0004705590107000700070000BF064650B9D8F8B400D4F8AC1020F4E0200843C8F8E5
:20220000B40000202E46217949061BD5D4F8B0104FEA3151052900F20182DFE811F00700E4
:202220002D053F0107000700070000BF054650B9D8F8B400D4F8B01020F4E0000843C8F8F5
:20224000B40000203546217909061BD5D4F8B4104FEA3161052900F2E981DFE811F00700E2
:202260001305250107000700070000BF064650B9D8F8B400D4F8B41020F0E0600843C8F888
:20228000B40000202E466179C9071BD0D4F8B8104FEA3171052900F2D181DFE811F00700B1
:2022A000F9040B0107000700070000BF054650B9D8F8B400D4F8B81020F0E0400843C8F89A
:2022C000B40000203546A178090725D5D4F8C0104FEA3141042900F27580DFE801F0036313
:2022E0000D111100D8F8001041F40031C8F80010064690B906E000BF04F1300001F052FFF8
:20230000064650B9D8F8C000D4F8C01020F4E0200843C8F8C00000202E46A178C90625D5E7
:20232000D4F8C4104FEAF14104294FD8DFE801F004420E12120000BFD8F8001041F4003109
:20234000C8F80010054690B906E000BF04F1300001F028FF054650B9D8F8C000D4F8C410B3
:2023600020F460100843C8F8C00000203546A178890640F1B780D4F8D410052900F26681AC
:20238000022900F09D800028024600F0A180D4E900139B0500F1AC805FE100BF01200125B1
:2023A000BEE600BF04F1080001F086FE00280646B3D1A7E704F1080001F07EFE00280546E5
:2023C000D5D1C9E701200126A7E700BF01200125CDE700BF04F1300001F0E4FE05460028ED
:2023E0007FF46AAC00F0EABB04F1300001F0DAFEFFF778BC04F1300001F0D4FEFFF790BC7D
:2024000004F1300001F0CEFEFFF7A8BC04F1300001F0C8FEFFF7C0BC04F1300001F0C2FE5C
:20242000FFF7D8BC04F1300001F0BCFEFFF7F0BC04F1300001F0B6FE08E500BF04F1300005
:2024400001F0B0FE20E500BF04F1300001F0AAFE38E500BF04F1300001F0A4FE50E500BFD3
:2024600004F1300001F09EFE6AE500BF04F1300001F098FE84E500BF04F1300001F092FE22
:2024800074E600BF04F1300001F08CFE8EE600BF04F1300001F086FEA8E600BF04F1300044
:2024A00001F080FEC2E600BF04F1300001F07AFEDCE600BF04F1300001F074FEF6E600BF14
:2024C00004F1080001F0F8FD002802467FF45FAFD8F8C000D4F8D41020F007000843C8F8C6
:2024E000C00000202A46D4E900139B0540F1B580D4F8D83043F00807082F0BD1824660B9AC
:20250000D8F8C00020F008001843C8F8C0000020A3E000BF01204FF0010A890100F1A080D0
:20252000FEE000BF0125FFF7C7BB00BF01200126217849073FF5E5ABFFF7FDBB01200125B7
:20254000217809073FF5FBABFFF713BC012001262178C9063FF511ACFFF729BC0120012570
:20256000217889063FF527ACFFF73FBC01200126217849063FF53DACFFF755BC01200125A0
:20258000217809063FF553ACFFF76BBC012001266178C9077FF469ACFFF781BC0120012550
:2025A000617889073FF57FACFFF798BC01200126617849073FF596ACFFF7AEBC012001257B
:2025C000617809073FF5ACACFFF7C6BC012001266178C9063FF5C4ACDEE400BF01200125B2
:2025E000617889063FF5DCACF7E400BF01200126A17849073FF5CAADE4E500BF01200125F2
:20260000217989063FF5E2ADFCE500BF01200126217949063FF5FAAD14E600BF0120012522
:20262000217909063FF512AE2CE600BF012001266179C9077FF42AAE44E600BF01200125BF
:20264000A17809073FF542AE66E600BF01200122D4E900139B053FF54BAF924689015FD5AA
:202660004FF60846CFF6FF76074659F8060040F0010049F80600FFF7C7F9054659F8060019
:20268000C00707D1FFF7C0F9401B0228F6D90320032146E03846002F394642D1D8F8C80054
:2026A00010F440701AD0D4F8F81001F44071884211D0D8F8C800D8F8C81020F4407041F41E
:2026C0008031C8F8C810D8F8C81021F48031C8F8C810C8F8C800C00740F0F282D4F8F800F4
:2026E000D9F800104FF6CF7300F4407221F47C51C0F2FF0303EA1013B2F5407F08BF19439D
:20270000C9F80010D8F8C8106FF31F3021F44071C8F8C810D8F8C8100843C8F8C800002096
:202720005146226853011CD5D4F8C8306FF0010707EB3317022F0AD34FEA33173FB1012F1B
:2027400018D1D8F8007047F40037C8F80070064640B9D8F8C00020F030001843C8F8C000BE
:2027600000200E46510209D43546A178090615D531E000BF012001265102F5D5D4F8CC104B
:20278000402911D011BBD8F8001041F40031C8F80010054678B1A17809061CD42E46E178B4
:2027A000090728D466E000BF04F1080001F084FC00280546EFD1D8F8BC00D4F8CC1020F023
:2027C00040000843C8F8BC000020CDE701200125A1780906E2D5D4F8D010802922D099BB5D
:2027E000D8F8001041F40031C8F80010064600B3E17809073ED5D4F8E010042900F2A0814C
:20280000DFE811F00600800128002C002C0000BFD8F8001041F40031C8F80010054650BBBE
:202820001EE000BF04F1080001F046FC00280646DED1D8F8BC00D4F8D01020F08000084375
:20284000C8F8BC000020A9E701200126E1780907D1D40FE004F1300001F0A4FC054650B9FD
:20286000D8F8B800D4F8E01020F007000843C8F8B80000203546E178C90627D5D4F8E410BB
:202880004FEAF101042900F25F81DFE811F0050045010F0013001300D8F8001041F4003180
:2028A000C8F80010064690B906E000BF04F1300001F078FC064650B9D8F8B800D4F8E410E7
:2028C00020F038000843C8F8B80000202E46E178890627D5D4F8E8104FEAB111042900F297
:2028E0003781DFE811F0050023010F0013001300D8F8001041F40031C8F80010054690B950
:2029000006E000BF04F1300001F04CFC054650B9D8F8B800D4F8E81020F4E0700843C8F8A5
:20292000B80000203546E17849061BD5D4F8EC104FEA7121052900F22181DFE811F0070088
:20294000AF010D0107000700070000BF064650B9D8F8B800D4F8EC1020F460600843C8F861
:20296000B80000202E46E17809061BD5D4F8F0104FEA3131052900F20981DFE811F00700D3
:202980009501F30007000700070000BF054650B9D8F8B800D4F8F01020F4E0400843C8F8F3
:2029A000B800002035462179C9071BD0D4F8F4104FEAF131052900F2F180DFE811F00700E4
:2029C0007B01D90007000700070000BF064650B9D8F8B800D4F8F41020F460300843C8F872
:2029E000B80000202E46217989071BD5D4F8DC10032900F28380DFE801F00903770900BF95
:202A0000D8F8001041F40031C8F80010054650B9D8F8BC00D4F8DC1020F003000843C8F8EA
:202A2000BC00002035462179490721D5D4F8BC1059B1B1F5007F0BD0B1F5807F3CD1D8F83B
:202A4000001041F40031C8F80010064688B905E004F1080001F030FB064650B9D8F8C000C0
:202A6000D4F8BC1020F440700843C8F8C00000202E462179C90624D5D4F80011302909D02A
:202A8000202909D010292DD1D8F8001041F40031C8F80010B0B904E004F1300001F082FBE7
:202AA00080B9D8F8BC00D4F8001120F030000843C8F8BC0005E000BF012601202179C90618
:202AC000DAD430462179090758BFBDE8F087D8F8C010D4F8FC2021F0C0011143C8F8C010B7
:202AE000BDE8F0870120EDE704F1080001F0E4FA002805467FF497AF8AE700BF0125012056
:202B000091E700BF04F1080001F0D6FA002805467FF4B1AEA4E600BF04F1080001F0CCFA7E
:202B2000002806467FF4D3AEC6E600BF04F1080001F0C2FA002805467FF4F5AEE8E600BF02
:202B40000120012597E600BF01200126BFE600BF01200125E7E600BF04F1300001F022FB40
:202B6000F4E600BF04F1300001F01CFB0EE700BF04F1300001F016FB28E700BF012001269E
:202B8000E17809063FF5F2AE0CE700BF012501202179C9077FF40AAF24E700BF0126012058
:202BA000217989073FF522AF3CE700BF04F1080001F082FA054600287FF47EA8E06DFFF74B
:202BC00073B800BF04F1080001F076FAFFF78AB804F1080001F070FAFFF7A2B804F10800D0
:202BE00001F06AFAFFF7BAB804F1080001F064FAFFF7D2B804F1080001F05EFAFFF7EAB86E
:202C000004F1080001F058FAFFF702B904F1080001F052FAFFF71AB904F1080001F04CFA8C
:202C2000FFF732B904F1080001F046FAFFF74AB904F1080001F040FAFFF762B904F1080056
:202C400001F03AFAFFF77CB904F1080001F034FAFFF796B904F1080001F02EFAFFF786BA77
:202C600004F1080001F028FAFFF7A0BA04F1080001F022FAFFF7BABA04F1080001F01CFA7C
:202C8000FFF7D4BA04F1080001F016FAFFF7EEBA04F1080001F010FAFFF708BB04F1080066
:202CA00001F00AFA52E600BF04F1080001F004FA6CE600BF04F1080001F0FEF986E600BF1B
:202CC000FEF7A2FE054641F2883600BFD8F8C80080073FF503ADFEF797FE411B0320B14265
:202CE0004FF00301F2D91CE52DE9F04381B0002800F0D08042F20008C4F202080446D8F8CD
:202D000000000D4600F00F0088420DD2D8F8000020F00F002843C8F80000D8F8000000F0DE
:202D20000F00A84240F0B680206840F62047C106C4F202470CD561693A68702303EA122248
:202D4000914205D93A6822F4E04242EA0121396001070CD521693A68702303EA1212914275
:202D600005D93A6822F4E06242EA0111396041070AD5E1683A6802F07002914204D93A68DC
:202D800022F070021143396081070AD5A1683A6802F00F02914204D93A6822F00F021143E4
:202DA0003960C00768D1206881070AD5A1683A6802F00F02914204D23A6822F00F0211431B
:202DC0003960D8F8001001F00F01A9420CD9D8F8001021F00F012943C8F80010D8F800108C
:202DE00001F00F01A94255D141070AD5E1683A6802F07002914204D23A6822F07002114328
:202E0000396001070CD521693A68702303EA1212914205D23A6822F4E06242EA01113960E5
:202E2000C0060CD560693968702202EA1121884205D2396821F4E04141EA0020386000F086
:202E400083F8396844F60C1201F00F01C0F60002525C40F20401C2F20001096840F23803CD
:202E600020FA02F2C2F2000308461A6001B0BDE8F043FEF767BE00BF606857F8201C0128E7
:202E80000CD0022804D003285AD1890102D507E0890305D4012001B0BDE8F0838905F9D50F
:202EA00057F8041C21F00301084347F8040CFEF7ABFD61680646032941F2883939D00229EE
:202EC00029D0012910D100BF57F8040C00F0180008283FF468AFFEF797FD801B48454FF05E
:202EE0000300F1D90DE000BF57F8040C10F0180F3FF459AFFEF788FD801B48454FF00300B4
:202F0000F2D901B0BDE8F083FEF77EFD801B48454FF00300F5D857F8040C00F018001028D7
:202F2000F2D140E7FEF770FD801B48454FF00300E7D857F8040C00F018001828F2D132E799
:202F40008907A7D5ACE7000080B540F60041C4F20241C86900F01800082802BF40F60010BD
:202F6000C0F23D0080BDC86910F0180F34D0C86900F01800102802BF47F64000C0F27D10DB
:202F800080BDC86900F01800182849F20000C0F2D03066D1D1F828E08A6AC2F3052C8A6AB8
:202FA0008B6BBCF1000F04BF002080BDDB08D20603EAE2726FF35F3200EE102A0EF0030225
:202FC000B8EE400A032A15D0012A17D10A68920618D49FED251A1DE00868800649F20000ED
:202FE000C0F2D03058BF80BD0968C1F3C101C84080BD00BF9FED1B1A0CE000BF9FED1B1AB3
:2030000008E000BF0A68C2F3C102D04001EE100AB8EE411A02EE10CA486BB8EE422A6FF314
:203020005F2081EE021A02EE100A9FED113AB8EE422A20EE030A486B30EE020AB7EE002ACC
:20304000C0F3462030EE020A013021EE000A01EE100AB8EE411A80EE010ABCEEC00A10EEEE
:20306000100A80BD20BCBE4B0024744C0024744A00000039002804BF012070472DE9F04309
:2030800081B040F6004740F6F0490446C4F20247C4F20249F86959F8C81C227800F0180889
:2030A000D00601F003062AD5B8F1080F1CD0B8F1180F08BF022E17D0E1693868002900F0E4
:2030C0006D8140F480703860FEF79EFC054600BF386880050CD4FEF797FC401B02284FF05C
:2030E0000300F5D958E200BFE069002800F0E480B869216A20F47C1040EA0140B8612078D9
:20310000C00719D0B8F1100F12D0B8F1180F08BF032E0DD061683868B1F5A02F60DA00296F
:2031200000F0B081B1F5803F00F0CE819EE100BF6068002800F0C0802078800777D5B8F158
:20314000000F21D0E068B8F1180F08BF012E55D03968002800F06681206921F0180108439E
:203160003860386840F001003860FEF74DFC05463868800754D4FEF747FC401B02284FF07A
:203180000300F5D908E200BFE068002800F094803968206901F01801814231D0396821F097
:2031A000180108433860FFF7CFFE396A44F60C1201F00F01C0F60002515C40F2380201F092
:2031C0001F0120FA01F140F20400C2F200000068C2F200021160FEF7B5FC00286CD10FE050
:2031E00000F06A81B1F5A81F40F0408140F480203860386840F4801064E100BF00285BD06F
:20320000FEF702FC054600BF3868800708D4FEF7FBFB401B0228F7D9032001B0BDE8F08382
:203220003869616920F4FE0040EA014038612078000745D4207840075CD42078800600F137
:203240007F80A56AA5B3B8F1180F40F0C98059F8C81C59F8BC0C012D2ED0E26A01F0030302
:20326000934229D1C1F30521226B914224D1626B01466FF35F21013A91421DD1A16BC0F39F
:20328000462201398A4217D1E16BC0F3064201398A4211D1216CC0F30660013988420BD123
:2032A00059F8B80CE16CC0F3CC00884240F0E881002001B0BDE8F083012001B0BDE8F083F7
:2032C000A169D9F80000002952D040F08060C9F80000FEF799FB0546D9F800000001A9D4D4
:2032E000FEF792FB401B0228F6D9032001B0BDE8F08300BF4FF62446CFF6FF76B859C0078C
:2033000012D1B85940F00100B851FEF77DFB0546B859C00708D1FEF777FB401B02284FF0EB
:203320000300F5D938E100BFA168D9F80000042946DC002900F0EA80012900F01781D5E0D1
:20334000616A3868002900F07F8040F480503860FEF75AFB054600BF386880043FF571AF82
:20336000FEF752FB401B02284FF00300F4D913E120F08060C9F80000FEF746FB054600BF92
:20338000D9F8000000017FF555AFFEF73DFB401B02284FF00300F3D9FEE000BF20F4807082
:2033A0003860FEF731FB0546386880057FF5A7AEFEF72AFB401B02284FF00300F4D9EBE0A2
:2033C000052900F0C780852940F0908040F00400C9F80000D9F8000040F08000C2E000BFC3
:2033E000386820F080703860FEF70EFB022D05460CD100BF3868800140F1D280FEF704FBE9
:20340000401B02284FF00300F4D9C5E03868800140F12881FEF7F8FA401B02284FF00300CA
:20342000F4D9B9E021F001003860FEF7EDFA0546386880077FF5FBAEFEF7E6FA401B0228B7
:203440004FF00300F4D9A7E020F480503860FEF7DBFA0546386880047FF5F3AEFEF7D4FA49
:20346000401B02284FF00300F4D995E020F480303860386820F480203860386820F48010B7
:2034800024E000BF20F480303860386820F480103860386820F480203860FEF7B5FA054656
:2034A000386880037FF548AEFEF7AEFA401B64284FF00300F4D96FE040F480203860386891
:2034C00020F480103860386840F480303860FEF79BFA0546386880033FF52EAEFEF794FA09
:2034E000401B64284FF00300F4D955E020F00100C9F80000D9F8000020F00400C9F8000029
:20350000D9F8000020F0800032E000BF20F00100C9F80000D9F8000020F08000C9F8000085
:20352000D9F8000020F00400C9F80000FEF76CFA054641F2883600BFD9F8000080077FF5C3
:203540007CAEFEF761FA401BB0424FF00300F3D922E000BF40F00400C9F80000D9F800000F
:2035600020F08000C9F80000D9F8000040F00100C9F80000FEF748FA054641F2883600BF05
:20358000D9F8000080073FF558AEFEF73DFA401BB0424FF00300F3D901B0BDE8F08300BF8A
:2035A00059F8C80C43F6037104F12C0388430ECB084340EA0220A16B49F8C80C4FF47E42B6
:2035C00002EB4121E26B581E4FF4FE0389B203EB02426FF35F20084402F4FE01226C4FF039
:2035E000FE4303EB0262084402F0FE41084449F8BC0C59F8C80C20F0100049F8C80CE06CC0
:20360000C00049F8B80C59F8C80C40F0100049F8C80C59F8C80C616C20F00C00084349F8D1
:20362000C80C59F8C80CA16C20F02000084349F8C80C59F8C80C40F4803049F8C80C386836
:2036400040F080703860FEF7DFF90446386880013FF52EAEFEF7D8F9001B02284FF003001D
:20366000F4D999E759F8C80C4FF6FC71CFF6F871084049F8C80C002001B0BDE8F08300BFF3
:2036800059F8C80C20F0100049F8C80CFEF7BCF90546FEF7B9F9A842FBD0E06CC00049F832
:2036A000B80C59F8C80C40F0100049F8C80C002001B0BDE8F0830000042888BF7047DFE8F2
:2036C00000F0031B13352D004EF21000CEF20000016821F00401016040F6E440C4F2024025
:2036E000016821F00C0120E04EF21000CEF200000168022206E000BF4EF21000CEF20000F1
:203700000168012221F00401016040F6E440C4F20240016862F3830107E000BF4EF210001C
:20372000CEF20000016841F00401016070470000411E0020B0EB116F1CBF012070474EF285
:203740001002CEF2000251609060116841F00301116070474EF21000CEF20000006840075F
:2037600044BF0420704740F6E440C4F20240006800F00C01081FB0FA80F04009082908BF32
:20378000022070472DE9F04381B015460F460446FEF73AF92168D1F84880D1F81091226DA1
:2037A000042A45D10646F868B0F5800F40D1086A80064DD497E80D10C1F88800C1F8802085
:2037C0003869C1F89000086820F04350184340EA0C0040F000500860E068B0F1806F4FF05C
:2037E000480007D0D1F8002112F4E06204BF4FF48870C84641F80080086A000710D4002D29
:203800004ED0681C1ED1086A000709D4086A00075CBF086A5FEA007002D4086A0007F2D5EC
:203820000820486202202065002001B0BDE8F08310206065012001B0BDE8F0832168086A4C
:203840000007EDD4FEF7E0F8801BA842F6D929E0D5B1681C12D1086A8006ABD5086A800619
:2038600044BF086A5FEA8060A4D5086A8006F2D4A0E700BF2168086A80069BD5FEF7C4F88B
:20388000801BA842F6D901E0FEF7BEF802202065616D41F00101616501B0BDE8F08300BF52
:2038A000FEF7B2F802202065606D40F001006065032001B0BDE8F083F0B581B015460F468D
:2038C0000446FEF7A1F8216D0646242912D0142906D0022909D1E068B0F1806F05D00EE054
:2038E000386820F00100022809D010206065012001B0F0BD386840F002000328F5D1206855
:20390000016A89060AD4002060652046394600F085FDF8B1012001B0F0BD00BF25B3691C4F
:2039200012D1016A8906EED5016A890644BF016A5FEA8161E7D5016A8906F2D4E3E700BF4F
:203940002068006A8006DED5FEF75EF8801BA842F6D90BE0B86B88B1386802283AD0012859
:2039600032D0D0B33BE000BFFEF74EF802202065616D41F00101616501B0F0BD2168086AE6
:20398000800605D4002002224A6201B0F0BD00BF55B3681C12D1086A8006F3D5086A800694
:2039A00044BF086A5FEA8060ECD5086A8006F2D4E8E700BF2168086A8006E3D5FEF724F812
:2039C000801BA842F6D911E0206D242805D0142004E000BF206D142804D1042020650020B6
:2039E00001B0F0BD2420F9E7FEF70EF802202065606D40F0010060652168032002224A6264
:203A000001B0F0BD70B50446FDF7FEFF002C04BF012070BD054600206065216D002918BFED
:203A200070BD204600F082F841F28830A0652068D4E903C3666981684CF2FC02CFF6E002F3
:203A40000A4042EA0C026FF0FF0EE16942EA03420EEB06231143194341F2004340F0805271
:203A6000C5F200739A42816005D18168626B21F0080111438160C168236A21F4E02119435C
:203A8000D4F804C0266BA26BC160016921F4F81141EA06410161426101680EEB0C2221F433
:203AA000F85111430160016A89060AD541F28836FDF7AAFF401BB04230D82068016A8906CA
:203AC000F6D4C168D4E9096521F0FF013143A268A369C1600168022B21F0400141EA0201F6
:203AE0000160D0F80811E26A21F0A04141EA050141EA0201C0F80811016841F00101016019
:203B000003D1816841F002018160E068B0F1806F14BF022001202065002070BD022020656C
:203B2000606D40F001006065032070BD2DE9F04FC9B0044602A8002508304FF48071489542
:203B4000CDE94655CDE94455FCF743FC206841F20041C4F20071884202D049B0BDE8F08FB7
:203B60004FF0020802A8CDE90258FEF77DF8002818BFFDF793FC40F68C40C4F20240816873
:203B800040F2004641F4801181608168C4F2022601F4801101910199016806F5406441F054
:203BA00010010160016844AD01F010010191019901684FF0000941F0010101600168032733
:203BC00001F001010191019901684FF0090B41F0020101600068294600F002000190019882
:203BE0000420CDE944082046CDF818914797CDF820B1FDF73FFE402044A981E801034FF02D
:203C0000060AA6F5806029464797CDF820A1FDF731FE44A880E8800330462946CDE9477AF0
:203C2000FDF728FE042044A981E8010330462946CDE9477BFDF71EFE4FF4006044A981E886
:203C4000010320462946CDE9477AFDF713FE49B0BDE8F08F2DE9F04381B015460F4604467E
:203C6000FDF7D2FE2668B16CD6F81021C7B18046206D04281AD1306C012301306064606C73
:203C80002064E763306863F31D703060E068B0F1806F11D1B16415F1010918D154E000BF90
:203CA00008206065012001B0BDE8F08310206065012001B0BDE8F083D6F8000110F4E06F2C
:203CC0000CBFC6F81021B16415F101093CD0002D65D100BF2068006A10F0060F70D096F802
:203CE00050003870E06B616C471C481EE7636064606C0028EED12068016A890711D4002D95
:203D00005ED0B9F1000F35D1016A890709D4016A89075CBF016A5FEA817102D4016A890751
:203D2000F2D5022141622165002001B0BDE8F08396F850003870E06B616C471C481EE763D6
:203D40006064606C0028D6D02068016A11F0060FEED1016A11F0060FEAD1016A11F0060F80
:203D6000E6D1016A11F0060FEFD0E1E72068016A8907D6D4FDF748FEA0EB0800A842F5D9D2
:203D800020E000BFE76B96F850003870E06B616C471C481EE7636064606C0028ABD02068A6
:203DA000006A10F0060FEED1FDF72EFEA0EB0800A84207D82068006A10F0060FF4D0E1E7B6
:203DC000FDF722FE02202065606D40F001006065032001B0BDE8F0832DE9F04381B01546A4
:203DE0000F460446FDF710FE002F6BD080462668206D04286CD1306C15F1010900F10100D0
:203E00006064606C2064E763306820F0405030603CD0002D6FD100BF2068006A40077BD5BB
:203E2000387886F85000E06B616C471C481EE7636064606C0028EFD12068016A890711D4F9
:203E4000002D69D0B9F1000F34D1016A890709D4016A89075CBF016A5FEA817102D4016A69
:203E60008907F2D5022141622165002001B0BDE8F08300BF387886F85000E06B616C471CFE
:203E8000481EE7636064606C0028D5D02068016A4907EFD4016A49075CBF016A5FEA4171D3
:203EA000E8D4016A4907F2D5E4E700BF2068016A8907D7D4FDF7A8FDA0EB0800A842F5D928
:203EC0002CE000BF08206065012001B0BDE8F08310206065012001B0BDE8F083E76B38785F
:203EE00086F85000E06B616C471C481EE7636064606C0028A0D02068006A4007EFD400BFE6
:203F0000FDF782FDA0EB0800A84207D82068006A4007F5D5E2E700BFFDF776FD0220206539
:203F2000606D40F001006065032001B0BDE8F083FEE700002DE9F04F87B0002440F68C403B
:203F40000694CDE90444CDE90244C4F20240016840F6000841F0100101600168C4F2022842
:203F600001F0100101910199016808F5006641F0040101600168002201F004010191019903
:203F80000168082741F001010160016801F0010101910199016841F002010160016801F015
:203FA000020101910199016841F0080101600068082100F00800019001983046FDF71EFD96
:203FC00008F5806528464FF4807101224FF4807A4FF00109FDF712FD40464FF480510022F5
:203FE0004FF4805BFDF70AFDCDE9027902AF30463946CDE90444FDF73DFC1120CDE90304B8
:2040000028463946CDF808A00594FDF733FC40463946CDE902B9CDE90444FDF72BFC07B044
:20402000BDE8F08F80B586B04FF0C041002002910121CDE9031001A901900590FDF728FD2A
:20404000002818BFFDF72AFAFDF718FD002818BFFDF724FA06B080BD80B540F26C1041F226
:2040600000430121C2F20000C4F200730022C0E9003100F108034FF0807C4FF0140E83E8FF
:204080000450C0E9051213210823C261C0E90821C0E90A22C0E90C238263FFF7B3FC002859
:2040A00008BF80BDBDE88040FDF7F8B9FEE70000FEE700007047000070B540F62C46C4F2EE
:2040C000024656F82C1C044621F0806046F82C0CFDF79AFC054600BF56F82C0C000105D55C
:2040E000FDF792FC401B0228F6D958E0306843F60371884394E80E00084340EA0220E16838
:2041000030604FF47E4202EB41212269581E4FF4FE0389B203EB02426FF35F20084402F4E8
:20412000FE0162694FF0FE4303EB0262084402F0FE41084430613068A16920F00C00084380
:2041400030603068E16920F0200008433060606A31680843306030684FF6F87120F010003E
:2041600030607069226A884340EAC2007061306840F01000306056F82C0C40F0806046F886
:204180002C0CFDF741FC044656F82C0C000144BF002070BDFDF738FC001B0328F4D303203D
:2041A00070BD000070B540F63046C4F2024656F8301C044621F0805046F8300CFDF724FCB0
:2041C000054600BF56F8300C800005D5FDF71CFC401B0228F6D958E0306843F60371884349
:2041E00094E80E00084340EA0220E16830604FF47E4202EB41212269581E4FF4FE0389B2F3
:2042000003EB02426FF35F20084402F4FE0162694FF0FE4303EB0262084402F0FE410844E4
:2042200070613068A16920F00C00084330603068E16920F0200008433060606A3168084379
:20424000306030684FF6F87120F010003060B069226A884340EAC200B061306840F0100093
:20426000306056F8300C40F0805046F8300CFDF7CBFB044656F8300C800044BF002070BD4C
:20428000FDF7C2FB001B0328F4D3032070BD000070470000FDF722BC10B59CB040F6140428
:2042A00008A85021C4F20244FCF793F80020CDE90600CDE90400CDE9020054F8040C40F089
:2042C000300044F8040C54F8040C00F03000019001982068000709D4206800075CBF20681E
:2042E0005FEA007002D420680007F2D5302008904FF4805011904FF480700F902020012109
:204300001090022014917D21CDE91200CDE91510CDE9170008201990002408A8CDE91A446F
:20432000FEF7A8FE10B172B6FEE700BF1F2002900320CDE9030402A80521CDE9054407943A
:20434000FEF7D2FC10B172B6FEE700BF42F20000C4F202000168022262F3051101601CB0FC
:2043600010BD00004EF6885CCEF2000CDCF800104EF6FB2041F47001CCF8001040F6004148
:20438000C4F202410A68CEF6E22002F0180201320A600022CA610A620B681840086040F225
:2043A0008020C0F201108A62CA620A6348638A63C8630A6448648A64086820F480200860BE
:2043C0000A654FF0006042F21C01C4F202014CF8800C51F8040C420F062A05D800F06040AE
:2043E000B0F1404F18BF70470868C0070BD042F63B20C0F6190041F8100C46F67F60C4F661
:204400005D4041F8100C086840F002000860086840F0010008607047FEE700002DE9F04FA6
:2044200002688368176827F04057176073B10B68022B14D0032B1BD14FF4B0744FF4A87CF3
:204440004FF4A4734FF4A07E1AE000BF13684F6823F080033B4313600B68022BEAD14FF491
:20446000D0744FF4C87C4FF4C4734FF4C07E07E04FF490744FF4887C4FF484734FF4807E86
:204480008D6C42F80E500D68022D05D152F80E5045F0005542F80E50CD6A6DB18D6A01F109
:2044A0002C07155152F80E40E0CF24F47C142C433C43344342F80E40D4584D6C24F01F046B
:2044C0002C43D4508B6BE3B10C684CB10C6CB4F1006F0CD1D2F8084124F080440FE000BF4C
:2044E000CC6B013C14640C6CB4F1006FF2D0846AB4F1804F05D1D2F8084144F08044C2F885
:204500000841CD68CC69EDB152F80E60D1E9048774B3D1E9089A002B3ED04CF2C00BCFF2C7
:20452000FF0B086C06EA0B063043384340EA080040EA0A0040EA090018432843204342F812
:204540000E0045E0002C47D052F80E60D1E90807002B47D04CF2C005CFF2FF0505F13F0C19
:204560000D6C06EA0C062E433743384318433DE0002B45D04CF2C000CFF2FF0000F57C5023
:204580000C6C30402043384340EA08001843284342F80E0048E000BF43F63F7326EA03032D
:2045A0003B4343EA080343EA0A0343EA09032B43234342F80E30C06AB0F1805F08D1486952
:2045C000082805D152F80E0040F00060B7E700BF886842F80C000CE00823436501208B6B84
:2045E0004BBB0BE026F47C533B431843204342F80E008869906400208B6BE3B9BDE8F08FA2
:2046000026F03F033B4343EA08032B4342F80E30C06AB0F1805F07D14869082804D152F824
:204620000E0040F00060B3E7886842F80C0000208B6B002BE2D00B68002B18BFBDE8F08F80
:20464000C96B01391164BDE8F08F00002DE9F04784B00C460546FDF7F5F815B340F218083A
:2046600047F6E07948F2300A20276E46C2F20008C0F60009CFF2FF7A384631461022FCF766
:20468000C1FE70B9204631464246FBF70FFF4F44022039463246FDF703F810B9013D574490
:2046A000EAD1FCF7EFFF04B0BDE8F0872DE9F04F85B00F3020F00F05FDF7C4F84FF00004AE
:2046C0006DB348F20007C0F6000740F200093D4407F5F0264FF0040B0DF10408CFF2F87964
:2046E000EA4600BF4FF0FF300090022049460294B7423CBF01204FF078410290C819400BBB
:2047000003900120049040465146CDF804B0FCF711FF58B907F50057AF42E3D30024FCF796
:20472000B1FF204605B0BDE8F08F00BF0124FCF7A9FF204605B0BDE8F08F000048F200068C
:20474000C0F600063568746828466FF31300B0F1005F0FD10020CFF6F070A4F1016100F530
:20476000004081420CD200BF00BF00BF00BF00BFFAE700BF00BF00BF00BF00BFFAE700BF61
:204780004EF2100072B6CEF2000000210160416081604FF0FF31C0F87011C0F87012C0F843
:2047A0007411C0F87412C0F87811C0F87812C0F87C11C0F87C12C0F88011C0F88012C0F8DD
:2047C0008411C0F88412C0F88811C0F88812C0F88C11C0F88C12FDF72FF94EF60850CEF230
:2047E00000000660BFF34F8FBFF36F8F85F3088862B6A04700BF00BF00BF00BFFAE700002F
:2048000010B5FDF707F940F25804C2F200046060FDF706F9A060FDF709F9030AD4E9011213
:2048200083EA1043E06083EA1063E17483EA122383EA124383EA1263584050400A0C6274E9
:204840000A0AA27421F07F42207442EA0060206010BD0000FDF750F9FFF71EFDFFF7D0FFDC
:20486000FFF768FBFFF7DEFBFFF7F6FBFCF7DEFCFCF718FA00BF00BF00BF00BFFAE700007A
:20488000F0B599B005AE044630465021FBF7A1FD0520079001254FF08070CDE9130540F2A5
:2048A0006C100027C2F20000314641F2883208950A9710971797FEF7FFFF18B1284619B0B7
:2048C000F0BD00BF4FF4800003901020049040F26C10C2F2000069462246CDE90075029715
:2048E000FEF750FF002818BF01204500284619B0F0BDF1EE100A4FF6FF71C0F2C03120EAD0
:20490000010040F04070E1EE100A70470000000000000000010203040607080901020408DF
:20492000102040801B366CD8AB4D52096AD53036A538BF40A39E81F3D7FB7CE339829B2FB3
:20494000FF87348E4344C4DEE9CB547B9432A6C2233DEE4C950B42FAC34E082EA16628D970
:2049600024B2765BA2496D8BD12572F8F66486689816D4A45CCC5D65B6926C704850FDED4F
:20498000B9DA5E154657A78D9D8490D8AB008CBCD30AF7E45805B8B34506D02C1E8FCA3F47
:2049A0000F02C1AFBD0301138A6B3A9111414F67DCEA97F2CFCEF0B4E67396AC7422E7AD85
:2049C0003585E2F937E81C75DF6E47F11A711D29C5896FB7620EAA18BE1BFC563E4BC6D24A
:2049E00079209ADBC0FE78CD5AF41FDDA8338807C731B11210592780EC5F60517FA919B535
:204A00004A0D2DE57A9F93C99CEFA0E03B4DAE2AF5B0C8EBBB3C83539961172B047EBA7739
:204A2000D626E169146355210C7D637C777BF26B6FC53001672BFED7AB76CA82C97DFA59BA
:204A400047F0ADD4A2AF9CA472C0B7FD9326363FF7CC34A5E5F171D8311504C723C3189699
:204A6000059A071280E2EB27B27509832C1A1B6E5AA0523BD6B329E32F8453D100ED20FC8C
:204A8000B15B6ACBBE394A4C58CFD0EFAAFB434D338545F9027F503C9FA851A3408F929DF1
:204AA00038F5BCB6DA2110FFF3D2CD0C13EC5F974417C4A77E3D645D197360814FDC222A94
:204AC000908846EEB814DE5E0BDBE0323A0A4906245CC2D3AC629195E479E7C8376D8DD59C
:204AE0004EA96C56F4EA657AAE08BA78252E1CA6B4C6E8DD741F4BBD8B8A703EB566480340
:204B0000F60E613557B986C11D9EE1F8981169D98E949B1E87E9CE5528DF8CA1890DBFE648
:204B2000426841992D0FB054BB160000504B00080000002058000000B0020008A84B000810
:204B40005800002078050000D002000800000000010000001000000075334639684D327AED
:204B60004536764B316F51354C70376B5A34634E396258327651366D5438794A3373443539
:204B800066573072483161450090D003000000000000000000000000000000000100000033
:084BA00000000000000000000D
:2080000008C300208D830008A5E70008A5DE000891E20008418B000845EF0008A583000883
:2080200000000000000000000000000039EB0008098D000800000000A9E700083DEB0008AE
:20804000AF830008AF830008AF830008AF830008AF830008AF830008AF830008AF83000850
:20806000AF830008AF830008AF830008AF830008AF830008AF830008AF830008AF83000830
:20808000AF830008AF830008AF830008AF830008AF830008AF830008AF830008AF83000810
:2080A000AF830008AF830008AF830008AF830008AF830008AF830008AF830008AF830008F0
:2080C000AF830008AF830008AF830008AF83000800000000AF830008AF830008199900088A
:2080E000AF830008AF830008AF830008AF830008AF830008AF830008AF830008AF830008B0
:20810000AF830008AF830008AF830008AF830008AF830008AF830008AF830008AF8300088F
:20812000AF830008AF830008AF830008AF830008AF830008AF830008AF830008AF8300086F
:20814000AF830008AF830008AF830008AF830008AF830008AF830008AF830008AF8300084F
:20816000AF830008AF830008AF830008AF830008AF830008AF830008AF830008AF8300082F
:20818000AF830008AF830008AF830008AF830008AF830008AF830008AF830008AF8300080F
:2081A000AF830008AF830008AF830008AF830008AF830008AF830008AF830008AF830008EF
:2081C000AF830008AF830008AF830008AF830008AF830008AF830008AF830008AF830008CF
:2081E000AF830008AF830008DD910008AF830008AF830008AF830008AF830008AF83000873
:20820000AF830008AF830008AF8300080000000000000000AF83000800000000AF8300083C
:20822000AF830008AF830008AF830008AF830008AF830008AF830008AF830008AF8300086E
:20824000AF830008AF830008AF83000800F002F800F072F814A696E8000CB244B344DA45DC
:2082600001D100F069F8BAE80F000FA696E83000A5EB040504EB0607AAEB0704A7F10107F2
:208280004FEA15154FEA3414A4F10104AC4201D300F052F813F0010F18BFFB1A43F001032E
:2082A00000F001F8DBE7184718110100481101000A4410F8014B14F00F0508BF10F8015B4B
:2082C000240908BF10F8014B6D1E05D010F8013B6D1E01F8013BF9D1641E03D0641E01F858
:2082E000015BFBD19142E4D370470000103A24BF78C878C1FAD8520724BF30C830C144BF75
:2083000004680C6070470000704700000023002400250026103A28BF78C1FBD8520728BF08
:2083200030C148BF0B6070471FB510F05EFF00F05AF81FBD10B510BDDFF80CD0FFF7F4FFA6
:208340000AF074FE00F010FA08C3002003B4FFF7F1FF03BC00F012FA0B49D1F800C04A68E5
:208360005CF8043B1068184442F8040B8C4528BFA1F1DC0C8A4228BFA1F1DC02C1F800C07F
:208380004A6020F00040704714010020084880F30A880848804708480047FEE7FEE7FEE745
:2083A000FEE7FEE7FEE7FEE7FEE7FEE7FEE7FEE708BF002075EC00084D8200080B4910B555
:2083C000A1F17C020A4CC2E93712372106E000EB104342F82130074B00FB03400B1EA1F1F1
:2083E0000101F4DC10BD0120E8E70000B4000020E119D666CD0D010040EA010310B59B0774
:208400000FD1042A0DD310C808C9121F9C42F8D020BA19BA884201D9012010BD4FF0FF3041
:2084200010BD1AB1D30703D0521C07E0002010BD10F8013B11F8014B1B1B07D110F8013BCA
:2084400011F8014B1B1B01D1921EF1D1184610BD10B5431C02E010F8011B71B18107FAD183
:208460004FF0013202C88C1A8C4314EAC211F9D0C01A0A0603D0C01E10BDC01A10BD0A0494
:2084800001D0801E10BD0902FCD0401E10BD032A40F2308010F0030C00F0158011F8013BB6
:2084A000BCF1020F624498BF11F801CB00F8013B38BF11F8013BA2F1040298BF00F801CB08
:2084C00038BF00F8013B11F0030300F0DE80083AC0F0088051F8043B083A51F804CBA0E838
:2084E0000810F5E7121D5CBF51F8043B40F8043BAFF30080D20724BF11F8013B11F801CB47
:2085000048BF11F8012B24BF00F8013B00F801CB48BF00F8012B7047431A28BF9A427FF6CD
:20852000B6AF10441144032A40F2268010F0030F1EBF11F8013D521E00F8013D10F0030F3A
:208540007FF4F6AF11F0030300F0E480083AC0F00B8051F8043D083A51F804CD40F8043DCC
:2085600040F804CDFFF7F3BF121D5CBF51F8043D40F8043DAFF30080D20724BF11F8013DD8
:2085800011F801CD48BF11F8012C24BF00F8013D00F801CD48BF00F8012C70474FF00002C4
:2085A0000429C0F0128010F0030C00F01B80CCF1040CBCF1020F18BF00F8012BA8BF20F8AD
:2085C000022BA1EB0C0100F00DB85FEAC17C24BF00F8012B00F8012B48BF00F8012B70478D
:2085E0004FF0000200B5134694469646203922BFA0E80C50A0E80C50B1F12001BFF4F7AF58
:20860000090728BFA0E80C5048BF0CC05DF804EB890028BF40F8042B08BF704748BF20F8F4
:20862000022B11F0804F18BF00F8012B704710B5044610F0030F08BF11F0030F40F01580CB
:208640004FF0013E121FC0F20E8051F8043BA3EB0E0C2CEA030C1CEACE1C08BF40F8043BA8
:20866000F0D0A1F1040102F10402521E08DB11F8013B00F8013B002BF7D11146FFF78EFF11
:20868000204610BD70477047704710B5203AC0F00B80B1E81850A0E81850B1E81850A0E8AE
:2086A0001850203ABFF4F5AF5FEA027C24BFB1E81850A0E8185044BF18C918C0BDE8104055
:2086C0005FEA827C24BF51F8043B40F8043B08BF7047D20728BF31F8023B48BF11F8012B91
:2086E00028BF20F8023B48BF00F8012B7047431A28BF9A427FF6C9AF1044114410F0030F94
:208700001EBF11F8013D521E00F8013D10F0030F7FF4F6AF103AC0F00A8010B531E918509A
:2087200020E91850103ABFF4F9AFBDE81040530724BF31E9081020E9081044BF51F8043D11
:2087400040F8043D12F0030F08BF7047D20728BF31F8023D48BF11F8012C28BF20F8023D6B
:2087600048BF00F8012C704710B50446AFF300802046BDE81040FFF7E9BD704701491820B5
:20878000ABBEFEE726000200844600294FF0010008BF7047002A18BF002B01D1704700BF3E
:2087A000F0B583B00020BCF1000F009058D0DCF80000002854D00F46DCF8041015461C4633
:2087C0006B460122664601F033FD18B103B0BDE8F04070473068002842D071686B46012271
:2087E00001F026FD0028F1D10098C0F38000387040B9022028702070002003B0BDE8F0401D
:20880000704700BF30680022019248B3716801AB1F2201F00DFD0028D8D10198022100F05C
:208820000C00082808BF0121043818BF0846287030680021029198B1716802AB1F2201F0CD
:20884000F7FC0028C2D1029800F01C00043817280CD849F204218008C0F60101085CCAE7B0
:20886000012003B0BDE8F040704700BF0220C2E710B582B004460020CDE90000002C4FF08C
:20888000010018BF002901D102B010BDC4E9001201AB08461146022201F0CAFC0028F3D1AF
:2088A0002068A0B161686B46032201F0C1FC0028EAD101984FF6FF71884205D008B9009869
:2088C00028B1002002B010BD00988842F9D1012002B010BD70B582B0044600200190DCB373
:2088E00040F60045C4F2022528464FF48071002202F06EFE022001F0C9F828464FF4807188
:20890000012202F065FE022001F0C0F8206818B3616800224FF4004301F0B6FE10B102B038
:2089200070BD00BF02F05AFE054601AE206898B161680022334601F07BFC0028EFD19DF8ED
:20894000050000060CD502F049FE401B6428EDD3032002B070BD00BF012002B070BD00BFCB
:20896000002002B070BD000070B596B002AC20465021FFF735FE9F200490012005904FF097
:20898000807010900320119040F694600025C2F20000214641F288320D9504F047FFE8BBAD
:2089A00040F69460C2F200000DF1020141F288328DF80450ADF8025005F006F970BB9DF867
:2089C00003109DF8020009029DF8042041EA004044F215011044C0F2EF0188421EBF0420B1
:2089E00016B070BD002002AC8DF807008DF8060020465021FFF7F4FD0520049001204FF0C8
:208A000080710590CDE9101040F69460C2F20000214641F2883204F009FF18B1012016B01C
:208A200070BD00BF40F69460C2F200000DF1070141F2883205F0C8F800284FF0010001D08B
:208A400016B070BD02AC204650210125FFF7C8FD3520CDE904054FF08070CDE9100540F679
:208A60009460C2F20000214641F2883204F0DEFE0028D3D140F69460C2F200000DF106017B
:208A800041F2883205F0A0F80028C7D19DF80600810742BF002016B070BD40F0020002AC85
:208AA0008DF8060020465021FFF79AFD062004900120059040F69460C2F20000214641F2DF
:208AC000883204F0B3FE014601200029B8D102AD284650210126FFF783FD00200D904FF0F6
:208AE000807010900220119040F69460C2F20000294641F2883204960124059604F096FE07
:208B0000D0B99DF807009DF806108DF8020040F694608DF80310C2F200000DF1020141F254
:208B2000883205F013F918B10124204616B070BD322010F021FB0446204616B070BD000022
:208B4000FEE700002DE9F0419AB0154601AF0E468046402A28BF4025C5F1400178191446E2
:208B60003F2A88BF0021FFF719FD384631462A46FFF78DFC0020082CCDF844801290139012
:208B800002D8280418E000BF0D2C01D2092013E0112C01D20A200FE0152C01D20B200BE09D
:208BA000192C01D20C2007E0212C01D20D2003E00F20312C38BF0E204FF4801140F64C341F
:208BC0001490002016914FF40011C2F200041590CDE91710199000BF204601F043FF002873
:208BE000FAD040F64C3011A9C2F2000001AA01F0FFFD1AB0BDE8F0812DE9F04F99B0074628
:208C0000050A060C4FEA106A684689460C3034211C4690464FEA132BFFF7E2FC00204FF48C
:208C20009171CDE9101009218DF80640CDE913104FF4801140F64C3415914FF40011C2F256
:208C400000048DF800708DF801508DF802608DF803A08DF804908DF805808DF807B0029045
:208C60001290CDE916101890204601F0FBFE0028FAD040F64C3010A9C2F200006A4601F0CC
:208C8000B7FD19B0BDE8F08F2DE9F04399B00446050E060C070A6846D1F80080D1F80490CD
:208CA00010303021FFF79CFC00204FF49271CDE910100A218DF80340CDE913104FF48011B9
:208CC00040F64C3415914FF40011C2F200048DF800508DF801608DF80270CDE901890390A7
:208CE0001290CDE916101890204601F0BBFE0028FAD040F64C3010A9C2F200006A4601F08C
:208D000077FD19B0BDE8F0837047000080B5828840F21431C2F20001A1F805200A78006834
:208D2000012AC1F8010011D1D1F8070001F1180ED1F80B20D1F80F30D1F813C08EE80D1059
:208D400001F128000021017080BD00BF45F2444008832D208876087949F2AC334FEA101ED8
:208D6000C0F6010300F00F004A79185C91F806C008771009185C02F00F029A5C48774FEAB7
:208D80001C108A77185C0CF00F0213F80EE09A5CC87701F1210081F81BE081F82020002196
:208DA000017080BD40F21430C2F2000000224EF20401C275C0F81320C0F80F20C0F80B2088
:208DC000C0F80720C0E90622C0E9082280F82820C0F60F01027051F8042C44F25233C4F22E
:208DE00054439A4221D10A78FAB10A78FF2A08BF70474EF21002C0F60F021268C0F813203A
:208E00004EF20C02C0F60F021268C0F80F204EF20802C0F60F021268C0F80B200968C0F845
:208E200007100021C175012101707047F0B58DB040F214340A46C2F2000400250028014682
:208E4000E575C4F81350C4F80F50C4F80B5018BF0120002A134618BF012310EA0307C4F831
:208E600007501FD0E01D102A28BF1022FFF70FFBD4F8070044F25236D4F80B1004F1180CCB
:208E8000C4F25446D4F80F20D4F813308CE80F00CDE9056007A884F828500C95CDE90A5581
:208EA0000EC02BE045F2444020832D20A076207949F2AC360309C0F6010600F00F006179C0
:208EC000305CA2792077080901F00F01305C715C6077A177100902F00F01F35C305C715C37
:208EE000E376E07784F8201084F82150CDE90B55CDE90955CDE90755CDE905550020277026
:208F0000009002F089FA04200190022002903F2003900120049001A8694602F0F5F84EF2C5
:208F2000000505ACC0F60F0502202946224602F0A1F904F1100205F11001022002F09AF977
:208F400002F08AF90DB0F0BD2DE9F04790B0054668460C4608303821FFF742FB40F2A510AF
:208F6000ADF8000001208DF80200280A8DF8040040F216300F2C8DF80350ADF805008DF82F
:208F800007404DD804EB440040F26C71C2F2000102018A5C002A43D001EB00100DF1140832
:208FA000817800F108058DF8081026CD4369CDF81110018BCDF81520827ECDF80D30CDF84B
:208FC0000950ADF8191090F82410D0E90AEC8DF81B20026AC38CDDE903498DF8201000219C
:208FE0008DF821100792ADF822309DE82C0040F22050CDE909EC98E8C201C2F20000DDF861
:209000002CA080E82C00C0E9034900F114020CACC2C21ECCC0E9088EC0E90ACA30301EC0D4
:209020006846402100F034FB10B0BDE8F0870000B0B54BF6B464C2F200040546601D3B218C
:20904000FFF7ACFA40F2A5102080280A20710220A07140F26C70C2F2000002780121002A6F
:2090600040F26972C2F200021278E570A170E27100F0AC80827861720A21227290F830206A
:2090800032B190F8322063186254023101225A7090F8602032B190F8622063186254023169
:2090A00001225A7090F8902032B190F8922063186254023101225A7090F8C02032B190F84A
:2090C000C22063186254023101225A7090F8F02032B190F8F22063186254023101225A70F7
:2090E00090F820213AB190F82221CBB2E518E254023101226A7090F850213AB190F8522132
:20910000CBB2E518E254023101226A7090F880213AB190F88221CBB2E518E254023101222A
:209120006A7090F8B0213AB190F8B221CBB2E518E254023101226A7090F8E0213AB190F8DA
:20914000E221CBB2E518E254023101226A7090F810223AB190F81222CBB2E518E2540231E8
:2091600001226A7090F840223AB190F84222CBB2E518E254023101226A7090F870223AB14C
:2091800090F87222CBB2E518E254023101226A7090F8A0223AB190F8A222CBB2E518E254A2
:2091A000023101226A7090F8D0223AB190F8D202CAB2A318A0540231012058708A1F204668
:2091C00040216271BDE8B04000F062BA082190F83020002A7FF455AF5AE7000040F69C20E5
:2091E000C2F2000000F07CBC2DE9F04F83B0D0F828A000F1180C5CF82A408F68E368002B3B
:2092000004D400F12C0E5EF82A301BB1022003B0BDE8F08F0E680CEB8A035FEA46784FEA9C
:20922000C6690193029203D4B9F1000F30D533E0E2684FF6FF734D6A9A432A43E260E268A1
:20924000330742F48032E26005682A6E42F480122A6617D5A268D1E90B3692B242EA0342A7
:20926000A260E26842F40032E260E26822F440223243E2606A6E42F480126A662A6D42F046
:2092800080622A65B9F1000F06D4B8F1000F0ED401220092564623E0A26843F6FF738D6931
:2092A0009A432A43A260E26842F08062E260E2680AF1010642F08042E260BFF35F8FE26856
:2092C000032E42F00042E26088BFAAF103065CF82640E268B2F1FF3F40F328810222009245
:2092E00097E80C0143F6FF752260A2684FF6FF79AA431343B8F1000FCCF20009A36009D04E
:20930000D8E900356360A36803EA090343EA054506E000BF00236360A368B84603EA09058A
:20932000A5600F68E56840F2000BFB06CFF6FC7B00F1A08047F6FF724B6825EA02021A4308
:20934000FB07E26040F0FE80BA0600F104817A0705D5A2688B6A22F440421A43A260E2684A
:2093600042F00052E260E26822F08042E260BFF35F8FE26842F00042E2600A78920705D532
:20938000E268CB6822F060721A43E260D8F80850002D00F0C98000271FE000BF0025CA6902
:2093A000CFF6FC752B401A43E260E2684FF6FF7942F48023CCF20009E360BFF35F8FE26899
:2093C000013F42F00042E260E26822F08042E260DBF80850002D00F0C980E268334622F0D1
:2093E00080520136E260032E88BFDE1E5CF82640E26822F00052E260E268002A4ED45EF818
:209400002620002A4AD195E80C0843F6FF782260A268BBF1000F22EA080242EA0302A260F0
:2094200008D0DBE900236260A26802EA090242EA034905E000226260A268AB4609EA020970
:20944000C4F808900D68E368EA06A7D4D1F8048047F6FF7293434FF6FF7943EA0802EB07D6
:20946000CCF20009E260A8D0E2684B6922F440321343A1E7D1E9073225F4F00545EAC242D3
:20948000E260E26802EA0B021A43E260E26842F48023E3607A073FF55CAF60E70098B842A9
:2094A0003FF4B4AEC01B810800F0030000F08080890000BF5CF82A20BFF35F8FD36823F0FC
:2094C0000043D3600AF10102032A88BFAAF103025CF82230BFF35F8FDF6827F00047DF60DA
:2094E000531C032B88BFD31E5CF82320BFF35F8FD76827F00047D7605A1C032A88BFDA1EAA
:209500005CF82230BFF35F8FDF6802F1010ABAF1030F88BFA2F1030A27F000420439DA604C
:20952000C8D10CEB8A0144E0012121E001980068BFF35F8FC16821F00041C160022003B0B7
:20954000BDE8F08FE2684B6922F440321A43E260BA067FF5FCAEE2680B6922F0406213431C
:20956000E3607A073FF5F5AEF9E600BFC7F10101A268029B22F00042002B18BF02F10042C6
:20958000A260E26842F08052E260C26B86624EF82620EFF31083012282F31088026C114430
:2095A000016483F31088002003B0BDE8F08F00BF019900283FF42AAE0968BFF35F8FCA6872
:2095C000012822F00042CA603FF420AE0AF10101032988BFAAF103015CF82120BFF35F8F9F
:2095E000D368022823F00043D3603FF40FAE481C032888BFC81E5CF8200099E72DE9F04196
:2096000090B0E8460F46054608F114002C211C461646FEF7E5FF40F66C20C2F2000001884C
:209620008DF808504A1C028040F2A510ADF8000001208DF80200080A8DF8040048F20E50FE
:20964000ADF8050000208DF803108DF80700290AADF80E00200A8DF80910290C8DF81100A3
:20966000200C8DF80A10290E8DF81200200E8DF80B108DF81300404640218DF80C708DF87E
:209680000D608DF8104000F003F810B0BDE8F081402984BF0020704770B540F2043572B68C
:2096A000C2F200052A78082A06D362B6A8880130A880002070BD00BF6A7840F2605602EBE0
:2096C0008212C2F20006324403460C46104619462246FEF7DCFE687800EB8010304480F8F8
:2096E00040406878013000F00700687028780130287062B6012070BDB0B54BF6B465C2F2C8
:209700000005044605F112002E21FEF747FF40F2A51028800120A870200A287140F2081093
:20972000C1F60130C5F8050041F60420C0F21A40C5F809001B20687340F24030C2F20000E6
:209740000268EC7028464021C5F80E20BDE8B040FFF79EBF70B5D1F808C00B680A7943EAC8
:209760000C0343EAC2620B7B42EAC3524B7B42EA83528B7B42EA435CCB7B0A7C4CEA0353D2
:20978000002A4A7C08BF43F40023002A08BF43F40033D1E9052E91F812C01A4342EA0C423E
:2097A0000E7F42EA0E024B7F42EA06328C7FCD7F42EAC32291F820604B6A002C91F828406F
:2097C00008BF42F4806242EA45220068CD6A1A430368002E08BF42F480722A4348F2830663
:2097E000C0F2040642EA041233401A43026091F83820CB6B120642EA436291F8303091F8C7
:20980000316042EA83424B6B42EA464291F83250446848F20006CCF2F8061A432640002DB9
:2098200008BF42F480323243426091F840204B6C40F20F1643EA0222C368B3431A43C2607A
:2098400091F854200B6D91F84C6043EA42028B6C002E08BF42F0800242EA0342036F4FF625
:209860000D7633401A43026791F8552091F85630D0F8906043EA420226F003031A43C0F8C5
:209880009020D0F8002D8B6D22F072021A43C0F8002D91F86020CB6D002A91F8612008BF27
:2098A00043F0400391F8621043EA0212D0F8303D42EAC10123F07B021143C0F8301D70BDBD
:2098C000B0B505F05BFA08B340F20434C2F200042078D8B140F26055C2F20005A07800EB38
:2098E0008010284490F8401005F052FA002808BFB0BD72B6A078013000F00700A0702078E7
:209900000138207062B620780028E7D1B0BD000072B600BFFEE7000040F64C30C2F200004F
:2099200001F0A8B870B542F220060446C4F2020601F054FE316811F00B0F20D0B4B30546B6
:20994000601C11D1306810F00B0F18D0306810F00B0F14D0306810F00B0F10D0306810F04F
:209960000B0FEFD10BE000BF01F038FE401BA04284BF032070BD306810F00B0FF4D130685D
:2099800010F47E000AD040F21401C2F200014A6802434A603061012070BD00BF3068C003D5
:2099A00044BF4FF480303061002070BD01F016FE032070BD70470000704700007047000059
:2099C000002804BF0120704710B590F8241011BB49F6BD11C0F6000149F6B912816049F689
:2099E0005521C0F60002C0F60001C0E9032149F65922C0F60002C169426149F6B512C0F6BA
:209A00000002826121B949F65D21C0F60001C16104468847204600210122816280F824208F
:209A2000D0E90023146824F0004423431360536813F0090F04D00221BDE8104008467047D6
:209A40008162106840F001001060BDE810400846704700007047000070470000006841F207
:209A60000041C4F20301884218BF704781B040F68840C4F20240016841F080410160006848
:209A800000F080400090009801B07047B0B5044601F0A4FD054640F20000C2F2000000789C
:209AA000611C18BF044400BF01F098FD401BA042FAD3B0BD7047000010B5044600F00CF894
:209AC000C00458BF10BD204600F0ECFC2046BDE8104000F01DBC0000D0F88C007047000071
:209AE0002DE9F04381B0016841F234120446881842F22C08D1F8B070C56AC4F202488E58BA
:209B0000D8F80090690608D516F0400105D048F24001C162204600F0D1FBE80718BF16F0F1
:209B2000010003D168040CD433E000BF20684FF48B5148F201024250204600F0A1FD68045C
:209B400027D516F4804024D02068D4F88810EA0441F00801C4F8881041F234110844C16AF4
:209B600008D401F4CD41C4F88C104FF4CD41C1620CE000BF41F202121140C4F88C10016836
:209B800021F440410160E020C4F884002046FFF793FF17F4C04F13D02068D4F8881041F086
:209BA0001001C4F88810D0F8B800C4F89000E020C4F884002046FFF77FFF0020C4F89000EE
:209BC000F8060CD52068D0F8C00000F06000C4F89400204600F038FA0020C4F89400B80640
:209BE0000CD52068D0F8D00000F00F00C4F898002046FFF75FFF0020C4F898005FEA494011
:209C00005CBF01B0BDE8F0834FF480412046C8F8001001B0BDE8F04300F034BD002804BFD1
:209C200001207047F0B599B00446D0F8840028B92020C4F88400204600F084F940F6A84076
:209C4000C4F20240016841F002010160006800F0020000900098207A002818BF0120C0050D
:209C600003F0DAFC40F20050C4F20040006820684FF48056815941F00101815101F0AEFC20
:209C8000054600BF20688159C9070FD001F0A6FC401BB0F5FA7FF5D90120E0210425C4F8C8
:209CA0008850C4F8841019B0F0BD00BFD0F8000220F4706503F0E0F840F6BF61C0F216218A
:209CC000884203D845F4007524E000BF48F2FF61C0F29331884203D845F440751AE000BF12
:209CE0004EF20011C0F2F551884213D34DF27F11C0F6F001884203D845F480750AE000BF79
:209D00004BF27F21C0F6E66188428CBF45F4A06545F480652068C0F8005203F0ADF84DF68B
:209D20008361C4F21B31A0FB01014FF0FF3000EB914021680125C1F8DC0040F20111ADF849
:209D40000E104FF4005106914FF4C3610D91202117914FF04051002000914FF480410990AE
:209D60008DF81F008DF828008DF838000F90ADF861008DF80C000290ADF81C001490129006
